{
  "_format": "hh-sol-artifact-1",
  "contractName": "ElasticModule",
  "sourceName": "src/models/ElasticModule.sol",
  "abi": [
    {
      "inputs": [
        {
          "internalType": "address",
          "name": "_uuid",
          "type": "address"
        },
        {
          "components": [
            {
              "internalType": "address",
              "name": "uuid",
              "type": "address"
            },
            {
              "internalType": "address[]",
              "name": "summoners",
              "type": "address[]"
            },
            {
              "internalType": "bool",
              "name": "summoned",
              "type": "bool"
            },
            {
              "internalType": "string",
              "name": "name",
              "type": "string"
            },
            {
              "internalType": "uint256",
              "name": "numberOfSummoners",
              "type": "uint256"
            },
            {
              "components": [
                {
                  "internalType": "address",
                  "name": "daoAddress",
                  "type": "address"
                },
                {
                  "internalType": "address",
                  "name": "balanceModelAddress",
                  "type": "address"
                },
                {
                  "internalType": "address",
                  "name": "balanceMultipliersModelAddress",
                  "type": "address"
                },
                {
                  "internalType": "address",
                  "name": "daoModelAddress",
                  "type": "address"
                },
                {
                  "internalType": "address",
                  "name": "ecosystemModelAddress",
                  "type": "address"
                },
                {
                  "internalType": "address",
                  "name": "elasticDAOFactoryAddress",
                  "type": "address"
                },
                {
                  "internalType": "address",
                  "name": "elasticModuleModelAddress",
                  "type": "address"
                },
                {
                  "internalType": "address",
                  "name": "tokenHolderModelAddress",
                  "type": "address"
                },
                {
                  "internalType": "address",
                  "name": "tokenModelAddress",
                  "type": "address"
                },
                {
                  "internalType": "address",
                  "name": "configuratorAddress",
                  "type": "address"
                },
                {
                  "internalType": "address",
                  "name": "registratorAddress",
                  "type": "address"
                },
                {
                  "internalType": "address",
                  "name": "governanceTokenAddress",
                  "type": "address"
                }
              ],
              "internalType": "struct Ecosystem.Instance",
              "name": "ecosystem",
              "type": "tuple"
            }
          ],
          "internalType": "struct DAO.Instance",
          "name": "_dao",
          "type": "tuple"
        }
      ],
      "name": "deserialize",
      "outputs": [
        {
          "components": [
            {
              "internalType": "address",
              "name": "uuid",
              "type": "address"
            },
            {
              "internalType": "string",
              "name": "name",
              "type": "string"
            },
            {
              "components": [
                {
                  "internalType": "address",
                  "name": "uuid",
                  "type": "address"
                },
                {
                  "internalType": "address[]",
                  "name": "summoners",
                  "type": "address[]"
                },
                {
                  "internalType": "bool",
                  "name": "summoned",
                  "type": "bool"
                },
                {
                  "internalType": "string",
                  "name": "name",
                  "type": "string"
                },
                {
                  "internalType": "uint256",
                  "name": "numberOfSummoners",
                  "type": "uint256"
                },
                {
                  "components": [
                    {
                      "internalType": "address",
                      "name": "daoAddress",
                      "type": "address"
                    },
                    {
                      "internalType": "address",
                      "name": "balanceModelAddress",
                      "type": "address"
                    },
                    {
                      "internalType": "address",
                      "name": "balanceMultipliersModelAddress",
                      "type": "address"
                    },
                    {
                      "internalType": "address",
                      "name": "daoModelAddress",
                      "type": "address"
                    },
                    {
                      "internalType": "address",
                      "name": "ecosystemModelAddress",
                      "type": "address"
                    },
                    {
                      "internalType": "address",
                      "name": "elasticDAOFactoryAddress",
                      "type": "address"
                    },
                    {
                      "internalType": "address",
                      "name": "elasticModuleModelAddress",
                      "type": "address"
                    },
                    {
                      "internalType": "address",
                      "name": "tokenHolderModelAddress",
                      "type": "address"
                    },
                    {
                      "internalType": "address",
                      "name": "tokenModelAddress",
                      "type": "address"
                    },
                    {
                      "internalType": "address",
                      "name": "configuratorAddress",
                      "type": "address"
                    },
                    {
                      "internalType": "address",
                      "name": "registratorAddress",
                      "type": "address"
                    },
                    {
                      "internalType": "address",
                      "name": "governanceTokenAddress",
                      "type": "address"
                    }
                  ],
                  "internalType": "struct Ecosystem.Instance",
                  "name": "ecosystem",
                  "type": "tuple"
                }
              ],
              "internalType": "struct DAO.Instance",
              "name": "dao",
              "type": "tuple"
            },
            {
              "components": [
                {
                  "internalType": "address",
                  "name": "daoAddress",
                  "type": "address"
                },
                {
                  "internalType": "address",
                  "name": "balanceModelAddress",
                  "type": "address"
                },
                {
                  "internalType": "address",
                  "name": "balanceMultipliersModelAddress",
                  "type": "address"
                },
                {
                  "internalType": "address",
                  "name": "daoModelAddress",
                  "type": "address"
                },
                {
                  "internalType": "address",
                  "name": "ecosystemModelAddress",
                  "type": "address"
                },
                {
                  "internalType": "address",
                  "name": "elasticDAOFactoryAddress",
                  "type": "address"
                },
                {
                  "internalType": "address",
                  "name": "elasticModuleModelAddress",
                  "type": "address"
                },
                {
                  "internalType": "address",
                  "name": "tokenHolderModelAddress",
                  "type": "address"
                },
                {
                  "internalType": "address",
                  "name": "tokenModelAddress",
                  "type": "address"
                },
                {
                  "internalType": "address",
                  "name": "configuratorAddress",
                  "type": "address"
                },
                {
                  "internalType": "address",
                  "name": "registratorAddress",
                  "type": "address"
                },
                {
                  "internalType": "address",
                  "name": "governanceTokenAddress",
                  "type": "address"
                }
              ],
              "internalType": "struct Ecosystem.Instance",
              "name": "ecosystem",
              "type": "tuple"
            }
          ],
          "internalType": "struct ElasticModule.Instance",
          "name": "record",
          "type": "tuple"
        }
      ],
      "stateMutability": "view",
      "type": "function"
    },
    {
      "inputs": [
        {
          "internalType": "string",
          "name": "_name",
          "type": "string"
        },
        {
          "components": [
            {
              "internalType": "address",
              "name": "uuid",
              "type": "address"
            },
            {
              "internalType": "address[]",
              "name": "summoners",
              "type": "address[]"
            },
            {
              "internalType": "bool",
              "name": "summoned",
              "type": "bool"
            },
            {
              "internalType": "string",
              "name": "name",
              "type": "string"
            },
            {
              "internalType": "uint256",
              "name": "numberOfSummoners",
              "type": "uint256"
            },
            {
              "components": [
                {
                  "internalType": "address",
                  "name": "daoAddress",
                  "type": "address"
                },
                {
                  "internalType": "address",
                  "name": "balanceModelAddress",
                  "type": "address"
                },
                {
                  "internalType": "address",
                  "name": "balanceMultipliersModelAddress",
                  "type": "address"
                },
                {
                  "internalType": "address",
                  "name": "daoModelAddress",
                  "type": "address"
                },
                {
                  "internalType": "address",
                  "name": "ecosystemModelAddress",
                  "type": "address"
                },
                {
                  "internalType": "address",
                  "name": "elasticDAOFactoryAddress",
                  "type": "address"
                },
                {
                  "internalType": "address",
                  "name": "elasticModuleModelAddress",
                  "type": "address"
                },
                {
                  "internalType": "address",
                  "name": "tokenHolderModelAddress",
                  "type": "address"
                },
                {
                  "internalType": "address",
                  "name": "tokenModelAddress",
                  "type": "address"
                },
                {
                  "internalType": "address",
                  "name": "configuratorAddress",
                  "type": "address"
                },
                {
                  "internalType": "address",
                  "name": "registratorAddress",
                  "type": "address"
                },
                {
                  "internalType": "address",
                  "name": "governanceTokenAddress",
                  "type": "address"
                }
              ],
              "internalType": "struct Ecosystem.Instance",
              "name": "ecosystem",
              "type": "tuple"
            }
          ],
          "internalType": "struct DAO.Instance",
          "name": "_dao",
          "type": "tuple"
        }
      ],
      "name": "deserializeByName",
      "outputs": [
        {
          "components": [
            {
              "internalType": "address",
              "name": "uuid",
              "type": "address"
            },
            {
              "internalType": "string",
              "name": "name",
              "type": "string"
            },
            {
              "components": [
                {
                  "internalType": "address",
                  "name": "uuid",
                  "type": "address"
                },
                {
                  "internalType": "address[]",
                  "name": "summoners",
                  "type": "address[]"
                },
                {
                  "internalType": "bool",
                  "name": "summoned",
                  "type": "bool"
                },
                {
                  "internalType": "string",
                  "name": "name",
                  "type": "string"
                },
                {
                  "internalType": "uint256",
                  "name": "numberOfSummoners",
                  "type": "uint256"
                },
                {
                  "components": [
                    {
                      "internalType": "address",
                      "name": "daoAddress",
                      "type": "address"
                    },
                    {
                      "internalType": "address",
                      "name": "balanceModelAddress",
                      "type": "address"
                    },
                    {
                      "internalType": "address",
                      "name": "balanceMultipliersModelAddress",
                      "type": "address"
                    },
                    {
                      "internalType": "address",
                      "name": "daoModelAddress",
                      "type": "address"
                    },
                    {
                      "internalType": "address",
                      "name": "ecosystemModelAddress",
                      "type": "address"
                    },
                    {
                      "internalType": "address",
                      "name": "elasticDAOFactoryAddress",
                      "type": "address"
                    },
                    {
                      "internalType": "address",
                      "name": "elasticModuleModelAddress",
                      "type": "address"
                    },
                    {
                      "internalType": "address",
                      "name": "tokenHolderModelAddress",
                      "type": "address"
                    },
                    {
                      "internalType": "address",
                      "name": "tokenModelAddress",
                      "type": "address"
                    },
                    {
                      "internalType": "address",
                      "name": "configuratorAddress",
                      "type": "address"
                    },
                    {
                      "internalType": "address",
                      "name": "registratorAddress",
                      "type": "address"
                    },
                    {
                      "internalType": "address",
                      "name": "governanceTokenAddress",
                      "type": "address"
                    }
                  ],
                  "internalType": "struct Ecosystem.Instance",
                  "name": "ecosystem",
                  "type": "tuple"
                }
              ],
              "internalType": "struct DAO.Instance",
              "name": "dao",
              "type": "tuple"
            },
            {
              "components": [
                {
                  "internalType": "address",
                  "name": "daoAddress",
                  "type": "address"
                },
                {
                  "internalType": "address",
                  "name": "balanceModelAddress",
                  "type": "address"
                },
                {
                  "internalType": "address",
                  "name": "balanceMultipliersModelAddress",
                  "type": "address"
                },
                {
                  "internalType": "address",
                  "name": "daoModelAddress",
                  "type": "address"
                },
                {
                  "internalType": "address",
                  "name": "ecosystemModelAddress",
                  "type": "address"
                },
                {
                  "internalType": "address",
                  "name": "elasticDAOFactoryAddress",
                  "type": "address"
                },
                {
                  "internalType": "address",
                  "name": "elasticModuleModelAddress",
                  "type": "address"
                },
                {
                  "internalType": "address",
                  "name": "tokenHolderModelAddress",
                  "type": "address"
                },
                {
                  "internalType": "address",
                  "name": "tokenModelAddress",
                  "type": "address"
                },
                {
                  "internalType": "address",
                  "name": "configuratorAddress",
                  "type": "address"
                },
                {
                  "internalType": "address",
                  "name": "registratorAddress",
                  "type": "address"
                },
                {
                  "internalType": "address",
                  "name": "governanceTokenAddress",
                  "type": "address"
                }
              ],
              "internalType": "struct Ecosystem.Instance",
              "name": "ecosystem",
              "type": "tuple"
            }
          ],
          "internalType": "struct ElasticModule.Instance",
          "name": "record",
          "type": "tuple"
        }
      ],
      "stateMutability": "view",
      "type": "function"
    },
    {
      "inputs": [
        {
          "internalType": "address",
          "name": "_uuid",
          "type": "address"
        },
        {
          "components": [
            {
              "internalType": "address",
              "name": "uuid",
              "type": "address"
            },
            {
              "internalType": "address[]",
              "name": "summoners",
              "type": "address[]"
            },
            {
              "internalType": "bool",
              "name": "summoned",
              "type": "bool"
            },
            {
              "internalType": "string",
              "name": "name",
              "type": "string"
            },
            {
              "internalType": "uint256",
              "name": "numberOfSummoners",
              "type": "uint256"
            },
            {
              "components": [
                {
                  "internalType": "address",
                  "name": "daoAddress",
                  "type": "address"
                },
                {
                  "internalType": "address",
                  "name": "balanceModelAddress",
                  "type": "address"
                },
                {
                  "internalType": "address",
                  "name": "balanceMultipliersModelAddress",
                  "type": "address"
                },
                {
                  "internalType": "address",
                  "name": "daoModelAddress",
                  "type": "address"
                },
                {
                  "internalType": "address",
                  "name": "ecosystemModelAddress",
                  "type": "address"
                },
                {
                  "internalType": "address",
                  "name": "elasticDAOFactoryAddress",
                  "type": "address"
                },
                {
                  "internalType": "address",
                  "name": "elasticModuleModelAddress",
                  "type": "address"
                },
                {
                  "internalType": "address",
                  "name": "tokenHolderModelAddress",
                  "type": "address"
                },
                {
                  "internalType": "address",
                  "name": "tokenModelAddress",
                  "type": "address"
                },
                {
                  "internalType": "address",
                  "name": "configuratorAddress",
                  "type": "address"
                },
                {
                  "internalType": "address",
                  "name": "registratorAddress",
                  "type": "address"
                },
                {
                  "internalType": "address",
                  "name": "governanceTokenAddress",
                  "type": "address"
                }
              ],
              "internalType": "struct Ecosystem.Instance",
              "name": "ecosystem",
              "type": "tuple"
            }
          ],
          "internalType": "struct DAO.Instance",
          "name": "_dao",
          "type": "tuple"
        }
      ],
      "name": "exists",
      "outputs": [
        {
          "internalType": "bool",
          "name": "recordExists",
          "type": "bool"
        }
      ],
      "stateMutability": "view",
      "type": "function"
    },
    {
      "inputs": [
        {
          "components": [
            {
              "internalType": "address",
              "name": "uuid",
              "type": "address"
            },
            {
              "internalType": "string",
              "name": "name",
              "type": "string"
            },
            {
              "components": [
                {
                  "internalType": "address",
                  "name": "uuid",
                  "type": "address"
                },
                {
                  "internalType": "address[]",
                  "name": "summoners",
                  "type": "address[]"
                },
                {
                  "internalType": "bool",
                  "name": "summoned",
                  "type": "bool"
                },
                {
                  "internalType": "string",
                  "name": "name",
                  "type": "string"
                },
                {
                  "internalType": "uint256",
                  "name": "numberOfSummoners",
                  "type": "uint256"
                },
                {
                  "components": [
                    {
                      "internalType": "address",
                      "name": "daoAddress",
                      "type": "address"
                    },
                    {
                      "internalType": "address",
                      "name": "balanceModelAddress",
                      "type": "address"
                    },
                    {
                      "internalType": "address",
                      "name": "balanceMultipliersModelAddress",
                      "type": "address"
                    },
                    {
                      "internalType": "address",
                      "name": "daoModelAddress",
                      "type": "address"
                    },
                    {
                      "internalType": "address",
                      "name": "ecosystemModelAddress",
                      "type": "address"
                    },
                    {
                      "internalType": "address",
                      "name": "elasticDAOFactoryAddress",
                      "type": "address"
                    },
                    {
                      "internalType": "address",
                      "name": "elasticModuleModelAddress",
                      "type": "address"
                    },
                    {
                      "internalType": "address",
                      "name": "tokenHolderModelAddress",
                      "type": "address"
                    },
                    {
                      "internalType": "address",
                      "name": "tokenModelAddress",
                      "type": "address"
                    },
                    {
                      "internalType": "address",
                      "name": "configuratorAddress",
                      "type": "address"
                    },
                    {
                      "internalType": "address",
                      "name": "registratorAddress",
                      "type": "address"
                    },
                    {
                      "internalType": "address",
                      "name": "governanceTokenAddress",
                      "type": "address"
                    }
                  ],
                  "internalType": "struct Ecosystem.Instance",
                  "name": "ecosystem",
                  "type": "tuple"
                }
              ],
              "internalType": "struct DAO.Instance",
              "name": "dao",
              "type": "tuple"
            },
            {
              "components": [
                {
                  "internalType": "address",
                  "name": "daoAddress",
                  "type": "address"
                },
                {
                  "internalType": "address",
                  "name": "balanceModelAddress",
                  "type": "address"
                },
                {
                  "internalType": "address",
                  "name": "balanceMultipliersModelAddress",
                  "type": "address"
                },
                {
                  "internalType": "address",
                  "name": "daoModelAddress",
                  "type": "address"
                },
                {
                  "internalType": "address",
                  "name": "ecosystemModelAddress",
                  "type": "address"
                },
                {
                  "internalType": "address",
                  "name": "elasticDAOFactoryAddress",
                  "type": "address"
                },
                {
                  "internalType": "address",
                  "name": "elasticModuleModelAddress",
                  "type": "address"
                },
                {
                  "internalType": "address",
                  "name": "tokenHolderModelAddress",
                  "type": "address"
                },
                {
                  "internalType": "address",
                  "name": "tokenModelAddress",
                  "type": "address"
                },
                {
                  "internalType": "address",
                  "name": "configuratorAddress",
                  "type": "address"
                },
                {
                  "internalType": "address",
                  "name": "registratorAddress",
                  "type": "address"
                },
                {
                  "internalType": "address",
                  "name": "governanceTokenAddress",
                  "type": "address"
                }
              ],
              "internalType": "struct Ecosystem.Instance",
              "name": "ecosystem",
              "type": "tuple"
            }
          ],
          "internalType": "struct ElasticModule.Instance",
          "name": "record",
          "type": "tuple"
        }
      ],
      "name": "serialize",
      "outputs": [],
      "stateMutability": "nonpayable",
      "type": "function"
    }
  ],
  "bytecode": "0x608060405234801561001057600080fd5b50610cc8806100206000396000f3fe608060405234801561001057600080fd5b506004361061004c5760003560e01c80631886b171146100515780631be2da261461007a5780636bf779f01461008d578063f9c9ccf3146100ad575b600080fd5b61006461005f366004610854565b6100c2565b6040516100719190610b71565b60405180910390f35b610064610088366004610808565b61011a565b6100a061009b366004610808565b610172565b6040516100719190610b2f565b6100c06100bb3660046108ab565b610185565b005b6100ca6103f1565b81516040516100fc916100e1918690602001610b03565b6040516020818303038152906040528051906020012061023f565b6001600160a01b031681526040810191909152602081019190915290565b6101226103f1565b6001600160a01b0383168082526040808301849052835190516101679261014c9291602001610ab1565b6040516020818303038152906040528051906020012061025d565b602082015292915050565b600061017e8383610333565b9392505050565b6101c781604001516000015182602001516040516020016101a7929190610b03565b60405160208183030381529060405280519060200120826000015161036a565b6040808201515182519151610203926101e39291602001610ab1565b604051602081830303815290604052805190602001208260200151610398565b604080820151518251915161023c9261021f9291602001610acb565b6040516020818303038152906040528051906020012060016103bc565b50565b6000818152600260205260409020546001600160a01b03165b919050565b60608160001a60f81b6001600160f81b0319166102955760405162461bcd60e51b815260040161028c90610b3a565b60405180910390fd5b60008281526001602081815260409283902080548451600294821615610100026000190190911693909304601f81018390048302840183019094528383529192908301828280156103275780601f106102fc57610100808354040283529160200191610327565b820191906000526020600020905b81548152906001019060200180831161030a57829003601f168201915b50505050509050919050565b600061017e82600001518460405160200161034f929190610acb565b604051602081830303815290604052805190602001206103dc565b60009182526002602052604090912080546001600160a01b0319166001600160a01b03909216919091179055565b600082815260016020908152604090912082516103b792840190610423565b505050565b600091825260036020526040909120805460ff1916911515919091179055565b60009081526003602052604090205460ff1690565b6040805160808101825260008152606060208201529081016104116104a1565b815260200161041e6104de565b905290565b828054600181600116156101000203166002900490600052602060002090601f016020900481019282601f1061046457805160ff1916838001178555610491565b82800160010185558215610491579182015b82811115610491578251825591602001919060010190610476565b5061049d929150610542565b5090565b6040518060c0016040528060006001600160a01b0316815260200160608152602001600015158152602001606081526020016000815260200161041e5b6040805161018081018252600080825260208201819052918101829052606081018290526080810182905260a0810182905260c0810182905260e0810182905261010081018290526101208101829052610140810182905261016081019190915290565b5b8082111561049d5760008155600101610543565b80356001600160a01b038116811461025857600080fd5b600082601f83011261057e578081fd5b813567ffffffffffffffff81111561059257fe5b60208082026105a2828201610c6e565b838152935081840185830182870184018810156105be57600080fd5b600092505b848310156105e8576105d481610557565b8252600192909201919083019083016105c3565b505050505092915050565b8035801515811461025857600080fd5b600082601f830112610613578081fd5b813567ffffffffffffffff81111561062757fe5b61063a601f8201601f1916602001610c6e565b915080825283602082850101111561065157600080fd5b8060208401602084013760009082016020015292915050565b6000610220828403121561067c578081fd5b61068660c0610c6e565b905061069182610557565b8152602082013567ffffffffffffffff808211156106ae57600080fd5b6106ba8583860161056e565b60208401526106cb604085016105f3565b604084015260608401359150808211156106e457600080fd5b506106f184828501610603565b6060830152506080820135608082015261070e8360a08401610719565b60a082015292915050565b600061018080838503121561072c578182fd5b61073581610c6e565b91505061074182610557565b815261074f60208301610557565b602082015261076060408301610557565b604082015261077160608301610557565b606082015261078260808301610557565b608082015261079360a08301610557565b60a08201526107a460c08301610557565b60c08201526107b560e08301610557565b60e08201526101006107c8818401610557565b908201526101206107da838201610557565b908201526101406107ec838201610557565b908201526101606107fe838201610557565b9082015292915050565b6000806040838503121561081a578182fd5b61082383610557565b9150602083013567ffffffffffffffff81111561083e578182fd5b61084a8582860161066a565b9150509250929050565b60008060408385031215610866578182fd5b823567ffffffffffffffff8082111561087d578384fd5b61088986838701610603565b9350602085013591508082111561089e578283fd5b5061084a8582860161066a565b6000602082840312156108bc578081fd5b813567ffffffffffffffff808211156108d3578283fd5b908301906101e082860312156108e7578283fd5b6040516080810181811083821117156108fc57fe5b60405261090883610557565b815260208301358281111561091b578485fd5b61092787828601610603565b60208301525060408301358281111561093e578485fd5b61094a8782860161066a565b60408301525061095d8660608501610719565b606082015295945050505050565b6001600160a01b03169052565b15159052565b60008151808452815b818110156109a357602081850181015186830182015201610987565b818111156109b45782602083870101525b50601f01601f19169290920160200192915050565b6109d482825161096b565b60208101516109e6602084018261096b565b5060408101516109f9604084018261096b565b506060810151610a0c606084018261096b565b506080810151610a1f608084018261096b565b5060a0810151610a3260a084018261096b565b5060c0810151610a4560c084018261096b565b5060e0810151610a5860e084018261096b565b5061010080820151610a6c8285018261096b565b505061012080820151610a818285018261096b565b505061014080820151610a968285018261096b565b505061016080820151610aab8285018261096b565b50505050565b6001600160a01b0392831681529116602082015260400190565b6001600160a01b039283168152911660208201526060604082018190526006908201526565786973747360d01b608082015260a00190565b6001600160a01b0383168152604060208201819052600090610b279083018461097e565b949350505050565b901515815260200190565b60208082526018908201527f456c617374696344414f3a205a65726f20416464726573730000000000000000604082015260600190565b6000602080835260018060a01b038085511682850152818501516101e06040860152610ba161020086018261097e565b6040870151868203601f19016060880152805184168252848101516102208684018190528151908401819052929350909161024084019186019087905b80821015610c0057825187168452928701929187019160019190910190610bde565b50505060408201519450610c176040840186610978565b606082015194508281036060840152610c30818661097e565b9450506080810151608083015260a0810151925050610c5260a08201836109c9565b50506060840151610c6660808501826109c9565b509392505050565b60405181810167ffffffffffffffff81118282101715610c8a57fe5b60405291905056fea2646970667358221220203606662eef0ba4fa9da7b7e3f19090318593c7c041b4e3670087016f60408664736f6c63430007020033",
  "linkReferences": {},
  "deployedLinkReferences": {}
}