{
  "_format": "hh-sol-artifact-1",
  "contractName": "ElasticModule",
  "sourceName": "src/models/ElasticModule.sol",
  "abi": [
    {
      "inputs": [
        {
          "internalType": "address",
          "name": "_uuid",
          "type": "address"
        },
        {
          "components": [
            {
              "internalType": "address",
              "name": "uuid",
              "type": "address"
            },
            {
              "internalType": "address[]",
              "name": "summoners",
              "type": "address[]"
            },
            {
              "internalType": "bool",
              "name": "summoned",
              "type": "bool"
            },
            {
              "internalType": "string",
              "name": "name",
              "type": "string"
            },
            {
              "internalType": "uint256",
              "name": "numberOfSummoners",
              "type": "uint256"
            },
            {
              "components": [
                {
                  "internalType": "address",
                  "name": "daoAddress",
                  "type": "address"
                },
                {
                  "internalType": "address",
                  "name": "balanceModelAddress",
                  "type": "address"
                },
                {
                  "internalType": "address",
                  "name": "balanceMultipliersModelAddress",
                  "type": "address"
                },
                {
                  "internalType": "address",
                  "name": "daoModelAddress",
                  "type": "address"
                },
                {
                  "internalType": "address",
                  "name": "ecosystemModelAddress",
                  "type": "address"
                },
                {
                  "internalType": "address",
                  "name": "elasticDAOFactoryAddress",
                  "type": "address"
                },
                {
                  "internalType": "address",
                  "name": "elasticModuleModelAddress",
                  "type": "address"
                },
                {
                  "internalType": "address",
                  "name": "tokenHolderModelAddress",
                  "type": "address"
                },
                {
                  "internalType": "address",
                  "name": "tokenModelAddress",
                  "type": "address"
                },
                {
                  "internalType": "address",
                  "name": "configuratorAddress",
                  "type": "address"
                },
                {
                  "internalType": "address",
                  "name": "registratorAddress",
                  "type": "address"
                },
                {
                  "internalType": "address",
                  "name": "governanceTokenAddress",
                  "type": "address"
                }
              ],
              "internalType": "struct Ecosystem.Instance",
              "name": "ecosystem",
              "type": "tuple"
            }
          ],
          "internalType": "struct DAO.Instance",
          "name": "_dao",
          "type": "tuple"
        }
      ],
      "name": "deserialize",
      "outputs": [
        {
          "components": [
            {
              "internalType": "address",
              "name": "uuid",
              "type": "address"
            },
            {
              "internalType": "string",
              "name": "name",
              "type": "string"
            },
            {
              "components": [
                {
                  "internalType": "address",
                  "name": "uuid",
                  "type": "address"
                },
                {
                  "internalType": "address[]",
                  "name": "summoners",
                  "type": "address[]"
                },
                {
                  "internalType": "bool",
                  "name": "summoned",
                  "type": "bool"
                },
                {
                  "internalType": "string",
                  "name": "name",
                  "type": "string"
                },
                {
                  "internalType": "uint256",
                  "name": "numberOfSummoners",
                  "type": "uint256"
                },
                {
                  "components": [
                    {
                      "internalType": "address",
                      "name": "daoAddress",
                      "type": "address"
                    },
                    {
                      "internalType": "address",
                      "name": "balanceModelAddress",
                      "type": "address"
                    },
                    {
                      "internalType": "address",
                      "name": "balanceMultipliersModelAddress",
                      "type": "address"
                    },
                    {
                      "internalType": "address",
                      "name": "daoModelAddress",
                      "type": "address"
                    },
                    {
                      "internalType": "address",
                      "name": "ecosystemModelAddress",
                      "type": "address"
                    },
                    {
                      "internalType": "address",
                      "name": "elasticDAOFactoryAddress",
                      "type": "address"
                    },
                    {
                      "internalType": "address",
                      "name": "elasticModuleModelAddress",
                      "type": "address"
                    },
                    {
                      "internalType": "address",
                      "name": "tokenHolderModelAddress",
                      "type": "address"
                    },
                    {
                      "internalType": "address",
                      "name": "tokenModelAddress",
                      "type": "address"
                    },
                    {
                      "internalType": "address",
                      "name": "configuratorAddress",
                      "type": "address"
                    },
                    {
                      "internalType": "address",
                      "name": "registratorAddress",
                      "type": "address"
                    },
                    {
                      "internalType": "address",
                      "name": "governanceTokenAddress",
                      "type": "address"
                    }
                  ],
                  "internalType": "struct Ecosystem.Instance",
                  "name": "ecosystem",
                  "type": "tuple"
                }
              ],
              "internalType": "struct DAO.Instance",
              "name": "dao",
              "type": "tuple"
            },
            {
              "components": [
                {
                  "internalType": "address",
                  "name": "daoAddress",
                  "type": "address"
                },
                {
                  "internalType": "address",
                  "name": "balanceModelAddress",
                  "type": "address"
                },
                {
                  "internalType": "address",
                  "name": "balanceMultipliersModelAddress",
                  "type": "address"
                },
                {
                  "internalType": "address",
                  "name": "daoModelAddress",
                  "type": "address"
                },
                {
                  "internalType": "address",
                  "name": "ecosystemModelAddress",
                  "type": "address"
                },
                {
                  "internalType": "address",
                  "name": "elasticDAOFactoryAddress",
                  "type": "address"
                },
                {
                  "internalType": "address",
                  "name": "elasticModuleModelAddress",
                  "type": "address"
                },
                {
                  "internalType": "address",
                  "name": "tokenHolderModelAddress",
                  "type": "address"
                },
                {
                  "internalType": "address",
                  "name": "tokenModelAddress",
                  "type": "address"
                },
                {
                  "internalType": "address",
                  "name": "configuratorAddress",
                  "type": "address"
                },
                {
                  "internalType": "address",
                  "name": "registratorAddress",
                  "type": "address"
                },
                {
                  "internalType": "address",
                  "name": "governanceTokenAddress",
                  "type": "address"
                }
              ],
              "internalType": "struct Ecosystem.Instance",
              "name": "ecosystem",
              "type": "tuple"
            }
          ],
          "internalType": "struct ElasticModule.Instance",
          "name": "record",
          "type": "tuple"
        }
      ],
      "stateMutability": "view",
      "type": "function"
    },
    {
      "inputs": [
        {
          "internalType": "address",
          "name": "_uuid",
          "type": "address"
        },
        {
          "components": [
            {
              "internalType": "address",
              "name": "uuid",
              "type": "address"
            },
            {
              "internalType": "address[]",
              "name": "summoners",
              "type": "address[]"
            },
            {
              "internalType": "bool",
              "name": "summoned",
              "type": "bool"
            },
            {
              "internalType": "string",
              "name": "name",
              "type": "string"
            },
            {
              "internalType": "uint256",
              "name": "numberOfSummoners",
              "type": "uint256"
            },
            {
              "components": [
                {
                  "internalType": "address",
                  "name": "daoAddress",
                  "type": "address"
                },
                {
                  "internalType": "address",
                  "name": "balanceModelAddress",
                  "type": "address"
                },
                {
                  "internalType": "address",
                  "name": "balanceMultipliersModelAddress",
                  "type": "address"
                },
                {
                  "internalType": "address",
                  "name": "daoModelAddress",
                  "type": "address"
                },
                {
                  "internalType": "address",
                  "name": "ecosystemModelAddress",
                  "type": "address"
                },
                {
                  "internalType": "address",
                  "name": "elasticDAOFactoryAddress",
                  "type": "address"
                },
                {
                  "internalType": "address",
                  "name": "elasticModuleModelAddress",
                  "type": "address"
                },
                {
                  "internalType": "address",
                  "name": "tokenHolderModelAddress",
                  "type": "address"
                },
                {
                  "internalType": "address",
                  "name": "tokenModelAddress",
                  "type": "address"
                },
                {
                  "internalType": "address",
                  "name": "configuratorAddress",
                  "type": "address"
                },
                {
                  "internalType": "address",
                  "name": "registratorAddress",
                  "type": "address"
                },
                {
                  "internalType": "address",
                  "name": "governanceTokenAddress",
                  "type": "address"
                }
              ],
              "internalType": "struct Ecosystem.Instance",
              "name": "ecosystem",
              "type": "tuple"
            }
          ],
          "internalType": "struct DAO.Instance",
          "name": "_dao",
          "type": "tuple"
        }
      ],
      "name": "exists",
      "outputs": [
        {
          "internalType": "bool",
          "name": "recordExists",
          "type": "bool"
        }
      ],
      "stateMutability": "view",
      "type": "function"
    },
    {
      "inputs": [
        {
          "components": [
            {
              "internalType": "address",
              "name": "uuid",
              "type": "address"
            },
            {
              "internalType": "string",
              "name": "name",
              "type": "string"
            },
            {
              "components": [
                {
                  "internalType": "address",
                  "name": "uuid",
                  "type": "address"
                },
                {
                  "internalType": "address[]",
                  "name": "summoners",
                  "type": "address[]"
                },
                {
                  "internalType": "bool",
                  "name": "summoned",
                  "type": "bool"
                },
                {
                  "internalType": "string",
                  "name": "name",
                  "type": "string"
                },
                {
                  "internalType": "uint256",
                  "name": "numberOfSummoners",
                  "type": "uint256"
                },
                {
                  "components": [
                    {
                      "internalType": "address",
                      "name": "daoAddress",
                      "type": "address"
                    },
                    {
                      "internalType": "address",
                      "name": "balanceModelAddress",
                      "type": "address"
                    },
                    {
                      "internalType": "address",
                      "name": "balanceMultipliersModelAddress",
                      "type": "address"
                    },
                    {
                      "internalType": "address",
                      "name": "daoModelAddress",
                      "type": "address"
                    },
                    {
                      "internalType": "address",
                      "name": "ecosystemModelAddress",
                      "type": "address"
                    },
                    {
                      "internalType": "address",
                      "name": "elasticDAOFactoryAddress",
                      "type": "address"
                    },
                    {
                      "internalType": "address",
                      "name": "elasticModuleModelAddress",
                      "type": "address"
                    },
                    {
                      "internalType": "address",
                      "name": "tokenHolderModelAddress",
                      "type": "address"
                    },
                    {
                      "internalType": "address",
                      "name": "tokenModelAddress",
                      "type": "address"
                    },
                    {
                      "internalType": "address",
                      "name": "configuratorAddress",
                      "type": "address"
                    },
                    {
                      "internalType": "address",
                      "name": "registratorAddress",
                      "type": "address"
                    },
                    {
                      "internalType": "address",
                      "name": "governanceTokenAddress",
                      "type": "address"
                    }
                  ],
                  "internalType": "struct Ecosystem.Instance",
                  "name": "ecosystem",
                  "type": "tuple"
                }
              ],
              "internalType": "struct DAO.Instance",
              "name": "dao",
              "type": "tuple"
            },
            {
              "components": [
                {
                  "internalType": "address",
                  "name": "daoAddress",
                  "type": "address"
                },
                {
                  "internalType": "address",
                  "name": "balanceModelAddress",
                  "type": "address"
                },
                {
                  "internalType": "address",
                  "name": "balanceMultipliersModelAddress",
                  "type": "address"
                },
                {
                  "internalType": "address",
                  "name": "daoModelAddress",
                  "type": "address"
                },
                {
                  "internalType": "address",
                  "name": "ecosystemModelAddress",
                  "type": "address"
                },
                {
                  "internalType": "address",
                  "name": "elasticDAOFactoryAddress",
                  "type": "address"
                },
                {
                  "internalType": "address",
                  "name": "elasticModuleModelAddress",
                  "type": "address"
                },
                {
                  "internalType": "address",
                  "name": "tokenHolderModelAddress",
                  "type": "address"
                },
                {
                  "internalType": "address",
                  "name": "tokenModelAddress",
                  "type": "address"
                },
                {
                  "internalType": "address",
                  "name": "configuratorAddress",
                  "type": "address"
                },
                {
                  "internalType": "address",
                  "name": "registratorAddress",
                  "type": "address"
                },
                {
                  "internalType": "address",
                  "name": "governanceTokenAddress",
                  "type": "address"
                }
              ],
              "internalType": "struct Ecosystem.Instance",
              "name": "ecosystem",
              "type": "tuple"
            }
          ],
          "internalType": "struct ElasticModule.Instance",
          "name": "record",
          "type": "tuple"
        }
      ],
      "name": "serialize",
      "outputs": [],
      "stateMutability": "nonpayable",
      "type": "function"
    }
  ],
  "bytecode": "0x608060405234801561001057600080fd5b50610afa806100206000396000f3fe608060405234801561001057600080fd5b50600436106100415760003560e01c80631be2da26146100465780636bf779f01461006f578063f9c9ccf31461008f575b600080fd5b61005961005436600461067c565b6100a4565b60405161006691906109a3565b60405180910390f35b61008261007d36600461067c565b6100fc565b6040516100669190610961565b6100a261009d3660046106c8565b61010f565b005b6100ac6102f8565b6001600160a01b0383168082526040808301849052835190516100f1926100d692916020016108ce565b60405160208183030381529060405280519060200120610187565b602082015292915050565b6000610108838361025e565b9392505050565b604080820151518251915161014b9261012b9291602001610920565b604051602081830303815290604052805190602001208260000151610295565b60408082015151825191516101849261016792916020016108e8565b6040516020818303038152906040528051906020012060016102c3565b50565b60608160001a60f81b6001600160f81b0319166101bf5760405162461bcd60e51b81526004016101b69061096c565b60405180910390fd5b60008281526001602081815260409283902080548451600294821615610100026000190190911693909304601f81018390048302840183019094528383529192908301828280156102515780601f1061022657610100808354040283529160200191610251565b820191906000526020600020905b81548152906001019060200180831161023457829003601f168201915b505050505090505b919050565b600061010882600001518460405160200161027a9291906108e8565b604051602081830303815290604052805190602001206102e3565b60009182526002602052604090912080546001600160a01b0319166001600160a01b03909216919091179055565b600091825260036020526040909120805460ff1916911515919091179055565b60009081526003602052604090205460ff1690565b60408051608081018252600081526060602082015290810161031861032a565b8152602001610325610367565b905290565b6040518060c0016040528060006001600160a01b031681526020016060815260200160001515815260200160608152602001600081526020016103255b6040805161018081018252600080825260208201819052918101829052606081018290526080810182905260a0810182905260c0810182905260e0810182905261010081018290526101208101829052610140810182905261016081019190915290565b80356001600160a01b038116811461025957600080fd5b600082601f8301126103f2578081fd5b813567ffffffffffffffff81111561040657fe5b6020808202610416828201610aa0565b8381529350818401858301828701840188101561043257600080fd5b600092505b8483101561045c57610448816103cb565b825260019290920191908301908301610437565b505050505092915050565b8035801515811461025957600080fd5b600082601f830112610487578081fd5b813567ffffffffffffffff81111561049b57fe5b6104ae601f8201601f1916602001610aa0565b91508082528360208285010111156104c557600080fd5b8060208401602084013760009082016020015292915050565b600061022082840312156104f0578081fd5b6104fa60c0610aa0565b9050610505826103cb565b8152602082013567ffffffffffffffff8082111561052257600080fd5b61052e858386016103e2565b602084015261053f60408501610467565b6040840152606084013591508082111561055857600080fd5b5061056584828501610477565b606083015250608082013560808201526105828360a0840161058d565b60a082015292915050565b60006101808083850312156105a0578182fd5b6105a981610aa0565b9150506105b5826103cb565b81526105c3602083016103cb565b60208201526105d4604083016103cb565b60408201526105e5606083016103cb565b60608201526105f6608083016103cb565b608082015261060760a083016103cb565b60a082015261061860c083016103cb565b60c082015261062960e083016103cb565b60e082015261010061063c8184016103cb565b9082015261012061064e8382016103cb565b908201526101406106608382016103cb565b908201526101606106728382016103cb565b9082015292915050565b6000806040838503121561068e578182fd5b610697836103cb565b9150602083013567ffffffffffffffff8111156106b2578182fd5b6106be858286016104de565b9150509250929050565b6000602082840312156106d9578081fd5b813567ffffffffffffffff808211156106f0578283fd5b908301906101e08286031215610704578283fd5b60405160808101818110838211171561071957fe5b604052610725836103cb565b8152602083013582811115610738578485fd5b61074487828601610477565b60208301525060408301358281111561075b578485fd5b610767878286016104de565b60408301525061077a866060850161058d565b606082015295945050505050565b6001600160a01b03169052565b15159052565b60008151808452815b818110156107c0576020818501810151868301820152016107a4565b818111156107d15782602083870101525b50601f01601f19169290920160200192915050565b6107f1828251610788565b60208101516108036020840182610788565b5060408101516108166040840182610788565b5060608101516108296060840182610788565b50608081015161083c6080840182610788565b5060a081015161084f60a0840182610788565b5060c081015161086260c0840182610788565b5060e081015161087560e0840182610788565b506101008082015161088982850182610788565b50506101208082015161089e82850182610788565b5050610140808201516108b382850182610788565b5050610160808201516108c882850182610788565b50505050565b6001600160a01b0392831681529116602082015260400190565b6001600160a01b039283168152911660208201526060604082018190526006908201526565786973747360d01b608082015260a00190565b6001600160a01b03928316815291166020820152606060408201819052600f908201526e636f6e74726163744164647265737360881b608082015260a00190565b901515815260200190565b60208082526018908201527f456c617374696344414f3a205a65726f20416464726573730000000000000000604082015260600190565b6000602080835260018060a01b038085511682850152818501516101e060408601526109d361020086018261079b565b6040870151868203601f19016060880152805184168252848101516102208684018190528151908401819052929350909161024084019186019087905b80821015610a3257825187168452928701929187019160019190910190610a10565b50505060408201519450610a496040840186610795565b606082015194508281036060840152610a62818661079b565b9450506080810151608083015260a0810151925050610a8460a08201836107e6565b50506060840151610a9860808501826107e6565b509392505050565b60405181810167ffffffffffffffff81118282101715610abc57fe5b60405291905056fea26469706673582212204c7d98059afacdf420e4993aa362f78d09e4f1eb5a66b4463815185dba14b98964736f6c63430007020033",
  "linkReferences": {},
  "deployedLinkReferences": {}
}