{
  "_format": "hh-sol-artifact-1",
  "contractName": "InformationalVote",
  "sourceName": "src/modules/InformationalVote/models/Vote.sol",
  "abi": [
    {
      "inputs": [
        {
          "internalType": "address",
          "name": "_uuid",
          "type": "address"
        },
        {
          "internalType": "uint256",
          "name": "_index",
          "type": "uint256"
        }
      ],
      "name": "deserialize",
      "outputs": [
        {
          "components": [
            {
              "internalType": "address",
              "name": "uuid",
              "type": "address"
            },
            {
              "internalType": "address",
              "name": "author",
              "type": "address"
            },
            {
              "internalType": "address",
              "name": "votingToken",
              "type": "address"
            },
            {
              "internalType": "bool",
              "name": "hasPenalty",
              "type": "bool"
            },
            {
              "internalType": "bool",
              "name": "hasReachedQuorum",
              "type": "bool"
            },
            {
              "internalType": "bool",
              "name": "isActive",
              "type": "bool"
            },
            {
              "internalType": "bool",
              "name": "isApproved",
              "type": "bool"
            },
            {
              "internalType": "string",
              "name": "proposal",
              "type": "string"
            },
            {
              "internalType": "uint256",
              "name": "abstainLambda",
              "type": "uint256"
            },
            {
              "internalType": "uint256",
              "name": "approval",
              "type": "uint256"
            },
            {
              "internalType": "uint256",
              "name": "endOnBlock",
              "type": "uint256"
            },
            {
              "internalType": "uint256",
              "name": "index",
              "type": "uint256"
            },
            {
              "internalType": "uint256",
              "name": "maxSharesPerTokenHolder",
              "type": "uint256"
            },
            {
              "internalType": "uint256",
              "name": "minBlocksForPenalty",
              "type": "uint256"
            },
            {
              "internalType": "uint256",
              "name": "minPenaltyInShares",
              "type": "uint256"
            },
            {
              "internalType": "uint256",
              "name": "minRewardInShares",
              "type": "uint256"
            },
            {
              "internalType": "uint256",
              "name": "noLambda",
              "type": "uint256"
            },
            {
              "internalType": "uint256",
              "name": "penalty",
              "type": "uint256"
            },
            {
              "internalType": "uint256",
              "name": "quorum",
              "type": "uint256"
            },
            {
              "internalType": "uint256",
              "name": "quorumLambda",
              "type": "uint256"
            },
            {
              "internalType": "uint256",
              "name": "reward",
              "type": "uint256"
            },
            {
              "internalType": "uint256",
              "name": "startOnBlock",
              "type": "uint256"
            },
            {
              "internalType": "uint256",
              "name": "yesLambda",
              "type": "uint256"
            }
          ],
          "internalType": "struct InformationalVote.Instance",
          "name": "record",
          "type": "tuple"
        }
      ],
      "stateMutability": "view",
      "type": "function"
    },
    {
      "inputs": [
        {
          "internalType": "address",
          "name": "_uuid",
          "type": "address"
        },
        {
          "internalType": "uint256",
          "name": "_index",
          "type": "uint256"
        }
      ],
      "name": "exists",
      "outputs": [
        {
          "internalType": "bool",
          "name": "recordExists",
          "type": "bool"
        }
      ],
      "stateMutability": "view",
      "type": "function"
    },
    {
      "inputs": [
        {
          "components": [
            {
              "internalType": "address",
              "name": "uuid",
              "type": "address"
            },
            {
              "internalType": "address",
              "name": "author",
              "type": "address"
            },
            {
              "internalType": "address",
              "name": "votingToken",
              "type": "address"
            },
            {
              "internalType": "bool",
              "name": "hasPenalty",
              "type": "bool"
            },
            {
              "internalType": "bool",
              "name": "hasReachedQuorum",
              "type": "bool"
            },
            {
              "internalType": "bool",
              "name": "isActive",
              "type": "bool"
            },
            {
              "internalType": "bool",
              "name": "isApproved",
              "type": "bool"
            },
            {
              "internalType": "string",
              "name": "proposal",
              "type": "string"
            },
            {
              "internalType": "uint256",
              "name": "abstainLambda",
              "type": "uint256"
            },
            {
              "internalType": "uint256",
              "name": "approval",
              "type": "uint256"
            },
            {
              "internalType": "uint256",
              "name": "endOnBlock",
              "type": "uint256"
            },
            {
              "internalType": "uint256",
              "name": "index",
              "type": "uint256"
            },
            {
              "internalType": "uint256",
              "name": "maxSharesPerTokenHolder",
              "type": "uint256"
            },
            {
              "internalType": "uint256",
              "name": "minBlocksForPenalty",
              "type": "uint256"
            },
            {
              "internalType": "uint256",
              "name": "minPenaltyInShares",
              "type": "uint256"
            },
            {
              "internalType": "uint256",
              "name": "minRewardInShares",
              "type": "uint256"
            },
            {
              "internalType": "uint256",
              "name": "noLambda",
              "type": "uint256"
            },
            {
              "internalType": "uint256",
              "name": "penalty",
              "type": "uint256"
            },
            {
              "internalType": "uint256",
              "name": "quorum",
              "type": "uint256"
            },
            {
              "internalType": "uint256",
              "name": "quorumLambda",
              "type": "uint256"
            },
            {
              "internalType": "uint256",
              "name": "reward",
              "type": "uint256"
            },
            {
              "internalType": "uint256",
              "name": "startOnBlock",
              "type": "uint256"
            },
            {
              "internalType": "uint256",
              "name": "yesLambda",
              "type": "uint256"
            }
          ],
          "internalType": "struct InformationalVote.Instance",
          "name": "record",
          "type": "tuple"
        }
      ],
      "name": "serialize",
      "outputs": [],
      "stateMutability": "nonpayable",
      "type": "function"
    }
  ],
  "bytecode": "0x608060405234801561001057600080fd5b50611615806100206000396000f3fe608060405234801561001057600080fd5b50600436106100415760003560e01c806348a7e8911461004657806356b77dc61461006f578063ed2933ed14610084575b600080fd5b610059610054366004610cb9565b6100a4565b604051610066919061144f565b60405180910390f35b61008261007d366004610ce2565b6103b1565b005b610097610092366004610cb9565b6108fd565b6040516100669190610f16565b6100ac610ac7565b61016081018290526001600160a01b03831681526100ca8383610910565b156103ab5761010083836040516020016100e5929190610f90565b60405160208183030381529060405280519060200120610928565b61010082015260405161011d906100e590859085906020016113a6565b6101208201526040516101559061013a908590859060200161107b565b6040516020818303038152906040528051906020012061093d565b6001600160a01b031660208083019190915260405161017c916100e5918691869101611332565b6101408201526040516101b490610199908590859060200161136c565b60405160208183030381529060405280519060200120610958565b151560608201526040516101d290610199908590859060200161103b565b151560808201526040516101f0906101999085908590602001611003565b151560a082015260405161020e906101999085908590602001611196565b151560c082015260405161022c906100e59085908590602001611402565b610180820152604051610249906100e590859085906020016112b8565b6101a0820152604051610262906100e5906020016113de565b6101c082015260405161027b906100e59060200161127b565b6101e0820152604051610298906100e5908590859060200161115e565b6102008201526040516102b5906100e590859085906020016111d0565b6102208201526040516102ed906102d29085908590602001611207565b6040516020818303038152906040528051906020012061096d565b60e0820152604051610309906100e59085908590602001610fcd565b610240820152604051610326906100e5908590859060200161123f565b610260820152604051610343906100e590859085906020016110b1565b610280820152604051610360906100e590859085906020016110e7565b6102a082015260405161037d9061013a9085908590602001611123565b6001600160a01b0316604080830191909152516103a4906100e59085908590602001610f57565b6102c08201525b92915050565b80516101608201516040516103ee926103ce92909160200161107b565b604051602081830303815290604052805190602001208260200151610a43565b805161016082015160405161042b9261040b929091602001611123565b604051602081830303815290604052805190602001208260400151610a43565b80516101608201516040516104689261044892909160200161136c565b604051602081830303815290604052805190602001208260600151610a71565b80516101608201516040516104a59261048592909160200161103b565b604051602081830303815290604052805190602001208260800151610a71565b80516101608201516040516104e2926104c2929091602001611003565b604051602081830303815290604052805190602001208260a00151610a71565b805161016082015160405161051f926104ff929091602001611196565b604051602081830303815290604052805190602001208260c00151610a71565b805161016082015160405161055c9261053c929091602001611207565b604051602081830303815290604052805190602001208260e00151610a91565b805161016082015160405161059a92610579929091602001610f90565b60405160208183030381529060405280519060200120826101000151610ab5565b80516101608201516040516105d8926105b79290916020016113a6565b60405160208183030381529060405280519060200120826101200151610ab5565b8051610160820151604051610616926105f5929091602001611332565b60405160208183030381529060405280519060200120826101400151610ab5565b805161016082015160405161065492610633929091602001611402565b60405160208183030381529060405280519060200120826101800151610ab5565b8051610160820151604051610692926106719290916020016112b8565b60405160208183030381529060405280519060200120826101a00151610ab5565b80516101608201516040516106d0926106af9290916020016113f0565b60405160208183030381529060405280519060200120826101c00151610ab5565b805161016082015160405161070e926106ed92909160200161128d565b60405160208183030381529060405280519060200120826101e00151610ab5565b805161016082015160405161074c9261072b92909160200161115e565b60405160208183030381529060405280519060200120826102000151610ab5565b805161016082015160405161078a926107699290916020016111d0565b60405160208183030381529060405280519060200120826102200151610ab5565b80516101608201516040516107c8926107a7929091602001610fcd565b60405160208183030381529060405280519060200120826102400151610ab5565b8051610160820151604051610806926107e592909160200161123f565b60405160208183030381529060405280519060200120826102600151610ab5565b8051610160820151604051610844926108239290916020016110b1565b60405160208183030381529060405280519060200120826102800151610ab5565b8051610160820151604051610882926108619290916020016110e7565b60405160208183030381529060405280519060200120826102a00151610ab5565b80516101608201516040516108c09261089f929091602001610f57565b60405160208183030381529060405280519060200120826102c00151610ab5565b80516101608201516040516108fa926108dd929091602001610f21565b604051602081830303815290604052805190602001206001610a71565b50565b60006109098383610910565b9392505050565b60006109098383604051602001610199929190610f21565b6000818152602081905260409020545b919050565b6000908152600260205260409020546001600160a01b031690565b60009081526003602052604090205460ff1690565b60608160001a60f81b6001600160f81b0319166109a55760405162461bcd60e51b815260040161099c906112fb565b60405180910390fd5b60008281526001602081815260409283902080548451600294821615610100026000190190911693909304601f8101839004830284018301909452838352919290830182828015610a375780601f10610a0c57610100808354040283529160200191610a37565b820191906000526020600020905b815481529060010190602001808311610a1a57829003601f168201915b50505050509050919050565b60009182526002602052604090912080546001600160a01b0319166001600160a01b03909216919091179055565b600091825260036020526040909120805460ff1916911515919091179055565b60008281526001602090815260409091208251610ab092840190610b98565b505050565b60009182526020829052604090912055565b604051806102e0016040528060006001600160a01b0316815260200160006001600160a01b0316815260200160006001600160a01b03168152602001600015158152602001600015158152602001600015158152602001600015158152602001606081526020016000815260200160008152602001600081526020016000815260200160008152602001600081526020016000815260200160008152602001600081526020016000815260200160008152602001600081526020016000815260200160008152602001600081525090565b828054600181600116156101000203166002900490600052602060002090601f016020900481019282601f10610bd957805160ff1916838001178555610c06565b82800160010185558215610c06579182015b82811115610c06578251825591602001919060010190610beb565b50610c12929150610c16565b5090565b5b80821115610c125760008155600101610c17565b80356001600160a01b038116811461093857600080fd5b8035801515811461093857600080fd5b600082601f830112610c62578081fd5b813567ffffffffffffffff811115610c7657fe5b610c89601f8201601f19166020016115bb565b9150808252836020828501011115610ca057600080fd5b8060208401602084013760009082016020015292915050565b60008060408385031215610ccb578182fd5b610cd483610c2b565b946020939093013593505050565b600060208284031215610cf3578081fd5b813567ffffffffffffffff80821115610d0a578283fd5b81840191506102e0808387031215610d20578384fd5b610d29816115bb565b9050610d3483610c2b565b8152610d4260208401610c2b565b6020820152610d5360408401610c2b565b6040820152610d6460608401610c42565b6060820152610d7560808401610c42565b6080820152610d8660a08401610c42565b60a0820152610d9760c08401610c42565b60c082015260e083013582811115610dad578485fd5b610db987828601610c52565b60e083015250610100838101359082015261012080840135908201526101408084013590820152610160808401359082015261018080840135908201526101a080840135908201526101c080840135908201526101e08084013590820152610200808401359082015261022080840135908201526102408084013590820152610260808401359082015261028080840135908201526102a080840135908201526102c09283013592810192909252509392505050565b6001600160a01b03169052565b15159052565b60008151808452815b81811015610ea757602081850181015186830182015201610e8b565b81811115610eb85782602083870101525b50601f01601f19169290920160200192915050565b60118152706d696e526577617264496e53686172657360781b602082015260400190565b60128152716d696e50656e616c7479496e53686172657360701b602082015260400190565b901515815260200190565b60608082526006908201526565786973747360d01b60808201526001600160a01b03929092166020830152604082015260a00190565b6060808252600990820152687965734c616d62646160b81b60808201526001600160a01b03929092166020830152604082015260a00190565b6060808252600d908201526c6162737461696e4c616d62646160981b60808201526001600160a01b03929092166020830152604082015260a00190565b60608082526006908201526571756f72756d60d01b60808201526001600160a01b03929092166020830152604082015260a00190565b606080825260089082015267697341637469766560c01b60808201526001600160a01b03929092166020830152604082015260a00190565b60608082526010908201526f6861735265616368656451756f72756d60801b60808201526001600160a01b03929092166020830152604082015260a00190565b60608082526006908201526530baba3437b960d11b60808201526001600160a01b03929092166020830152604082015260a00190565b6060808252600690820152651c995dd85c9960d21b60808201526001600160a01b03929092166020830152604082015260a00190565b6060808252600c908201526b73746172744f6e426c6f636b60a01b60808201526001600160a01b03929092166020830152604082015260a00190565b6060808252600b908201526a3b37ba34b733aa37b5b2b760a91b60808201526001600160a01b03929092166020830152604082015260a00190565b6060808252600890820152676e6f4c616d62646160c01b60808201526001600160a01b03929092166020830152604082015260a00190565b6060808252600a90820152691a5cd05c1c1c9bdd995960b21b60808201526001600160a01b03929092166020830152604082015260a00190565b60608082526007908201526670656e616c747960c81b60808201526001600160a01b03929092166020830152604082015260a00190565b6060808252600890820152671c1c9bdc1bdcd85b60c21b60808201526001600160a01b03929092166020830152604082015260a00190565b6060808252600c908201526b71756f72756d4c616d62646160a01b60808201526001600160a01b03929092166020830152604082015260a00190565b6000602082526103ab60208301610ecd565b60006060825261129f60608301610ecd565b6001600160a01b03949094166020830152506040015290565b6060808252601390820152726d696e426c6f636b73466f7250656e616c747960681b60808201526001600160a01b03929092166020830152604082015260a00190565b60208082526018908201527f456c617374696344414f3a205a65726f20416464726573730000000000000000604082015260600190565b6060808252600a9082015269656e644f6e426c6f636b60b01b60808201526001600160a01b03929092166020830152604082015260a00190565b6060808252600a908201526968617350656e616c747960b01b60808201526001600160a01b03929092166020830152604082015260a00190565b606080825260089082015267185c1c1c9bdd985b60c21b60808201526001600160a01b03929092166020830152604082015260a00190565b6000602082526103ab60208301610ef1565b60006060825261129f60608301610ef1565b60608082526017908201527f6d6178536861726573506572546f6b656e486f6c64657200000000000000000060808201526001600160a01b03929092166020830152604082015260a00190565b600060208252611463602083018451610e6f565b60208301516114756040840182610e6f565b5060408301516114886060840182610e6f565b50606083015161149b6080840182610e7c565b5060808301516114ae60a0840182610e7c565b5060a08301516114c160c0840182610e7c565b5060c08301516114d460e0840182610e7c565b5060e08301516102e061010081818601526114f3610300860184610e82565b90860151610120868101919091528601516101408087019190915286015161016080870191909152860151610180808701919091528601516101a0808701919091528601516101c0808701919091528601516101e08087019190915286015161020080870191909152860151610220808701919091528601516102408087019190915286015161026080870191909152860151610280808701919091528601516102a0808701919091528601516102c080870191909152909501519301929092525090919050565b60405181810167ffffffffffffffff811182821017156115d757fe5b60405291905056fea2646970667358221220c89ebbbffa5a3810c164cbccfb39ab2347c17b81e17154ceb369054cae2bf90664736f6c63430007020033",
  "linkReferences": {},
  "deployedLinkReferences": {}
}