{
  "_format": "hh-sol-artifact-1",
  "contractName": "ElasticDAOFactory",
  "sourceName": "src/core/ElasticDAOFactory.sol",
  "abi": [
    {
      "inputs": [
        {
          "internalType": "address",
          "name": "_ecosystemModelAddress",
          "type": "address"
        }
      ],
      "stateMutability": "nonpayable",
      "type": "constructor"
    },
    {
      "anonymous": false,
      "inputs": [
        {
          "indexed": true,
          "internalType": "address",
          "name": "daoAddress",
          "type": "address"
        }
      ],
      "name": "DAODeployed",
      "type": "event"
    },
    {
      "stateMutability": "payable",
      "type": "fallback"
    },
    {
      "inputs": [
        {
          "internalType": "address[]",
          "name": "_summoners",
          "type": "address[]"
        },
        {
          "internalType": "string",
          "name": "_nameOfDAO",
          "type": "string"
        },
        {
          "internalType": "uint256",
          "name": "_numberOfSummoners",
          "type": "uint256"
        },
        {
          "internalType": "string",
          "name": "_nameOfToken",
          "type": "string"
        },
        {
          "internalType": "string",
          "name": "_symbol",
          "type": "string"
        },
        {
          "internalType": "uint256",
          "name": "_eByl",
          "type": "uint256"
        },
        {
          "internalType": "uint256",
          "name": "_elasticity",
          "type": "uint256"
        },
        {
          "internalType": "uint256",
          "name": "_k",
          "type": "uint256"
        },
        {
          "internalType": "uint256",
          "name": "_maxLambdaPurchase",
          "type": "uint256"
        }
      ],
      "name": "deployDAOAndToken",
      "outputs": [],
      "stateMutability": "payable",
      "type": "function"
    },
    {
      "inputs": [
        {
          "internalType": "uint256",
          "name": "",
          "type": "uint256"
        }
      ],
      "name": "deployedDAOAddresses",
      "outputs": [
        {
          "internalType": "address",
          "name": "",
          "type": "address"
        }
      ],
      "stateMutability": "view",
      "type": "function"
    },
    {
      "stateMutability": "payable",
      "type": "receive"
    }
  ],
  "bytecode": "0x608060405234801561001057600080fd5b5060405161305e38038061305e83398101604081905261002f91610054565b600080546001600160a01b0319166001600160a01b0392909216919091179055610082565b600060208284031215610065578081fd5b81516001600160a01b038116811461007b578182fd5b9392505050565b612fcd806100916000396000f3fe608060405260043610620000315760003560e01c806357b3d0ec146200003b578063c465b10514620000525762000039565b366200003957005b005b620000396200004c3660046200030c565b6200008f565b3480156200005f57600080fd5b506200007762000071366004620003f0565b620001d0565b60405162000086919062000457565b60405180910390f35b600080546040516001600160a01b03909116908b908b908b90620000b390620001f8565b620000c294939291906200046b565b604051809103906000f080158015620000df573d6000803e3d6000fd5b506040516303ca8c0960e01b81529091506001600160a01b038216906303ca8c09906200011b908a908a908a908a908a908a90600401620004e6565b600060405180830381600087803b1580156200013657600080fd5b505af11580156200014b573d6000803e3d6000fd5b50506002805460018101825560009182527f405787fa12a823e0f2b7631cc41b3ba8828b3321ca811111fa75cd3aa3bb5ace0180546001600160a01b0319166001600160a01b0386169081179091556040519093507f1cb5b7f48694f77209ac2e140151cda89a929b850874f26d327e8638e9fa65e09250a250505050505050505050565b60028181548110620001de57fe5b6000918252602090912001546001600160a01b0316905081565b612a3d806200055b83390190565b600082601f83011262000217578081fd5b813567ffffffffffffffff8111156200022c57fe5b60208082026200023e82820162000535565b838152935081840185830182870184018810156200025b57600080fd5b60009250825b85811015620002945781356001600160a01b038116811462000281578485fd5b8352918401919084019060010162000261565b50505050505092915050565b600082601f830112620002b1578081fd5b813567ffffffffffffffff811115620002c657fe5b620002db601f8201601f191660200162000535565b9150808252836020828501011115620002f357600080fd5b8060208401602084013760009082016020015292915050565b60008060008060008060008060006101208a8c0312156200032b578485fd5b893567ffffffffffffffff8082111562000343578687fd5b620003518d838e0162000206565b9a5060208c013591508082111562000367578687fd5b620003758d838e01620002a0565b995060408c0135985060608c013591508082111562000392578687fd5b620003a08d838e01620002a0565b975060808c0135915080821115620003b6578687fd5b50620003c58c828d01620002a0565b999c989b50969995989760a0870135975060c08701359660e081013596506101000135945092505050565b60006020828403121562000402578081fd5b5035919050565b60008151808452815b81811015620004305760208185018101518683018201520162000412565b81811115620004425782602083870101525b50601f01601f19169290920160200192915050565b6001600160a01b0391909116815260200190565b6001600160a01b0385811682526080602080840182905286519184018290526000928782019290919060a0860190855b81811015620004bb5785518516835294830194918301916001016200049b565b50508581036040870152620004d1818962000409565b94505050505082606083015295945050505050565b600060c08252620004fb60c083018962000409565b82810360208401526200050f818962000409565b9150508560408301528460608301528360808301528260a0830152979650505050505050565b60405181810167ffffffffffffffff811182821017156200055257fe5b60405291905056fe60806040523480156200001157600080fd5b5060405162002a3d38038062002a3d8339810160408190526200003491620004b7565b600080546001600160a01b0386166001600160a01b03199182161790915560018054909116331790556200006762000222565b60405163332a4d0960e01b81526001600160a01b0386169063332a4d0990620000969060009060040162000749565b6101806040518083038186803b158015620000b057600080fd5b505afa158015620000c5573d6000803e3d6000fd5b505050506040513d601f19601f82011682018060405250810190620000eb919062000616565b610120810151909150620000fe62000222565b604051630289413b60e41b81526001600160a01b0383169063289413b0906200012c908690600401620007f0565b61018060405180830381600087803b1580156200014857600080fd5b505af11580156200015d573d6000803e3d6000fd5b505050506040513d601f19601f8201168201806040525081019062000183919062000616565b604051630d7701f160e11b81529091506001600160a01b03831690631aee03e290620001ba9089908990899087906004016200075d565b600060405180830381600087803b158015620001d557600080fd5b505af1158015620001ea573d6000803e3d6000fd5b505050506040513d6000823e601f3d908101601f1916820160405262000214919081019062000539565b50505050505050506200085a565b6040805161018081018252600080825260208201819052918101829052606081018290526080810182905260a0810182905260c0810182905260e0810182905261010081018290526101208101829052610140810182905261016081019190915290565b80516001600160a01b03811681146200029e57600080fd5b919050565b600082601f830112620002b4578081fd5b81516001600160401b03811115620002c857fe5b6020808202620002da82820162000807565b83815293508184018583018287018401881015620002f757600080fd5b600092505b848310156200032557620003108162000286565b825260019290920191908301908301620002fc565b505050505092915050565b805180151581146200029e57600080fd5b600082601f83011262000352578081fd5b81516001600160401b038111156200036657fe5b6200037b601f8201601f191660200162000807565b91508082528360208285010111156200039357600080fd5b620003a68160208401602086016200082b565b5092915050565b6000610180808385031215620003c1578182fd5b620003cc8162000807565b915050620003da8262000286565b8152620003ea6020830162000286565b6020820152620003fd6040830162000286565b6040820152620004106060830162000286565b6060820152620004236080830162000286565b60808201526200043660a0830162000286565b60a08201526200044960c0830162000286565b60c08201526200045c60e0830162000286565b60e08201526101006200047181840162000286565b908201526101206200048583820162000286565b908201526101406200049983820162000286565b90820152610160620004ad83820162000286565b9082015292915050565b60008060008060808587031215620004cd578384fd5b620004d88562000286565b60208601519094506001600160401b0380821115620004f5578485fd5b6200050388838901620002a3565b9450604087015191508082111562000519578384fd5b50620005288782880162000341565b606096909601519497939650505050565b6000602082840312156200054b578081fd5b81516001600160401b038082111562000562578283fd5b90830190610220828603121562000577578283fd5b6200058360c062000807565b6200058e8362000286565b8152602083015182811115620005a2578485fd5b620005b087828601620002a3565b602083015250620005c46040840162000330565b6040820152606083015182811115620005db578485fd5b620005e98782860162000341565b60608301525060808301516080820152620006088660a08501620003ad565b60a082015295945050505050565b6000610180828403121562000629578081fd5b620006358383620003ad565b9392505050565b6001600160a01b03169052565b620006568282516200063c565b60208101516200066a60208401826200063c565b5060408101516200067f60408401826200063c565b5060608101516200069460608401826200063c565b506080810151620006a960808401826200063c565b5060a0810151620006be60a08401826200063c565b5060c0810151620006d360c08401826200063c565b5060e0810151620006e860e08401826200063c565b5061010080820151620006fe828501826200063c565b50506101208082015162000715828501826200063c565b5050610140808201516200072c828501826200063c565b50506101608082015162000743828501826200063c565b50505050565b6001600160a01b0391909116815260200190565b6101e08082528551908201819052600090610200830190602090818901845b82811015620007a35781516001600160a01b0316855293830193908301906001016200077c565b505050838203818501528651808352620007c381838501848b016200082b565b60408501879052601f01601f191691909101019050620007e7606083018462000649565b95945050505050565b610180810162000801828462000649565b92915050565b6040518181016001600160401b03811182821017156200082357fe5b604052919050565b60005b83811015620008485781810151838201526020016200082e565b83811115620007435750506000910152565b6121d3806200086a6000396000f3fe6080604052600436106100745760003560e01c8063049878f31161004e578063049878f3146100dd5780631fb46089146100f0578063985da726146100f8578063a0f2c977146101235761007b565b80630181bb0b1461007d578063035d9f2a1461009d57806303ca8c09146100bd5761007b565b3661007b57005b005b34801561008957600080fd5b5061007b610098366004611727565b610145565b3480156100a957600080fd5b5061007b6100b8366004611a07565b610206565b3480156100c957600080fd5b5061007b6100d836600461178f565b6106ce565b61007b6100eb366004611a07565b61081d565b61007b610bcf565b34801561010457600080fd5b5061010d610f1b565b60405161011a9190611fc8565b60405180910390f35b34801561012f57600080fd5b50610138610f30565b60405161011a9190612018565b61014d6113c6565b610155610f40565b6040810151909150156101835760405162461bcd60e51b815260040161017a90611d1b565b60405180910390fd5b61018b61140c565b610193610fe7565b6101408101516040516320ee942f60e21b8152919250906001600160a01b038216906383ba50bc906101cd90889088908790600401611c59565b600060405180830381600087803b1580156101e757600080fd5b505af11580156101fb573d6000803e3d6000fd5b505050505050505050565b61020e6113c6565b610216610f40565b60408101519091501561023b5760405162461bcd60e51b815260040161017a90611d1b565b61024361140c565b61024b610fe7565b606081015190915061025b6113c6565b604051631a2861fb60e01b81526001600160a01b03831690631a2861fb906102899030908790600401611c22565b60006040518083038186803b1580156102a157600080fd5b505afa1580156102b5573d6000803e3d6000fd5b505050506040513d6000823e601f3d908101601f191682016040526102dd9190810190611813565b90506000826001600160a01b031663d3ee7f9283336040518363ffffffff1660e01b815260040161030f929190611fdb565b60206040518083038186803b15801561032757600080fd5b505afa15801561033b573d6000803e3d6000fd5b505050506040513d601f19601f8201168201806040525081019061035f9190611775565b90508061037e5760405162461bcd60e51b815260040161017a90611d5f565b6000471161039e5760405162461bcd60e51b815260040161017a90611f6b565b6103a661140c565b6103ae610fe7565b60608101519091506103be6113c6565b604051631a2861fb60e01b81526001600160a01b03831690631a2861fb906103ec9030908790600401611c22565b60006040518083038186803b15801561040457600080fd5b505afa158015610418573d6000803e3d6000fd5b505050506040513d6000823e601f3d908101601f191682016040526104409190810190611813565b905061044a611470565b610100840151610160850151604051631a2861fb60e01b81526001600160a01b0390921691631a2861fb91610483918890600401611c22565b60006040518083038186803b15801561049b57600080fd5b505afa1580156104af573d6000803e3d6000fd5b505050506040513d6000823e601f3d908101601f191682016040526104d791908101906118fc565b905060008160000151905060006104f88c8460c00151856101000151611070565b905060005b846080015181101561061957826001600160a01b03166340c10f19876001600160a01b0316631e92620388856040518363ffffffff1660e01b8152600401610546929190612005565b60206040518083038186803b15801561055e57600080fd5b505afa158015610572573d6000803e3d6000fd5b505050506040513d601f19601f82011682018060405250810190610596919061170b565b846040518363ffffffff1660e01b81526004016105b4929190611c40565b602060405180830381600087803b1580156105ce57600080fd5b505af11580156105e2573d6000803e3d6000fd5b505050506040513d601f19601f820116820180604052508101906106069190611775565b5061061281600161108f565b90506104fd565b506106596040518060400160405280601781526020017f65746820696e20636f6e74726163743a2073756d6d6f6e000000000000000000815250476110bd565b60016040808601919091525163593a00b360e11b81526001600160a01b0386169063b27401669061068e908790600401611fc8565b600060405180830381600087803b1580156106a857600080fd5b505af11580156106bc573d6000803e3d6000fd5b50505050505050505050505050505050565b6106d66113c6565b6106de610f40565b6040810151909150156107035760405162461bcd60e51b815260040161017a90611d1b565b6001546001600160a01b0316331461072d5760405162461bcd60e51b815260040161017a90611f19565b61073561140c565b61073d610fe7565b9050610747611470565b8161012001516001600160a01b0316635eab5eac8a8a8a8a8a8a896040518863ffffffff1660e01b81526004016107849796959493929190611ca9565b600060405180830381600087803b15801561079e57600080fd5b505af11580156107b2573d6000803e3d6000fd5b505050506040513d6000823e601f3d908101601f191682016040526107da91908101906118fc565b80516040519192506001600160a01b0316907fad65bbe394ae719938a7445c7588b2cdb455ea64f1364115b1e073e31bb1af9b90600090a2505050505050505050565b6108256113c6565b61082d610f40565b905080604001516108505760405162461bcd60e51b815260040161017a90611e21565b610858611470565b610860611106565b90508061012001518311156108875760405162461bcd60e51b815260040161017a90611dcd565b80516040805180820190915260208082527f6a6f696e2066756e6374696f6e3a2065746820696e20636f6e74726163743a20908201526108c790476110bd565b61095960405180606001604052806026815260200161217860269139826001600160a01b03166318160ddd6040518163ffffffff1660e01b815260040160206040518083038186803b15801561091c57600080fd5b505afa158015610930573d6000803e3d6000fd5b505050506040513d601f19601f820116820180604052508101906109549190611a1f565b6110bd565b60006109d7344703836001600160a01b03166318160ddd6040518163ffffffff1660e01b815260040160206040518083038186803b15801561099a57600080fd5b505afa1580156109ae573d6000803e3d6000fd5b505050506040513d601f19601f820116820180604052508101906109d29190611a1f565b6111ac565b9050610a186040518060400160405280601d81526020017f6a6f696e2066756e6374696f6e3a206361706974616c44656c74613a20000000815250826110bd565b6000610a3986838660c001518760a001518860e001518961010001516111b8565b9050610a7a6040518060400160405280601781526020017f6a6f696e2066756e6374696f6e3a2064656c7461453a20000000000000000000815250826110bd565b348114610a995760405162461bcd60e51b815260040161017a90611e56565b6000610aa9878660e0015161108f565b90506000610ac1828760e00151886101000151611212565b9050610acb61140c565b610ad3610fe7565b6101008082015190890184905260405163f716add560e01b8152919250906001600160a01b0382169063f716add590610b10908b90600401612027565b600060405180830381600087803b158015610b2a57600080fd5b505af1158015610b3e573d6000803e3d6000fd5b50506040516329460cc560e11b81526001600160a01b038a16925063528c198a9150610b709033908e90600401611c40565b602060405180830381600087803b158015610b8a57600080fd5b505af1158015610b9e573d6000803e3d6000fd5b505050506040513d601f19601f82011682018060405250810190610bc29190611775565b5050505050505050505050565b610bd76113c6565b610bdf610f40565b604081015190915015610c045760405162461bcd60e51b815260040161017a90611d1b565b610c0c61140c565b610c14610fe7565b6060810151909150610c246113c6565b604051631a2861fb60e01b81526001600160a01b03831690631a2861fb90610c529030908790600401611c22565b60006040518083038186803b158015610c6a57600080fd5b505afa158015610c7e573d6000803e3d6000fd5b505050506040513d6000823e601f3d908101601f19168201604052610ca69190810190611813565b90506000826001600160a01b031663d3ee7f9283336040518363ffffffff1660e01b8152600401610cd8929190611fdb565b60206040518083038186803b158015610cf057600080fd5b505afa158015610d04573d6000803e3d6000fd5b505050506040513d601f19601f82011682018060405250810190610d289190611775565b905080610d475760405162461bcd60e51b815260040161017a90611d5f565b610d4f61140c565b610d57610fe7565b90506000610d63610fe7565b61010001516101608301516040516314a2b21360e31b81526001600160a01b039092169163a515909891610d9b918690600401611c22565b60206040518083038186803b158015610db357600080fd5b505afa158015610dc7573d6000803e3d6000fd5b505050506040513d601f19601f82011682018060405250810190610deb9190611775565b905080610e0a5760405162461bcd60e51b815260040161017a90611ecc565b610e12611470565b610e1a611106565b905060003490506000610e3182846080015161121d565b90506000610e49828560c00151866101000151611070565b9050610e8a6040518060400160405280601f81526020017f65746820696e20636f6e74726163743a207365656453756d6d6f6e696e672000815250476110bd565b83516040516340c10f1960e01b81526001600160a01b03909116906340c10f1990610ebb9033908590600401611c40565b602060405180830381600087803b158015610ed557600080fd5b505af1158015610ee9573d6000803e3d6000fd5b505050506040513d601f19601f82011682018060405250810190610f0d9190611775565b505050505050505050505050565b610f236113c6565b610f2b610f40565b905090565b610f3861140c565b610f2b610fe7565b610f486113c6565b610f5061140c565b610f58610fe7565b6060810151604051631a2861fb60e01b81529192506001600160a01b031690631a2861fb90610f8d9030908590600401611c22565b60006040518083038186803b158015610fa557600080fd5b505afa158015610fb9573d6000803e3d6000fd5b505050506040513d6000823e601f3d908101601f19168201604052610fe19190810190611813565b91505090565b610fef61140c565b60005460405163332a4d0960e01b81526001600160a01b039091169063332a4d099061101f903090600401611c0e565b6101806040518083038186803b15801561103857600080fd5b505afa15801561104c573d6000803e3d6000fd5b505050506040513d601f19601f82011682018060405250810190610f2b91906118e0565b600061108561107f858561124d565b8361124d565b90505b9392505050565b6000828201838110156110b45760405162461bcd60e51b815260040161017a90611d96565b90505b92915050565b61110282826040516024016110d3929190611cf9565b60408051601f198184030181529190526020810180516001600160e01b03166309710a9d60e41b179052611273565b5050565b61110e611470565b61111661140c565b61111e610fe7565b90508061010001516001600160a01b0316631a2861fb826101600151836040518363ffffffff1660e01b8152600401611158929190611c22565b60006040518083038186803b15801561117057600080fd5b505afa158015611184573d6000803e3d6000fd5b505050506040513d6000823e601f3d908101601f19168201604052610fe191908101906118fc565b60006110b4838361121d565b6000806111c5888561108f565b90506112066111d4888861124d565b6111f26111f7846111f26111e9878b8b611212565b6111f28c611294565b61124d565b611201888861124d565b6112b3565b98975050505050505050565b600061108561107f85855b60008161123e61123585670de0b6b3a76400006112f5565b6002850461108f565b8161124557fe5b049392505050565b6000670de0b6b3a764000061123e61126585856112f5565b6706f05b59d3b2000061108f565b80516a636f6e736f6c652e6c6f67602083016000808483855afa5050505050565b60006112ab826112a6600a601261132f565b61108f565b90505b919050565b60006110b483836040518060400160405280601e81526020017f536166654d6174683a207375627472616374696f6e206f766572666c6f77000081525061139a565b600082611304575060006110b7565b8282028284828161131157fe5b04146110b45760405162461bcd60e51b815260040161017a90611e8b565b60008161133e575060016110b7565b816001141561134e5750816110b7565b8215801561135b57508115155b15611368575060006110b7565b8260015b838110156113925761137e82866112f5565b915061138b81600161108f565b905061136c565b5090506110b7565b600081848411156113be5760405162461bcd60e51b815260040161017a9190611c96565b505050900390565b6040518060c0016040528060006001600160a01b0316815260200160608152602001600015158152602001606081526020016000815260200161140761140c565b905290565b6040805161018081018252600080825260208201819052918101829052606081018290526080810182905260a0810182905260c0810182905260e0810182905261010081018290526101208101829052610140810182905261016081019190915290565b60405180610180016040528060006001600160a01b031681526020016060815260200160608152602001600081526020016000815260200160008152602001600081526020016000815260200160008152602001600081526020016000815260200161140761140c565b80516112ae8161215f565b600082601f8301126114f5578081fd5b815167ffffffffffffffff81111561150957fe5b60208082026115198282016120ed565b8381529350818401858301828701840188101561153557600080fd5b600092505b8483101561156157805161154d8161215f565b82526001929092019190830190830161153a565b505050505092915050565b805180151581146112ae57600080fd5b600082601f83011261158c578081fd5b813561159f61159a82612111565b6120ed565b91508082528360208285010111156115b657600080fd5b8060208401602084013760009082016020015292915050565b600082601f8301126115df578081fd5b81516115ed61159a82612111565b915080825283602082850101111561160457600080fd5b611615816020840160208601612133565b5092915050565b600061018080838503121561162f578182fd5b611638816120ed565b915050611644826114da565b8152611652602083016114da565b6020820152611663604083016114da565b6040820152611674606083016114da565b6060820152611685608083016114da565b608082015261169660a083016114da565b60a08201526116a760c083016114da565b60c08201526116b860e083016114da565b60e08201526101006116cb8184016114da565b908201526101206116dd8382016114da565b908201526101406116ef8382016114da565b908201526101606117018382016114da565b9082015292915050565b60006020828403121561171c578081fd5b81516110b48161215f565b60008060408385031215611739578081fd5b82356117448161215f565b9150602083013567ffffffffffffffff81111561175f578182fd5b61176b8582860161157c565b9150509250929050565b600060208284031215611786578081fd5b6110b48261156c565b60008060008060008060c087890312156117a7578182fd5b863567ffffffffffffffff808211156117be578384fd5b6117ca8a838b0161157c565b975060208901359150808211156117df578384fd5b506117ec89828a0161157c565b96999698505050506040850135946060810135946080820135945060a09091013592509050565b600060208284031215611824578081fd5b815167ffffffffffffffff8082111561183b578283fd5b90830190610220828603121561184f578283fd5b61185960c06120ed565b611862836114da565b8152602083015182811115611875578485fd5b611881878286016114e5565b6020830152506118936040840161156c565b60408201526060830151828111156118a9578485fd5b6118b5878286016115cf565b606083015250608083015160808201526118d28660a0850161161c565b60a082015295945050505050565b600061018082840312156118f2578081fd5b6110b4838361161c565b60006020828403121561190d578081fd5b815167ffffffffffffffff80821115611924578283fd5b908301906102e08286031215611938578283fd5b6119436101806120ed565b61194c836114da565b815260208301518281111561195f578485fd5b61196b878286016115cf565b602083015250604083015182811115611982578485fd5b61198e878286016115cf565b604083015250606083810151908201526080808401519082015260a0808401519082015260c0808401519082015260e0808401519082015261010080840151908201526101208084015190820152610140808401519082015261016091506119f88683850161161c565b91810191909152949350505050565b600060208284031215611a18578081fd5b5035919050565b600060208284031215611a30578081fd5b5051919050565b6001600160a01b03169052565b15159052565b60008151808452611a62816020860160208601612133565b601f01601f19169290920160200192915050565b80516001600160a01b039081168352602080830151610220828601819052815190860181905260009361024087019392830192909185905b80821015611ad057845184168652948201949382019360019190910190611aae565b50505050506040830151611ae76040860182611a44565b5060608301518482036060860152611aff8282611a4a565b9150506080830151608085015260a0830151611b1e60a0860182611b26565b509392505050565b611b31828251611a37565b6020810151611b436020840182611a37565b506040810151611b566040840182611a37565b506060810151611b696060840182611a37565b506080810151611b7c6080840182611a37565b5060a0810151611b8f60a0840182611a37565b5060c0810151611ba260c0840182611a37565b5060e0810151611bb560e0840182611a37565b5061010080820151611bc982850182611a37565b505061012080820151611bde82850182611a37565b505061014080820151611bf382850182611a37565b505061016080820151611c0882850182611a37565b50505050565b6001600160a01b0391909116815260200190565b6001600160a01b03831681526101a081016110886020830184611b26565b6001600160a01b03929092168252602082015260400190565b6001600160a01b03841681526101c060208201819052600090611c7e83820186611a4a565b915050611c8e6040830184611b26565b949350505050565b6000602082526110b46020830184611a4a565b6000610240808352611cbd8184018b611a4a565b90508281036020840152611cd1818a611a4a565b9150508660408301528560608301528460808301528360a083015261120660c0830184611b26565b600060408252611d0c6040830185611a4a565b90508260208301529392505050565b60208082526024908201527f456c617374696344414f3a2044414f206d757374206e6f742062652073756d6d6040820152631bdb995960e21b606082015260800190565b6020808252601a908201527f456c617374696344414f3a204f6e6c792073756d6d6f6e657273000000000000604082015260600190565b6020808252601b908201527f536166654d6174683a206164646974696f6e206f766572666c6f770000000000604082015260600190565b60208082526034908201527f456c617374696344414f3a2043616e6e6f742070757263686173652074686174604082015273206d616e7920736861726573206174206f6e636560601b606082015260800190565b6020808252818101527f456c617374696344414f3a2044414f206d7573742062652073756d6d6f6e6564604082015260600190565b6020808252818101527f456c617374696344414f3a20496e636f72726563742045544820616d6f756e74604082015260600190565b60208082526021908201527f536166654d6174683a206d756c7469706c69636174696f6e206f766572666c6f6040820152607760f81b606082015260800190565b6020808252602d908201527f456c617374696344414f3a20506c656173652063616c6c20696e697469616c6960408201526c1e99551bdad95b88199a5c9cdd609a1b606082015260800190565b60208082526032908201527f456c617374696344414f3a204f6e6c79206465706c6f7965722063616e20696e60408201527134ba34b0b634bd32903a3432902a37b5b2b760711b606082015260800190565b60208082526039908201527f456c617374696344414f3a20506c6561736520736565642044414f207769746860408201527f2045544820746f20736574204554483a45475420726174696f00000000000000606082015260800190565b6000602082526110b46020830184611a76565b600060408252611fee6040830185611a76565b905060018060a01b03831660208301529392505050565b600060408252611d0c6040830185611a76565b61018081016110b78284611b26565b60006020825261203b602083018451611a37565b60208301516102e06040840152612056610300840182611a4a565b90506040840151601f198483030160608501526120738282611a4a565b91505060608401516080840152608084015160a084015260a084015160c084015260c084015160e084015260e0840151610100818186015280860151915050610120818186015280860151915050610140818186015280860151915050610160818186015280860151915050611b1e610180850182611b26565b60405181810167ffffffffffffffff8111828210171561210957fe5b604052919050565b600067ffffffffffffffff82111561212557fe5b50601f01601f191660200190565b60005b8381101561214e578181015183820152602001612136565b83811115611c085750506000910152565b6001600160a01b038116811461217457600080fd5b5056fe6a6f696e2066756e6374696f6e3a20746f74616c20737570706c79206f6620746f6b656e3a20a26469706673582212206a7cc050d314cb949a23031ad5e2109b47e340616f5c4bd087252fdd2278522764736f6c63430007020033a26469706673582212208129375183a5a896d9c20eda64d01082af5dd1a0e75afd15a74f4e79b1cd33d064736f6c63430007020033",
  "linkReferences": {},
  "deployedLinkReferences": {}
}