{
  "_format": "hh-sol-artifact-1",
  "contractName": "ElasticDAOFactory",
  "sourceName": "src/core/ElasticDAOFactory.sol",
  "abi": [
    {
      "inputs": [
        {
          "internalType": "address",
          "name": "_ecosystemModelAddress",
          "type": "address"
        }
      ],
      "stateMutability": "nonpayable",
      "type": "constructor"
    },
    {
      "anonymous": false,
      "inputs": [
        {
          "indexed": true,
          "internalType": "address",
          "name": "daoAddress",
          "type": "address"
        }
      ],
      "name": "DAODeployed",
      "type": "event"
    },
    {
      "stateMutability": "payable",
      "type": "fallback"
    },
    {
      "inputs": [
        {
          "internalType": "address[]",
          "name": "_summoners",
          "type": "address[]"
        },
        {
          "internalType": "string",
          "name": "_nameOfDAO",
          "type": "string"
        },
        {
          "internalType": "uint256",
          "name": "_numberOfSummoners",
          "type": "uint256"
        },
        {
          "internalType": "string",
          "name": "_nameOfToken",
          "type": "string"
        },
        {
          "internalType": "string",
          "name": "_symbol",
          "type": "string"
        },
        {
          "internalType": "uint256",
          "name": "_eByl",
          "type": "uint256"
        },
        {
          "internalType": "uint256",
          "name": "_elasticity",
          "type": "uint256"
        },
        {
          "internalType": "uint256",
          "name": "_k",
          "type": "uint256"
        },
        {
          "internalType": "uint256",
          "name": "_maxLambdaPurchase",
          "type": "uint256"
        }
      ],
      "name": "deployDAOAndToken",
      "outputs": [],
      "stateMutability": "payable",
      "type": "function"
    },
    {
      "inputs": [
        {
          "internalType": "uint256",
          "name": "",
          "type": "uint256"
        }
      ],
      "name": "deployedDAOAddresses",
      "outputs": [
        {
          "internalType": "address",
          "name": "",
          "type": "address"
        }
      ],
      "stateMutability": "view",
      "type": "function"
    },
    {
      "stateMutability": "payable",
      "type": "receive"
    }
  ],
  "bytecode": "0x608060405234801561001057600080fd5b5060405161304738038061304783398101604081905261002f91610054565b600080546001600160a01b0319166001600160a01b0392909216919091179055610082565b600060208284031215610065578081fd5b81516001600160a01b038116811461007b578182fd5b9392505050565b612fb6806100916000396000f3fe608060405260043610620000315760003560e01c806357b3d0ec146200003b578063c465b10514620000525762000039565b366200003957005b005b620000396200004c3660046200030c565b6200008f565b3480156200005f57600080fd5b506200007762000071366004620003f0565b620001d0565b60405162000086919062000457565b60405180910390f35b600080546040516001600160a01b03909116908b908b908b90620000b390620001f8565b620000c294939291906200046b565b604051809103906000f080158015620000df573d6000803e3d6000fd5b506040516303ca8c0960e01b81529091506001600160a01b038216906303ca8c09906200011b908a908a908a908a908a908a90600401620004e6565b600060405180830381600087803b1580156200013657600080fd5b505af11580156200014b573d6000803e3d6000fd5b50506002805460018101825560009182527f405787fa12a823e0f2b7631cc41b3ba8828b3321ca811111fa75cd3aa3bb5ace0180546001600160a01b0319166001600160a01b0386169081179091556040519093507f1cb5b7f48694f77209ac2e140151cda89a929b850874f26d327e8638e9fa65e09250a250505050505050505050565b60028181548110620001de57fe5b6000918252602090912001546001600160a01b0316905081565b612a26806200055b83390190565b600082601f83011262000217578081fd5b813567ffffffffffffffff8111156200022c57fe5b60208082026200023e82820162000535565b838152935081840185830182870184018810156200025b57600080fd5b60009250825b85811015620002945781356001600160a01b038116811462000281578485fd5b8352918401919084019060010162000261565b50505050505092915050565b600082601f830112620002b1578081fd5b813567ffffffffffffffff811115620002c657fe5b620002db601f8201601f191660200162000535565b9150808252836020828501011115620002f357600080fd5b8060208401602084013760009082016020015292915050565b60008060008060008060008060006101208a8c0312156200032b578485fd5b893567ffffffffffffffff8082111562000343578687fd5b620003518d838e0162000206565b9a5060208c013591508082111562000367578687fd5b620003758d838e01620002a0565b995060408c0135985060608c013591508082111562000392578687fd5b620003a08d838e01620002a0565b975060808c0135915080821115620003b6578687fd5b50620003c58c828d01620002a0565b999c989b50969995989760a0870135975060c08701359660e081013596506101000135945092505050565b60006020828403121562000402578081fd5b5035919050565b60008151808452815b81811015620004305760208185018101518683018201520162000412565b81811115620004425782602083870101525b50601f01601f19169290920160200192915050565b6001600160a01b0391909116815260200190565b6001600160a01b0385811682526080602080840182905286519184018290526000928782019290919060a0860190855b81811015620004bb5785518516835294830194918301916001016200049b565b50508581036040870152620004d1818962000409565b94505050505082606083015295945050505050565b600060c08252620004fb60c083018962000409565b82810360208401526200050f818962000409565b9150508560408301528460608301528360808301528260a0830152979650505050505050565b60405181810167ffffffffffffffff811182821017156200055257fe5b60405291905056fe60806040523480156200001157600080fd5b5060405162002a2638038062002a26833981016040819052620000349162000575565b600080546001600160a01b0386166001600160a01b031991821617909155600180549091163317905562000067620002e0565b60405163332a4d0960e01b81526001600160a01b0386169063332a4d0990620000969060009060040162000835565b6101806040518083038186803b158015620000b057600080fd5b505afa158015620000c5573d6000803e3d6000fd5b505050506040513d601f19601f82011682018060405250810190620000eb9190620006d4565b610120810151909150620000fe620002e0565b604051630289413b60e41b81526001600160a01b0383169063289413b0906200012c908690600401620008ea565b61018060405180830381600087803b1580156200014857600080fd5b505af11580156200015d573d6000803e3d6000fd5b505050506040513d601f19601f82011682018060405250810190620001839190620006d4565b604051630d7701f160e11b81529091506001600160a01b03831690631aee03e290620001ba90899089908990879060040162000849565b600060405180830381600087803b158015620001d557600080fd5b505af1158015620001ea573d6000803e3d6000fd5b505050506040513d6000823e601f3d908101601f19168201604052620002149190810190620005f7565b50620002616040518060400160405280601d81526020017f65746820696e20636f6e74726163743a20636f6e7374727563746f7220000000815250476200026e60201b62000ed01760201c565b5050505050505062000954565b620002bb828260405160240162000287929190620008c6565b60408051601f198184030181529190526020810180516001600160e01b039081166309710a9d60e41b17909152620002bf16565b5050565b80516a636f6e736f6c652e6c6f67602083016000808483855afa5050505050565b6040805161018081018252600080825260208201819052918101829052606081018290526080810182905260a0810182905260c0810182905260e0810182905261010081018290526101208101829052610140810182905261016081019190915290565b80516001600160a01b03811681146200035c57600080fd5b919050565b600082601f83011262000372578081fd5b81516001600160401b038111156200038657fe5b60208082026200039882820162000901565b83815293508184018583018287018401881015620003b557600080fd5b600092505b84831015620003e357620003ce8162000344565b825260019290920191908301908301620003ba565b505050505092915050565b805180151581146200035c57600080fd5b600082601f83011262000410578081fd5b81516001600160401b038111156200042457fe5b62000439601f8201601f191660200162000901565b91508082528360208285010111156200045157600080fd5b6200046481602084016020860162000925565b5092915050565b60006101808083850312156200047f578182fd5b6200048a8162000901565b915050620004988262000344565b8152620004a86020830162000344565b6020820152620004bb6040830162000344565b6040820152620004ce6060830162000344565b6060820152620004e16080830162000344565b6080820152620004f460a0830162000344565b60a08201526200050760c0830162000344565b60c08201526200051a60e0830162000344565b60e08201526101006200052f81840162000344565b908201526101206200054383820162000344565b908201526101406200055783820162000344565b908201526101606200056b83820162000344565b9082015292915050565b600080600080608085870312156200058b578384fd5b620005968562000344565b60208601519094506001600160401b0380821115620005b3578485fd5b620005c18883890162000361565b94506040870151915080821115620005d7578384fd5b50620005e687828801620003ff565b606096909601519497939650505050565b60006020828403121562000609578081fd5b81516001600160401b038082111562000620578283fd5b90830190610220828603121562000635578283fd5b6200064160c062000901565b6200064c8362000344565b815260208301518281111562000660578485fd5b6200066e8782860162000361565b6020830152506200068260408401620003ee565b604082015260608301518281111562000699578485fd5b620006a787828601620003ff565b60608301525060808301516080820152620006c68660a085016200046b565b60a082015295945050505050565b60006101808284031215620006e7578081fd5b620006f383836200046b565b9392505050565b6001600160a01b03169052565b600081518084526200072181602086016020860162000925565b601f01601f19169290920160200192915050565b62000742828251620006fa565b6020810151620007566020840182620006fa565b5060408101516200076b6040840182620006fa565b506060810151620007806060840182620006fa565b506080810151620007956080840182620006fa565b5060a0810151620007aa60a0840182620006fa565b5060c0810151620007bf60c0840182620006fa565b5060e0810151620007d460e0840182620006fa565b5061010080820151620007ea82850182620006fa565b5050610120808201516200080182850182620006fa565b5050610140808201516200081882850182620006fa565b5050610160808201516200082f82850182620006fa565b50505050565b6001600160a01b0391909116815260200190565b6101e08082528551908201819052600090610200830190602090818901845b828110156200088f5781516001600160a01b03168552938301939083019060010162000868565b50505083820390840152620008a5818762000707565b915050836040830152620008bd606083018462000735565b95945050505050565b600060408252620008db604083018562000707565b90508260208301529392505050565b6101808101620008fb828462000735565b92915050565b6040518181016001600160401b03811182821017156200091d57fe5b604052919050565b60005b838110156200094257818101518382015260200162000928565b838111156200082f5750506000910152565b6120c280620009646000396000f3fe6080604052600436106100745760003560e01c8063049878f31161004e578063049878f3146100dd5780631fb46089146100f0578063985da726146100f8578063a0f2c977146101235761007b565b80630181bb0b1461007d578063035d9f2a1461009d57806303ca8c09146100bd5761007b565b3661007b57005b005b34801561008957600080fd5b5061007b6100983660046116bb565b610145565b3480156100a957600080fd5b5061007b6100b836600461199b565b610206565b3480156100c957600080fd5b5061007b6100d8366004611723565b6106ce565b61007b6100eb36600461199b565b610840565b61007b610b5f565b34801561010457600080fd5b5061010d610eab565b60405161011a9190611f5c565b60405180910390f35b34801561012f57600080fd5b50610138610ec0565b60405161011a9190611fac565b61014d61135a565b610155610f19565b6040810151909150156101835760405162461bcd60e51b815260040161017a90611caf565b60405180910390fd5b61018b6113a0565b610193610fc0565b6101408101516040516320ee942f60e21b8152919250906001600160a01b038216906383ba50bc906101cd90889088908790600401611bed565b600060405180830381600087803b1580156101e757600080fd5b505af11580156101fb573d6000803e3d6000fd5b505050505050505050565b61020e61135a565b610216610f19565b60408101519091501561023b5760405162461bcd60e51b815260040161017a90611caf565b6102436113a0565b61024b610fc0565b606081015190915061025b61135a565b604051631a2861fb60e01b81526001600160a01b03831690631a2861fb906102899030908790600401611bb6565b60006040518083038186803b1580156102a157600080fd5b505afa1580156102b5573d6000803e3d6000fd5b505050506040513d6000823e601f3d908101601f191682016040526102dd91908101906117a7565b90506000826001600160a01b031663d3ee7f9283336040518363ffffffff1660e01b815260040161030f929190611f6f565b60206040518083038186803b15801561032757600080fd5b505afa15801561033b573d6000803e3d6000fd5b505050506040513d601f19601f8201168201806040525081019061035f9190611709565b90508061037e5760405162461bcd60e51b815260040161017a90611cf3565b6000471161039e5760405162461bcd60e51b815260040161017a90611eff565b6103a66113a0565b6103ae610fc0565b60608101519091506103be61135a565b604051631a2861fb60e01b81526001600160a01b03831690631a2861fb906103ec9030908790600401611bb6565b60006040518083038186803b15801561040457600080fd5b505afa158015610418573d6000803e3d6000fd5b505050506040513d6000823e601f3d908101601f1916820160405261044091908101906117a7565b905061044a611404565b610100840151610160850151604051631a2861fb60e01b81526001600160a01b0390921691631a2861fb91610483918890600401611bb6565b60006040518083038186803b15801561049b57600080fd5b505afa1580156104af573d6000803e3d6000fd5b505050506040513d6000823e601f3d908101601f191682016040526104d79190810190611890565b905060008160000151905060006104f88c8460c00151856101000151611049565b905060005b846080015181101561061957826001600160a01b03166340c10f19876001600160a01b0316631e92620388856040518363ffffffff1660e01b8152600401610546929190611f99565b60206040518083038186803b15801561055e57600080fd5b505afa158015610572573d6000803e3d6000fd5b505050506040513d601f19601f82011682018060405250810190610596919061169f565b846040518363ffffffff1660e01b81526004016105b4929190611bd4565b602060405180830381600087803b1580156105ce57600080fd5b505af11580156105e2573d6000803e3d6000fd5b505050506040513d601f19601f820116820180604052508101906106069190611709565b50610612816001611068565b90506104fd565b506106596040518060400160405280601781526020017f65746820696e20636f6e74726163743a2073756d6d6f6e00000000000000000081525047610ed0565b60016040808601919091525163593a00b360e11b81526001600160a01b0386169063b27401669061068e908790600401611f5c565b600060405180830381600087803b1580156106a857600080fd5b505af11580156106bc573d6000803e3d6000fd5b50505050505050505050505050505050565b6106d661135a565b6106de610f19565b6040810151909150156107035760405162461bcd60e51b815260040161017a90611caf565b6001546001600160a01b0316331461072d5760405162461bcd60e51b815260040161017a90611ead565b6107356113a0565b61073d610fc0565b9050610747611404565b8161012001516001600160a01b0316635eab5eac8a8a8a8a8a8a896040518863ffffffff1660e01b81526004016107849796959493929190611c3d565b600060405180830381600087803b15801561079e57600080fd5b505af11580156107b2573d6000803e3d6000fd5b505050506040513d6000823e601f3d908101601f191682016040526107da9190810190611890565b90506107fe6040518060600160405280602181526020016120466021913947610ed0565b80516040516001600160a01b03909116907fad65bbe394ae719938a7445c7588b2cdb455ea64f1364115b1e073e31bb1af9b90600090a2505050505050505050565b61084861135a565b610850610f19565b905080604001516108735760405162461bcd60e51b815260040161017a90611db5565b61087b611404565b610883611096565b90508061012001518311156108aa5760405162461bcd60e51b815260040161017a90611d61565b80516040805180820190915260208082527f6a6f696e2066756e6374696f6e3a2065746820696e20636f6e74726163743a20908201526108ea9047610ed0565b61097c60405180606001604052806026815260200161206760269139826001600160a01b03166318160ddd6040518163ffffffff1660e01b815260040160206040518083038186803b15801561093f57600080fd5b505afa158015610953573d6000803e3d6000fd5b505050506040513d601f19601f8201168201806040525081019061097791906119b3565b610ed0565b60006109fa344703836001600160a01b03166318160ddd6040518163ffffffff1660e01b815260040160206040518083038186803b1580156109bd57600080fd5b505afa1580156109d1573d6000803e3d6000fd5b505050506040513d601f19601f820116820180604052508101906109f591906119b3565b61113c565b9050610a3b6040518060400160405280601d81526020017f6a6f696e2066756e6374696f6e3a206361706974616c44656c74613a2000000081525082610ed0565b6000610a5c86838660c001518760a001518860e00151896101000151611148565b9050610a9d6040518060400160405280601781526020017f6a6f696e2066756e6374696f6e3a2064656c7461453a2000000000000000000081525082610ed0565b348114610abc5760405162461bcd60e51b815260040161017a90611dea565b6000610ad2878660c00151876101000151611049565b6040516340c10f1960e01b81529091506001600160a01b038516906340c10f1990610b039033908590600401611bd4565b602060405180830381600087803b158015610b1d57600080fd5b505af1158015610b31573d6000803e3d6000fd5b505050506040513d601f19601f82011682018060405250810190610b559190611709565b5050505050505050565b610b6761135a565b610b6f610f19565b604081015190915015610b945760405162461bcd60e51b815260040161017a90611caf565b610b9c6113a0565b610ba4610fc0565b6060810151909150610bb461135a565b604051631a2861fb60e01b81526001600160a01b03831690631a2861fb90610be29030908790600401611bb6565b60006040518083038186803b158015610bfa57600080fd5b505afa158015610c0e573d6000803e3d6000fd5b505050506040513d6000823e601f3d908101601f19168201604052610c3691908101906117a7565b90506000826001600160a01b031663d3ee7f9283336040518363ffffffff1660e01b8152600401610c68929190611f6f565b60206040518083038186803b158015610c8057600080fd5b505afa158015610c94573d6000803e3d6000fd5b505050506040513d601f19601f82011682018060405250810190610cb89190611709565b905080610cd75760405162461bcd60e51b815260040161017a90611cf3565b610cdf6113a0565b610ce7610fc0565b90506000610cf3610fc0565b61010001516101608301516040516314a2b21360e31b81526001600160a01b039092169163a515909891610d2b918690600401611bb6565b60206040518083038186803b158015610d4357600080fd5b505afa158015610d57573d6000803e3d6000fd5b505050506040513d601f19601f82011682018060405250810190610d7b9190611709565b905080610d9a5760405162461bcd60e51b815260040161017a90611e60565b610da2611404565b610daa611096565b905060003490506000610dc18284608001516111a2565b90506000610dd9828560c00151866101000151611049565b9050610e1a6040518060400160405280601f81526020017f65746820696e20636f6e74726163743a207365656453756d6d6f6e696e67200081525047610ed0565b83516040516340c10f1960e01b81526001600160a01b03909116906340c10f1990610e4b9033908590600401611bd4565b602060405180830381600087803b158015610e6557600080fd5b505af1158015610e79573d6000803e3d6000fd5b505050506040513d601f19601f82011682018060405250810190610e9d9190611709565b505050505050505050505050565b610eb361135a565b610ebb610f19565b905090565b610ec86113a0565b610ebb610fc0565b610f158282604051602401610ee6929190611c8d565b60408051601f198184030181529190526020810180516001600160e01b03166309710a9d60e41b1790526111d2565b5050565b610f2161135a565b610f296113a0565b610f31610fc0565b6060810151604051631a2861fb60e01b81529192506001600160a01b031690631a2861fb90610f669030908590600401611bb6565b60006040518083038186803b158015610f7e57600080fd5b505afa158015610f92573d6000803e3d6000fd5b505050506040513d6000823e601f3d908101601f19168201604052610fba91908101906117a7565b91505090565b610fc86113a0565b60005460405163332a4d0960e01b81526001600160a01b039091169063332a4d0990610ff8903090600401611ba2565b6101806040518083038186803b15801561101157600080fd5b505afa158015611025573d6000803e3d6000fd5b505050506040513d601f19601f82011682018060405250810190610ebb9190611874565b600061105e61105885856111f3565b836111f3565b90505b9392505050565b60008282018381101561108d5760405162461bcd60e51b815260040161017a90611d2a565b90505b92915050565b61109e611404565b6110a66113a0565b6110ae610fc0565b90508061010001516001600160a01b0316631a2861fb826101600151836040518363ffffffff1660e01b81526004016110e8929190611bb6565b60006040518083038186803b15801561110057600080fd5b505afa158015611114573d6000803e3d6000fd5b505050506040513d6000823e601f3d908101601f19168201604052610fba9190810190611890565b600061108d83836111a2565b6000806111558885611068565b905061119661116488886111f3565b61118261118784611182611179878b8b611219565b6111828c611228565b6111f3565b61119188886111f3565b611247565b98975050505050505050565b6000816111c36111ba85670de0b6b3a7640000611289565b60028504611068565b816111ca57fe5b049392505050565b80516a636f6e736f6c652e6c6f67602083016000808483855afa5050505050565b6000670de0b6b3a76400006111c361120b8585611289565b6706f05b59d3b20000611068565b600061105e61105885856111a2565b600061123f8261123a600a60126112c3565b611068565b90505b919050565b600061108d83836040518060400160405280601e81526020017f536166654d6174683a207375627472616374696f6e206f766572666c6f77000081525061132e565b60008261129857506000611090565b828202828482816112a557fe5b041461108d5760405162461bcd60e51b815260040161017a90611e1f565b6000816112d257506001611090565b81600114156112e2575081611090565b821580156112ef57508115155b156112fc57506000611090565b8260015b83811015611326576113128286611289565b915061131f816001611068565b9050611300565b509050611090565b600081848411156113525760405162461bcd60e51b815260040161017a9190611c2a565b505050900390565b6040518060c0016040528060006001600160a01b0316815260200160608152602001600015158152602001606081526020016000815260200161139b6113a0565b905290565b6040805161018081018252600080825260208201819052918101829052606081018290526080810182905260a0810182905260c0810182905260e0810182905261010081018290526101208101829052610140810182905261016081019190915290565b60405180610180016040528060006001600160a01b031681526020016060815260200160608152602001600081526020016000815260200160008152602001600081526020016000815260200160008152602001600081526020016000815260200161139b6113a0565b80516112428161202d565b600082601f830112611489578081fd5b815167ffffffffffffffff81111561149d57fe5b60208082026114ad828201611fbb565b838152935081840185830182870184018810156114c957600080fd5b600092505b848310156114f55780516114e18161202d565b8252600192909201919083019083016114ce565b505050505092915050565b8051801515811461124257600080fd5b600082601f830112611520578081fd5b813561153361152e82611fdf565b611fbb565b915080825283602082850101111561154a57600080fd5b8060208401602084013760009082016020015292915050565b600082601f830112611573578081fd5b815161158161152e82611fdf565b915080825283602082850101111561159857600080fd5b6115a9816020840160208601612001565b5092915050565b60006101808083850312156115c3578182fd5b6115cc81611fbb565b9150506115d88261146e565b81526115e66020830161146e565b60208201526115f76040830161146e565b60408201526116086060830161146e565b60608201526116196080830161146e565b608082015261162a60a0830161146e565b60a082015261163b60c0830161146e565b60c082015261164c60e0830161146e565b60e082015261010061165f81840161146e565b9082015261012061167183820161146e565b9082015261014061168383820161146e565b9082015261016061169583820161146e565b9082015292915050565b6000602082840312156116b0578081fd5b815161108d8161202d565b600080604083850312156116cd578081fd5b82356116d88161202d565b9150602083013567ffffffffffffffff8111156116f3578182fd5b6116ff85828601611510565b9150509250929050565b60006020828403121561171a578081fd5b61108d82611500565b60008060008060008060c0878903121561173b578182fd5b863567ffffffffffffffff80821115611752578384fd5b61175e8a838b01611510565b97506020890135915080821115611773578384fd5b5061178089828a01611510565b96999698505050506040850135946060810135946080820135945060a09091013592509050565b6000602082840312156117b8578081fd5b815167ffffffffffffffff808211156117cf578283fd5b9083019061022082860312156117e3578283fd5b6117ed60c0611fbb565b6117f68361146e565b8152602083015182811115611809578485fd5b61181587828601611479565b60208301525061182760408401611500565b604082015260608301518281111561183d578485fd5b61184987828601611563565b606083015250608083015160808201526118668660a085016115b0565b60a082015295945050505050565b60006101808284031215611886578081fd5b61108d83836115b0565b6000602082840312156118a1578081fd5b815167ffffffffffffffff808211156118b8578283fd5b908301906102e082860312156118cc578283fd5b6118d7610180611fbb565b6118e08361146e565b81526020830151828111156118f3578485fd5b6118ff87828601611563565b602083015250604083015182811115611916578485fd5b61192287828601611563565b604083015250606083810151908201526080808401519082015260a0808401519082015260c0808401519082015260e08084015190820152610100808401519082015261012080840151908201526101408084015190820152610160915061198c868385016115b0565b91810191909152949350505050565b6000602082840312156119ac578081fd5b5035919050565b6000602082840312156119c4578081fd5b5051919050565b6001600160a01b03169052565b15159052565b600081518084526119f6816020860160208601612001565b601f01601f19169290920160200192915050565b80516001600160a01b039081168352602080830151610220828601819052815190860181905260009361024087019392830192909185905b80821015611a6457845184168652948201949382019360019190910190611a42565b50505050506040830151611a7b60408601826119d8565b5060608301518482036060860152611a9382826119de565b9150506080830151608085015260a0830151611ab260a0860182611aba565b509392505050565b611ac58282516119cb565b6020810151611ad760208401826119cb565b506040810151611aea60408401826119cb565b506060810151611afd60608401826119cb565b506080810151611b1060808401826119cb565b5060a0810151611b2360a08401826119cb565b5060c0810151611b3660c08401826119cb565b5060e0810151611b4960e08401826119cb565b5061010080820151611b5d828501826119cb565b505061012080820151611b72828501826119cb565b505061014080820151611b87828501826119cb565b505061016080820151611b9c828501826119cb565b50505050565b6001600160a01b0391909116815260200190565b6001600160a01b03831681526101a081016110616020830184611aba565b6001600160a01b03929092168252602082015260400190565b6001600160a01b03841681526101c060208201819052600090611c12838201866119de565b915050611c226040830184611aba565b949350505050565b60006020825261108d60208301846119de565b6000610240808352611c518184018b6119de565b90508281036020840152611c65818a6119de565b9150508660408301528560608301528460808301528360a083015261119660c0830184611aba565b600060408252611ca060408301856119de565b90508260208301529392505050565b60208082526024908201527f456c617374696344414f3a2044414f206d757374206e6f742062652073756d6d6040820152631bdb995960e21b606082015260800190565b6020808252601a908201527f456c617374696344414f3a204f6e6c792073756d6d6f6e657273000000000000604082015260600190565b6020808252601b908201527f536166654d6174683a206164646974696f6e206f766572666c6f770000000000604082015260600190565b60208082526034908201527f456c617374696344414f3a2043616e6e6f742070757263686173652074686174604082015273206d616e7920736861726573206174206f6e636560601b606082015260800190565b6020808252818101527f456c617374696344414f3a2044414f206d7573742062652073756d6d6f6e6564604082015260600190565b6020808252818101527f456c617374696344414f3a20496e636f72726563742045544820616d6f756e74604082015260600190565b60208082526021908201527f536166654d6174683a206d756c7469706c69636174696f6e206f766572666c6f6040820152607760f81b606082015260800190565b6020808252602d908201527f456c617374696344414f3a20506c656173652063616c6c20696e697469616c6960408201526c1e99551bdad95b88199a5c9cdd609a1b606082015260800190565b60208082526032908201527f456c617374696344414f3a204f6e6c79206465706c6f7965722063616e20696e60408201527134ba34b0b634bd32903a3432902a37b5b2b760711b606082015260800190565b60208082526039908201527f456c617374696344414f3a20506c6561736520736565642044414f207769746860408201527f2045544820746f20736574204554483a45475420726174696f00000000000000606082015260800190565b60006020825261108d6020830184611a0a565b600060408252611f826040830185611a0a565b905060018060a01b03831660208301529392505050565b600060408252611ca06040830185611a0a565b61018081016110908284611aba565b60405181810167ffffffffffffffff81118282101715611fd757fe5b604052919050565b600067ffffffffffffffff821115611ff357fe5b50601f01601f191660200190565b60005b8381101561201c578181015183820152602001612004565b83811115611b9c5750506000910152565b6001600160a01b038116811461204257600080fd5b5056fe65746820696e20636f6e74726163743a20696e697469616c697a65746f6b656e206a6f696e2066756e6374696f6e3a20746f74616c20737570706c79206f6620746f6b656e3a20a264697066735822122007e25a255e5f6060d283645fb90f2561d84f98f4507bbca129c4323c5ad7117264736f6c63430007020033a2646970667358221220f14e17f7fbf68005dd9fc7869337d97626daa05164096f00abd72417f43b50b464736f6c63430007020033",
  "linkReferences": {},
  "deployedLinkReferences": {}
}