{
  "_format": "hh-sol-artifact-1",
  "contractName": "ElasticDAOFactory",
  "sourceName": "src/core/ElasticDAOFactory.sol",
  "abi": [
    {
      "inputs": [
        {
          "internalType": "address",
          "name": "_ecosystemModelAddress",
          "type": "address"
        }
      ],
      "stateMutability": "nonpayable",
      "type": "constructor"
    },
    {
      "anonymous": false,
      "inputs": [
        {
          "indexed": true,
          "internalType": "address",
          "name": "daoAddress",
          "type": "address"
        }
      ],
      "name": "DAODeployed",
      "type": "event"
    },
    {
      "stateMutability": "payable",
      "type": "fallback"
    },
    {
      "inputs": [
        {
          "internalType": "address[]",
          "name": "_summoners",
          "type": "address[]"
        },
        {
          "internalType": "string",
          "name": "_nameOfDAO",
          "type": "string"
        },
        {
          "internalType": "uint256",
          "name": "_numberOfSummoners",
          "type": "uint256"
        },
        {
          "internalType": "string",
          "name": "_nameOfToken",
          "type": "string"
        },
        {
          "internalType": "string",
          "name": "_symbol",
          "type": "string"
        },
        {
          "internalType": "uint256",
          "name": "_capitalDelta",
          "type": "uint256"
        },
        {
          "internalType": "uint256",
          "name": "_elasticity",
          "type": "uint256"
        },
        {
          "internalType": "uint256",
          "name": "_k",
          "type": "uint256"
        },
        {
          "internalType": "uint256",
          "name": "_maxLambdaPurchase",
          "type": "uint256"
        }
      ],
      "name": "deployDAOAndToken",
      "outputs": [
        {
          "internalType": "contract ElasticDAO",
          "name": "Instance",
          "type": "address"
        }
      ],
      "stateMutability": "payable",
      "type": "function"
    },
    {
      "stateMutability": "payable",
      "type": "receive"
    }
  ],
  "bytecode": "0x608060405234801561001057600080fd5b50604051612b4c380380612b4c83398101604081905261002f91610054565b600080546001600160a01b0319166001600160a01b0392909216919091179055610082565b600060208284031215610065578081fd5b81516001600160a01b038116811461007b578182fd5b9392505050565b612abb806100916000396000f3fe608060405260043610620000255760003560e01c806357b3d0ec146200002f576200002d565b366200002d57005b005b620000466200004036600462000274565b6200005e565b60405162000055919062000421565b60405180910390f35b6000805460405182916001600160a01b0316908c908c908c90620000829062000160565b620000919493929190620003a6565b604051809103906000f080158015620000ae573d6000803e3d6000fd5b506040516303ca8c0960e01b81529091506001600160a01b038216906303ca8c0990620000ea908b908b908b908b908b908b9060040162000435565b600060405180830381600087803b1580156200010557600080fd5b505af11580156200011a573d6000803e3d6000fd5b50506040516001600160a01b03841692507f1cb5b7f48694f77209ac2e140151cda89a929b850874f26d327e8638e9fa65e09150600090a2509998505050505050505050565b6125dc80620004aa83390190565b600082601f8301126200017f578081fd5b813567ffffffffffffffff8111156200019457fe5b6020808202620001a682820162000484565b83815293508184018583018287018401881015620001c357600080fd5b60009250825b85811015620001fc5781356001600160a01b0381168114620001e9578485fd5b83529184019190840190600101620001c9565b50505050505092915050565b600082601f83011262000219578081fd5b813567ffffffffffffffff8111156200022e57fe5b62000243601f8201601f191660200162000484565b91508082528360208285010111156200025b57600080fd5b8060208401602084013760009082016020015292915050565b60008060008060008060008060006101208a8c03121562000293578485fd5b893567ffffffffffffffff80821115620002ab578687fd5b620002b98d838e016200016e565b9a5060208c0135915080821115620002cf578687fd5b620002dd8d838e0162000208565b995060408c0135985060608c0135915080821115620002fa578687fd5b620003088d838e0162000208565b975060808c01359150808211156200031e578687fd5b506200032d8c828d0162000208565b999c989b50969995989760a0870135975060c08701359660e081013596506101000135945092505050565b60008151808452815b818110156200037f5760208185018101518683018201520162000361565b81811115620003915782602083870101525b50601f01601f19169290920160200192915050565b6001600160a01b0385811682526080602080840182905286519184018290526000928782019290919060a0860190855b81811015620003f6578551851683529483019491830191600101620003d6565b505085810360408701526200040c818962000358565b94505050505082606083015295945050505050565b6001600160a01b0391909116815260200190565b600060c082526200044a60c083018962000358565b82810360208401526200045e818962000358565b9150508560408301528460608301528360808301528260a0830152979650505050505050565b60405181810167ffffffffffffffff81118282101715620004a157fe5b60405291905056fe60806040523480156200001157600080fd5b50604051620025dc380380620025dc8339810160408190526200003491620004b7565b600080546001600160a01b0386166001600160a01b03199182161790915560018054909116331790556200006762000222565b60405163332a4d0960e01b81526001600160a01b0386169063332a4d0990620000969060009060040162000749565b6101806040518083038186803b158015620000b057600080fd5b505afa158015620000c5573d6000803e3d6000fd5b505050506040513d601f19601f82011682018060405250810190620000eb919062000616565b610120810151909150620000fe62000222565b604051630289413b60e41b81526001600160a01b0383169063289413b0906200012c908690600401620007f0565b61018060405180830381600087803b1580156200014857600080fd5b505af11580156200015d573d6000803e3d6000fd5b505050506040513d601f19601f8201168201806040525081019062000183919062000616565b604051630d7701f160e11b81529091506001600160a01b03831690631aee03e290620001ba9089908990899087906004016200075d565b600060405180830381600087803b158015620001d557600080fd5b505af1158015620001ea573d6000803e3d6000fd5b505050506040513d6000823e601f3d908101601f1916820160405262000214919081019062000539565b50505050505050506200085a565b6040805161018081018252600080825260208201819052918101829052606081018290526080810182905260a0810182905260c0810182905260e0810182905261010081018290526101208101829052610140810182905261016081019190915290565b80516001600160a01b03811681146200029e57600080fd5b919050565b600082601f830112620002b4578081fd5b81516001600160401b03811115620002c857fe5b6020808202620002da82820162000807565b83815293508184018583018287018401881015620002f757600080fd5b600092505b848310156200032557620003108162000286565b825260019290920191908301908301620002fc565b505050505092915050565b805180151581146200029e57600080fd5b600082601f83011262000352578081fd5b81516001600160401b038111156200036657fe5b6200037b601f8201601f191660200162000807565b91508082528360208285010111156200039357600080fd5b620003a68160208401602086016200082b565b5092915050565b6000610180808385031215620003c1578182fd5b620003cc8162000807565b915050620003da8262000286565b8152620003ea6020830162000286565b6020820152620003fd6040830162000286565b6040820152620004106060830162000286565b6060820152620004236080830162000286565b60808201526200043660a0830162000286565b60a08201526200044960c0830162000286565b60c08201526200045c60e0830162000286565b60e08201526101006200047181840162000286565b908201526101206200048583820162000286565b908201526101406200049983820162000286565b90820152610160620004ad83820162000286565b9082015292915050565b60008060008060808587031215620004cd578384fd5b620004d88562000286565b60208601519094506001600160401b0380821115620004f5578485fd5b6200050388838901620002a3565b9450604087015191508082111562000519578384fd5b50620005288782880162000341565b606096909601519497939650505050565b6000602082840312156200054b578081fd5b81516001600160401b038082111562000562578283fd5b90830190610220828603121562000577578283fd5b6200058360c062000807565b6200058e8362000286565b8152602083015182811115620005a2578485fd5b620005b087828601620002a3565b602083015250620005c46040840162000330565b6040820152606083015182811115620005db578485fd5b620005e98782860162000341565b60608301525060808301516080820152620006088660a08501620003ad565b60a082015295945050505050565b6000610180828403121562000629578081fd5b620006358383620003ad565b9392505050565b6001600160a01b03169052565b620006568282516200063c565b60208101516200066a60208401826200063c565b5060408101516200067f60408401826200063c565b5060608101516200069460608401826200063c565b506080810151620006a960808401826200063c565b5060a0810151620006be60a08401826200063c565b5060c0810151620006d360c08401826200063c565b5060e0810151620006e860e08401826200063c565b5061010080820151620006fe828501826200063c565b50506101208082015162000715828501826200063c565b5050610140808201516200072c828501826200063c565b50506101608082015162000743828501826200063c565b50505050565b6001600160a01b0391909116815260200190565b6101e08082528551908201819052600090610200830190602090818901845b82811015620007a35781516001600160a01b0316855293830193908301906001016200077c565b505050838203818501528651808352620007c381838501848b016200082b565b60408501879052601f01601f191691909101019050620007e7606083018462000649565b95945050505050565b610180810162000801828462000649565b92915050565b6040518181016001600160401b03811182821017156200082357fe5b604052919050565b60005b83811015620008485781810151838201526020016200082e565b83811115620007435750506000910152565b611d72806200086a6000396000f3fe6080604052600436106100705760003560e01c8063049878f31161004e578063049878f3146100d75780631fb46089146100ea578063985da726146100f2578063a0f2c9771461011d57610070565b80630181bb0b14610075578063035d9f2a1461009757806303ca8c09146100b7575b600080fd5b34801561008157600080fd5b506100956100903660046113dd565b61013f565b005b3480156100a357600080fd5b506100956100b23660046116bd565b610200565b3480156100c357600080fd5b506100956100d2366004611445565b610689565b6100956100e53660046116bd565b6107d8565b61009561092a565b3480156100fe57600080fd5b50610107610c43565b6040516101149190611c44565b60405180910390f35b34801561012957600080fd5b50610132610c58565b6040516101149190611ca3565b61014761107c565b61014f610c68565b60408101519091501561017d5760405162461bcd60e51b815260040161017490611997565b60405180910390fd5b6101856110c2565b61018d610d0f565b6101408101516040516320ee942f60e21b8152919250906001600160a01b038216906383ba50bc906101c7908890889087906004016118d9565b600060405180830381600087803b1580156101e157600080fd5b505af11580156101f5573d6000803e3d6000fd5b505050505050505050565b61020861107c565b610210610c68565b6040810151909150156102355760405162461bcd60e51b815260040161017490611997565b61023d6110c2565b610245610d0f565b606081015190915061025561107c565b604051631a2861fb60e01b81526001600160a01b03831690631a2861fb906102839030908790600401611916565b60006040518083038186803b15801561029b57600080fd5b505afa1580156102af573d6000803e3d6000fd5b505050506040513d6000823e601f3d908101601f191682016040526102d791908101906114c9565b90506000826001600160a01b031663d3ee7f9283336040518363ffffffff1660e01b8152600401610309929190611c57565b60206040518083038186803b15801561032157600080fd5b505afa158015610335573d6000803e3d6000fd5b505050506040513d601f19601f82011682018060405250810190610359919061142b565b9050806103785760405162461bcd60e51b8152600401610174906119db565b600047116103985760405162461bcd60e51b815260040161017490611be7565b6103a06110c2565b6103a8610d0f565b60608101519091506103b861107c565b604051631a2861fb60e01b81526001600160a01b03831690631a2861fb906103e69030908790600401611916565b60006040518083038186803b1580156103fe57600080fd5b505afa158015610412573d6000803e3d6000fd5b505050506040513d6000823e601f3d908101601f1916820160405261043a91908101906114c9565b9050610444611126565b610100840151610160850151604051631a2861fb60e01b81526001600160a01b0390921691631a2861fb9161047d918890600401611916565b60006040518083038186803b15801561049557600080fd5b505afa1580156104a9573d6000803e3d6000fd5b505050506040513d6000823e601f3d908101601f191682016040526104d191908101906115b2565b905060008160000151905060006104f28c8460c00151856101000151610d98565b905060005b846080015181101561061357826001600160a01b03166340c10f19876001600160a01b0316631e92620388856040518363ffffffff1660e01b8152600401610540929190611c81565b60206040518083038186803b15801561055857600080fd5b505afa15801561056c573d6000803e3d6000fd5b505050506040513d601f19601f8201168201806040525081019061059091906113c1565b846040518363ffffffff1660e01b81526004016105ae9291906118c0565b602060405180830381600087803b1580156105c857600080fd5b505af11580156105dc573d6000803e3d6000fd5b505050506040513d601f19601f82011682018060405250810190610600919061142b565b5061060c816001610db7565b90506104f7565b5060016040808601919091525163593a00b360e11b81526001600160a01b0386169063b274016690610649908790600401611c44565b600060405180830381600087803b15801561066357600080fd5b505af1158015610677573d6000803e3d6000fd5b50505050505050505050505050505050565b61069161107c565b610699610c68565b6040810151909150156106be5760405162461bcd60e51b815260040161017490611997565b6001546001600160a01b031633146106e85760405162461bcd60e51b815260040161017490611b95565b6106f06110c2565b6106f8610d0f565b9050610702611126565b8161012001516001600160a01b0316635eab5eac8a8a8a8a8a8a896040518863ffffffff1660e01b815260040161073f9796959493929190611947565b600060405180830381600087803b15801561075957600080fd5b505af115801561076d573d6000803e3d6000fd5b505050506040513d6000823e601f3d908101601f1916820160405261079591908101906115b2565b80516040519192506001600160a01b0316907fad65bbe394ae719938a7445c7588b2cdb455ea64f1364115b1e073e31bb1af9b90600090a2505050505050505050565b6107e061107c565b6107e8610c68565b9050806040015161080b5760405162461bcd60e51b815260040161017490611a9d565b610813611126565b61081b610de5565b90508061012001518311156108425760405162461bcd60e51b815260040161017490611a49565b60006108678483606001518460c001518560a001518660e00151876101000151610e8b565b90503481146108885760405162461bcd60e51b815260040161017490611ad2565b600061089e858460c00151856101000151610d98565b83516040516340c10f1960e01b81529192506001600160a01b0316906340c10f19906108d090339085906004016118c0565b602060405180830381600087803b1580156108ea57600080fd5b505af11580156108fe573d6000803e3d6000fd5b505050506040513d601f19601f82011682018060405250810190610922919061142b565b505050505050565b61093261107c565b61093a610c68565b60408101519091501561095f5760405162461bcd60e51b815260040161017490611997565b6109676110c2565b61096f610d0f565b606081015190915061097f61107c565b604051631a2861fb60e01b81526001600160a01b03831690631a2861fb906109ad9030908790600401611916565b60006040518083038186803b1580156109c557600080fd5b505afa1580156109d9573d6000803e3d6000fd5b505050506040513d6000823e601f3d908101601f19168201604052610a0191908101906114c9565b90506000826001600160a01b031663d3ee7f9283336040518363ffffffff1660e01b8152600401610a33929190611c57565b60206040518083038186803b158015610a4b57600080fd5b505afa158015610a5f573d6000803e3d6000fd5b505050506040513d601f19601f82011682018060405250810190610a83919061142b565b905080610aa25760405162461bcd60e51b8152600401610174906119db565b610aaa6110c2565b610ab2610d0f565b90506000610abe610d0f565b61010001516101608301516040516314a2b21360e31b81526001600160a01b039092169163a515909891610af6918690600401611916565b60206040518083038186803b158015610b0e57600080fd5b505afa158015610b22573d6000803e3d6000fd5b505050506040513d601f19601f82011682018060405250810190610b46919061142b565b905080610b655760405162461bcd60e51b815260040161017490611b48565b610b6d611126565b610b75610de5565b905060003490506000610b99610b8f838560600151610ee5565b8460c00151610ee5565b90506000610bb1828560c00151866101000151610d98565b84516040516340c10f1960e01b81529192506001600160a01b0316906340c10f1990610be390339085906004016118c0565b602060405180830381600087803b158015610bfd57600080fd5b505af1158015610c11573d6000803e3d6000fd5b505050506040513d601f19601f82011682018060405250810190610c35919061142b565b505050505050505050505050565b610c4b61107c565b610c53610c68565b905090565b610c606110c2565b610c53610d0f565b610c7061107c565b610c786110c2565b610c80610d0f565b6060810151604051631a2861fb60e01b81529192506001600160a01b031690631a2861fb90610cb59030908590600401611916565b60006040518083038186803b158015610ccd57600080fd5b505afa158015610ce1573d6000803e3d6000fd5b505050506040513d6000823e601f3d908101601f19168201604052610d0991908101906114c9565b91505090565b610d176110c2565b60005460405163332a4d0960e01b81526001600160a01b039091169063332a4d0990610d479030906004016118ac565b6101806040518083038186803b158015610d6057600080fd5b505afa158015610d74573d6000803e3d6000fd5b505050506040513d601f19601f82011682018060405250810190610c539190611596565b6000610dad610da78585610f15565b83610f15565b90505b9392505050565b600082820183811015610ddc5760405162461bcd60e51b815260040161017490611a12565b90505b92915050565b610ded611126565b610df56110c2565b610dfd610d0f565b90508061010001516001600160a01b0316631a2861fb826101600151836040518363ffffffff1660e01b8152600401610e37929190611916565b60006040518083038186803b158015610e4f57600080fd5b505afa158015610e63573d6000803e3d6000fd5b505050506040513d6000823e601f3d908101601f19168201604052610d0991908101906115b2565b600080610e988885610db7565b9050610ed9610ea78888610f15565b610ec5610eca84610ec5610ebc878b8b610f3b565b610ec58c610f4a565b610f15565b610ed48888610f15565b610f69565b98975050505050505050565b600081610f06610efd85670de0b6b3a7640000610fab565b60028504610db7565b81610f0d57fe5b049392505050565b6000670de0b6b3a7640000610f06610f2d8585610fab565b6706f05b59d3b20000610db7565b6000610dad610da78585610ee5565b6000610f6182610f5c600a6012610fe5565b610db7565b90505b919050565b6000610ddc83836040518060400160405280601e81526020017f536166654d6174683a207375627472616374696f6e206f766572666c6f770000815250611050565b600082610fba57506000610ddf565b82820282848281610fc757fe5b0414610ddc5760405162461bcd60e51b815260040161017490611b07565b600081610ff457506001610ddf565b8160011415611004575081610ddf565b8215801561101157508115155b1561101e57506000610ddf565b8260015b83811015611048576110348286610fab565b9150611041816001610db7565b9050611022565b509050610ddf565b600081848411156110745760405162461bcd60e51b81526004016101749190611934565b505050900390565b6040518060c0016040528060006001600160a01b031681526020016060815260200160001515815260200160608152602001600081526020016110bd6110c2565b905290565b6040805161018081018252600080825260208201819052918101829052606081018290526080810182905260a0810182905260c0810182905260e0810182905261010081018290526101208101829052610140810182905261016081019190915290565b60405180610180016040528060006001600160a01b03168152602001606081526020016060815260200160008152602001600081526020016000815260200160008152602001600081526020016000815260200160008152602001600081526020016110bd6110c2565b8051610f6481611d24565b600082601f8301126111ab578081fd5b815167ffffffffffffffff8111156111bf57fe5b60208082026111cf828201611cb2565b838152935081840185830182870184018810156111eb57600080fd5b600092505b8483101561121757805161120381611d24565b8252600192909201919083019083016111f0565b505050505092915050565b80518015158114610f6457600080fd5b600082601f830112611242578081fd5b813561125561125082611cd6565b611cb2565b915080825283602082850101111561126c57600080fd5b8060208401602084013760009082016020015292915050565b600082601f830112611295578081fd5b81516112a361125082611cd6565b91508082528360208285010111156112ba57600080fd5b6112cb816020840160208601611cf8565b5092915050565b60006101808083850312156112e5578182fd5b6112ee81611cb2565b9150506112fa82611190565b815261130860208301611190565b602082015261131960408301611190565b604082015261132a60608301611190565b606082015261133b60808301611190565b608082015261134c60a08301611190565b60a082015261135d60c08301611190565b60c082015261136e60e08301611190565b60e0820152610100611381818401611190565b90820152610120611393838201611190565b908201526101406113a5838201611190565b908201526101606113b7838201611190565b9082015292915050565b6000602082840312156113d2578081fd5b8151610ddc81611d24565b600080604083850312156113ef578081fd5b82356113fa81611d24565b9150602083013567ffffffffffffffff811115611415578182fd5b61142185828601611232565b9150509250929050565b60006020828403121561143c578081fd5b610ddc82611222565b60008060008060008060c0878903121561145d578182fd5b863567ffffffffffffffff80821115611474578384fd5b6114808a838b01611232565b97506020890135915080821115611495578384fd5b506114a289828a01611232565b96999698505050506040850135946060810135946080820135945060a09091013592509050565b6000602082840312156114da578081fd5b815167ffffffffffffffff808211156114f1578283fd5b908301906102208286031215611505578283fd5b61150f60c0611cb2565b61151883611190565b815260208301518281111561152b578485fd5b6115378782860161119b565b60208301525061154960408401611222565b604082015260608301518281111561155f578485fd5b61156b87828601611285565b606083015250608083015160808201526115888660a085016112d2565b60a082015295945050505050565b600061018082840312156115a8578081fd5b610ddc83836112d2565b6000602082840312156115c3578081fd5b815167ffffffffffffffff808211156115da578283fd5b908301906102e082860312156115ee578283fd5b6115f9610180611cb2565b61160283611190565b8152602083015182811115611615578485fd5b61162187828601611285565b602083015250604083015182811115611638578485fd5b61164487828601611285565b604083015250606083810151908201526080808401519082015260a0808401519082015260c0808401519082015260e0808401519082015261010080840151908201526101208084015190820152610140808401519082015261016091506116ae868385016112d2565b91810191909152949350505050565b6000602082840312156116ce578081fd5b5035919050565b6001600160a01b03169052565b15159052565b60008151808452611700816020860160208601611cf8565b601f01601f19169290920160200192915050565b80516001600160a01b039081168352602080830151610220828601819052815190860181905260009361024087019392830192909185905b8082101561176e5784518416865294820194938201936001919091019061174c565b5050505050604083015161178560408601826116e2565b506060830151848203606086015261179d82826116e8565b9150506080830151608085015260a08301516117bc60a08601826117c4565b509392505050565b6117cf8282516116d5565b60208101516117e160208401826116d5565b5060408101516117f460408401826116d5565b50606081015161180760608401826116d5565b50608081015161181a60808401826116d5565b5060a081015161182d60a08401826116d5565b5060c081015161184060c08401826116d5565b5060e081015161185360e08401826116d5565b5061010080820151611867828501826116d5565b50506101208082015161187c828501826116d5565b505061014080820151611891828501826116d5565b5050610160808201516118a6828501826116d5565b50505050565b6001600160a01b0391909116815260200190565b6001600160a01b03929092168252602082015260400190565b6001600160a01b03841681526101c0602082018190526000906118fe838201866116e8565b91505061190e60408301846117c4565b949350505050565b6001600160a01b03831681526101a08101610db060208301846117c4565b600060208252610ddc60208301846116e8565b600061024080835261195b8184018b6116e8565b9050828103602084015261196f818a6116e8565b9150508660408301528560608301528460808301528360a0830152610ed960c08301846117c4565b60208082526024908201527f456c617374696344414f3a2044414f206d757374206e6f742062652073756d6d6040820152631bdb995960e21b606082015260800190565b6020808252601a908201527f456c617374696344414f3a204f6e6c792073756d6d6f6e657273000000000000604082015260600190565b6020808252601b908201527f536166654d6174683a206164646974696f6e206f766572666c6f770000000000604082015260600190565b60208082526034908201527f456c617374696344414f3a2043616e6e6f742070757263686173652074686174604082015273206d616e7920736861726573206174206f6e636560601b606082015260800190565b6020808252818101527f456c617374696344414f3a2044414f206d7573742062652073756d6d6f6e6564604082015260600190565b6020808252818101527f456c617374696344414f3a20496e636f72726563742045544820616d6f756e74604082015260600190565b60208082526021908201527f536166654d6174683a206d756c7469706c69636174696f6e206f766572666c6f6040820152607760f81b606082015260800190565b6020808252602d908201527f456c617374696344414f3a20506c656173652063616c6c20696e697469616c6960408201526c1e99551bdad95b88199a5c9cdd609a1b606082015260800190565b60208082526032908201527f456c617374696344414f3a204f6e6c79206465706c6f7965722063616e20696e60408201527134ba34b0b634bd32903a3432902a37b5b2b760711b606082015260800190565b60208082526039908201527f456c617374696344414f3a20506c6561736520736565642044414f207769746860408201527f2045544820746f20736574204554483a45475420726174696f00000000000000606082015260800190565b600060208252610ddc6020830184611714565b600060408252611c6a6040830185611714565b905060018060a01b03831660208301529392505050565b600060408252611c946040830185611714565b90508260208301529392505050565b6101808101610ddf82846117c4565b60405181810167ffffffffffffffff81118282101715611cce57fe5b604052919050565b600067ffffffffffffffff821115611cea57fe5b50601f01601f191660200190565b60005b83811015611d13578181015183820152602001611cfb565b838111156118a65750506000910152565b6001600160a01b0381168114611d3957600080fd5b5056fea2646970667358221220a222dde060bd9b1d272239bd5f8633d217186fef91ba4a5aced9a44941f3597564736f6c63430007020033a264697066735822122010ed8c1c1867f214129d03c07461a672f7c1b4e6ba4559fc20c9fa580e5afa9664736f6c63430007020033",
  "linkReferences": {},
  "deployedLinkReferences": {}
}