{
  "_format": "hh-sol-artifact-1",
  "contractName": "InformationalVoteModuleFactory",
  "sourceName": "src/modules/InformationalVote/InformationalVoteModuleFactory.sol",
  "abi": [
    {
      "anonymous": false,
      "inputs": [
        {
          "indexed": true,
          "internalType": "address",
          "name": "managerAddress",
          "type": "address"
        }
      ],
      "name": "ManagerDeployed",
      "type": "event"
    },
    {
      "inputs": [
        {
          "internalType": "address",
          "name": "_ballotModelAddress",
          "type": "address"
        },
        {
          "internalType": "address",
          "name": "_elasticDAOAddress",
          "type": "address"
        },
        {
          "internalType": "address",
          "name": "_settingsModelAddress",
          "type": "address"
        },
        {
          "internalType": "address",
          "name": "_voteModelAddress",
          "type": "address"
        },
        {
          "internalType": "address",
          "name": "_votingToken",
          "type": "address"
        },
        {
          "internalType": "bool",
          "name": "_hasPenalty",
          "type": "bool"
        },
        {
          "internalType": "uint256[10]",
          "name": "_settings",
          "type": "uint256[10]"
        }
      ],
      "name": "deployManager",
      "outputs": [],
      "stateMutability": "nonpayable",
      "type": "function"
    }
  ],
  "bytecode": "0x608060405234801561001057600080fd5b5061248e806100206000396000f3fe608060405234801561001057600080fd5b506004361061002b5760003560e01c80631aded75414610030575b600080fd5b61004361003e3660046101ac565b610045565b005b600087868660405161005690610183565b61006293929190610299565b604051809103906000f08015801561007e573d6000803e3d6000fd5b50604051631ac0ab5d60e31b81529091506001600160a01b0382169063d6055ae8906100b2908790879087906004016102bc565b600060405180830381600087803b1580156100cc57600080fd5b505af11580156100e0573d6000803e3d6000fd5b5050604051630181bb0b60e01b81528992506001600160a01b0383169150630181bb0b9061011290859060040161030b565b600060405180830381600087803b15801561012c57600080fd5b505af1158015610140573d6000803e3d6000fd5b50506040516001600160a01b03851692507f5caf3d7ccd76ce2fb019663b95a98e88bcc4fe4330e687c78ea5882daccab9ff9150600090a2505050505050505050565b6121048061035583390190565b80356001600160a01b03811681146101a757600080fd5b919050565b600080600080600080600061020080898b0312156101c8578384fd5b6101d189610190565b975060206101e0818b01610190565b97506101ee60408b01610190565b96506101fc60608b01610190565b955061020a60808b01610190565b945060a08a0135801515811461021e578485fd5b935060df8a018b1361022e578283fd5b604051610140810181811067ffffffffffffffff8211171561024c57fe5b6040528060c08c01848d018e1015610262578586fd5b8594505b600a851015610285578035825260019490940193908301908301610266565b505080935050505092959891949750929550565b6001600160a01b0393841681529183166020830152909116604082015260600190565b6001600160a01b0384168152821515602080830191909152610180820190604083018460005b600a8110156102ff578151835291830191908301906001016102e2565b50505050949350505050565b6001600160a01b039190911681526040602082018190526017908201527f496e666f726d6174696f6e616c566f74654d6f64756c6500000000000000000060608201526080019056fe60806040523480156200001157600080fd5b50604051620021043803806200210483398101604081905262000034916200009d565b600080546001600160a01b039485166001600160a01b0319918216179091556002805460018054958716959093169490941790915592166001600160a81b0319909116179055620000e6565b80516001600160a01b03811681146200009857600080fd5b919050565b600080600060608486031215620000b2578283fd5b620000bd8462000080565b9250620000cd6020850162000080565b9150620000dd6040850162000080565b90509250925092565b61200e80620000f66000396000f3fe608060405234801561001057600080fd5b50600436106100885760003560e01c8063478eadbe1161005b578063478eadbe146100f35780637438121314610108578063d6055ae814610110578063e1faaae81461012357610088565b8063083964b11461008d5780630c09135b146100a2578063158ef93e146100b55780634541c853146100d3575b600080fd5b6100a061009b366004611792565b61012b565b005b6100a06100b03660046116de565b6105e6565b6100bd61095c565b6040516100ca9190611842565b60405180910390f35b6100e66100e13660046113f5565b61096c565b6040516100ca9190611f33565b6100fb610c58565b6040516100ca91906117f2565b6100fb610c67565b6100a061011e36600461132f565b610c76565b6100fb610dd5565b61013482610de4565b6101595760405162461bcd60e51b815260040161015090611c87565b60405180910390fd5b61016161111e565b61016a83610e6f565b60c08101519091501561018f5760405162461bcd60e51b815260040161015090611860565b8060a001516101b05760405162461bcd60e51b8152600401610150906119f2565b6101b981610efd565b6101d55760405162461bcd60e51b8152600401610150906119f2565b600382106101f55760405162461bcd60e51b815260040161015090611af1565b6040808201519051633e174aaf60e01b81526000906001600160a01b03831690633e174aaf906102299033906004016117f2565b60206040518083038186803b15801561024157600080fd5b505afa158015610255573d6000803e3d6000fd5b505050506040513d601f19601f8201168201806040525081019061027991906116c6565b6102a084015160405163046deee960e01b81529192506000916001600160a01b0385169163046deee9916102b1913391600401611806565b60206040518083038186803b1580156102c957600080fd5b505afa1580156102dd573d6000803e3d6000fd5b505050506040513d601f19601f8201168201806040525081019061030191906116c6565b90508181101561030f578091505b8184610180015110156103255783610180015191505b8461034457610339846102c0015183610f85565b6102c085015261037d565b84600114156103675761035c84610200015183610f85565b61020085015261037d565b61037684610100015183610f85565b6101008501525b60006103a1610396866102c00151876102000151610f85565b866101000151610f85565b90506000846001600160a01b03166378b61f226040518163ffffffff1660e01b815260040160206040518083038186803b1580156103de57600080fd5b505afa1580156103f2573d6000803e3d6000fd5b505050506040513d601f19601f8201168201806040525081019061041691906116c6565b9050600061042982886102400151610fb3565b905080831061043a57600160808801525b600061044b83896101200151610fb3565b905080841061045c57600160c08901525b6104646111ef565b30815261016089015160808201523360208201526060810187905260a081018a905260005460405163367c925960e11b81526001600160a01b0390911690636cf924b2906104b6908490600401611cbe565b600060405180830381600087803b1580156104d057600080fd5b505af11580156104e4573d6000803e3d6000fd5b5050600254604051632b5bbee360e11b81526001600160a01b0390911692506356b77dc69150610518908c90600401611dc7565b600060405180830381600087803b15801561053257600080fd5b505af1158015610546573d6000803e3d6000fd5b50505050876001600160a01b031663528c198a336105698a8d6102800151610fb3565b6040518363ffffffff1660e01b8152600401610586929190611806565b602060405180830381600087803b1580156105a057600080fd5b505af11580156105b4573d6000803e3d6000fd5b505050506040513d601f19601f820116820180604052508101906105d891906113d9565b505050505050505050505050565b6105ef82610de4565b61060b5760405162461bcd60e51b815260040161015090611c87565b61061361111e565b61061c83610e6f565b60c0810151909150156106415760405162461bcd60e51b815260040161015090611b5e565b60a0810151156106635760405162461bcd60e51b815260040161015090611c3c565b6080810151156106855760405162461bcd60e51b815260040161015090611949565b80606001516106a65760405162461bcd60e51b815260040161015090611aac565b6000805460408301516001600160a01b03909116915b845181101561095457826001600160a01b031663516217bd30888885815181106106e257fe5b60200260200101516040518463ffffffff1660e01b81526004016107089392919061181f565b60206040518083038186803b15801561072057600080fd5b505afa158015610734573d6000803e3d6000fd5b505050506040513d601f19601f8201168201806040525081019061075891906113d9565b610942576107646111ef565b3081526101608501516080820152855186908390811061078057fe5b6020908102919091018101516001600160a01b03908116918301919091526001604083015286516000916108439190861690633e174aaf908a90879081106107c457fe5b60200260200101516040518263ffffffff1660e01b81526004016107e891906117f2565b60206040518083038186803b15801561080057600080fd5b505afa158015610814573d6000803e3d6000fd5b505050506040513d601f19601f8201168201806040525081019061083891906116c6565b876102200151610fb3565b6060830181905260405163367c925960e11b81529091506001600160a01b03861690636cf924b290610879908590600401611cbe565b600060405180830381600087803b15801561089357600080fd5b505af11580156108a7573d6000803e3d6000fd5b50505050836001600160a01b031663ee7a7c048885815181106108c657fe5b6020026020010151836040518363ffffffff1660e01b81526004016108ec929190611806565b602060405180830381600087803b15801561090657600080fd5b505af115801561091a573d6000803e3d6000fd5b505050506040513d601f19601f8201168201806040525081019061093e91906113d9565b5050505b61094d816001610f85565b90506106bc565b505050505050565b600254600160a01b900460ff1681565b600254600090600160a01b900460ff166109985760405162461bcd60e51b8152600401610150906118bd565b6109a0611239565b6109a8610fe8565b6020810151610140820151604051633e174aaf60e01b815292935090916001600160a01b03831690633e174aaf906109e49033906004016117f2565b60206040518083038186803b1580156109fc57600080fd5b505afa158015610a10573d6000803e3d6000fd5b505050506040513d601f19601f82011682018060405250810190610a3491906116c6565b1015610a525760405162461bcd60e51b8152600401610150906119a6565b8160e00151610a618543611076565b1015610a7f5760405162461bcd60e51b815260040161015090611bee565b6002546001600160a01b0316610a9361111e565b308152336020808301919091526040808601511515606084015260006080808501829052600160a08087019190915260c080870184905260e087018d90526101008701849052610120870184905261014087018c905291890151610160808801919091529089015161018080880191909152918901516101a08088019190915261020087018490529089015161022087015290880151610240860152870151610280850152436102a0850152918601516001600160a01b03908116828501526102c084019290925251632b5bbee360e11b8152908316906356b77dc690610b7e908490600401611dc7565b600060405180830381600087803b158015610b9857600080fd5b505af1158015610bac573d6000803e3d6000fd5b505060015460405163e5910ae760e01b81526001600160a01b03909116925063e5910ae79150610be09030906004016117f2565b600060405180830381600087803b158015610bfa57600080fd5b505af1158015610c0e573d6000803e3d6000fd5b505050507f460e77e3c8455201c4722742a8a654c959331ac344ab1b2ecefdb2b500f129c8816101600151604051610c469190611f33565b60405180910390a15050505092915050565b6001546001600160a01b031681565b6000546001600160a01b031681565b600254600160a01b900460ff1615610ca05760405162461bcd60e51b815260040161015090611a4f565b6001546001600160a01b0316610cb4611239565b3081526001600160a01b038516602082015283151560408201528260006020020151606082015260006080820152826001602002015160a0820152826002602002015160c0820152826003602002015160e08201528260046020020151610100820152826005602002015161012082015282600660200201516101408201528260076020020151610160820152826008602002015161018082015282600960200201516101a082015260405163e416649960e01b81526001600160a01b0383169063e416649990610d89908490600401611d0d565b600060405180830381600087803b158015610da357600080fd5b505af1158015610db7573d6000803e3d6000fd5b50506002805460ff60a01b1916600160a01b17905550505050505050565b6002546001600160a01b031681565b60025460405163ed2933ed60e01b81526000916001600160a01b03169063ed2933ed90610e179030908690600401611806565b60206040518083038186803b158015610e2f57600080fd5b505afa158015610e43573d6000803e3d6000fd5b505050506040513d601f19601f82011682018060405250810190610e6791906113d9565b90505b919050565b610e7761111e565b6002546040516348a7e89160e01b81526001600160a01b03909116906348a7e89190610ea99030908690600401611806565b60006040518083038186803b158015610ec157600080fd5b505afa158015610ed5573d6000803e3d6000fd5b505050506040513d6000823e601f3d908101601f19168201604052610e679190810190611539565b60004382610140015111610f7d57600060a0830152600254604051632b5bbee360e11b81526001600160a01b03909116906356b77dc690610f42908590600401611dc7565b600060405180830381600087803b158015610f5c57600080fd5b505af1158015610f70573d6000803e3d6000fd5b5050505060009050610e6a565b506001919050565b600082820183811015610faa5760405162461bcd60e51b815260040161015090611912565b90505b92915050565b6000670de0b6b3a7640000610fd9610fcb85856110b8565b6706f05b59d3b20000610f85565b81610fe057fe5b049392505050565b610ff0611239565b60015460405163332a4d0960e01b81526001600160a01b039091169063332a4d09906110209030906004016117f2565b6101c06040518083038186803b15801561103957600080fd5b505afa15801561104d573d6000803e3d6000fd5b505050506040513d601f19601f820116820180604052508101906110719190611471565b905090565b6000610faa83836040518060400160405280601e81526020017f536166654d6174683a207375627472616374696f6e206f766572666c6f7700008152506110f2565b6000826110c757506000610fad565b828202828482816110d457fe5b0414610faa5760405162461bcd60e51b815260040161015090611bad565b600081848411156111165760405162461bcd60e51b8152600401610150919061184d565b505050900390565b604051806102e0016040528060006001600160a01b0316815260200160006001600160a01b0316815260200160006001600160a01b03168152602001600015158152602001600015158152602001600015158152602001600015158152602001606081526020016000815260200160008152602001600081526020016000815260200160008152602001600081526020016000815260200160008152602001600081526020016000815260200160008152602001600081526020016000815260200160008152602001600081525090565b6040518060c0016040528060006001600160a01b0316815260200160006001600160a01b031681526020016000151581526020016000815260200160008152602001600081525090565b604051806101c0016040528060006001600160a01b0316815260200160006001600160a01b0316815260200160001515815260200160008152602001600081526020016000815260200160008152602001600081526020016000815260200160008152602001600081526020016000815260200160008152602001600081525090565b8035610e6a81611fb2565b8051610e6a81611fb2565b8051610e6a81611fca565b600082601f8301126112ed578081fd5b81516113006112fb82611f60565b611f3c565b915080825283602082850101111561131757600080fd5b611328816020840160208601611f82565b5092915050565b6000806000610180808587031215611345578384fd5b843561135081611fb2565b935060208581013561136181611fca565b9350605f86018713611371578283fd5b604051610140810181811067ffffffffffffffff8211171561138f57fe5b8060405250806040880189858a0111156113a7578586fd5b8594505b600a8510156113ca5780358252600194909401939083019083016113ab565b50508093505050509250925092565b6000602082840312156113ea578081fd5b8151610faa81611fca565b60008060408385031215611407578182fd5b823567ffffffffffffffff81111561141d578283fd5b8301601f8101851361142d578283fd5b803561143b6112fb82611f60565b81815286602083850101111561144f578485fd5b8160208401602083013790810160209081019490945295939092013593505050565b60006101c0808385031215611484578182fd5b61148d81611f3c565b9050611498836112c7565b81526114a6602084016112c7565b60208201526114b7604084016112d2565b6040820152606083810151908201526080808401519082015260a0808401519082015260c0808401519082015260e08084015190820152610100808401519082015261012080840151908201526101408084015190820152610160808401519082015261018080840151908201526101a0928301519281019290925250919050565b60006020828403121561154a578081fd5b815167ffffffffffffffff80821115611561578283fd5b81840191506102e0808387031215611577578384fd5b61158081611f3c565b905061158b836112c7565b8152611599602084016112c7565b60208201526115aa604084016112c7565b60408201526115bb606084016112d2565b60608201526115cc608084016112d2565b60808201526115dd60a084016112d2565b60a08201526115ee60c084016112d2565b60c082015260e083015182811115611604578485fd5b611610878286016112dd565b60e083015250610100838101519082015261012080840151908201526101408084015190820152610160808401519082015261018080840151908201526101a080840151908201526101c080840151908201526101e08084015190820152610200808401519082015261022080840151908201526102408084015190820152610260808401519082015261028080840151908201526102a080840151908201526102c09283015192810192909252509392505050565b6000602082840312156116d7578081fd5b5051919050565b600080604083850312156116f0578182fd5b8235915060208084013567ffffffffffffffff8082111561170f578384fd5b818601915086601f830112611722578384fd5b81358181111561172e57fe5b838102915061173e848301611f3c565b8181528481019084860184860187018b1015611758578788fd5b8795505b838610156117815761176d816112bc565b83526001959095019491860191860161175c565b508096505050505050509250929050565b600080604083850312156117a4578182fd5b50508035926020909101359150565b6001600160a01b03169052565b15159052565b600081518084526117de816020860160208601611f82565b601f01601f19169290920160200192915050565b6001600160a01b0391909116815260200190565b6001600160a01b03929092168252602082015260400190565b6001600160a01b0393841681526020810192909252909116604082015260600190565b901515815260200190565b600060208252610faa60208301846117c6565b60208082526038908201527f456c617374696344414f3a20496e666f726d6174696f6e616c566f746520686160408201527f7320616c7265616479206265656e20617070726f7665642e0000000000000000606082015260800190565b60208082526035908201527f456c617374696344414f3a20496e666f726d6174696f6e616c566f7465204d616040820152741b9859d95c881b9bdd081a5b9a5d1a585b1a5e9959605a1b606082015260800190565b6020808252601b908201527f536166654d6174683a206164646974696f6e206f766572666c6f770000000000604082015260600190565b6020808252603b908201527f456c617374696344414f3a2043616e6e6f742070656e616c697a65206120766f60408201527f746520746861742068617320726561636865642071756f72756d2e0000000000606082015260800190565b6020808252602c908201527f456c617374696344414f3a204e6f7420656e6f7567682073686172657320746f60408201526b2063726561746520766f746560a01b606082015260800190565b60208082526039908201527f456c617374696344414f3a20496e666f726d6174696f6e616c566f746520697360408201527f206e6f7420616374697665206f722068617320656e6465642e00000000000000606082015260800190565b6020808252603b908201527f456c617374696344414f3a20496e666f726d6174696f6e616c20566f7465204d60408201527f616e6167657220616c726561647920696e697469616c697a65642e0000000000606082015260800190565b60208082526025908201527f456c617374696344414f3a205468697320766f746520686173206e6f2070656e60408201526430b63a3c9760d91b606082015260800190565b60208082526047908201527f456c617374696344414f3a20496e76616c6964205f796e612076616c75652e2060408201527f557365203020666f72207965732c203120666f72206e6f2c203220666f7220616060820152663139ba30b4b71760c91b608082015260a00190565b6020808252602f908201527f456c617374696344414f3a2043616e6e6f742070656e616c697a65206120766f60408201526e3a32903a3430ba103830b9b9b2b21760891b606082015260800190565b60208082526021908201527f536166654d6174683a206d756c7469706c69636174696f6e206f766572666c6f6040820152607760f81b606082015260800190565b6020808252602e908201527f456c617374696344414f3a20496e666f726d6174696f6e616c566f746520706560408201526d1c9a5bd9081d1bdbc81cda1bdc9d60921b606082015260800190565b6020808252602b908201527f456c617374696344414f3a2043616e6e6f742070656e616c697a6520616e206160408201526a31ba34bb32903b37ba329760a91b606082015260800190565b6020808252601c908201527f456c617374696344414f3a20496e76616c696420766f74652069642e00000000604082015260600190565b81516001600160a01b03908116825260208084015190911690820152604080830151151590820152606080830151908201526080808301519082015260a0918201519181019190915260c00190565b60006101c082019050611d218284516117b3565b6020830151611d3360208401826117b3565b506040830151611d4660408401826117c0565b50606083015160608301526080830151608083015260a083015160a083015260c083015160c083015260e083015160e08301526101008084015181840152506101208084015181840152506101408084015181840152506101608084015181840152506101808084015181840152506101a080840151818401525092915050565b600060208252611ddb6020830184516117b3565b6020830151611ded60408401826117b3565b506040830151611e0060608401826117b3565b506060830151611e1360808401826117c0565b506080830151611e2660a08401826117c0565b5060a0830151611e3960c08401826117c0565b5060c0830151611e4c60e08401826117c0565b5060e08301516102e06101008181860152611e6b6103008601846117c6565b90860151610120868101919091528601516101408087019190915286015161016080870191909152860151610180808701919091528601516101a0808701919091528601516101c0808701919091528601516101e08087019190915286015161020080870191909152860151610220808701919091528601516102408087019190915286015161026080870191909152860151610280808701919091528601516102a0808701919091528601516102c080870191909152909501519301929092525090919050565b90815260200190565b60405181810167ffffffffffffffff81118282101715611f5857fe5b604052919050565b600067ffffffffffffffff821115611f7457fe5b50601f01601f191660200190565b60005b83811015611f9d578181015183820152602001611f85565b83811115611fac576000848401525b50505050565b6001600160a01b0381168114611fc757600080fd5b50565b8015158114611fc757600080fdfea264697066735822122086828a6b2b475b24228e94323a782f7b119d7c37950160143e4ce28e6d1a0def64736f6c63430007020033a2646970667358221220c06e92cf388ee0f512a889f7ad44b7cdd563c9d6176151f3739308c75d82c81264736f6c63430007020033",
  "linkReferences": {},
  "deployedLinkReferences": {}
}