{
  "_format": "hh-sol-artifact-1",
  "contractName": "InformationalVoteModuleFactory",
  "sourceName": "src/modules/InformationalVote/InformationalVoteModuleFactory.sol",
  "abi": [
    {
      "anonymous": false,
      "inputs": [
        {
          "indexed": true,
          "internalType": "address",
          "name": "managerAddress",
          "type": "address"
        }
      ],
      "name": "ManagerDeployed",
      "type": "event"
    },
    {
      "inputs": [
        {
          "internalType": "address",
          "name": "_ballotModelAddress",
          "type": "address"
        },
        {
          "internalType": "address payable",
          "name": "_elasticDAOAddress",
          "type": "address"
        },
        {
          "internalType": "address",
          "name": "_settingsModelAddress",
          "type": "address"
        },
        {
          "internalType": "address",
          "name": "_voteModelAddress",
          "type": "address"
        },
        {
          "internalType": "address",
          "name": "_votingToken",
          "type": "address"
        },
        {
          "internalType": "bool",
          "name": "_hasPenalty",
          "type": "bool"
        },
        {
          "internalType": "uint256[10]",
          "name": "_settings",
          "type": "uint256[10]"
        }
      ],
      "name": "deployManager",
      "outputs": [],
      "stateMutability": "nonpayable",
      "type": "function"
    }
  ],
  "bytecode": "0x608060405234801561001057600080fd5b506124c4806100206000396000f3fe608060405234801561001057600080fd5b506004361061002b5760003560e01c80631aded75414610030575b600080fd5b61004361003e366004610190565b610045565b005b600087868660405161005690610183565b61006293929190610287565b604051809103906000f08015801561007e573d6000803e3d6000fd5b50604051631ac0ab5d60e31b81529091506001600160a01b0382169063d6055ae8906100b2908790879087906004016102aa565b600060405180830381600087803b1580156100cc57600080fd5b505af11580156100e0573d6000803e3d6000fd5b5050604051630181bb0b60e01b81528992506001600160a01b0383169150630181bb0b906101129085906004016102f9565b600060405180830381600087803b15801561012c57600080fd5b505af1158015610140573d6000803e3d6000fd5b50506040516001600160a01b03851692507f5caf3d7ccd76ce2fb019663b95a98e88bcc4fe4330e687c78ea5882daccab9ff9150600090a2505050505050505050565b6121348061035b83390190565b600080600080600080600061020080898b0312156101ac578384fd5b88356101b781610342565b97506020898101356101c881610342565b975060408a01356101d881610342565b965060608a01356101e881610342565b955060808a01356101f881610342565b945060a08a0135801515811461020c578485fd5b935060df8a018b1361021c578283fd5b604051610140810181811067ffffffffffffffff8211171561023a57fe5b6040528060c08c01848d018e1015610250578586fd5b8594505b600a851015610273578035825260019490940193908301908301610254565b505080935050505092959891949750929550565b6001600160a01b0393841681529183166020830152909116604082015260600190565b6001600160a01b0384168152821515602080830191909152610180820190604083018460005b600a8110156102ed578151835291830191908301906001016102d0565b50505050949350505050565b6001600160a01b039190911681526040602082018190526017908201527f496e666f726d6174696f6e616c566f74654d6f64756c65000000000000000000606082015260800190565b6001600160a01b038116811461035757600080fd5b5056fe60806040523480156200001157600080fd5b50604051620021343803806200213483398101604081905262000034916200009d565b600080546001600160a01b039485166001600160a01b0319918216179091556002805460018054958716959093169490941790915592166001600160a81b0319909116179055620000e6565b80516001600160a01b03811681146200009857600080fd5b919050565b600080600060608486031215620000b2578283fd5b620000bd8462000080565b9250620000cd6020850162000080565b9150620000dd6040850162000080565b90509250925092565b61203e80620000f66000396000f3fe608060405234801561001057600080fd5b50600436106100935760003560e01c8063478eadbe11610066578063478eadbe146100fe578063743812131461011357806385b4bb531461011b578063d6055ae814610130578063e1faaae81461014357610093565b8063083964b1146100985780630c09135b146100ad578063158ef93e146100c05780634541c853146100de575b600080fd5b6100ab6100a63660046117c2565b61014b565b005b6100ab6100bb36600461170e565b610606565b6100c861097c565b6040516100d59190611872565b60405180910390f35b6100f16100ec366004611425565b61098c565b6040516100d59190611f63565b610106610c78565b6040516100d59190611822565b610106610c87565b610123610c96565b6040516100d59190611d3d565b6100ab61013e36600461135f565b610cab565b610106610e0a565b61015482610e19565b6101795760405162461bcd60e51b815260040161017090611cb7565b60405180910390fd5b61018161114e565b61018a83610ea4565b60c0810151909150156101af5760405162461bcd60e51b815260040161017090611890565b8060a001516101d05760405162461bcd60e51b815260040161017090611a22565b6101d981610f32565b6101f55760405162461bcd60e51b815260040161017090611a22565b600382106102155760405162461bcd60e51b815260040161017090611b21565b6040808201519051633e174aaf60e01b81526000906001600160a01b03831690633e174aaf90610249903390600401611822565b60206040518083038186803b15801561026157600080fd5b505afa158015610275573d6000803e3d6000fd5b505050506040513d601f19601f8201168201806040525081019061029991906116f6565b6102a084015160405163046deee960e01b81529192506000916001600160a01b0385169163046deee9916102d1913391600401611836565b60206040518083038186803b1580156102e957600080fd5b505afa1580156102fd573d6000803e3d6000fd5b505050506040513d601f19601f8201168201806040525081019061032191906116f6565b90508181101561032f578091505b8184610180015110156103455783610180015191505b8461036457610359846102c0015183610fba565b6102c085015261039d565b84600114156103875761037c84610200015183610fba565b61020085015261039d565b61039684610100015183610fba565b6101008501525b60006103c16103b6866102c00151876102000151610fba565b866101000151610fba565b90506000846001600160a01b03166378b61f226040518163ffffffff1660e01b815260040160206040518083038186803b1580156103fe57600080fd5b505afa158015610412573d6000803e3d6000fd5b505050506040513d601f19601f8201168201806040525081019061043691906116f6565b9050600061044982886102400151610fe8565b905080831061045a57600160808801525b600061046b83896101200151610fe8565b905080841061047c57600160c08901525b61048461121f565b30815261016089015160808201523360208201526060810187905260a081018a905260005460405163367c925960e11b81526001600160a01b0390911690636cf924b2906104d6908490600401611cee565b600060405180830381600087803b1580156104f057600080fd5b505af1158015610504573d6000803e3d6000fd5b5050600254604051632b5bbee360e11b81526001600160a01b0390911692506356b77dc69150610538908c90600401611df7565b600060405180830381600087803b15801561055257600080fd5b505af1158015610566573d6000803e3d6000fd5b50505050876001600160a01b031663528c198a336105898a8d6102800151610fe8565b6040518363ffffffff1660e01b81526004016105a6929190611836565b602060405180830381600087803b1580156105c057600080fd5b505af11580156105d4573d6000803e3d6000fd5b505050506040513d601f19601f820116820180604052508101906105f89190611409565b505050505050505050505050565b61060f82610e19565b61062b5760405162461bcd60e51b815260040161017090611cb7565b61063361114e565b61063c83610ea4565b60c0810151909150156106615760405162461bcd60e51b815260040161017090611b8e565b60a0810151156106835760405162461bcd60e51b815260040161017090611c6c565b6080810151156106a55760405162461bcd60e51b815260040161017090611979565b80606001516106c65760405162461bcd60e51b815260040161017090611adc565b6000805460408301516001600160a01b03909116915b845181101561097457826001600160a01b031663516217bd308888858151811061070257fe5b60200260200101516040518463ffffffff1660e01b81526004016107289392919061184f565b60206040518083038186803b15801561074057600080fd5b505afa158015610754573d6000803e3d6000fd5b505050506040513d601f19601f820116820180604052508101906107789190611409565b6109625761078461121f565b308152610160850151608082015285518690839081106107a057fe5b6020908102919091018101516001600160a01b03908116918301919091526001604083015286516000916108639190861690633e174aaf908a90879081106107e457fe5b60200260200101516040518263ffffffff1660e01b81526004016108089190611822565b60206040518083038186803b15801561082057600080fd5b505afa158015610834573d6000803e3d6000fd5b505050506040513d601f19601f8201168201806040525081019061085891906116f6565b876102200151610fe8565b6060830181905260405163367c925960e11b81529091506001600160a01b03861690636cf924b290610899908590600401611cee565b600060405180830381600087803b1580156108b357600080fd5b505af11580156108c7573d6000803e3d6000fd5b50505050836001600160a01b031663ee7a7c048885815181106108e657fe5b6020026020010151836040518363ffffffff1660e01b815260040161090c929190611836565b602060405180830381600087803b15801561092657600080fd5b505af115801561093a573d6000803e3d6000fd5b505050506040513d601f19601f8201168201806040525081019061095e9190611409565b5050505b61096d816001610fba565b90506106dc565b505050505050565b600254600160a01b900460ff1681565b600254600090600160a01b900460ff166109b85760405162461bcd60e51b8152600401610170906118ed565b6109c0611269565b6109c861101d565b6020810151610140820151604051633e174aaf60e01b815292935090916001600160a01b03831690633e174aaf90610a04903390600401611822565b60206040518083038186803b158015610a1c57600080fd5b505afa158015610a30573d6000803e3d6000fd5b505050506040513d601f19601f82011682018060405250810190610a5491906116f6565b1015610a725760405162461bcd60e51b8152600401610170906119d6565b8160e00151610a8185436110a6565b1015610a9f5760405162461bcd60e51b815260040161017090611c1e565b6002546001600160a01b0316610ab361114e565b308152336020808301919091526040808601511515606084015260006080808501829052600160a08087019190915260c080870184905260e087018d90526101008701849052610120870184905261014087018c905291890151610160808801919091529089015161018080880191909152918901516101a08088019190915261020087018490529089015161022087015290880151610240860152870151610280850152436102a0850152918601516001600160a01b03908116828501526102c084019290925251632b5bbee360e11b8152908316906356b77dc690610b9e908490600401611df7565b600060405180830381600087803b158015610bb857600080fd5b505af1158015610bcc573d6000803e3d6000fd5b505060015460405163e5910ae760e01b81526001600160a01b03909116925063e5910ae79150610c00903090600401611822565b600060405180830381600087803b158015610c1a57600080fd5b505af1158015610c2e573d6000803e3d6000fd5b505050507f460e77e3c8455201c4722742a8a654c959331ac344ab1b2ecefdb2b500f129c8816101600151604051610c669190611f63565b60405180910390a15050505092915050565b6001546001600160a01b031681565b6000546001600160a01b031681565b610c9e611269565b610ca661101d565b905090565b600254600160a01b900460ff1615610cd55760405162461bcd60e51b815260040161017090611a7f565b6001546001600160a01b0316610ce9611269565b3081526001600160a01b038516602082015283151560408201528260006020020151606082015260006080820152826001602002015160a0820152826002602002015160c0820152826003602002015160e08201528260046020020151610100820152826005602002015161012082015282600660200201516101408201528260076020020151610160820152826008602002015161018082015282600960200201516101a082015260405163e416649960e01b81526001600160a01b0383169063e416649990610dbe908490600401611d3d565b600060405180830381600087803b158015610dd857600080fd5b505af1158015610dec573d6000803e3d6000fd5b50506002805460ff60a01b1916600160a01b17905550505050505050565b6002546001600160a01b031681565b60025460405163ed2933ed60e01b81526000916001600160a01b03169063ed2933ed90610e4c9030908690600401611836565b60206040518083038186803b158015610e6457600080fd5b505afa158015610e78573d6000803e3d6000fd5b505050506040513d601f19601f82011682018060405250810190610e9c9190611409565b90505b919050565b610eac61114e565b6002546040516348a7e89160e01b81526001600160a01b03909116906348a7e89190610ede9030908690600401611836565b60006040518083038186803b158015610ef657600080fd5b505afa158015610f0a573d6000803e3d6000fd5b505050506040513d6000823e601f3d908101601f19168201604052610e9c9190810190611569565b60004382610140015111610fb257600060a0830152600254604051632b5bbee360e11b81526001600160a01b03909116906356b77dc690610f77908590600401611df7565b600060405180830381600087803b158015610f9157600080fd5b505af1158015610fa5573d6000803e3d6000fd5b5050505060009050610e9f565b506001919050565b600082820183811015610fdf5760405162461bcd60e51b815260040161017090611942565b90505b92915050565b6000670de0b6b3a764000061100e61100085856110e8565b6706f05b59d3b20000610fba565b8161101557fe5b049392505050565b611025611269565b60015460405163332a4d0960e01b81526001600160a01b039091169063332a4d0990611055903090600401611822565b6101c06040518083038186803b15801561106e57600080fd5b505afa158015611082573d6000803e3d6000fd5b505050506040513d601f19601f82011682018060405250810190610ca691906114a1565b6000610fdf83836040518060400160405280601e81526020017f536166654d6174683a207375627472616374696f6e206f766572666c6f770000815250611122565b6000826110f757506000610fe2565b8282028284828161110457fe5b0414610fdf5760405162461bcd60e51b815260040161017090611bdd565b600081848411156111465760405162461bcd60e51b8152600401610170919061187d565b505050900390565b604051806102e0016040528060006001600160a01b0316815260200160006001600160a01b0316815260200160006001600160a01b03168152602001600015158152602001600015158152602001600015158152602001600015158152602001606081526020016000815260200160008152602001600081526020016000815260200160008152602001600081526020016000815260200160008152602001600081526020016000815260200160008152602001600081526020016000815260200160008152602001600081525090565b6040518060c0016040528060006001600160a01b0316815260200160006001600160a01b031681526020016000151581526020016000815260200160008152602001600081525090565b604051806101c0016040528060006001600160a01b0316815260200160006001600160a01b0316815260200160001515815260200160008152602001600081526020016000815260200160008152602001600081526020016000815260200160008152602001600081526020016000815260200160008152602001600081525090565b8035610e9f81611fe2565b8051610e9f81611fe2565b8051610e9f81611ffa565b600082601f83011261131d578081fd5b815161133061132b82611f90565b611f6c565b915080825283602082850101111561134757600080fd5b611358816020840160208601611fb2565b5092915050565b6000806000610180808587031215611375578384fd5b843561138081611fe2565b935060208581013561139181611ffa565b9350605f860187136113a1578283fd5b604051610140810181811067ffffffffffffffff821117156113bf57fe5b8060405250806040880189858a0111156113d7578586fd5b8594505b600a8510156113fa5780358252600194909401939083019083016113db565b50508093505050509250925092565b60006020828403121561141a578081fd5b8151610fdf81611ffa565b60008060408385031215611437578182fd5b823567ffffffffffffffff81111561144d578283fd5b8301601f8101851361145d578283fd5b803561146b61132b82611f90565b81815286602083850101111561147f578485fd5b8160208401602083013790810160209081019490945295939092013593505050565b60006101c08083850312156114b4578182fd5b6114bd81611f6c565b90506114c8836112f7565b81526114d6602084016112f7565b60208201526114e760408401611302565b6040820152606083810151908201526080808401519082015260a0808401519082015260c0808401519082015260e08084015190820152610100808401519082015261012080840151908201526101408084015190820152610160808401519082015261018080840151908201526101a0928301519281019290925250919050565b60006020828403121561157a578081fd5b815167ffffffffffffffff80821115611591578283fd5b81840191506102e08083870312156115a7578384fd5b6115b081611f6c565b90506115bb836112f7565b81526115c9602084016112f7565b60208201526115da604084016112f7565b60408201526115eb60608401611302565b60608201526115fc60808401611302565b608082015261160d60a08401611302565b60a082015261161e60c08401611302565b60c082015260e083015182811115611634578485fd5b6116408782860161130d565b60e083015250610100838101519082015261012080840151908201526101408084015190820152610160808401519082015261018080840151908201526101a080840151908201526101c080840151908201526101e08084015190820152610200808401519082015261022080840151908201526102408084015190820152610260808401519082015261028080840151908201526102a080840151908201526102c09283015192810192909252509392505050565b600060208284031215611707578081fd5b5051919050565b60008060408385031215611720578182fd5b8235915060208084013567ffffffffffffffff8082111561173f578384fd5b818601915086601f830112611752578384fd5b81358181111561175e57fe5b838102915061176e848301611f6c565b8181528481019084860184860187018b1015611788578788fd5b8795505b838610156117b15761179d816112ec565b83526001959095019491860191860161178c565b508096505050505050509250929050565b600080604083850312156117d4578182fd5b50508035926020909101359150565b6001600160a01b03169052565b15159052565b6000815180845261180e816020860160208601611fb2565b601f01601f19169290920160200192915050565b6001600160a01b0391909116815260200190565b6001600160a01b03929092168252602082015260400190565b6001600160a01b0393841681526020810192909252909116604082015260600190565b901515815260200190565b600060208252610fdf60208301846117f6565b60208082526038908201527f456c617374696344414f3a20496e666f726d6174696f6e616c566f746520686160408201527f7320616c7265616479206265656e20617070726f7665642e0000000000000000606082015260800190565b60208082526035908201527f456c617374696344414f3a20496e666f726d6174696f6e616c566f7465204d616040820152741b9859d95c881b9bdd081a5b9a5d1a585b1a5e9959605a1b606082015260800190565b6020808252601b908201527f536166654d6174683a206164646974696f6e206f766572666c6f770000000000604082015260600190565b6020808252603b908201527f456c617374696344414f3a2043616e6e6f742070656e616c697a65206120766f60408201527f746520746861742068617320726561636865642071756f72756d2e0000000000606082015260800190565b6020808252602c908201527f456c617374696344414f3a204e6f7420656e6f7567682073686172657320746f60408201526b2063726561746520766f746560a01b606082015260800190565b60208082526039908201527f456c617374696344414f3a20496e666f726d6174696f6e616c566f746520697360408201527f206e6f7420616374697665206f722068617320656e6465642e00000000000000606082015260800190565b6020808252603b908201527f456c617374696344414f3a20496e666f726d6174696f6e616c20566f7465204d60408201527f616e6167657220616c726561647920696e697469616c697a65642e0000000000606082015260800190565b60208082526025908201527f456c617374696344414f3a205468697320766f746520686173206e6f2070656e60408201526430b63a3c9760d91b606082015260800190565b60208082526047908201527f456c617374696344414f3a20496e76616c6964205f796e612076616c75652e2060408201527f557365203020666f72207965732c203120666f72206e6f2c203220666f7220616060820152663139ba30b4b71760c91b608082015260a00190565b6020808252602f908201527f456c617374696344414f3a2043616e6e6f742070656e616c697a65206120766f60408201526e3a32903a3430ba103830b9b9b2b21760891b606082015260800190565b60208082526021908201527f536166654d6174683a206d756c7469706c69636174696f6e206f766572666c6f6040820152607760f81b606082015260800190565b6020808252602e908201527f456c617374696344414f3a20496e666f726d6174696f6e616c566f746520706560408201526d1c9a5bd9081d1bdbc81cda1bdc9d60921b606082015260800190565b6020808252602b908201527f456c617374696344414f3a2043616e6e6f742070656e616c697a6520616e206160408201526a31ba34bb32903b37ba329760a91b606082015260800190565b6020808252601c908201527f456c617374696344414f3a20496e76616c696420766f74652069642e00000000604082015260600190565b81516001600160a01b03908116825260208084015190911690820152604080830151151590820152606080830151908201526080808301519082015260a0918201519181019190915260c00190565b60006101c082019050611d518284516117e3565b6020830151611d6360208401826117e3565b506040830151611d7660408401826117f0565b50606083015160608301526080830151608083015260a083015160a083015260c083015160c083015260e083015160e08301526101008084015181840152506101208084015181840152506101408084015181840152506101608084015181840152506101808084015181840152506101a080840151818401525092915050565b600060208252611e0b6020830184516117e3565b6020830151611e1d60408401826117e3565b506040830151611e3060608401826117e3565b506060830151611e4360808401826117f0565b506080830151611e5660a08401826117f0565b5060a0830151611e6960c08401826117f0565b5060c0830151611e7c60e08401826117f0565b5060e08301516102e06101008181860152611e9b6103008601846117f6565b90860151610120868101919091528601516101408087019190915286015161016080870191909152860151610180808701919091528601516101a0808701919091528601516101c0808701919091528601516101e08087019190915286015161020080870191909152860151610220808701919091528601516102408087019190915286015161026080870191909152860151610280808701919091528601516102a0808701919091528601516102c080870191909152909501519301929092525090919050565b90815260200190565b60405181810167ffffffffffffffff81118282101715611f8857fe5b604052919050565b600067ffffffffffffffff821115611fa457fe5b50601f01601f191660200190565b60005b83811015611fcd578181015183820152602001611fb5565b83811115611fdc576000848401525b50505050565b6001600160a01b0381168114611ff757600080fd5b50565b8015158114611ff757600080fdfea2646970667358221220ae4e1f05475d98534e259af204c763bf04047d47c1bae195d20aa7350e84ce0b64736f6c63430007020033a2646970667358221220d6fcbba52f00d98594fb19d64c92ef7605a5df33bd3fcf5c6e77bdda4174b46264736f6c63430007020033",
  "linkReferences": {},
  "deployedLinkReferences": {}
}