{
  "_format": "hh-sol-artifact-1",
  "contractName": "Registrator",
  "sourceName": "src/services/Registrator.sol",
  "abi": [
    {
      "inputs": [
        {
          "internalType": "address",
          "name": "_moduleAddress",
          "type": "address"
        },
        {
          "internalType": "string",
          "name": "_name",
          "type": "string"
        },
        {
          "components": [
            {
              "internalType": "address",
              "name": "daoAddress",
              "type": "address"
            },
            {
              "internalType": "address",
              "name": "balanceModelAddress",
              "type": "address"
            },
            {
              "internalType": "address",
              "name": "balanceMultipliersModelAddress",
              "type": "address"
            },
            {
              "internalType": "address",
              "name": "daoModelAddress",
              "type": "address"
            },
            {
              "internalType": "address",
              "name": "ecosystemModelAddress",
              "type": "address"
            },
            {
              "internalType": "address",
              "name": "elasticDAOFactoryAddress",
              "type": "address"
            },
            {
              "internalType": "address",
              "name": "elasticModuleModelAddress",
              "type": "address"
            },
            {
              "internalType": "address",
              "name": "tokenHolderModelAddress",
              "type": "address"
            },
            {
              "internalType": "address",
              "name": "tokenModelAddress",
              "type": "address"
            },
            {
              "internalType": "address",
              "name": "configuratorAddress",
              "type": "address"
            },
            {
              "internalType": "address",
              "name": "registratorAddress",
              "type": "address"
            },
            {
              "internalType": "address",
              "name": "governanceTokenAddress",
              "type": "address"
            }
          ],
          "internalType": "struct Ecosystem.Instance",
          "name": "_ecosystem",
          "type": "tuple"
        }
      ],
      "name": "registerModule",
      "outputs": [],
      "stateMutability": "nonpayable",
      "type": "function"
    }
  ],
  "bytecode": "0x608060405234801561001057600080fd5b5061096b806100206000396000f3fe608060405234801561001057600080fd5b506004361061002b5760003560e01c806383ba50bc14610030575b600080fd5b61004361003e366004610418565b610045565b005b60c0810151610052610152565b82606001516001600160a01b0316631a2861fb33856040518363ffffffff1660e01b8152600401610084929190610789565b60006040518083038186803b15801561009c57600080fd5b505afa1580156100b0573d6000803e3d6000fd5b505050506040513d6000823e601f3d908101601f191682016040526100d89190810190610595565b604080830191909152602082018590526001600160a01b038087168352905163f9c9ccf360e01b81529083169063f9c9ccf3906101199084906004016107ae565b600060405180830381600087803b15801561013357600080fd5b505af1158015610147573d6000803e3d6000fd5b505050505050505050565b604080516080810182526000815260606020820152908101610172610184565b815260200161017f6101c1565b905290565b6040518060c0016040528060006001600160a01b0316815260200160608152602001600015158152602001606081526020016000815260200161017f5b6040805161018081018252600080825260208201819052918101829052606081018290526080810182905260a0810182905260c0810182905260e0810182905261010081018290526101208101829052610140810182905261016081019190915290565b80356102308161091d565b919050565b80516102308161091d565b600082601f830112610250578081fd5b815167ffffffffffffffff81111561026457fe5b60208082026102748282016108ab565b8381529350818401858301828701840188101561029057600080fd5b600092505b848310156102bc5780516102a88161091d565b825260019290920191908301908301610295565b505050505092915050565b8051801515811461023057600080fd5b600082601f8301126102e7578081fd5b81516102fa6102f5826108cf565b6108ab565b915080825283602082850101111561031157600080fd5b6103228160208401602086016108f1565b5092915050565b600061018080838503121561033c578182fd5b610345816108ab565b91505061035182610235565b815261035f60208301610235565b602082015261037060408301610235565b604082015261038160608301610235565b606082015261039260808301610235565b60808201526103a360a08301610235565b60a08201526103b460c08301610235565b60c08201526103c560e08301610235565b60e08201526101006103d8818401610235565b908201526101206103ea838201610235565b908201526101406103fc838201610235565b9082015261016061040e838201610235565b9082015292915050565b60008060008385036101c081121561042e578384fd5b84356104398161091d565b935060208581013567ffffffffffffffff811115610455578485fd5b8601601f81018813610465578485fd5b80356104736102f5826108cf565b8181528984838501011115610486578687fd5b818484018583013790810183019590955250610180603f1983018113156104ab578384fd5b6104b4816108ab565b92506104c260408801610225565b83526104d060608801610225565b828401526104e060808801610225565b60408401526104f160a08801610225565b606084015261050260c08801610225565b608084015261051360e08801610225565b60a08401526101009150610528828801610225565b60c084015261012061053b818901610225565b60e085015261014061054e818a01610225565b848601526101609350610562848a01610225565b82860152610571838a01610225565b818601525050506105856101a08701610225565b8183015250809150509250925092565b6000602082840312156105a6578081fd5b815167ffffffffffffffff808211156105bd578283fd5b9083019061022082860312156105d1578283fd5b6105db60c06108ab565b6105e483610235565b81526020830151828111156105f7578485fd5b61060387828601610240565b602083015250610615604084016102c7565b604082015260608301518281111561062b578485fd5b610637878286016102d7565b606083015250608083015160808201526106548660a08501610329565b60a082015295945050505050565b6001600160a01b03169052565b15159052565b6000815180845261068d8160208601602086016108f1565b601f01601f19169290920160200192915050565b6106ac828251610662565b60208101516106be6020840182610662565b5060408101516106d16040840182610662565b5060608101516106e46060840182610662565b5060808101516106f76080840182610662565b5060a081015161070a60a0840182610662565b5060c081015161071d60c0840182610662565b5060e081015161073060e0840182610662565b506101008082015161074482850182610662565b50506101208082015161075982850182610662565b50506101408082015161076e82850182610662565b50506101608082015161078382850182610662565b50505050565b6001600160a01b03831681526101a081016107a760208301846106a1565b9392505050565b6000602080835260018060a01b038085511682850152818501516101e060408601526107de610200860182610675565b6040870151868203601f19016060880152805184168252848101516102208684018190528151908401819052929350909161024084019186019087905b8082101561083d5782518716845292870192918701916001919091019061081b565b50505060408201519450610854604084018661066f565b60608201519450828103606084015261086d8186610675565b9450506080810151608083015260a081015192505061088f60a08201836106a1565b505060608401516108a360808501826106a1565b509392505050565b60405181810167ffffffffffffffff811182821017156108c757fe5b604052919050565b600067ffffffffffffffff8211156108e357fe5b50601f01601f191660200190565b60005b8381101561090c5781810151838201526020016108f4565b838111156107835750506000910152565b6001600160a01b038116811461093257600080fd5b5056fea26469706673582212202a6af85b92fed93794edc83f50dcbcca76510c6fbaafce9261d85b3f9b3657e664736f6c63430007020033",
  "linkReferences": {},
  "deployedLinkReferences": {}
}