{
  "_format": "hh-sol-artifact-1",
  "contractName": "ElasticDAO",
  "sourceName": "src/core/ElasticDAO.sol",
  "abi": [
    {
      "inputs": [
        {
          "internalType": "address",
          "name": "_ecosystemModelAddress",
          "type": "address"
        },
        {
          "internalType": "address[]",
          "name": "_summoners",
          "type": "address[]"
        },
        {
          "internalType": "string",
          "name": "_name",
          "type": "string"
        },
        {
          "internalType": "uint256",
          "name": "_numberOfSummoners",
          "type": "uint256"
        }
      ],
      "stateMutability": "nonpayable",
      "type": "constructor"
    },
    {
      "anonymous": false,
      "inputs": [
        {
          "indexed": true,
          "internalType": "address",
          "name": "tokenAddress",
          "type": "address"
        }
      ],
      "name": "ElasticGovernanceTokenDeployed",
      "type": "event"
    },
    {
      "inputs": [],
      "name": "getDAO",
      "outputs": [
        {
          "components": [
            {
              "internalType": "address",
              "name": "uuid",
              "type": "address"
            },
            {
              "internalType": "address[]",
              "name": "summoners",
              "type": "address[]"
            },
            {
              "internalType": "bool",
              "name": "summoned",
              "type": "bool"
            },
            {
              "internalType": "string",
              "name": "name",
              "type": "string"
            },
            {
              "internalType": "uint256",
              "name": "numberOfSummoners",
              "type": "uint256"
            },
            {
              "components": [
                {
                  "internalType": "address",
                  "name": "daoAddress",
                  "type": "address"
                },
                {
                  "internalType": "address",
                  "name": "balanceModelAddress",
                  "type": "address"
                },
                {
                  "internalType": "address",
                  "name": "balanceMultipliersModelAddress",
                  "type": "address"
                },
                {
                  "internalType": "address",
                  "name": "daoModelAddress",
                  "type": "address"
                },
                {
                  "internalType": "address",
                  "name": "ecosystemModelAddress",
                  "type": "address"
                },
                {
                  "internalType": "address",
                  "name": "elasticDAOFactoryAddress",
                  "type": "address"
                },
                {
                  "internalType": "address",
                  "name": "elasticModuleModelAddress",
                  "type": "address"
                },
                {
                  "internalType": "address",
                  "name": "tokenHolderModelAddress",
                  "type": "address"
                },
                {
                  "internalType": "address",
                  "name": "tokenModelAddress",
                  "type": "address"
                },
                {
                  "internalType": "address",
                  "name": "configuratorAddress",
                  "type": "address"
                },
                {
                  "internalType": "address",
                  "name": "registratorAddress",
                  "type": "address"
                },
                {
                  "internalType": "address",
                  "name": "governanceTokenAddress",
                  "type": "address"
                }
              ],
              "internalType": "struct Ecosystem.Instance",
              "name": "ecosystem",
              "type": "tuple"
            }
          ],
          "internalType": "struct DAO.Instance",
          "name": "",
          "type": "tuple"
        }
      ],
      "stateMutability": "view",
      "type": "function"
    },
    {
      "inputs": [],
      "name": "getEcosystem",
      "outputs": [
        {
          "components": [
            {
              "internalType": "address",
              "name": "daoAddress",
              "type": "address"
            },
            {
              "internalType": "address",
              "name": "balanceModelAddress",
              "type": "address"
            },
            {
              "internalType": "address",
              "name": "balanceMultipliersModelAddress",
              "type": "address"
            },
            {
              "internalType": "address",
              "name": "daoModelAddress",
              "type": "address"
            },
            {
              "internalType": "address",
              "name": "ecosystemModelAddress",
              "type": "address"
            },
            {
              "internalType": "address",
              "name": "elasticDAOFactoryAddress",
              "type": "address"
            },
            {
              "internalType": "address",
              "name": "elasticModuleModelAddress",
              "type": "address"
            },
            {
              "internalType": "address",
              "name": "tokenHolderModelAddress",
              "type": "address"
            },
            {
              "internalType": "address",
              "name": "tokenModelAddress",
              "type": "address"
            },
            {
              "internalType": "address",
              "name": "configuratorAddress",
              "type": "address"
            },
            {
              "internalType": "address",
              "name": "registratorAddress",
              "type": "address"
            },
            {
              "internalType": "address",
              "name": "governanceTokenAddress",
              "type": "address"
            }
          ],
          "internalType": "struct Ecosystem.Instance",
          "name": "",
          "type": "tuple"
        }
      ],
      "stateMutability": "view",
      "type": "function"
    },
    {
      "inputs": [
        {
          "internalType": "address",
          "name": "_moduleAddress",
          "type": "address"
        },
        {
          "internalType": "string",
          "name": "_name",
          "type": "string"
        }
      ],
      "name": "initializeModule",
      "outputs": [],
      "stateMutability": "nonpayable",
      "type": "function"
    },
    {
      "inputs": [
        {
          "internalType": "string",
          "name": "_name",
          "type": "string"
        },
        {
          "internalType": "string",
          "name": "_symbol",
          "type": "string"
        },
        {
          "internalType": "uint256",
          "name": "_capitalDelta",
          "type": "uint256"
        },
        {
          "internalType": "uint256",
          "name": "_elasticity",
          "type": "uint256"
        },
        {
          "internalType": "uint256",
          "name": "_k",
          "type": "uint256"
        },
        {
          "internalType": "uint256",
          "name": "_maxLambdaPurchase",
          "type": "uint256"
        }
      ],
      "name": "initializeToken",
      "outputs": [],
      "stateMutability": "nonpayable",
      "type": "function"
    },
    {
      "inputs": [
        {
          "internalType": "uint256",
          "name": "_deltaLambda",
          "type": "uint256"
        }
      ],
      "name": "join",
      "outputs": [],
      "stateMutability": "payable",
      "type": "function"
    },
    {
      "inputs": [],
      "name": "seedSummoning",
      "outputs": [],
      "stateMutability": "payable",
      "type": "function"
    },
    {
      "inputs": [
        {
          "internalType": "uint256",
          "name": "_deltaLambda",
          "type": "uint256"
        }
      ],
      "name": "summon",
      "outputs": [],
      "stateMutability": "nonpayable",
      "type": "function"
    }
  ],
  "bytecode": "0x60806040523480156200001157600080fd5b5060405162002723380380620027238339810160408190526200003491620004b7565b600080546001600160a01b0386166001600160a01b03199182161790915560018054909116331790556200006762000222565b60405163332a4d0960e01b81526001600160a01b0386169063332a4d0990620000969060009060040162000749565b6101806040518083038186803b158015620000b057600080fd5b505afa158015620000c5573d6000803e3d6000fd5b505050506040513d601f19601f82011682018060405250810190620000eb919062000616565b610120810151909150620000fe62000222565b604051630289413b60e41b81526001600160a01b0383169063289413b0906200012c908690600401620007f0565b61018060405180830381600087803b1580156200014857600080fd5b505af11580156200015d573d6000803e3d6000fd5b505050506040513d601f19601f8201168201806040525081019062000183919062000616565b604051630d7701f160e11b81529091506001600160a01b03831690631aee03e290620001ba9089908990899087906004016200075d565b600060405180830381600087803b158015620001d557600080fd5b505af1158015620001ea573d6000803e3d6000fd5b505050506040513d6000823e601f3d908101601f1916820160405262000214919081019062000539565b50505050505050506200085a565b6040805161018081018252600080825260208201819052918101829052606081018290526080810182905260a0810182905260c0810182905260e0810182905261010081018290526101208101829052610140810182905261016081019190915290565b80516001600160a01b03811681146200029e57600080fd5b919050565b600082601f830112620002b4578081fd5b81516001600160401b03811115620002c857fe5b6020808202620002da82820162000807565b83815293508184018583018287018401881015620002f757600080fd5b600092505b848310156200032557620003108162000286565b825260019290920191908301908301620002fc565b505050505092915050565b805180151581146200029e57600080fd5b600082601f83011262000352578081fd5b81516001600160401b038111156200036657fe5b6200037b601f8201601f191660200162000807565b91508082528360208285010111156200039357600080fd5b620003a68160208401602086016200082b565b5092915050565b6000610180808385031215620003c1578182fd5b620003cc8162000807565b915050620003da8262000286565b8152620003ea6020830162000286565b6020820152620003fd6040830162000286565b6040820152620004106060830162000286565b6060820152620004236080830162000286565b60808201526200043660a0830162000286565b60a08201526200044960c0830162000286565b60c08201526200045c60e0830162000286565b60e08201526101006200047181840162000286565b908201526101206200048583820162000286565b908201526101406200049983820162000286565b90820152610160620004ad83820162000286565b9082015292915050565b60008060008060808587031215620004cd578384fd5b620004d88562000286565b60208601519094506001600160401b0380821115620004f5578485fd5b6200050388838901620002a3565b9450604087015191508082111562000519578384fd5b50620005288782880162000341565b606096909601519497939650505050565b6000602082840312156200054b578081fd5b81516001600160401b038082111562000562578283fd5b90830190610220828603121562000577578283fd5b6200058360c062000807565b6200058e8362000286565b8152602083015182811115620005a2578485fd5b620005b087828601620002a3565b602083015250620005c46040840162000330565b6040820152606083015182811115620005db578485fd5b620005e98782860162000341565b60608301525060808301516080820152620006088660a08501620003ad565b60a082015295945050505050565b6000610180828403121562000629578081fd5b620006358383620003ad565b9392505050565b6001600160a01b03169052565b620006568282516200063c565b60208101516200066a60208401826200063c565b5060408101516200067f60408401826200063c565b5060608101516200069460608401826200063c565b506080810151620006a960808401826200063c565b5060a0810151620006be60a08401826200063c565b5060c0810151620006d360c08401826200063c565b5060e0810151620006e860e08401826200063c565b5061010080820151620006fe828501826200063c565b50506101208082015162000715828501826200063c565b5050610140808201516200072c828501826200063c565b50506101608082015162000743828501826200063c565b50505050565b6001600160a01b0391909116815260200190565b6101e08082528551908201819052600090610200830190602090818901845b82811015620007a35781516001600160a01b0316855293830193908301906001016200077c565b505050838203818501528651808352620007c381838501848b016200082b565b60408501879052601f01601f191691909101019050620007e7606083018462000649565b95945050505050565b610180810162000801828462000649565b92915050565b6040518181016001600160401b03811182821017156200082357fe5b604052919050565b60005b83811015620008485781810151838201526020016200082e565b83811115620007435750506000910152565b611eb9806200086a6000396000f3fe6080604052600436106100705760003560e01c8063049878f31161004e578063049878f3146100d75780631fb46089146100ea578063985da726146100f2578063a0f2c9771461011d57610070565b80630181bb0b14610075578063035d9f2a1461009757806303ca8c09146100b7575b600080fd5b34801561008157600080fd5b50610095610090366004611524565b61013f565b005b3480156100a357600080fd5b506100956100b2366004611804565b610347565b3480156100c357600080fd5b506100956100d236600461158c565b6107d0565b6100956100e5366004611804565b61091f565b610095610a71565b3480156100fe57600080fd5b50610107610d8a565b6040516101149190611d8b565b60405180910390f35b34801561012957600080fd5b50610132610d9f565b6040516101149190611dea565b6101476111c3565b61014f610daf565b60408101519091501561017d5760405162461bcd60e51b815260040161017490611ade565b60405180910390fd5b610185611209565b61018d610e56565b606081015190915061019d6111c3565b604051631a2861fb60e01b81526001600160a01b03831690631a2861fb906101cb9030908790600401611a5d565b60006040518083038186803b1580156101e357600080fd5b505afa1580156101f7573d6000803e3d6000fd5b505050506040513d6000823e601f3d908101601f1916820160405261021f9190810190611610565b90506000826001600160a01b031663d3ee7f9283336040518363ffffffff1660e01b8152600401610251929190611d9e565b60206040518083038186803b15801561026957600080fd5b505afa15801561027d573d6000803e3d6000fd5b505050506040513d601f19601f820116820180604052508101906102a19190611572565b9050806102c05760405162461bcd60e51b815260040161017490611b22565b6102c8611209565b6102d0610e56565b6101408101516040516320ee942f60e21b8152919250906001600160a01b038216906383ba50bc9061030a908c908c908790600401611a20565b600060405180830381600087803b15801561032457600080fd5b505af1158015610338573d6000803e3d6000fd5b50505050505050505050505050565b61034f6111c3565b610357610daf565b60408101519091501561037c5760405162461bcd60e51b815260040161017490611ade565b610384611209565b61038c610e56565b606081015190915061039c6111c3565b604051631a2861fb60e01b81526001600160a01b03831690631a2861fb906103ca9030908790600401611a5d565b60006040518083038186803b1580156103e257600080fd5b505afa1580156103f6573d6000803e3d6000fd5b505050506040513d6000823e601f3d908101601f1916820160405261041e9190810190611610565b90506000826001600160a01b031663d3ee7f9283336040518363ffffffff1660e01b8152600401610450929190611d9e565b60206040518083038186803b15801561046857600080fd5b505afa15801561047c573d6000803e3d6000fd5b505050506040513d601f19601f820116820180604052508101906104a09190611572565b9050806104bf5760405162461bcd60e51b815260040161017490611b22565b600047116104df5760405162461bcd60e51b815260040161017490611d2e565b6104e7611209565b6104ef610e56565b60608101519091506104ff6111c3565b604051631a2861fb60e01b81526001600160a01b03831690631a2861fb9061052d9030908790600401611a5d565b60006040518083038186803b15801561054557600080fd5b505afa158015610559573d6000803e3d6000fd5b505050506040513d6000823e601f3d908101601f191682016040526105819190810190611610565b905061058b61126d565b610100840151610160850151604051631a2861fb60e01b81526001600160a01b0390921691631a2861fb916105c4918890600401611a5d565b60006040518083038186803b1580156105dc57600080fd5b505afa1580156105f0573d6000803e3d6000fd5b505050506040513d6000823e601f3d908101601f1916820160405261061891908101906116f9565b905060008160000151905060006106398c8460c00151856101000151610edf565b905060005b846080015181101561075a57826001600160a01b03166340c10f19876001600160a01b0316631e92620388856040518363ffffffff1660e01b8152600401610687929190611dc8565b60206040518083038186803b15801561069f57600080fd5b505afa1580156106b3573d6000803e3d6000fd5b505050506040513d601f19601f820116820180604052508101906106d79190611508565b846040518363ffffffff1660e01b81526004016106f5929190611a07565b602060405180830381600087803b15801561070f57600080fd5b505af1158015610723573d6000803e3d6000fd5b505050506040513d601f19601f820116820180604052508101906107479190611572565b50610753816001610efe565b905061063e565b5060016040808601919091525163593a00b360e11b81526001600160a01b0386169063b274016690610790908790600401611d8b565b600060405180830381600087803b1580156107aa57600080fd5b505af11580156107be573d6000803e3d6000fd5b50505050505050505050505050505050565b6107d86111c3565b6107e0610daf565b6040810151909150156108055760405162461bcd60e51b815260040161017490611ade565b6001546001600160a01b0316331461082f5760405162461bcd60e51b815260040161017490611cdc565b610837611209565b61083f610e56565b905061084961126d565b8161012001516001600160a01b0316635eab5eac8a8a8a8a8a8a896040518863ffffffff1660e01b81526004016108869796959493929190611a8e565b600060405180830381600087803b1580156108a057600080fd5b505af11580156108b4573d6000803e3d6000fd5b505050506040513d6000823e601f3d908101601f191682016040526108dc91908101906116f9565b80516040519192506001600160a01b0316907fad65bbe394ae719938a7445c7588b2cdb455ea64f1364115b1e073e31bb1af9b90600090a2505050505050505050565b6109276111c3565b61092f610daf565b905080604001516109525760405162461bcd60e51b815260040161017490611be4565b61095a61126d565b610962610f2c565b90508061012001518311156109895760405162461bcd60e51b815260040161017490611b90565b60006109ae8483606001518460c001518560a001518660e00151876101000151610fd2565b90503481146109cf5760405162461bcd60e51b815260040161017490611c19565b60006109e5858460c00151856101000151610edf565b83516040516340c10f1960e01b81529192506001600160a01b0316906340c10f1990610a179033908590600401611a07565b602060405180830381600087803b158015610a3157600080fd5b505af1158015610a45573d6000803e3d6000fd5b505050506040513d601f19601f82011682018060405250810190610a699190611572565b505050505050565b610a796111c3565b610a81610daf565b604081015190915015610aa65760405162461bcd60e51b815260040161017490611ade565b610aae611209565b610ab6610e56565b6060810151909150610ac66111c3565b604051631a2861fb60e01b81526001600160a01b03831690631a2861fb90610af49030908790600401611a5d565b60006040518083038186803b158015610b0c57600080fd5b505afa158015610b20573d6000803e3d6000fd5b505050506040513d6000823e601f3d908101601f19168201604052610b489190810190611610565b90506000826001600160a01b031663d3ee7f9283336040518363ffffffff1660e01b8152600401610b7a929190611d9e565b60206040518083038186803b158015610b9257600080fd5b505afa158015610ba6573d6000803e3d6000fd5b505050506040513d601f19601f82011682018060405250810190610bca9190611572565b905080610be95760405162461bcd60e51b815260040161017490611b22565b610bf1611209565b610bf9610e56565b90506000610c05610e56565b61010001516101608301516040516314a2b21360e31b81526001600160a01b039092169163a515909891610c3d918690600401611a5d565b60206040518083038186803b158015610c5557600080fd5b505afa158015610c69573d6000803e3d6000fd5b505050506040513d601f19601f82011682018060405250810190610c8d9190611572565b905080610cac5760405162461bcd60e51b815260040161017490611c8f565b610cb461126d565b610cbc610f2c565b905060003490506000610ce0610cd683856060015161102c565b8460c0015161102c565b90506000610cf8828560c00151866101000151610edf565b84516040516340c10f1960e01b81529192506001600160a01b0316906340c10f1990610d2a9033908590600401611a07565b602060405180830381600087803b158015610d4457600080fd5b505af1158015610d58573d6000803e3d6000fd5b505050506040513d601f19601f82011682018060405250810190610d7c9190611572565b505050505050505050505050565b610d926111c3565b610d9a610daf565b905090565b610da7611209565b610d9a610e56565b610db76111c3565b610dbf611209565b610dc7610e56565b6060810151604051631a2861fb60e01b81529192506001600160a01b031690631a2861fb90610dfc9030908590600401611a5d565b60006040518083038186803b158015610e1457600080fd5b505afa158015610e28573d6000803e3d6000fd5b505050506040513d6000823e601f3d908101601f19168201604052610e509190810190611610565b91505090565b610e5e611209565b60005460405163332a4d0960e01b81526001600160a01b039091169063332a4d0990610e8e9030906004016119f3565b6101806040518083038186803b158015610ea757600080fd5b505afa158015610ebb573d6000803e3d6000fd5b505050506040513d601f19601f82011682018060405250810190610d9a91906116dd565b6000610ef4610eee858561105c565b8361105c565b90505b9392505050565b600082820183811015610f235760405162461bcd60e51b815260040161017490611b59565b90505b92915050565b610f3461126d565b610f3c611209565b610f44610e56565b90508061010001516001600160a01b0316631a2861fb826101600151836040518363ffffffff1660e01b8152600401610f7e929190611a5d565b60006040518083038186803b158015610f9657600080fd5b505afa158015610faa573d6000803e3d6000fd5b505050506040513d6000823e601f3d908101601f19168201604052610e5091908101906116f9565b600080610fdf8885610efe565b9050611020610fee888861105c565b61100c6110118461100c611003878b8b611082565b61100c8c611091565b61105c565b61101b888861105c565b6110b0565b98975050505050505050565b60008161104d61104485670de0b6b3a76400006110f2565b60028504610efe565b8161105457fe5b049392505050565b6000670de0b6b3a764000061104d61107485856110f2565b6706f05b59d3b20000610efe565b6000610ef4610eee858561102c565b60006110a8826110a3600a601261112c565b610efe565b90505b919050565b6000610f2383836040518060400160405280601e81526020017f536166654d6174683a207375627472616374696f6e206f766572666c6f770000815250611197565b60008261110157506000610f26565b8282028284828161110e57fe5b0414610f235760405162461bcd60e51b815260040161017490611c4e565b60008161113b57506001610f26565b816001141561114b575081610f26565b8215801561115857508115155b1561116557506000610f26565b8260015b8381101561118f5761117b82866110f2565b9150611188816001610efe565b9050611169565b509050610f26565b600081848411156111bb5760405162461bcd60e51b81526004016101749190611a7b565b505050900390565b6040518060c0016040528060006001600160a01b03168152602001606081526020016000151581526020016060815260200160008152602001611204611209565b905290565b6040805161018081018252600080825260208201819052918101829052606081018290526080810182905260a0810182905260c0810182905260e0810182905261010081018290526101208101829052610140810182905261016081019190915290565b60405180610180016040528060006001600160a01b0316815260200160608152602001606081526020016000815260200160008152602001600081526020016000815260200160008152602001600081526020016000815260200160008152602001611204611209565b80516110ab81611e6b565b600082601f8301126112f2578081fd5b815167ffffffffffffffff81111561130657fe5b6020808202611316828201611df9565b8381529350818401858301828701840188101561133257600080fd5b600092505b8483101561135e57805161134a81611e6b565b825260019290920191908301908301611337565b505050505092915050565b805180151581146110ab57600080fd5b600082601f830112611389578081fd5b813561139c61139782611e1d565b611df9565b91508082528360208285010111156113b357600080fd5b8060208401602084013760009082016020015292915050565b600082601f8301126113dc578081fd5b81516113ea61139782611e1d565b915080825283602082850101111561140157600080fd5b611412816020840160208601611e3f565b5092915050565b600061018080838503121561142c578182fd5b61143581611df9565b915050611441826112d7565b815261144f602083016112d7565b6020820152611460604083016112d7565b6040820152611471606083016112d7565b6060820152611482608083016112d7565b608082015261149360a083016112d7565b60a08201526114a460c083016112d7565b60c08201526114b560e083016112d7565b60e08201526101006114c88184016112d7565b908201526101206114da8382016112d7565b908201526101406114ec8382016112d7565b908201526101606114fe8382016112d7565b9082015292915050565b600060208284031215611519578081fd5b8151610f2381611e6b565b60008060408385031215611536578081fd5b823561154181611e6b565b9150602083013567ffffffffffffffff81111561155c578182fd5b61156885828601611379565b9150509250929050565b600060208284031215611583578081fd5b610f2382611369565b60008060008060008060c087890312156115a4578182fd5b863567ffffffffffffffff808211156115bb578384fd5b6115c78a838b01611379565b975060208901359150808211156115dc578384fd5b506115e989828a01611379565b96999698505050506040850135946060810135946080820135945060a09091013592509050565b600060208284031215611621578081fd5b815167ffffffffffffffff80821115611638578283fd5b90830190610220828603121561164c578283fd5b61165660c0611df9565b61165f836112d7565b8152602083015182811115611672578485fd5b61167e878286016112e2565b60208301525061169060408401611369565b60408201526060830151828111156116a6578485fd5b6116b2878286016113cc565b606083015250608083015160808201526116cf8660a08501611419565b60a082015295945050505050565b600061018082840312156116ef578081fd5b610f238383611419565b60006020828403121561170a578081fd5b815167ffffffffffffffff80821115611721578283fd5b908301906102e08286031215611735578283fd5b611740610180611df9565b611749836112d7565b815260208301518281111561175c578485fd5b611768878286016113cc565b60208301525060408301518281111561177f578485fd5b61178b878286016113cc565b604083015250606083810151908201526080808401519082015260a0808401519082015260c0808401519082015260e0808401519082015261010080840151908201526101208084015190820152610140808401519082015261016091506117f586838501611419565b91810191909152949350505050565b600060208284031215611815578081fd5b5035919050565b6001600160a01b03169052565b15159052565b60008151808452611847816020860160208601611e3f565b601f01601f19169290920160200192915050565b80516001600160a01b039081168352602080830151610220828601819052815190860181905260009361024087019392830192909185905b808210156118b557845184168652948201949382019360019190910190611893565b505050505060408301516118cc6040860182611829565b50606083015184820360608601526118e4828261182f565b9150506080830151608085015260a083015161190360a086018261190b565b509392505050565b61191682825161181c565b6020810151611928602084018261181c565b50604081015161193b604084018261181c565b50606081015161194e606084018261181c565b506080810151611961608084018261181c565b5060a081015161197460a084018261181c565b5060c081015161198760c084018261181c565b5060e081015161199a60e084018261181c565b50610100808201516119ae8285018261181c565b5050610120808201516119c38285018261181c565b5050610140808201516119d88285018261181c565b5050610160808201516119ed8285018261181c565b50505050565b6001600160a01b0391909116815260200190565b6001600160a01b03929092168252602082015260400190565b6001600160a01b03841681526101c060208201819052600090611a458382018661182f565b915050611a55604083018461190b565b949350505050565b6001600160a01b03831681526101a08101610ef7602083018461190b565b600060208252610f23602083018461182f565b6000610240808352611aa28184018b61182f565b90508281036020840152611ab6818a61182f565b9150508660408301528560608301528460808301528360a083015261102060c083018461190b565b60208082526024908201527f456c617374696344414f3a2044414f206d757374206e6f742062652073756d6d6040820152631bdb995960e21b606082015260800190565b6020808252601a908201527f456c617374696344414f3a204f6e6c792073756d6d6f6e657273000000000000604082015260600190565b6020808252601b908201527f536166654d6174683a206164646974696f6e206f766572666c6f770000000000604082015260600190565b60208082526034908201527f456c617374696344414f3a2043616e6e6f742070757263686173652074686174604082015273206d616e7920736861726573206174206f6e636560601b606082015260800190565b6020808252818101527f456c617374696344414f3a2044414f206d7573742062652073756d6d6f6e6564604082015260600190565b6020808252818101527f456c617374696344414f3a20496e636f72726563742045544820616d6f756e74604082015260600190565b60208082526021908201527f536166654d6174683a206d756c7469706c69636174696f6e206f766572666c6f6040820152607760f81b606082015260800190565b6020808252602d908201527f456c617374696344414f3a20506c656173652063616c6c20696e697469616c6960408201526c1e99551bdad95b88199a5c9cdd609a1b606082015260800190565b60208082526032908201527f456c617374696344414f3a204f6e6c79206465706c6f7965722063616e20696e60408201527134ba34b0b634bd32903a3432902a37b5b2b760711b606082015260800190565b60208082526039908201527f456c617374696344414f3a20506c6561736520736565642044414f207769746860408201527f2045544820746f20736574204554483a45475420726174696f00000000000000606082015260800190565b600060208252610f23602083018461185b565b600060408252611db1604083018561185b565b905060018060a01b03831660208301529392505050565b600060408252611ddb604083018561185b565b90508260208301529392505050565b6101808101610f26828461190b565b60405181810167ffffffffffffffff81118282101715611e1557fe5b604052919050565b600067ffffffffffffffff821115611e3157fe5b50601f01601f191660200190565b60005b83811015611e5a578181015183820152602001611e42565b838111156119ed5750506000910152565b6001600160a01b0381168114611e8057600080fd5b5056fea2646970667358221220fcadc5d2413b397b1656c917c54d30db35e01f48091dc142df6261ea16658c3a64736f6c63430007020033",
  "linkReferences": {},
  "deployedLinkReferences": {}
}