{
  "_format": "hh-sol-artifact-1",
  "contractName": "Balance",
  "sourceName": "src/models/Balance.sol",
  "abi": [
    {
      "inputs": [
        {
          "internalType": "uint256",
          "name": "_blockNumber",
          "type": "uint256"
        },
        {
          "components": [
            {
              "internalType": "address",
              "name": "daoAddress",
              "type": "address"
            },
            {
              "internalType": "address",
              "name": "balanceModelAddress",
              "type": "address"
            },
            {
              "internalType": "address",
              "name": "balanceMultipliersModelAddress",
              "type": "address"
            },
            {
              "internalType": "address",
              "name": "daoModelAddress",
              "type": "address"
            },
            {
              "internalType": "address",
              "name": "ecosystemModelAddress",
              "type": "address"
            },
            {
              "internalType": "address",
              "name": "elasticDAOFactoryAddress",
              "type": "address"
            },
            {
              "internalType": "address",
              "name": "elasticModuleModelAddress",
              "type": "address"
            },
            {
              "internalType": "address",
              "name": "tokenHolderModelAddress",
              "type": "address"
            },
            {
              "internalType": "address",
              "name": "tokenModelAddress",
              "type": "address"
            },
            {
              "internalType": "address",
              "name": "configuratorAddress",
              "type": "address"
            },
            {
              "internalType": "address",
              "name": "registratorAddress",
              "type": "address"
            },
            {
              "internalType": "address",
              "name": "governanceTokenAddress",
              "type": "address"
            }
          ],
          "internalType": "struct Ecosystem.Instance",
          "name": "_ecosystem",
          "type": "tuple"
        },
        {
          "components": [
            {
              "internalType": "address",
              "name": "uuid",
              "type": "address"
            },
            {
              "internalType": "string",
              "name": "name",
              "type": "string"
            },
            {
              "internalType": "string",
              "name": "symbol",
              "type": "string"
            },
            {
              "internalType": "uint256",
              "name": "counter",
              "type": "uint256"
            },
            {
              "internalType": "uint256",
              "name": "eByl",
              "type": "uint256"
            },
            {
              "internalType": "uint256",
              "name": "elasticity",
              "type": "uint256"
            },
            {
              "internalType": "uint256",
              "name": "k",
              "type": "uint256"
            },
            {
              "internalType": "uint256",
              "name": "lambda",
              "type": "uint256"
            },
            {
              "internalType": "uint256",
              "name": "m",
              "type": "uint256"
            },
            {
              "internalType": "uint256",
              "name": "maxLambdaPurchase",
              "type": "uint256"
            },
            {
              "internalType": "uint256",
              "name": "numberOfTokenHolders",
              "type": "uint256"
            },
            {
              "components": [
                {
                  "internalType": "address",
                  "name": "daoAddress",
                  "type": "address"
                },
                {
                  "internalType": "address",
                  "name": "balanceModelAddress",
                  "type": "address"
                },
                {
                  "internalType": "address",
                  "name": "balanceMultipliersModelAddress",
                  "type": "address"
                },
                {
                  "internalType": "address",
                  "name": "daoModelAddress",
                  "type": "address"
                },
                {
                  "internalType": "address",
                  "name": "ecosystemModelAddress",
                  "type": "address"
                },
                {
                  "internalType": "address",
                  "name": "elasticDAOFactoryAddress",
                  "type": "address"
                },
                {
                  "internalType": "address",
                  "name": "elasticModuleModelAddress",
                  "type": "address"
                },
                {
                  "internalType": "address",
                  "name": "tokenHolderModelAddress",
                  "type": "address"
                },
                {
                  "internalType": "address",
                  "name": "tokenModelAddress",
                  "type": "address"
                },
                {
                  "internalType": "address",
                  "name": "configuratorAddress",
                  "type": "address"
                },
                {
                  "internalType": "address",
                  "name": "registratorAddress",
                  "type": "address"
                },
                {
                  "internalType": "address",
                  "name": "governanceTokenAddress",
                  "type": "address"
                }
              ],
              "internalType": "struct Ecosystem.Instance",
              "name": "ecosystem",
              "type": "tuple"
            }
          ],
          "internalType": "struct Token.Instance",
          "name": "_token",
          "type": "tuple"
        },
        {
          "components": [
            {
              "internalType": "address",
              "name": "account",
              "type": "address"
            },
            {
              "internalType": "uint256",
              "name": "counter",
              "type": "uint256"
            },
            {
              "internalType": "uint256",
              "name": "lambda",
              "type": "uint256"
            },
            {
              "components": [
                {
                  "internalType": "address",
                  "name": "daoAddress",
                  "type": "address"
                },
                {
                  "internalType": "address",
                  "name": "balanceModelAddress",
                  "type": "address"
                },
                {
                  "internalType": "address",
                  "name": "balanceMultipliersModelAddress",
                  "type": "address"
                },
                {
                  "internalType": "address",
                  "name": "daoModelAddress",
                  "type": "address"
                },
                {
                  "internalType": "address",
                  "name": "ecosystemModelAddress",
                  "type": "address"
                },
                {
                  "internalType": "address",
                  "name": "elasticDAOFactoryAddress",
                  "type": "address"
                },
                {
                  "internalType": "address",
                  "name": "elasticModuleModelAddress",
                  "type": "address"
                },
                {
                  "internalType": "address",
                  "name": "tokenHolderModelAddress",
                  "type": "address"
                },
                {
                  "internalType": "address",
                  "name": "tokenModelAddress",
                  "type": "address"
                },
                {
                  "internalType": "address",
                  "name": "configuratorAddress",
                  "type": "address"
                },
                {
                  "internalType": "address",
                  "name": "registratorAddress",
                  "type": "address"
                },
                {
                  "internalType": "address",
                  "name": "governanceTokenAddress",
                  "type": "address"
                }
              ],
              "internalType": "struct Ecosystem.Instance",
              "name": "ecosystem",
              "type": "tuple"
            },
            {
              "components": [
                {
                  "internalType": "address",
                  "name": "uuid",
                  "type": "address"
                },
                {
                  "internalType": "string",
                  "name": "name",
                  "type": "string"
                },
                {
                  "internalType": "string",
                  "name": "symbol",
                  "type": "string"
                },
                {
                  "internalType": "uint256",
                  "name": "counter",
                  "type": "uint256"
                },
                {
                  "internalType": "uint256",
                  "name": "eByl",
                  "type": "uint256"
                },
                {
                  "internalType": "uint256",
                  "name": "elasticity",
                  "type": "uint256"
                },
                {
                  "internalType": "uint256",
                  "name": "k",
                  "type": "uint256"
                },
                {
                  "internalType": "uint256",
                  "name": "lambda",
                  "type": "uint256"
                },
                {
                  "internalType": "uint256",
                  "name": "m",
                  "type": "uint256"
                },
                {
                  "internalType": "uint256",
                  "name": "maxLambdaPurchase",
                  "type": "uint256"
                },
                {
                  "internalType": "uint256",
                  "name": "numberOfTokenHolders",
                  "type": "uint256"
                },
                {
                  "components": [
                    {
                      "internalType": "address",
                      "name": "daoAddress",
                      "type": "address"
                    },
                    {
                      "internalType": "address",
                      "name": "balanceModelAddress",
                      "type": "address"
                    },
                    {
                      "internalType": "address",
                      "name": "balanceMultipliersModelAddress",
                      "type": "address"
                    },
                    {
                      "internalType": "address",
                      "name": "daoModelAddress",
                      "type": "address"
                    },
                    {
                      "internalType": "address",
                      "name": "ecosystemModelAddress",
                      "type": "address"
                    },
                    {
                      "internalType": "address",
                      "name": "elasticDAOFactoryAddress",
                      "type": "address"
                    },
                    {
                      "internalType": "address",
                      "name": "elasticModuleModelAddress",
                      "type": "address"
                    },
                    {
                      "internalType": "address",
                      "name": "tokenHolderModelAddress",
                      "type": "address"
                    },
                    {
                      "internalType": "address",
                      "name": "tokenModelAddress",
                      "type": "address"
                    },
                    {
                      "internalType": "address",
                      "name": "configuratorAddress",
                      "type": "address"
                    },
                    {
                      "internalType": "address",
                      "name": "registratorAddress",
                      "type": "address"
                    },
                    {
                      "internalType": "address",
                      "name": "governanceTokenAddress",
                      "type": "address"
                    }
                  ],
                  "internalType": "struct Ecosystem.Instance",
                  "name": "ecosystem",
                  "type": "tuple"
                }
              ],
              "internalType": "struct Token.Instance",
              "name": "token",
              "type": "tuple"
            }
          ],
          "internalType": "struct TokenHolder.Instance",
          "name": "_tokenHolder",
          "type": "tuple"
        }
      ],
      "name": "deserialize",
      "outputs": [
        {
          "components": [
            {
              "internalType": "uint256",
              "name": "blockNumber",
              "type": "uint256"
            },
            {
              "internalType": "uint256",
              "name": "index",
              "type": "uint256"
            },
            {
              "internalType": "uint256",
              "name": "k",
              "type": "uint256"
            },
            {
              "internalType": "uint256",
              "name": "m",
              "type": "uint256"
            },
            {
              "internalType": "uint256",
              "name": "lambda",
              "type": "uint256"
            },
            {
              "components": [
                {
                  "internalType": "address",
                  "name": "daoAddress",
                  "type": "address"
                },
                {
                  "internalType": "address",
                  "name": "balanceModelAddress",
                  "type": "address"
                },
                {
                  "internalType": "address",
                  "name": "balanceMultipliersModelAddress",
                  "type": "address"
                },
                {
                  "internalType": "address",
                  "name": "daoModelAddress",
                  "type": "address"
                },
                {
                  "internalType": "address",
                  "name": "ecosystemModelAddress",
                  "type": "address"
                },
                {
                  "internalType": "address",
                  "name": "elasticDAOFactoryAddress",
                  "type": "address"
                },
                {
                  "internalType": "address",
                  "name": "elasticModuleModelAddress",
                  "type": "address"
                },
                {
                  "internalType": "address",
                  "name": "tokenHolderModelAddress",
                  "type": "address"
                },
                {
                  "internalType": "address",
                  "name": "tokenModelAddress",
                  "type": "address"
                },
                {
                  "internalType": "address",
                  "name": "configuratorAddress",
                  "type": "address"
                },
                {
                  "internalType": "address",
                  "name": "registratorAddress",
                  "type": "address"
                },
                {
                  "internalType": "address",
                  "name": "governanceTokenAddress",
                  "type": "address"
                }
              ],
              "internalType": "struct Ecosystem.Instance",
              "name": "ecosystem",
              "type": "tuple"
            },
            {
              "components": [
                {
                  "internalType": "address",
                  "name": "uuid",
                  "type": "address"
                },
                {
                  "internalType": "string",
                  "name": "name",
                  "type": "string"
                },
                {
                  "internalType": "string",
                  "name": "symbol",
                  "type": "string"
                },
                {
                  "internalType": "uint256",
                  "name": "counter",
                  "type": "uint256"
                },
                {
                  "internalType": "uint256",
                  "name": "eByl",
                  "type": "uint256"
                },
                {
                  "internalType": "uint256",
                  "name": "elasticity",
                  "type": "uint256"
                },
                {
                  "internalType": "uint256",
                  "name": "k",
                  "type": "uint256"
                },
                {
                  "internalType": "uint256",
                  "name": "lambda",
                  "type": "uint256"
                },
                {
                  "internalType": "uint256",
                  "name": "m",
                  "type": "uint256"
                },
                {
                  "internalType": "uint256",
                  "name": "maxLambdaPurchase",
                  "type": "uint256"
                },
                {
                  "internalType": "uint256",
                  "name": "numberOfTokenHolders",
                  "type": "uint256"
                },
                {
                  "components": [
                    {
                      "internalType": "address",
                      "name": "daoAddress",
                      "type": "address"
                    },
                    {
                      "internalType": "address",
                      "name": "balanceModelAddress",
                      "type": "address"
                    },
                    {
                      "internalType": "address",
                      "name": "balanceMultipliersModelAddress",
                      "type": "address"
                    },
                    {
                      "internalType": "address",
                      "name": "daoModelAddress",
                      "type": "address"
                    },
                    {
                      "internalType": "address",
                      "name": "ecosystemModelAddress",
                      "type": "address"
                    },
                    {
                      "internalType": "address",
                      "name": "elasticDAOFactoryAddress",
                      "type": "address"
                    },
                    {
                      "internalType": "address",
                      "name": "elasticModuleModelAddress",
                      "type": "address"
                    },
                    {
                      "internalType": "address",
                      "name": "tokenHolderModelAddress",
                      "type": "address"
                    },
                    {
                      "internalType": "address",
                      "name": "tokenModelAddress",
                      "type": "address"
                    },
                    {
                      "internalType": "address",
                      "name": "configuratorAddress",
                      "type": "address"
                    },
                    {
                      "internalType": "address",
                      "name": "registratorAddress",
                      "type": "address"
                    },
                    {
                      "internalType": "address",
                      "name": "governanceTokenAddress",
                      "type": "address"
                    }
                  ],
                  "internalType": "struct Ecosystem.Instance",
                  "name": "ecosystem",
                  "type": "tuple"
                }
              ],
              "internalType": "struct Token.Instance",
              "name": "token",
              "type": "tuple"
            },
            {
              "components": [
                {
                  "internalType": "address",
                  "name": "account",
                  "type": "address"
                },
                {
                  "internalType": "uint256",
                  "name": "counter",
                  "type": "uint256"
                },
                {
                  "internalType": "uint256",
                  "name": "lambda",
                  "type": "uint256"
                },
                {
                  "components": [
                    {
                      "internalType": "address",
                      "name": "daoAddress",
                      "type": "address"
                    },
                    {
                      "internalType": "address",
                      "name": "balanceModelAddress",
                      "type": "address"
                    },
                    {
                      "internalType": "address",
                      "name": "balanceMultipliersModelAddress",
                      "type": "address"
                    },
                    {
                      "internalType": "address",
                      "name": "daoModelAddress",
                      "type": "address"
                    },
                    {
                      "internalType": "address",
                      "name": "ecosystemModelAddress",
                      "type": "address"
                    },
                    {
                      "internalType": "address",
                      "name": "elasticDAOFactoryAddress",
                      "type": "address"
                    },
                    {
                      "internalType": "address",
                      "name": "elasticModuleModelAddress",
                      "type": "address"
                    },
                    {
                      "internalType": "address",
                      "name": "tokenHolderModelAddress",
                      "type": "address"
                    },
                    {
                      "internalType": "address",
                      "name": "tokenModelAddress",
                      "type": "address"
                    },
                    {
                      "internalType": "address",
                      "name": "configuratorAddress",
                      "type": "address"
                    },
                    {
                      "internalType": "address",
                      "name": "registratorAddress",
                      "type": "address"
                    },
                    {
                      "internalType": "address",
                      "name": "governanceTokenAddress",
                      "type": "address"
                    }
                  ],
                  "internalType": "struct Ecosystem.Instance",
                  "name": "ecosystem",
                  "type": "tuple"
                },
                {
                  "components": [
                    {
                      "internalType": "address",
                      "name": "uuid",
                      "type": "address"
                    },
                    {
                      "internalType": "string",
                      "name": "name",
                      "type": "string"
                    },
                    {
                      "internalType": "string",
                      "name": "symbol",
                      "type": "string"
                    },
                    {
                      "internalType": "uint256",
                      "name": "counter",
                      "type": "uint256"
                    },
                    {
                      "internalType": "uint256",
                      "name": "eByl",
                      "type": "uint256"
                    },
                    {
                      "internalType": "uint256",
                      "name": "elasticity",
                      "type": "uint256"
                    },
                    {
                      "internalType": "uint256",
                      "name": "k",
                      "type": "uint256"
                    },
                    {
                      "internalType": "uint256",
                      "name": "lambda",
                      "type": "uint256"
                    },
                    {
                      "internalType": "uint256",
                      "name": "m",
                      "type": "uint256"
                    },
                    {
                      "internalType": "uint256",
                      "name": "maxLambdaPurchase",
                      "type": "uint256"
                    },
                    {
                      "internalType": "uint256",
                      "name": "numberOfTokenHolders",
                      "type": "uint256"
                    },
                    {
                      "components": [
                        {
                          "internalType": "address",
                          "name": "daoAddress",
                          "type": "address"
                        },
                        {
                          "internalType": "address",
                          "name": "balanceModelAddress",
                          "type": "address"
                        },
                        {
                          "internalType": "address",
                          "name": "balanceMultipliersModelAddress",
                          "type": "address"
                        },
                        {
                          "internalType": "address",
                          "name": "daoModelAddress",
                          "type": "address"
                        },
                        {
                          "internalType": "address",
                          "name": "ecosystemModelAddress",
                          "type": "address"
                        },
                        {
                          "internalType": "address",
                          "name": "elasticDAOFactoryAddress",
                          "type": "address"
                        },
                        {
                          "internalType": "address",
                          "name": "elasticModuleModelAddress",
                          "type": "address"
                        },
                        {
                          "internalType": "address",
                          "name": "tokenHolderModelAddress",
                          "type": "address"
                        },
                        {
                          "internalType": "address",
                          "name": "tokenModelAddress",
                          "type": "address"
                        },
                        {
                          "internalType": "address",
                          "name": "configuratorAddress",
                          "type": "address"
                        },
                        {
                          "internalType": "address",
                          "name": "registratorAddress",
                          "type": "address"
                        },
                        {
                          "internalType": "address",
                          "name": "governanceTokenAddress",
                          "type": "address"
                        }
                      ],
                      "internalType": "struct Ecosystem.Instance",
                      "name": "ecosystem",
                      "type": "tuple"
                    }
                  ],
                  "internalType": "struct Token.Instance",
                  "name": "token",
                  "type": "tuple"
                }
              ],
              "internalType": "struct TokenHolder.Instance",
              "name": "tokenHolder",
              "type": "tuple"
            }
          ],
          "internalType": "struct Balance.Instance",
          "name": "record",
          "type": "tuple"
        }
      ],
      "stateMutability": "view",
      "type": "function"
    },
    {
      "inputs": [
        {
          "internalType": "uint256",
          "name": "",
          "type": "uint256"
        },
        {
          "components": [
            {
              "internalType": "address",
              "name": "daoAddress",
              "type": "address"
            },
            {
              "internalType": "address",
              "name": "balanceModelAddress",
              "type": "address"
            },
            {
              "internalType": "address",
              "name": "balanceMultipliersModelAddress",
              "type": "address"
            },
            {
              "internalType": "address",
              "name": "daoModelAddress",
              "type": "address"
            },
            {
              "internalType": "address",
              "name": "ecosystemModelAddress",
              "type": "address"
            },
            {
              "internalType": "address",
              "name": "elasticDAOFactoryAddress",
              "type": "address"
            },
            {
              "internalType": "address",
              "name": "elasticModuleModelAddress",
              "type": "address"
            },
            {
              "internalType": "address",
              "name": "tokenHolderModelAddress",
              "type": "address"
            },
            {
              "internalType": "address",
              "name": "tokenModelAddress",
              "type": "address"
            },
            {
              "internalType": "address",
              "name": "configuratorAddress",
              "type": "address"
            },
            {
              "internalType": "address",
              "name": "registratorAddress",
              "type": "address"
            },
            {
              "internalType": "address",
              "name": "governanceTokenAddress",
              "type": "address"
            }
          ],
          "internalType": "struct Ecosystem.Instance",
          "name": "",
          "type": "tuple"
        },
        {
          "components": [
            {
              "internalType": "address",
              "name": "uuid",
              "type": "address"
            },
            {
              "internalType": "string",
              "name": "name",
              "type": "string"
            },
            {
              "internalType": "string",
              "name": "symbol",
              "type": "string"
            },
            {
              "internalType": "uint256",
              "name": "counter",
              "type": "uint256"
            },
            {
              "internalType": "uint256",
              "name": "eByl",
              "type": "uint256"
            },
            {
              "internalType": "uint256",
              "name": "elasticity",
              "type": "uint256"
            },
            {
              "internalType": "uint256",
              "name": "k",
              "type": "uint256"
            },
            {
              "internalType": "uint256",
              "name": "lambda",
              "type": "uint256"
            },
            {
              "internalType": "uint256",
              "name": "m",
              "type": "uint256"
            },
            {
              "internalType": "uint256",
              "name": "maxLambdaPurchase",
              "type": "uint256"
            },
            {
              "internalType": "uint256",
              "name": "numberOfTokenHolders",
              "type": "uint256"
            },
            {
              "components": [
                {
                  "internalType": "address",
                  "name": "daoAddress",
                  "type": "address"
                },
                {
                  "internalType": "address",
                  "name": "balanceModelAddress",
                  "type": "address"
                },
                {
                  "internalType": "address",
                  "name": "balanceMultipliersModelAddress",
                  "type": "address"
                },
                {
                  "internalType": "address",
                  "name": "daoModelAddress",
                  "type": "address"
                },
                {
                  "internalType": "address",
                  "name": "ecosystemModelAddress",
                  "type": "address"
                },
                {
                  "internalType": "address",
                  "name": "elasticDAOFactoryAddress",
                  "type": "address"
                },
                {
                  "internalType": "address",
                  "name": "elasticModuleModelAddress",
                  "type": "address"
                },
                {
                  "internalType": "address",
                  "name": "tokenHolderModelAddress",
                  "type": "address"
                },
                {
                  "internalType": "address",
                  "name": "tokenModelAddress",
                  "type": "address"
                },
                {
                  "internalType": "address",
                  "name": "configuratorAddress",
                  "type": "address"
                },
                {
                  "internalType": "address",
                  "name": "registratorAddress",
                  "type": "address"
                },
                {
                  "internalType": "address",
                  "name": "governanceTokenAddress",
                  "type": "address"
                }
              ],
              "internalType": "struct Ecosystem.Instance",
              "name": "ecosystem",
              "type": "tuple"
            }
          ],
          "internalType": "struct Token.Instance",
          "name": "",
          "type": "tuple"
        },
        {
          "components": [
            {
              "internalType": "address",
              "name": "account",
              "type": "address"
            },
            {
              "internalType": "uint256",
              "name": "counter",
              "type": "uint256"
            },
            {
              "internalType": "uint256",
              "name": "lambda",
              "type": "uint256"
            },
            {
              "components": [
                {
                  "internalType": "address",
                  "name": "daoAddress",
                  "type": "address"
                },
                {
                  "internalType": "address",
                  "name": "balanceModelAddress",
                  "type": "address"
                },
                {
                  "internalType": "address",
                  "name": "balanceMultipliersModelAddress",
                  "type": "address"
                },
                {
                  "internalType": "address",
                  "name": "daoModelAddress",
                  "type": "address"
                },
                {
                  "internalType": "address",
                  "name": "ecosystemModelAddress",
                  "type": "address"
                },
                {
                  "internalType": "address",
                  "name": "elasticDAOFactoryAddress",
                  "type": "address"
                },
                {
                  "internalType": "address",
                  "name": "elasticModuleModelAddress",
                  "type": "address"
                },
                {
                  "internalType": "address",
                  "name": "tokenHolderModelAddress",
                  "type": "address"
                },
                {
                  "internalType": "address",
                  "name": "tokenModelAddress",
                  "type": "address"
                },
                {
                  "internalType": "address",
                  "name": "configuratorAddress",
                  "type": "address"
                },
                {
                  "internalType": "address",
                  "name": "registratorAddress",
                  "type": "address"
                },
                {
                  "internalType": "address",
                  "name": "governanceTokenAddress",
                  "type": "address"
                }
              ],
              "internalType": "struct Ecosystem.Instance",
              "name": "ecosystem",
              "type": "tuple"
            },
            {
              "components": [
                {
                  "internalType": "address",
                  "name": "uuid",
                  "type": "address"
                },
                {
                  "internalType": "string",
                  "name": "name",
                  "type": "string"
                },
                {
                  "internalType": "string",
                  "name": "symbol",
                  "type": "string"
                },
                {
                  "internalType": "uint256",
                  "name": "counter",
                  "type": "uint256"
                },
                {
                  "internalType": "uint256",
                  "name": "eByl",
                  "type": "uint256"
                },
                {
                  "internalType": "uint256",
                  "name": "elasticity",
                  "type": "uint256"
                },
                {
                  "internalType": "uint256",
                  "name": "k",
                  "type": "uint256"
                },
                {
                  "internalType": "uint256",
                  "name": "lambda",
                  "type": "uint256"
                },
                {
                  "internalType": "uint256",
                  "name": "m",
                  "type": "uint256"
                },
                {
                  "internalType": "uint256",
                  "name": "maxLambdaPurchase",
                  "type": "uint256"
                },
                {
                  "internalType": "uint256",
                  "name": "numberOfTokenHolders",
                  "type": "uint256"
                },
                {
                  "components": [
                    {
                      "internalType": "address",
                      "name": "daoAddress",
                      "type": "address"
                    },
                    {
                      "internalType": "address",
                      "name": "balanceModelAddress",
                      "type": "address"
                    },
                    {
                      "internalType": "address",
                      "name": "balanceMultipliersModelAddress",
                      "type": "address"
                    },
                    {
                      "internalType": "address",
                      "name": "daoModelAddress",
                      "type": "address"
                    },
                    {
                      "internalType": "address",
                      "name": "ecosystemModelAddress",
                      "type": "address"
                    },
                    {
                      "internalType": "address",
                      "name": "elasticDAOFactoryAddress",
                      "type": "address"
                    },
                    {
                      "internalType": "address",
                      "name": "elasticModuleModelAddress",
                      "type": "address"
                    },
                    {
                      "internalType": "address",
                      "name": "tokenHolderModelAddress",
                      "type": "address"
                    },
                    {
                      "internalType": "address",
                      "name": "tokenModelAddress",
                      "type": "address"
                    },
                    {
                      "internalType": "address",
                      "name": "configuratorAddress",
                      "type": "address"
                    },
                    {
                      "internalType": "address",
                      "name": "registratorAddress",
                      "type": "address"
                    },
                    {
                      "internalType": "address",
                      "name": "governanceTokenAddress",
                      "type": "address"
                    }
                  ],
                  "internalType": "struct Ecosystem.Instance",
                  "name": "ecosystem",
                  "type": "tuple"
                }
              ],
              "internalType": "struct Token.Instance",
              "name": "token",
              "type": "tuple"
            }
          ],
          "internalType": "struct TokenHolder.Instance",
          "name": "",
          "type": "tuple"
        }
      ],
      "name": "exists",
      "outputs": [
        {
          "internalType": "bool",
          "name": "",
          "type": "bool"
        }
      ],
      "stateMutability": "pure",
      "type": "function"
    },
    {
      "inputs": [
        {
          "components": [
            {
              "internalType": "uint256",
              "name": "blockNumber",
              "type": "uint256"
            },
            {
              "internalType": "uint256",
              "name": "index",
              "type": "uint256"
            },
            {
              "internalType": "uint256",
              "name": "k",
              "type": "uint256"
            },
            {
              "internalType": "uint256",
              "name": "m",
              "type": "uint256"
            },
            {
              "internalType": "uint256",
              "name": "lambda",
              "type": "uint256"
            },
            {
              "components": [
                {
                  "internalType": "address",
                  "name": "daoAddress",
                  "type": "address"
                },
                {
                  "internalType": "address",
                  "name": "balanceModelAddress",
                  "type": "address"
                },
                {
                  "internalType": "address",
                  "name": "balanceMultipliersModelAddress",
                  "type": "address"
                },
                {
                  "internalType": "address",
                  "name": "daoModelAddress",
                  "type": "address"
                },
                {
                  "internalType": "address",
                  "name": "ecosystemModelAddress",
                  "type": "address"
                },
                {
                  "internalType": "address",
                  "name": "elasticDAOFactoryAddress",
                  "type": "address"
                },
                {
                  "internalType": "address",
                  "name": "elasticModuleModelAddress",
                  "type": "address"
                },
                {
                  "internalType": "address",
                  "name": "tokenHolderModelAddress",
                  "type": "address"
                },
                {
                  "internalType": "address",
                  "name": "tokenModelAddress",
                  "type": "address"
                },
                {
                  "internalType": "address",
                  "name": "configuratorAddress",
                  "type": "address"
                },
                {
                  "internalType": "address",
                  "name": "registratorAddress",
                  "type": "address"
                },
                {
                  "internalType": "address",
                  "name": "governanceTokenAddress",
                  "type": "address"
                }
              ],
              "internalType": "struct Ecosystem.Instance",
              "name": "ecosystem",
              "type": "tuple"
            },
            {
              "components": [
                {
                  "internalType": "address",
                  "name": "uuid",
                  "type": "address"
                },
                {
                  "internalType": "string",
                  "name": "name",
                  "type": "string"
                },
                {
                  "internalType": "string",
                  "name": "symbol",
                  "type": "string"
                },
                {
                  "internalType": "uint256",
                  "name": "counter",
                  "type": "uint256"
                },
                {
                  "internalType": "uint256",
                  "name": "eByl",
                  "type": "uint256"
                },
                {
                  "internalType": "uint256",
                  "name": "elasticity",
                  "type": "uint256"
                },
                {
                  "internalType": "uint256",
                  "name": "k",
                  "type": "uint256"
                },
                {
                  "internalType": "uint256",
                  "name": "lambda",
                  "type": "uint256"
                },
                {
                  "internalType": "uint256",
                  "name": "m",
                  "type": "uint256"
                },
                {
                  "internalType": "uint256",
                  "name": "maxLambdaPurchase",
                  "type": "uint256"
                },
                {
                  "internalType": "uint256",
                  "name": "numberOfTokenHolders",
                  "type": "uint256"
                },
                {
                  "components": [
                    {
                      "internalType": "address",
                      "name": "daoAddress",
                      "type": "address"
                    },
                    {
                      "internalType": "address",
                      "name": "balanceModelAddress",
                      "type": "address"
                    },
                    {
                      "internalType": "address",
                      "name": "balanceMultipliersModelAddress",
                      "type": "address"
                    },
                    {
                      "internalType": "address",
                      "name": "daoModelAddress",
                      "type": "address"
                    },
                    {
                      "internalType": "address",
                      "name": "ecosystemModelAddress",
                      "type": "address"
                    },
                    {
                      "internalType": "address",
                      "name": "elasticDAOFactoryAddress",
                      "type": "address"
                    },
                    {
                      "internalType": "address",
                      "name": "elasticModuleModelAddress",
                      "type": "address"
                    },
                    {
                      "internalType": "address",
                      "name": "tokenHolderModelAddress",
                      "type": "address"
                    },
                    {
                      "internalType": "address",
                      "name": "tokenModelAddress",
                      "type": "address"
                    },
                    {
                      "internalType": "address",
                      "name": "configuratorAddress",
                      "type": "address"
                    },
                    {
                      "internalType": "address",
                      "name": "registratorAddress",
                      "type": "address"
                    },
                    {
                      "internalType": "address",
                      "name": "governanceTokenAddress",
                      "type": "address"
                    }
                  ],
                  "internalType": "struct Ecosystem.Instance",
                  "name": "ecosystem",
                  "type": "tuple"
                }
              ],
              "internalType": "struct Token.Instance",
              "name": "token",
              "type": "tuple"
            },
            {
              "components": [
                {
                  "internalType": "address",
                  "name": "account",
                  "type": "address"
                },
                {
                  "internalType": "uint256",
                  "name": "counter",
                  "type": "uint256"
                },
                {
                  "internalType": "uint256",
                  "name": "lambda",
                  "type": "uint256"
                },
                {
                  "components": [
                    {
                      "internalType": "address",
                      "name": "daoAddress",
                      "type": "address"
                    },
                    {
                      "internalType": "address",
                      "name": "balanceModelAddress",
                      "type": "address"
                    },
                    {
                      "internalType": "address",
                      "name": "balanceMultipliersModelAddress",
                      "type": "address"
                    },
                    {
                      "internalType": "address",
                      "name": "daoModelAddress",
                      "type": "address"
                    },
                    {
                      "internalType": "address",
                      "name": "ecosystemModelAddress",
                      "type": "address"
                    },
                    {
                      "internalType": "address",
                      "name": "elasticDAOFactoryAddress",
                      "type": "address"
                    },
                    {
                      "internalType": "address",
                      "name": "elasticModuleModelAddress",
                      "type": "address"
                    },
                    {
                      "internalType": "address",
                      "name": "tokenHolderModelAddress",
                      "type": "address"
                    },
                    {
                      "internalType": "address",
                      "name": "tokenModelAddress",
                      "type": "address"
                    },
                    {
                      "internalType": "address",
                      "name": "configuratorAddress",
                      "type": "address"
                    },
                    {
                      "internalType": "address",
                      "name": "registratorAddress",
                      "type": "address"
                    },
                    {
                      "internalType": "address",
                      "name": "governanceTokenAddress",
                      "type": "address"
                    }
                  ],
                  "internalType": "struct Ecosystem.Instance",
                  "name": "ecosystem",
                  "type": "tuple"
                },
                {
                  "components": [
                    {
                      "internalType": "address",
                      "name": "uuid",
                      "type": "address"
                    },
                    {
                      "internalType": "string",
                      "name": "name",
                      "type": "string"
                    },
                    {
                      "internalType": "string",
                      "name": "symbol",
                      "type": "string"
                    },
                    {
                      "internalType": "uint256",
                      "name": "counter",
                      "type": "uint256"
                    },
                    {
                      "internalType": "uint256",
                      "name": "eByl",
                      "type": "uint256"
                    },
                    {
                      "internalType": "uint256",
                      "name": "elasticity",
                      "type": "uint256"
                    },
                    {
                      "internalType": "uint256",
                      "name": "k",
                      "type": "uint256"
                    },
                    {
                      "internalType": "uint256",
                      "name": "lambda",
                      "type": "uint256"
                    },
                    {
                      "internalType": "uint256",
                      "name": "m",
                      "type": "uint256"
                    },
                    {
                      "internalType": "uint256",
                      "name": "maxLambdaPurchase",
                      "type": "uint256"
                    },
                    {
                      "internalType": "uint256",
                      "name": "numberOfTokenHolders",
                      "type": "uint256"
                    },
                    {
                      "components": [
                        {
                          "internalType": "address",
                          "name": "daoAddress",
                          "type": "address"
                        },
                        {
                          "internalType": "address",
                          "name": "balanceModelAddress",
                          "type": "address"
                        },
                        {
                          "internalType": "address",
                          "name": "balanceMultipliersModelAddress",
                          "type": "address"
                        },
                        {
                          "internalType": "address",
                          "name": "daoModelAddress",
                          "type": "address"
                        },
                        {
                          "internalType": "address",
                          "name": "ecosystemModelAddress",
                          "type": "address"
                        },
                        {
                          "internalType": "address",
                          "name": "elasticDAOFactoryAddress",
                          "type": "address"
                        },
                        {
                          "internalType": "address",
                          "name": "elasticModuleModelAddress",
                          "type": "address"
                        },
                        {
                          "internalType": "address",
                          "name": "tokenHolderModelAddress",
                          "type": "address"
                        },
                        {
                          "internalType": "address",
                          "name": "tokenModelAddress",
                          "type": "address"
                        },
                        {
                          "internalType": "address",
                          "name": "configuratorAddress",
                          "type": "address"
                        },
                        {
                          "internalType": "address",
                          "name": "registratorAddress",
                          "type": "address"
                        },
                        {
                          "internalType": "address",
                          "name": "governanceTokenAddress",
                          "type": "address"
                        }
                      ],
                      "internalType": "struct Ecosystem.Instance",
                      "name": "ecosystem",
                      "type": "tuple"
                    }
                  ],
                  "internalType": "struct Token.Instance",
                  "name": "token",
                  "type": "tuple"
                }
              ],
              "internalType": "struct TokenHolder.Instance",
              "name": "tokenHolder",
              "type": "tuple"
            }
          ],
          "internalType": "struct Balance.Instance",
          "name": "record",
          "type": "tuple"
        }
      ],
      "name": "serialize",
      "outputs": [],
      "stateMutability": "nonpayable",
      "type": "function"
    }
  ],
  "bytecode": "0x608060405234801561001057600080fd5b50611429806100206000396000f3fe608060405234801561001057600080fd5b50600436106100415760003560e01c806362ab7c68146100465780637bb8bf661461006f578063f3dabcd014610084575b600080fd5b610059610054366004610e43565b6100a4565b6040516100669190611201565b60405180910390f35b61008261007d366004610cb6565b6100ae565b005b610097610092366004610e43565b610256565b6040516100669190611256565b6001949350505050565b60c08101515160e0820151516020808401516040516100f6946100d6949093909291016111cf565b604051602081830303815290604052805190602001208260000151610341565b60c08101515160e08201515160208084015160405161013e9461011e9490939092910161119d565b604051602081830303815290604052805190602001208260800151610341565b610146610640565b8151815260c082018051606090810151602084015260408085015181850152818501519184019190915260a08085018051608086015292519084015290518101519051637a6b4dfd60e01b81526001600160a01b0390911690637a6b4dfd906101b39084906004016112e1565b600060405180830381600087803b1580156101cd57600080fd5b505af11580156101e1573d6000803e3d6000fd5b5050505060a0820151610100015160c08301515160405163e5910ae760e01b81526001600160a01b039092169163e5910ae79161022091600401611121565b600060405180830381600087803b15801561023a57600080fd5b505af115801561024e573d6000803e3d6000fd5b505050505050565b61025e610681565b61027085836020015160008686610353565b60a0810185905260c0810184905260e08101839052905061028f610640565b60a082015160408082015160c085015191516399a4562360e01b81526001600160a01b03909116926399a45623926102cd928b929190600401611341565b60006040518083038186803b1580156102e557600080fd5b505afa1580156102f9573d6000803e3d6000fd5b505050506040513d6000823e601f3d908101601f191682016040526103219190810190610d8c565b868352604080820151908401526060908101519083015250949350505050565b60009182526020829052604090912055565b61035b610681565b8461036f5785815260006080820152610506565b8460011415610474576000610384858761050f565b845184516040519293506103bd926103a292919085906020016111cf565b60405160208183030381529060405280519060200120610544565b80835215806103cc5750815187105b15610459578461043a57835183516040516103f2926103a2929091600090602001611169565b80835215806104015750815187105b15610413575060006080820152610506565b8351835160405161042f926103a2929091600090602001611135565b608083015250610506565b610451878761044a886001610559565b8787610353565b915050610506565b8351835160405161042f926103a2929091859060200161119d565b600061048186600261059b565b9050600061048f828761050f565b855185516040519293506104ad926103a292919085906020016111cf565b8084528810156104cd576104c48883888888610353565b92505050610506565b82518811156104e3576104c48883838888610353565b845184516040516104fe926103a2929091859060200161119d565b608084015250505b95945050505050565b60008282018381101561053d5760405162461bcd60e51b81526004016105349061121f565b60405180910390fd5b9392505050565b6000818152602081905260409020545b919050565b600061053d83836040518060400160405280601e81526020017f536166654d6174683a207375627472616374696f6e206f766572666c6f7700008152506105dd565b600061053d83836040518060400160405280601a81526020017f536166654d6174683a206469766973696f6e206279207a65726f000000000000815250610609565b600081848411156106015760405162461bcd60e51b8152600401610534919061120c565b505050900390565b6000818361062a5760405162461bcd60e51b8152600401610534919061120c565b50600083858161063657fe5b0495945050505050565b6040518060c001604052806000815260200160008152602001600081526020016000815260200161066f6106d2565b815260200161067c610736565b905290565b60405180610100016040528060008152602001600081526020016000815260200160008152602001600081526020016106b86106d2565b81526020016106c5610736565b815260200161067c6107a0565b6040805161018081018252600080825260208201819052918101829052606081018290526080810182905260a0810182905260c0810182905260e0810182905261010081018290526101208101829052610140810182905261016081019190915290565b60405180610180016040528060006001600160a01b031681526020016060815260200160608152602001600081526020016000815260200160008152602001600081526020016000815260200160008152602001600081526020016000815260200161067c6106d2565b6040518060a0016040528060006001600160a01b03168152602001600081526020016000815260200161066f6106d2565b8035610554816113db565b8051610554816113db565b600082601f8301126107f7578081fd5b813561080a6108058261138d565b611369565b915080825283602082850101111561082157600080fd5b8060208401602084013760009082016020015292915050565b600082601f83011261084a578081fd5b81516108586108058261138d565b915080825283602082850101111561086f57600080fd5b6108808160208401602086016113af565b5092915050565b600061018080838503121561089a578182fd5b6108a381611369565b9150506108af826107d1565b81526108bd602083016107d1565b60208201526108ce604083016107d1565b60408201526108df606083016107d1565b60608201526108f0608083016107d1565b608082015261090160a083016107d1565b60a082015261091260c083016107d1565b60c082015261092360e083016107d1565b60e08201526101006109368184016107d1565b908201526101206109488382016107d1565b9082015261014061095a8382016107d1565b9082015261016061096c8382016107d1565b9082015292915050565b6000610180808385031215610989578182fd5b61099281611369565b91505061099e826107dc565b81526109ac602083016107dc565b60208201526109bd604083016107dc565b60408201526109ce606083016107dc565b60608201526109df608083016107dc565b60808201526109f060a083016107dc565b60a0820152610a0160c083016107dc565b60c0820152610a1260e083016107dc565b60e0820152610100610a258184016107dc565b90820152610120610a378382016107dc565b90820152610140610a498382016107dc565b9082015261016061096c8382016107dc565b60006102e08284031215610a6d578081fd5b610a78610180611369565b9050610a83826107d1565b8152602082013567ffffffffffffffff80821115610aa057600080fd5b610aac858386016107e7565b60208401526040840135915080821115610ac557600080fd5b50610ad2848285016107e7565b604083015250606082013560608201526080820135608082015260a082013560a082015260c082013560c082015260e082013560e082015261010080830135818301525061012080830135818301525061014080830135818301525061016061096c84828501610887565b60006102e08284031215610b4f578081fd5b610b5a610180611369565b9050610b65826107dc565b8152602082015167ffffffffffffffff80821115610b8257600080fd5b610b8e8583860161083a565b60208401526040840151915080821115610ba757600080fd5b50610bb48482850161083a565b604083015250606082015160608201526080820151608082015260a082015160a082015260c082015160c082015260e082015160e082015261010080830151818301525061012080830151818301525061014080830151818301525061016061096c84828501610976565b60006102008284031215610c31578081fd5b60405160a0810167ffffffffffffffff8282108183111715610c4f57fe5b81604052829350610c5f856107d1565b83526020850135602084015260408501356040840152610c828660608701610887565b60608401526101e0850135915080821115610c9c57600080fd5b50610ca985828601610a5b565b6080830152505092915050565b600060208284031215610cc7578081fd5b813567ffffffffffffffff80821115610cde578283fd5b908301906102608286031215610cf2578283fd5b610cfd610100611369565b8235815260208301356020820152604083013560408201526060830135606082015260808301356080820152610d368660a08501610887565b60a082015261022083013582811115610d4d578485fd5b610d5987828601610a5b565b60c08301525061024083013582811115610d71578485fd5b610d7d87828601610c1f565b60e08301525095945050505050565b600060208284031215610d9d578081fd5b815167ffffffffffffffff80821115610db4578283fd5b908301906102208286031215610dc8578283fd5b60405160c081018181108382111715610ddd57fe5b806040525082518152602083015160208201526040830151604082015260608301516060820152610e118660808501610976565b608082015261020083015182811115610e28578485fd5b610e3487828601610b3d565b60a08301525095945050505050565b6000806000806101e08587031215610e59578283fd5b84359350610e6a8660208701610887565b92506101a085013567ffffffffffffffff80821115610e87578384fd5b610e9388838901610a5b565b93506101c0870135915080821115610ea9578283fd5b50610eb687828801610c1f565b91505092959194509250565b6001600160a01b03169052565b60008151808452610ee78160208601602086016113af565b601f01601f19169290920160200192915050565b60068152656c616d62646160d01b602082015260400190565b600b81526a313637b1b5a73ab6b132b960a91b602082015260400190565b610f3d828251610ec2565b6020810151610f4f6020840182610ec2565b506040810151610f626040840182610ec2565b506060810151610f756060840182610ec2565b506080810151610f886080840182610ec2565b5060a0810151610f9b60a0840182610ec2565b5060c0810151610fae60c0840182610ec2565b5060e0810151610fc160e0840182610ec2565b5061010080820151610fd582850182610ec2565b505061012080820151610fea82850182610ec2565b505061014080820151610fff82850182610ec2565b50506101608082015161101482850182610ec2565b50505050565b60006102e061102a848451610ec2565b602083015181602086015261104182860182610ecf565b9150506040830151848203604086015261105b8282610ecf565b915050606083015160608501526080830151608085015260a083015160a085015260c083015160c085015260e083015160e0850152610100808401518186015250610120808401518186015250610140808401518186015250610160808401516110c782870182610f32565b5090949350505050565b600061020060018060a01b038351168452602083015160208501526040830151604085015260608301516111086060860182610f32565b506080830151816101e08601526105068286018261101a565b6001600160a01b0391909116815260200190565b6001600160a01b0384811682528316602082015260ff82166040820152608060608201819052600090610506908301610efb565b6001600160a01b0384811682528316602082015260ff82166040820152608060608201819052600090610506908301610f14565b6001600160a01b0384811682528316602082015260408101829052608060608201819052600090610506908301610efb565b6001600160a01b0384811682528316602082015260408101829052608060608201819052600090610506908301610f14565b901515815260200190565b60006020825261053d6020830184610ecf565b6020808252601b908201527f536166654d6174683a206164646974696f6e206f766572666c6f770000000000604082015260600190565b60006020825282516020830152602083015160408301526040830151606083015260608301516080830152608083015160a083015260a083015161129d60c0840182610f32565b5060c0830151610260806102408501526112bb61028085018361101a565b915060e0850151601f1985840301828601526112d783826110d1565b9695505050505050565b60006020825282516020830152602083015160408301526040830151606083015260608301516080830152608083015161131e60a0840182610f32565b5060a08301516102208381015261133961024084018261101a565b949350505050565b60006101c08583526113566020840186610f32565b806101a08401526112d78184018561101a565b60405181810167ffffffffffffffff8111828210171561138557fe5b604052919050565b600067ffffffffffffffff8211156113a157fe5b50601f01601f191660200190565b60005b838110156113ca5781810151838201526020016113b2565b838111156110145750506000910152565b6001600160a01b03811681146113f057600080fd5b5056fea264697066735822122050309bd4dfe0cef2729e9ac7912dd37c9ed85390b97d11f6acb7f089ce9ed22664736f6c63430007020033",
  "linkReferences": {},
  "deployedLinkReferences": {}
}