{
  "_format": "hh-sol-artifact-1",
  "contractName": "Balance",
  "sourceName": "src/models/Balance.sol",
  "abi": [
    {
      "inputs": [
        {
          "internalType": "uint256",
          "name": "_blockNumber",
          "type": "uint256"
        },
        {
          "components": [
            {
              "internalType": "address",
              "name": "daoAddress",
              "type": "address"
            },
            {
              "internalType": "address",
              "name": "balanceModelAddress",
              "type": "address"
            },
            {
              "internalType": "address",
              "name": "balanceMultipliersModelAddress",
              "type": "address"
            },
            {
              "internalType": "address",
              "name": "daoModelAddress",
              "type": "address"
            },
            {
              "internalType": "address",
              "name": "ecosystemModelAddress",
              "type": "address"
            },
            {
              "internalType": "address",
              "name": "elasticDAOFactoryAddress",
              "type": "address"
            },
            {
              "internalType": "address",
              "name": "elasticModuleModelAddress",
              "type": "address"
            },
            {
              "internalType": "address",
              "name": "tokenHolderModelAddress",
              "type": "address"
            },
            {
              "internalType": "address",
              "name": "tokenModelAddress",
              "type": "address"
            },
            {
              "internalType": "address",
              "name": "configuratorAddress",
              "type": "address"
            },
            {
              "internalType": "address",
              "name": "registratorAddress",
              "type": "address"
            },
            {
              "internalType": "address",
              "name": "governanceTokenAddress",
              "type": "address"
            }
          ],
          "internalType": "struct Ecosystem.Instance",
          "name": "_ecosystem",
          "type": "tuple"
        },
        {
          "components": [
            {
              "internalType": "address",
              "name": "uuid",
              "type": "address"
            },
            {
              "internalType": "string",
              "name": "name",
              "type": "string"
            },
            {
              "internalType": "string",
              "name": "symbol",
              "type": "string"
            },
            {
              "internalType": "uint256",
              "name": "capitalDelta",
              "type": "uint256"
            },
            {
              "internalType": "uint256",
              "name": "counter",
              "type": "uint256"
            },
            {
              "internalType": "uint256",
              "name": "elasticity",
              "type": "uint256"
            },
            {
              "internalType": "uint256",
              "name": "k",
              "type": "uint256"
            },
            {
              "internalType": "uint256",
              "name": "lambda",
              "type": "uint256"
            },
            {
              "internalType": "uint256",
              "name": "m",
              "type": "uint256"
            },
            {
              "internalType": "uint256",
              "name": "maxLambdaPurchase",
              "type": "uint256"
            },
            {
              "internalType": "uint256",
              "name": "numberOfTokenHolders",
              "type": "uint256"
            },
            {
              "components": [
                {
                  "internalType": "address",
                  "name": "daoAddress",
                  "type": "address"
                },
                {
                  "internalType": "address",
                  "name": "balanceModelAddress",
                  "type": "address"
                },
                {
                  "internalType": "address",
                  "name": "balanceMultipliersModelAddress",
                  "type": "address"
                },
                {
                  "internalType": "address",
                  "name": "daoModelAddress",
                  "type": "address"
                },
                {
                  "internalType": "address",
                  "name": "ecosystemModelAddress",
                  "type": "address"
                },
                {
                  "internalType": "address",
                  "name": "elasticDAOFactoryAddress",
                  "type": "address"
                },
                {
                  "internalType": "address",
                  "name": "elasticModuleModelAddress",
                  "type": "address"
                },
                {
                  "internalType": "address",
                  "name": "tokenHolderModelAddress",
                  "type": "address"
                },
                {
                  "internalType": "address",
                  "name": "tokenModelAddress",
                  "type": "address"
                },
                {
                  "internalType": "address",
                  "name": "configuratorAddress",
                  "type": "address"
                },
                {
                  "internalType": "address",
                  "name": "registratorAddress",
                  "type": "address"
                },
                {
                  "internalType": "address",
                  "name": "governanceTokenAddress",
                  "type": "address"
                }
              ],
              "internalType": "struct Ecosystem.Instance",
              "name": "ecosystem",
              "type": "tuple"
            }
          ],
          "internalType": "struct Token.Instance",
          "name": "_token",
          "type": "tuple"
        },
        {
          "components": [
            {
              "internalType": "address",
              "name": "account",
              "type": "address"
            },
            {
              "internalType": "uint256",
              "name": "counter",
              "type": "uint256"
            },
            {
              "internalType": "uint256",
              "name": "lambda",
              "type": "uint256"
            },
            {
              "components": [
                {
                  "internalType": "address",
                  "name": "daoAddress",
                  "type": "address"
                },
                {
                  "internalType": "address",
                  "name": "balanceModelAddress",
                  "type": "address"
                },
                {
                  "internalType": "address",
                  "name": "balanceMultipliersModelAddress",
                  "type": "address"
                },
                {
                  "internalType": "address",
                  "name": "daoModelAddress",
                  "type": "address"
                },
                {
                  "internalType": "address",
                  "name": "ecosystemModelAddress",
                  "type": "address"
                },
                {
                  "internalType": "address",
                  "name": "elasticDAOFactoryAddress",
                  "type": "address"
                },
                {
                  "internalType": "address",
                  "name": "elasticModuleModelAddress",
                  "type": "address"
                },
                {
                  "internalType": "address",
                  "name": "tokenHolderModelAddress",
                  "type": "address"
                },
                {
                  "internalType": "address",
                  "name": "tokenModelAddress",
                  "type": "address"
                },
                {
                  "internalType": "address",
                  "name": "configuratorAddress",
                  "type": "address"
                },
                {
                  "internalType": "address",
                  "name": "registratorAddress",
                  "type": "address"
                },
                {
                  "internalType": "address",
                  "name": "governanceTokenAddress",
                  "type": "address"
                }
              ],
              "internalType": "struct Ecosystem.Instance",
              "name": "ecosystem",
              "type": "tuple"
            },
            {
              "components": [
                {
                  "internalType": "address",
                  "name": "uuid",
                  "type": "address"
                },
                {
                  "internalType": "string",
                  "name": "name",
                  "type": "string"
                },
                {
                  "internalType": "string",
                  "name": "symbol",
                  "type": "string"
                },
                {
                  "internalType": "uint256",
                  "name": "capitalDelta",
                  "type": "uint256"
                },
                {
                  "internalType": "uint256",
                  "name": "counter",
                  "type": "uint256"
                },
                {
                  "internalType": "uint256",
                  "name": "elasticity",
                  "type": "uint256"
                },
                {
                  "internalType": "uint256",
                  "name": "k",
                  "type": "uint256"
                },
                {
                  "internalType": "uint256",
                  "name": "lambda",
                  "type": "uint256"
                },
                {
                  "internalType": "uint256",
                  "name": "m",
                  "type": "uint256"
                },
                {
                  "internalType": "uint256",
                  "name": "maxLambdaPurchase",
                  "type": "uint256"
                },
                {
                  "internalType": "uint256",
                  "name": "numberOfTokenHolders",
                  "type": "uint256"
                },
                {
                  "components": [
                    {
                      "internalType": "address",
                      "name": "daoAddress",
                      "type": "address"
                    },
                    {
                      "internalType": "address",
                      "name": "balanceModelAddress",
                      "type": "address"
                    },
                    {
                      "internalType": "address",
                      "name": "balanceMultipliersModelAddress",
                      "type": "address"
                    },
                    {
                      "internalType": "address",
                      "name": "daoModelAddress",
                      "type": "address"
                    },
                    {
                      "internalType": "address",
                      "name": "ecosystemModelAddress",
                      "type": "address"
                    },
                    {
                      "internalType": "address",
                      "name": "elasticDAOFactoryAddress",
                      "type": "address"
                    },
                    {
                      "internalType": "address",
                      "name": "elasticModuleModelAddress",
                      "type": "address"
                    },
                    {
                      "internalType": "address",
                      "name": "tokenHolderModelAddress",
                      "type": "address"
                    },
                    {
                      "internalType": "address",
                      "name": "tokenModelAddress",
                      "type": "address"
                    },
                    {
                      "internalType": "address",
                      "name": "configuratorAddress",
                      "type": "address"
                    },
                    {
                      "internalType": "address",
                      "name": "registratorAddress",
                      "type": "address"
                    },
                    {
                      "internalType": "address",
                      "name": "governanceTokenAddress",
                      "type": "address"
                    }
                  ],
                  "internalType": "struct Ecosystem.Instance",
                  "name": "ecosystem",
                  "type": "tuple"
                }
              ],
              "internalType": "struct Token.Instance",
              "name": "token",
              "type": "tuple"
            }
          ],
          "internalType": "struct TokenHolder.Instance",
          "name": "_tokenHolder",
          "type": "tuple"
        }
      ],
      "name": "deserialize",
      "outputs": [
        {
          "components": [
            {
              "internalType": "uint256",
              "name": "blockNumber",
              "type": "uint256"
            },
            {
              "internalType": "uint256",
              "name": "index",
              "type": "uint256"
            },
            {
              "internalType": "uint256",
              "name": "k",
              "type": "uint256"
            },
            {
              "internalType": "uint256",
              "name": "m",
              "type": "uint256"
            },
            {
              "internalType": "uint256",
              "name": "lambda",
              "type": "uint256"
            },
            {
              "components": [
                {
                  "internalType": "address",
                  "name": "daoAddress",
                  "type": "address"
                },
                {
                  "internalType": "address",
                  "name": "balanceModelAddress",
                  "type": "address"
                },
                {
                  "internalType": "address",
                  "name": "balanceMultipliersModelAddress",
                  "type": "address"
                },
                {
                  "internalType": "address",
                  "name": "daoModelAddress",
                  "type": "address"
                },
                {
                  "internalType": "address",
                  "name": "ecosystemModelAddress",
                  "type": "address"
                },
                {
                  "internalType": "address",
                  "name": "elasticDAOFactoryAddress",
                  "type": "address"
                },
                {
                  "internalType": "address",
                  "name": "elasticModuleModelAddress",
                  "type": "address"
                },
                {
                  "internalType": "address",
                  "name": "tokenHolderModelAddress",
                  "type": "address"
                },
                {
                  "internalType": "address",
                  "name": "tokenModelAddress",
                  "type": "address"
                },
                {
                  "internalType": "address",
                  "name": "configuratorAddress",
                  "type": "address"
                },
                {
                  "internalType": "address",
                  "name": "registratorAddress",
                  "type": "address"
                },
                {
                  "internalType": "address",
                  "name": "governanceTokenAddress",
                  "type": "address"
                }
              ],
              "internalType": "struct Ecosystem.Instance",
              "name": "ecosystem",
              "type": "tuple"
            },
            {
              "components": [
                {
                  "internalType": "address",
                  "name": "uuid",
                  "type": "address"
                },
                {
                  "internalType": "string",
                  "name": "name",
                  "type": "string"
                },
                {
                  "internalType": "string",
                  "name": "symbol",
                  "type": "string"
                },
                {
                  "internalType": "uint256",
                  "name": "capitalDelta",
                  "type": "uint256"
                },
                {
                  "internalType": "uint256",
                  "name": "counter",
                  "type": "uint256"
                },
                {
                  "internalType": "uint256",
                  "name": "elasticity",
                  "type": "uint256"
                },
                {
                  "internalType": "uint256",
                  "name": "k",
                  "type": "uint256"
                },
                {
                  "internalType": "uint256",
                  "name": "lambda",
                  "type": "uint256"
                },
                {
                  "internalType": "uint256",
                  "name": "m",
                  "type": "uint256"
                },
                {
                  "internalType": "uint256",
                  "name": "maxLambdaPurchase",
                  "type": "uint256"
                },
                {
                  "internalType": "uint256",
                  "name": "numberOfTokenHolders",
                  "type": "uint256"
                },
                {
                  "components": [
                    {
                      "internalType": "address",
                      "name": "daoAddress",
                      "type": "address"
                    },
                    {
                      "internalType": "address",
                      "name": "balanceModelAddress",
                      "type": "address"
                    },
                    {
                      "internalType": "address",
                      "name": "balanceMultipliersModelAddress",
                      "type": "address"
                    },
                    {
                      "internalType": "address",
                      "name": "daoModelAddress",
                      "type": "address"
                    },
                    {
                      "internalType": "address",
                      "name": "ecosystemModelAddress",
                      "type": "address"
                    },
                    {
                      "internalType": "address",
                      "name": "elasticDAOFactoryAddress",
                      "type": "address"
                    },
                    {
                      "internalType": "address",
                      "name": "elasticModuleModelAddress",
                      "type": "address"
                    },
                    {
                      "internalType": "address",
                      "name": "tokenHolderModelAddress",
                      "type": "address"
                    },
                    {
                      "internalType": "address",
                      "name": "tokenModelAddress",
                      "type": "address"
                    },
                    {
                      "internalType": "address",
                      "name": "configuratorAddress",
                      "type": "address"
                    },
                    {
                      "internalType": "address",
                      "name": "registratorAddress",
                      "type": "address"
                    },
                    {
                      "internalType": "address",
                      "name": "governanceTokenAddress",
                      "type": "address"
                    }
                  ],
                  "internalType": "struct Ecosystem.Instance",
                  "name": "ecosystem",
                  "type": "tuple"
                }
              ],
              "internalType": "struct Token.Instance",
              "name": "token",
              "type": "tuple"
            },
            {
              "components": [
                {
                  "internalType": "address",
                  "name": "account",
                  "type": "address"
                },
                {
                  "internalType": "uint256",
                  "name": "counter",
                  "type": "uint256"
                },
                {
                  "internalType": "uint256",
                  "name": "lambda",
                  "type": "uint256"
                },
                {
                  "components": [
                    {
                      "internalType": "address",
                      "name": "daoAddress",
                      "type": "address"
                    },
                    {
                      "internalType": "address",
                      "name": "balanceModelAddress",
                      "type": "address"
                    },
                    {
                      "internalType": "address",
                      "name": "balanceMultipliersModelAddress",
                      "type": "address"
                    },
                    {
                      "internalType": "address",
                      "name": "daoModelAddress",
                      "type": "address"
                    },
                    {
                      "internalType": "address",
                      "name": "ecosystemModelAddress",
                      "type": "address"
                    },
                    {
                      "internalType": "address",
                      "name": "elasticDAOFactoryAddress",
                      "type": "address"
                    },
                    {
                      "internalType": "address",
                      "name": "elasticModuleModelAddress",
                      "type": "address"
                    },
                    {
                      "internalType": "address",
                      "name": "tokenHolderModelAddress",
                      "type": "address"
                    },
                    {
                      "internalType": "address",
                      "name": "tokenModelAddress",
                      "type": "address"
                    },
                    {
                      "internalType": "address",
                      "name": "configuratorAddress",
                      "type": "address"
                    },
                    {
                      "internalType": "address",
                      "name": "registratorAddress",
                      "type": "address"
                    },
                    {
                      "internalType": "address",
                      "name": "governanceTokenAddress",
                      "type": "address"
                    }
                  ],
                  "internalType": "struct Ecosystem.Instance",
                  "name": "ecosystem",
                  "type": "tuple"
                },
                {
                  "components": [
                    {
                      "internalType": "address",
                      "name": "uuid",
                      "type": "address"
                    },
                    {
                      "internalType": "string",
                      "name": "name",
                      "type": "string"
                    },
                    {
                      "internalType": "string",
                      "name": "symbol",
                      "type": "string"
                    },
                    {
                      "internalType": "uint256",
                      "name": "capitalDelta",
                      "type": "uint256"
                    },
                    {
                      "internalType": "uint256",
                      "name": "counter",
                      "type": "uint256"
                    },
                    {
                      "internalType": "uint256",
                      "name": "elasticity",
                      "type": "uint256"
                    },
                    {
                      "internalType": "uint256",
                      "name": "k",
                      "type": "uint256"
                    },
                    {
                      "internalType": "uint256",
                      "name": "lambda",
                      "type": "uint256"
                    },
                    {
                      "internalType": "uint256",
                      "name": "m",
                      "type": "uint256"
                    },
                    {
                      "internalType": "uint256",
                      "name": "maxLambdaPurchase",
                      "type": "uint256"
                    },
                    {
                      "internalType": "uint256",
                      "name": "numberOfTokenHolders",
                      "type": "uint256"
                    },
                    {
                      "components": [
                        {
                          "internalType": "address",
                          "name": "daoAddress",
                          "type": "address"
                        },
                        {
                          "internalType": "address",
                          "name": "balanceModelAddress",
                          "type": "address"
                        },
                        {
                          "internalType": "address",
                          "name": "balanceMultipliersModelAddress",
                          "type": "address"
                        },
                        {
                          "internalType": "address",
                          "name": "daoModelAddress",
                          "type": "address"
                        },
                        {
                          "internalType": "address",
                          "name": "ecosystemModelAddress",
                          "type": "address"
                        },
                        {
                          "internalType": "address",
                          "name": "elasticDAOFactoryAddress",
                          "type": "address"
                        },
                        {
                          "internalType": "address",
                          "name": "elasticModuleModelAddress",
                          "type": "address"
                        },
                        {
                          "internalType": "address",
                          "name": "tokenHolderModelAddress",
                          "type": "address"
                        },
                        {
                          "internalType": "address",
                          "name": "tokenModelAddress",
                          "type": "address"
                        },
                        {
                          "internalType": "address",
                          "name": "configuratorAddress",
                          "type": "address"
                        },
                        {
                          "internalType": "address",
                          "name": "registratorAddress",
                          "type": "address"
                        },
                        {
                          "internalType": "address",
                          "name": "governanceTokenAddress",
                          "type": "address"
                        }
                      ],
                      "internalType": "struct Ecosystem.Instance",
                      "name": "ecosystem",
                      "type": "tuple"
                    }
                  ],
                  "internalType": "struct Token.Instance",
                  "name": "token",
                  "type": "tuple"
                }
              ],
              "internalType": "struct TokenHolder.Instance",
              "name": "tokenHolder",
              "type": "tuple"
            }
          ],
          "internalType": "struct Balance.Instance",
          "name": "record",
          "type": "tuple"
        }
      ],
      "stateMutability": "view",
      "type": "function"
    },
    {
      "inputs": [
        {
          "internalType": "uint256",
          "name": "",
          "type": "uint256"
        },
        {
          "components": [
            {
              "internalType": "address",
              "name": "daoAddress",
              "type": "address"
            },
            {
              "internalType": "address",
              "name": "balanceModelAddress",
              "type": "address"
            },
            {
              "internalType": "address",
              "name": "balanceMultipliersModelAddress",
              "type": "address"
            },
            {
              "internalType": "address",
              "name": "daoModelAddress",
              "type": "address"
            },
            {
              "internalType": "address",
              "name": "ecosystemModelAddress",
              "type": "address"
            },
            {
              "internalType": "address",
              "name": "elasticDAOFactoryAddress",
              "type": "address"
            },
            {
              "internalType": "address",
              "name": "elasticModuleModelAddress",
              "type": "address"
            },
            {
              "internalType": "address",
              "name": "tokenHolderModelAddress",
              "type": "address"
            },
            {
              "internalType": "address",
              "name": "tokenModelAddress",
              "type": "address"
            },
            {
              "internalType": "address",
              "name": "configuratorAddress",
              "type": "address"
            },
            {
              "internalType": "address",
              "name": "registratorAddress",
              "type": "address"
            },
            {
              "internalType": "address",
              "name": "governanceTokenAddress",
              "type": "address"
            }
          ],
          "internalType": "struct Ecosystem.Instance",
          "name": "",
          "type": "tuple"
        },
        {
          "components": [
            {
              "internalType": "address",
              "name": "uuid",
              "type": "address"
            },
            {
              "internalType": "string",
              "name": "name",
              "type": "string"
            },
            {
              "internalType": "string",
              "name": "symbol",
              "type": "string"
            },
            {
              "internalType": "uint256",
              "name": "capitalDelta",
              "type": "uint256"
            },
            {
              "internalType": "uint256",
              "name": "counter",
              "type": "uint256"
            },
            {
              "internalType": "uint256",
              "name": "elasticity",
              "type": "uint256"
            },
            {
              "internalType": "uint256",
              "name": "k",
              "type": "uint256"
            },
            {
              "internalType": "uint256",
              "name": "lambda",
              "type": "uint256"
            },
            {
              "internalType": "uint256",
              "name": "m",
              "type": "uint256"
            },
            {
              "internalType": "uint256",
              "name": "maxLambdaPurchase",
              "type": "uint256"
            },
            {
              "internalType": "uint256",
              "name": "numberOfTokenHolders",
              "type": "uint256"
            },
            {
              "components": [
                {
                  "internalType": "address",
                  "name": "daoAddress",
                  "type": "address"
                },
                {
                  "internalType": "address",
                  "name": "balanceModelAddress",
                  "type": "address"
                },
                {
                  "internalType": "address",
                  "name": "balanceMultipliersModelAddress",
                  "type": "address"
                },
                {
                  "internalType": "address",
                  "name": "daoModelAddress",
                  "type": "address"
                },
                {
                  "internalType": "address",
                  "name": "ecosystemModelAddress",
                  "type": "address"
                },
                {
                  "internalType": "address",
                  "name": "elasticDAOFactoryAddress",
                  "type": "address"
                },
                {
                  "internalType": "address",
                  "name": "elasticModuleModelAddress",
                  "type": "address"
                },
                {
                  "internalType": "address",
                  "name": "tokenHolderModelAddress",
                  "type": "address"
                },
                {
                  "internalType": "address",
                  "name": "tokenModelAddress",
                  "type": "address"
                },
                {
                  "internalType": "address",
                  "name": "configuratorAddress",
                  "type": "address"
                },
                {
                  "internalType": "address",
                  "name": "registratorAddress",
                  "type": "address"
                },
                {
                  "internalType": "address",
                  "name": "governanceTokenAddress",
                  "type": "address"
                }
              ],
              "internalType": "struct Ecosystem.Instance",
              "name": "ecosystem",
              "type": "tuple"
            }
          ],
          "internalType": "struct Token.Instance",
          "name": "",
          "type": "tuple"
        },
        {
          "components": [
            {
              "internalType": "address",
              "name": "account",
              "type": "address"
            },
            {
              "internalType": "uint256",
              "name": "counter",
              "type": "uint256"
            },
            {
              "internalType": "uint256",
              "name": "lambda",
              "type": "uint256"
            },
            {
              "components": [
                {
                  "internalType": "address",
                  "name": "daoAddress",
                  "type": "address"
                },
                {
                  "internalType": "address",
                  "name": "balanceModelAddress",
                  "type": "address"
                },
                {
                  "internalType": "address",
                  "name": "balanceMultipliersModelAddress",
                  "type": "address"
                },
                {
                  "internalType": "address",
                  "name": "daoModelAddress",
                  "type": "address"
                },
                {
                  "internalType": "address",
                  "name": "ecosystemModelAddress",
                  "type": "address"
                },
                {
                  "internalType": "address",
                  "name": "elasticDAOFactoryAddress",
                  "type": "address"
                },
                {
                  "internalType": "address",
                  "name": "elasticModuleModelAddress",
                  "type": "address"
                },
                {
                  "internalType": "address",
                  "name": "tokenHolderModelAddress",
                  "type": "address"
                },
                {
                  "internalType": "address",
                  "name": "tokenModelAddress",
                  "type": "address"
                },
                {
                  "internalType": "address",
                  "name": "configuratorAddress",
                  "type": "address"
                },
                {
                  "internalType": "address",
                  "name": "registratorAddress",
                  "type": "address"
                },
                {
                  "internalType": "address",
                  "name": "governanceTokenAddress",
                  "type": "address"
                }
              ],
              "internalType": "struct Ecosystem.Instance",
              "name": "ecosystem",
              "type": "tuple"
            },
            {
              "components": [
                {
                  "internalType": "address",
                  "name": "uuid",
                  "type": "address"
                },
                {
                  "internalType": "string",
                  "name": "name",
                  "type": "string"
                },
                {
                  "internalType": "string",
                  "name": "symbol",
                  "type": "string"
                },
                {
                  "internalType": "uint256",
                  "name": "capitalDelta",
                  "type": "uint256"
                },
                {
                  "internalType": "uint256",
                  "name": "counter",
                  "type": "uint256"
                },
                {
                  "internalType": "uint256",
                  "name": "elasticity",
                  "type": "uint256"
                },
                {
                  "internalType": "uint256",
                  "name": "k",
                  "type": "uint256"
                },
                {
                  "internalType": "uint256",
                  "name": "lambda",
                  "type": "uint256"
                },
                {
                  "internalType": "uint256",
                  "name": "m",
                  "type": "uint256"
                },
                {
                  "internalType": "uint256",
                  "name": "maxLambdaPurchase",
                  "type": "uint256"
                },
                {
                  "internalType": "uint256",
                  "name": "numberOfTokenHolders",
                  "type": "uint256"
                },
                {
                  "components": [
                    {
                      "internalType": "address",
                      "name": "daoAddress",
                      "type": "address"
                    },
                    {
                      "internalType": "address",
                      "name": "balanceModelAddress",
                      "type": "address"
                    },
                    {
                      "internalType": "address",
                      "name": "balanceMultipliersModelAddress",
                      "type": "address"
                    },
                    {
                      "internalType": "address",
                      "name": "daoModelAddress",
                      "type": "address"
                    },
                    {
                      "internalType": "address",
                      "name": "ecosystemModelAddress",
                      "type": "address"
                    },
                    {
                      "internalType": "address",
                      "name": "elasticDAOFactoryAddress",
                      "type": "address"
                    },
                    {
                      "internalType": "address",
                      "name": "elasticModuleModelAddress",
                      "type": "address"
                    },
                    {
                      "internalType": "address",
                      "name": "tokenHolderModelAddress",
                      "type": "address"
                    },
                    {
                      "internalType": "address",
                      "name": "tokenModelAddress",
                      "type": "address"
                    },
                    {
                      "internalType": "address",
                      "name": "configuratorAddress",
                      "type": "address"
                    },
                    {
                      "internalType": "address",
                      "name": "registratorAddress",
                      "type": "address"
                    },
                    {
                      "internalType": "address",
                      "name": "governanceTokenAddress",
                      "type": "address"
                    }
                  ],
                  "internalType": "struct Ecosystem.Instance",
                  "name": "ecosystem",
                  "type": "tuple"
                }
              ],
              "internalType": "struct Token.Instance",
              "name": "token",
              "type": "tuple"
            }
          ],
          "internalType": "struct TokenHolder.Instance",
          "name": "",
          "type": "tuple"
        }
      ],
      "name": "exists",
      "outputs": [
        {
          "internalType": "bool",
          "name": "",
          "type": "bool"
        }
      ],
      "stateMutability": "pure",
      "type": "function"
    },
    {
      "inputs": [
        {
          "components": [
            {
              "internalType": "uint256",
              "name": "blockNumber",
              "type": "uint256"
            },
            {
              "internalType": "uint256",
              "name": "index",
              "type": "uint256"
            },
            {
              "internalType": "uint256",
              "name": "k",
              "type": "uint256"
            },
            {
              "internalType": "uint256",
              "name": "m",
              "type": "uint256"
            },
            {
              "internalType": "uint256",
              "name": "lambda",
              "type": "uint256"
            },
            {
              "components": [
                {
                  "internalType": "address",
                  "name": "daoAddress",
                  "type": "address"
                },
                {
                  "internalType": "address",
                  "name": "balanceModelAddress",
                  "type": "address"
                },
                {
                  "internalType": "address",
                  "name": "balanceMultipliersModelAddress",
                  "type": "address"
                },
                {
                  "internalType": "address",
                  "name": "daoModelAddress",
                  "type": "address"
                },
                {
                  "internalType": "address",
                  "name": "ecosystemModelAddress",
                  "type": "address"
                },
                {
                  "internalType": "address",
                  "name": "elasticDAOFactoryAddress",
                  "type": "address"
                },
                {
                  "internalType": "address",
                  "name": "elasticModuleModelAddress",
                  "type": "address"
                },
                {
                  "internalType": "address",
                  "name": "tokenHolderModelAddress",
                  "type": "address"
                },
                {
                  "internalType": "address",
                  "name": "tokenModelAddress",
                  "type": "address"
                },
                {
                  "internalType": "address",
                  "name": "configuratorAddress",
                  "type": "address"
                },
                {
                  "internalType": "address",
                  "name": "registratorAddress",
                  "type": "address"
                },
                {
                  "internalType": "address",
                  "name": "governanceTokenAddress",
                  "type": "address"
                }
              ],
              "internalType": "struct Ecosystem.Instance",
              "name": "ecosystem",
              "type": "tuple"
            },
            {
              "components": [
                {
                  "internalType": "address",
                  "name": "uuid",
                  "type": "address"
                },
                {
                  "internalType": "string",
                  "name": "name",
                  "type": "string"
                },
                {
                  "internalType": "string",
                  "name": "symbol",
                  "type": "string"
                },
                {
                  "internalType": "uint256",
                  "name": "capitalDelta",
                  "type": "uint256"
                },
                {
                  "internalType": "uint256",
                  "name": "counter",
                  "type": "uint256"
                },
                {
                  "internalType": "uint256",
                  "name": "elasticity",
                  "type": "uint256"
                },
                {
                  "internalType": "uint256",
                  "name": "k",
                  "type": "uint256"
                },
                {
                  "internalType": "uint256",
                  "name": "lambda",
                  "type": "uint256"
                },
                {
                  "internalType": "uint256",
                  "name": "m",
                  "type": "uint256"
                },
                {
                  "internalType": "uint256",
                  "name": "maxLambdaPurchase",
                  "type": "uint256"
                },
                {
                  "internalType": "uint256",
                  "name": "numberOfTokenHolders",
                  "type": "uint256"
                },
                {
                  "components": [
                    {
                      "internalType": "address",
                      "name": "daoAddress",
                      "type": "address"
                    },
                    {
                      "internalType": "address",
                      "name": "balanceModelAddress",
                      "type": "address"
                    },
                    {
                      "internalType": "address",
                      "name": "balanceMultipliersModelAddress",
                      "type": "address"
                    },
                    {
                      "internalType": "address",
                      "name": "daoModelAddress",
                      "type": "address"
                    },
                    {
                      "internalType": "address",
                      "name": "ecosystemModelAddress",
                      "type": "address"
                    },
                    {
                      "internalType": "address",
                      "name": "elasticDAOFactoryAddress",
                      "type": "address"
                    },
                    {
                      "internalType": "address",
                      "name": "elasticModuleModelAddress",
                      "type": "address"
                    },
                    {
                      "internalType": "address",
                      "name": "tokenHolderModelAddress",
                      "type": "address"
                    },
                    {
                      "internalType": "address",
                      "name": "tokenModelAddress",
                      "type": "address"
                    },
                    {
                      "internalType": "address",
                      "name": "configuratorAddress",
                      "type": "address"
                    },
                    {
                      "internalType": "address",
                      "name": "registratorAddress",
                      "type": "address"
                    },
                    {
                      "internalType": "address",
                      "name": "governanceTokenAddress",
                      "type": "address"
                    }
                  ],
                  "internalType": "struct Ecosystem.Instance",
                  "name": "ecosystem",
                  "type": "tuple"
                }
              ],
              "internalType": "struct Token.Instance",
              "name": "token",
              "type": "tuple"
            },
            {
              "components": [
                {
                  "internalType": "address",
                  "name": "account",
                  "type": "address"
                },
                {
                  "internalType": "uint256",
                  "name": "counter",
                  "type": "uint256"
                },
                {
                  "internalType": "uint256",
                  "name": "lambda",
                  "type": "uint256"
                },
                {
                  "components": [
                    {
                      "internalType": "address",
                      "name": "daoAddress",
                      "type": "address"
                    },
                    {
                      "internalType": "address",
                      "name": "balanceModelAddress",
                      "type": "address"
                    },
                    {
                      "internalType": "address",
                      "name": "balanceMultipliersModelAddress",
                      "type": "address"
                    },
                    {
                      "internalType": "address",
                      "name": "daoModelAddress",
                      "type": "address"
                    },
                    {
                      "internalType": "address",
                      "name": "ecosystemModelAddress",
                      "type": "address"
                    },
                    {
                      "internalType": "address",
                      "name": "elasticDAOFactoryAddress",
                      "type": "address"
                    },
                    {
                      "internalType": "address",
                      "name": "elasticModuleModelAddress",
                      "type": "address"
                    },
                    {
                      "internalType": "address",
                      "name": "tokenHolderModelAddress",
                      "type": "address"
                    },
                    {
                      "internalType": "address",
                      "name": "tokenModelAddress",
                      "type": "address"
                    },
                    {
                      "internalType": "address",
                      "name": "configuratorAddress",
                      "type": "address"
                    },
                    {
                      "internalType": "address",
                      "name": "registratorAddress",
                      "type": "address"
                    },
                    {
                      "internalType": "address",
                      "name": "governanceTokenAddress",
                      "type": "address"
                    }
                  ],
                  "internalType": "struct Ecosystem.Instance",
                  "name": "ecosystem",
                  "type": "tuple"
                },
                {
                  "components": [
                    {
                      "internalType": "address",
                      "name": "uuid",
                      "type": "address"
                    },
                    {
                      "internalType": "string",
                      "name": "name",
                      "type": "string"
                    },
                    {
                      "internalType": "string",
                      "name": "symbol",
                      "type": "string"
                    },
                    {
                      "internalType": "uint256",
                      "name": "capitalDelta",
                      "type": "uint256"
                    },
                    {
                      "internalType": "uint256",
                      "name": "counter",
                      "type": "uint256"
                    },
                    {
                      "internalType": "uint256",
                      "name": "elasticity",
                      "type": "uint256"
                    },
                    {
                      "internalType": "uint256",
                      "name": "k",
                      "type": "uint256"
                    },
                    {
                      "internalType": "uint256",
                      "name": "lambda",
                      "type": "uint256"
                    },
                    {
                      "internalType": "uint256",
                      "name": "m",
                      "type": "uint256"
                    },
                    {
                      "internalType": "uint256",
                      "name": "maxLambdaPurchase",
                      "type": "uint256"
                    },
                    {
                      "internalType": "uint256",
                      "name": "numberOfTokenHolders",
                      "type": "uint256"
                    },
                    {
                      "components": [
                        {
                          "internalType": "address",
                          "name": "daoAddress",
                          "type": "address"
                        },
                        {
                          "internalType": "address",
                          "name": "balanceModelAddress",
                          "type": "address"
                        },
                        {
                          "internalType": "address",
                          "name": "balanceMultipliersModelAddress",
                          "type": "address"
                        },
                        {
                          "internalType": "address",
                          "name": "daoModelAddress",
                          "type": "address"
                        },
                        {
                          "internalType": "address",
                          "name": "ecosystemModelAddress",
                          "type": "address"
                        },
                        {
                          "internalType": "address",
                          "name": "elasticDAOFactoryAddress",
                          "type": "address"
                        },
                        {
                          "internalType": "address",
                          "name": "elasticModuleModelAddress",
                          "type": "address"
                        },
                        {
                          "internalType": "address",
                          "name": "tokenHolderModelAddress",
                          "type": "address"
                        },
                        {
                          "internalType": "address",
                          "name": "tokenModelAddress",
                          "type": "address"
                        },
                        {
                          "internalType": "address",
                          "name": "configuratorAddress",
                          "type": "address"
                        },
                        {
                          "internalType": "address",
                          "name": "registratorAddress",
                          "type": "address"
                        },
                        {
                          "internalType": "address",
                          "name": "governanceTokenAddress",
                          "type": "address"
                        }
                      ],
                      "internalType": "struct Ecosystem.Instance",
                      "name": "ecosystem",
                      "type": "tuple"
                    }
                  ],
                  "internalType": "struct Token.Instance",
                  "name": "token",
                  "type": "tuple"
                }
              ],
              "internalType": "struct TokenHolder.Instance",
              "name": "tokenHolder",
              "type": "tuple"
            }
          ],
          "internalType": "struct Balance.Instance",
          "name": "record",
          "type": "tuple"
        }
      ],
      "name": "serialize",
      "outputs": [],
      "stateMutability": "nonpayable",
      "type": "function"
    }
  ],
  "bytecode": "0x608060405234801561001057600080fd5b5061142c806100206000396000f3fe608060405234801561001057600080fd5b50600436106100415760003560e01c806362ab7c68146100465780637bb8bf661461006f578063f3dabcd014610084575b600080fd5b610059610054366004610e46565b6100a4565b6040516100669190611204565b60405180910390f35b61008261007d366004610cb9565b6100ae565b005b610097610092366004610e46565b610259565b6040516100669190611259565b6001949350505050565b60c08101515160e0820151516020808401516040516100f6946100d6949093909291016111d2565b604051602081830303815290604052805190602001208260000151610344565b60c08101515160e08201515160208084015160405161013e9461011e949093909291016111a0565b604051602081830303815290604052805190602001208260800151610344565b610146610643565b8151815260c0820180516080908101516020840152604080850151818501526060808601519085015260a0808601805193860193909352925192840192909252518101519051637a6b4dfd60e01b81526001600160a01b0390911690637a6b4dfd906101b69084906004016112e4565b600060405180830381600087803b1580156101d057600080fd5b505af11580156101e4573d6000803e3d6000fd5b5050505060a0820151610100015160c08301515160405163e5910ae760e01b81526001600160a01b039092169163e5910ae79161022391600401611124565b600060405180830381600087803b15801561023d57600080fd5b505af1158015610251573d6000803e3d6000fd5b505050505050565b610261610684565b61027385836020015160008686610356565b60a0810185905260c0810184905260e081018390529050610292610643565b60a082015160408082015160c085015191516399a4562360e01b81526001600160a01b03909116926399a45623926102d0928b929190600401611344565b60006040518083038186803b1580156102e857600080fd5b505afa1580156102fc573d6000803e3d6000fd5b505050506040513d6000823e601f3d908101601f191682016040526103249190810190610d8f565b868352604080820151908401526060908101519083015250949350505050565b60009182526020829052604090912055565b61035e610684565b846103725785815260006080820152610509565b84600114156104775760006103878587610512565b845184516040519293506103c0926103a592919085906020016111d2565b60405160208183030381529060405280519060200120610547565b80835215806103cf5750815187105b1561045c578461043d57835183516040516103f5926103a592909160009060200161116c565b80835215806104045750815187105b15610416575060006080820152610509565b83518351604051610432926103a5929091600090602001611138565b608083015250610509565b610454878761044d88600161055c565b8787610356565b915050610509565b83518351604051610432926103a592909185906020016111a0565b600061048486600261059e565b905060006104928287610512565b855185516040519293506104b0926103a592919085906020016111d2565b8084528810156104d0576104c78883888888610356565b92505050610509565b82518811156104e6576104c78883838888610356565b84518451604051610501926103a592909185906020016111a0565b608084015250505b95945050505050565b6000828201838110156105405760405162461bcd60e51b815260040161053790611222565b60405180910390fd5b9392505050565b6000818152602081905260409020545b919050565b600061054083836040518060400160405280601e81526020017f536166654d6174683a207375627472616374696f6e206f766572666c6f7700008152506105e0565b600061054083836040518060400160405280601a81526020017f536166654d6174683a206469766973696f6e206279207a65726f00000000000081525061060c565b600081848411156106045760405162461bcd60e51b8152600401610537919061120f565b505050900390565b6000818361062d5760405162461bcd60e51b8152600401610537919061120f565b50600083858161063957fe5b0495945050505050565b6040518060c00160405280600081526020016000815260200160008152602001600081526020016106726106d5565b815260200161067f610739565b905290565b60405180610100016040528060008152602001600081526020016000815260200160008152602001600081526020016106bb6106d5565b81526020016106c8610739565b815260200161067f6107a3565b6040805161018081018252600080825260208201819052918101829052606081018290526080810182905260a0810182905260c0810182905260e0810182905261010081018290526101208101829052610140810182905261016081019190915290565b60405180610180016040528060006001600160a01b031681526020016060815260200160608152602001600081526020016000815260200160008152602001600081526020016000815260200160008152602001600081526020016000815260200161067f6106d5565b6040518060a0016040528060006001600160a01b0316815260200160008152602001600081526020016106726106d5565b8035610557816113de565b8051610557816113de565b600082601f8301126107fa578081fd5b813561080d61080882611390565b61136c565b915080825283602082850101111561082457600080fd5b8060208401602084013760009082016020015292915050565b600082601f83011261084d578081fd5b815161085b61080882611390565b915080825283602082850101111561087257600080fd5b6108838160208401602086016113b2565b5092915050565b600061018080838503121561089d578182fd5b6108a68161136c565b9150506108b2826107d4565b81526108c0602083016107d4565b60208201526108d1604083016107d4565b60408201526108e2606083016107d4565b60608201526108f3608083016107d4565b608082015261090460a083016107d4565b60a082015261091560c083016107d4565b60c082015261092660e083016107d4565b60e08201526101006109398184016107d4565b9082015261012061094b8382016107d4565b9082015261014061095d8382016107d4565b9082015261016061096f8382016107d4565b9082015292915050565b600061018080838503121561098c578182fd5b6109958161136c565b9150506109a1826107df565b81526109af602083016107df565b60208201526109c0604083016107df565b60408201526109d1606083016107df565b60608201526109e2608083016107df565b60808201526109f360a083016107df565b60a0820152610a0460c083016107df565b60c0820152610a1560e083016107df565b60e0820152610100610a288184016107df565b90820152610120610a3a8382016107df565b90820152610140610a4c8382016107df565b9082015261016061096f8382016107df565b60006102e08284031215610a70578081fd5b610a7b61018061136c565b9050610a86826107d4565b8152602082013567ffffffffffffffff80821115610aa357600080fd5b610aaf858386016107ea565b60208401526040840135915080821115610ac857600080fd5b50610ad5848285016107ea565b604083015250606082013560608201526080820135608082015260a082013560a082015260c082013560c082015260e082013560e082015261010080830135818301525061012080830135818301525061014080830135818301525061016061096f8482850161088a565b60006102e08284031215610b52578081fd5b610b5d61018061136c565b9050610b68826107df565b8152602082015167ffffffffffffffff80821115610b8557600080fd5b610b918583860161083d565b60208401526040840151915080821115610baa57600080fd5b50610bb78482850161083d565b604083015250606082015160608201526080820151608082015260a082015160a082015260c082015160c082015260e082015160e082015261010080830151818301525061012080830151818301525061014080830151818301525061016061096f84828501610979565b60006102008284031215610c34578081fd5b60405160a0810167ffffffffffffffff8282108183111715610c5257fe5b81604052829350610c62856107d4565b83526020850135602084015260408501356040840152610c85866060870161088a565b60608401526101e0850135915080821115610c9f57600080fd5b50610cac85828601610a5e565b6080830152505092915050565b600060208284031215610cca578081fd5b813567ffffffffffffffff80821115610ce1578283fd5b908301906102608286031215610cf5578283fd5b610d0061010061136c565b8235815260208301356020820152604083013560408201526060830135606082015260808301356080820152610d398660a0850161088a565b60a082015261022083013582811115610d50578485fd5b610d5c87828601610a5e565b60c08301525061024083013582811115610d74578485fd5b610d8087828601610c22565b60e08301525095945050505050565b600060208284031215610da0578081fd5b815167ffffffffffffffff80821115610db7578283fd5b908301906102208286031215610dcb578283fd5b60405160c081018181108382111715610de057fe5b806040525082518152602083015160208201526040830151604082015260608301516060820152610e148660808501610979565b608082015261020083015182811115610e2b578485fd5b610e3787828601610b40565b60a08301525095945050505050565b6000806000806101e08587031215610e5c578283fd5b84359350610e6d866020870161088a565b92506101a085013567ffffffffffffffff80821115610e8a578384fd5b610e9688838901610a5e565b93506101c0870135915080821115610eac578283fd5b50610eb987828801610c22565b91505092959194509250565b6001600160a01b03169052565b60008151808452610eea8160208601602086016113b2565b601f01601f19169290920160200192915050565b60068152656c616d62646160d01b602082015260400190565b600b81526a313637b1b5a73ab6b132b960a91b602082015260400190565b610f40828251610ec5565b6020810151610f526020840182610ec5565b506040810151610f656040840182610ec5565b506060810151610f786060840182610ec5565b506080810151610f8b6080840182610ec5565b5060a0810151610f9e60a0840182610ec5565b5060c0810151610fb160c0840182610ec5565b5060e0810151610fc460e0840182610ec5565b5061010080820151610fd882850182610ec5565b505061012080820151610fed82850182610ec5565b50506101408082015161100282850182610ec5565b50506101608082015161101782850182610ec5565b50505050565b60006102e061102d848451610ec5565b602083015181602086015261104482860182610ed2565b9150506040830151848203604086015261105e8282610ed2565b915050606083015160608501526080830151608085015260a083015160a085015260c083015160c085015260e083015160e0850152610100808401518186015250610120808401518186015250610140808401518186015250610160808401516110ca82870182610f35565b5090949350505050565b600061020060018060a01b0383511684526020830151602085015260408301516040850152606083015161110b6060860182610f35565b506080830151816101e08601526105098286018261101d565b6001600160a01b0391909116815260200190565b6001600160a01b0384811682528316602082015260ff82166040820152608060608201819052600090610509908301610efe565b6001600160a01b0384811682528316602082015260ff82166040820152608060608201819052600090610509908301610f17565b6001600160a01b0384811682528316602082015260408101829052608060608201819052600090610509908301610efe565b6001600160a01b0384811682528316602082015260408101829052608060608201819052600090610509908301610f17565b901515815260200190565b6000602082526105406020830184610ed2565b6020808252601b908201527f536166654d6174683a206164646974696f6e206f766572666c6f770000000000604082015260600190565b60006020825282516020830152602083015160408301526040830151606083015260608301516080830152608083015160a083015260a08301516112a060c0840182610f35565b5060c0830151610260806102408501526112be61028085018361101d565b915060e0850151601f1985840301828601526112da83826110d4565b9695505050505050565b60006020825282516020830152602083015160408301526040830151606083015260608301516080830152608083015161132160a0840182610f35565b5060a08301516102208381015261133c61024084018261101d565b949350505050565b60006101c08583526113596020840186610f35565b806101a08401526112da8184018561101d565b60405181810167ffffffffffffffff8111828210171561138857fe5b604052919050565b600067ffffffffffffffff8211156113a457fe5b50601f01601f191660200190565b60005b838110156113cd5781810151838201526020016113b5565b838111156110175750506000910152565b6001600160a01b03811681146113f357600080fd5b5056fea2646970667358221220e7519786c9b365f40bc5c8a2f46be3f7f734af7c1654dc6b812b5dbf7d6c80a764736f6c63430007020033",
  "linkReferences": {},
  "deployedLinkReferences": {}
}