{
  "_format": "hh-sol-artifact-1",
  "contractName": "ElasticGovernanceToken",
  "sourceName": "src/tokens/ElasticGovernanceToken.sol",
  "abi": [
    {
      "inputs": [
        {
          "internalType": "address",
          "name": "_daoAddress",
          "type": "address"
        },
        {
          "internalType": "address",
          "name": "_ecosystemModelAddress",
          "type": "address"
        }
      ],
      "stateMutability": "nonpayable",
      "type": "constructor"
    },
    {
      "anonymous": false,
      "inputs": [
        {
          "indexed": true,
          "internalType": "address",
          "name": "_owner",
          "type": "address"
        },
        {
          "indexed": true,
          "internalType": "address",
          "name": "_spender",
          "type": "address"
        },
        {
          "indexed": false,
          "internalType": "uint256",
          "name": "_amount",
          "type": "uint256"
        }
      ],
      "name": "Approval",
      "type": "event"
    },
    {
      "anonymous": false,
      "inputs": [
        {
          "indexed": true,
          "internalType": "address",
          "name": "_from",
          "type": "address"
        },
        {
          "indexed": true,
          "internalType": "address",
          "name": "_to",
          "type": "address"
        },
        {
          "indexed": false,
          "internalType": "uint256",
          "name": "_amount",
          "type": "uint256"
        }
      ],
      "name": "Transfer",
      "type": "event"
    },
    {
      "inputs": [
        {
          "internalType": "address",
          "name": "_owner",
          "type": "address"
        },
        {
          "internalType": "address",
          "name": "_spender",
          "type": "address"
        }
      ],
      "name": "allowance",
      "outputs": [
        {
          "internalType": "uint256",
          "name": "",
          "type": "uint256"
        }
      ],
      "stateMutability": "view",
      "type": "function"
    },
    {
      "inputs": [
        {
          "internalType": "address",
          "name": "_spender",
          "type": "address"
        },
        {
          "internalType": "uint256",
          "name": "_amount",
          "type": "uint256"
        }
      ],
      "name": "approve",
      "outputs": [
        {
          "internalType": "bool",
          "name": "",
          "type": "bool"
        }
      ],
      "stateMutability": "nonpayable",
      "type": "function"
    },
    {
      "inputs": [
        {
          "internalType": "address",
          "name": "_account",
          "type": "address"
        }
      ],
      "name": "balanceOf",
      "outputs": [
        {
          "internalType": "uint256",
          "name": "",
          "type": "uint256"
        }
      ],
      "stateMutability": "view",
      "type": "function"
    },
    {
      "inputs": [
        {
          "internalType": "address",
          "name": "_account",
          "type": "address"
        },
        {
          "internalType": "uint256",
          "name": "_blockNumber",
          "type": "uint256"
        }
      ],
      "name": "balanceOfAt",
      "outputs": [
        {
          "internalType": "uint256",
          "name": "t",
          "type": "uint256"
        }
      ],
      "stateMutability": "view",
      "type": "function"
    },
    {
      "inputs": [
        {
          "internalType": "address",
          "name": "_account",
          "type": "address"
        }
      ],
      "name": "balanceOfInShares",
      "outputs": [
        {
          "internalType": "uint256",
          "name": "lambda",
          "type": "uint256"
        }
      ],
      "stateMutability": "view",
      "type": "function"
    },
    {
      "inputs": [
        {
          "internalType": "address",
          "name": "_account",
          "type": "address"
        },
        {
          "internalType": "uint256",
          "name": "_blockNumber",
          "type": "uint256"
        }
      ],
      "name": "balanceOfInSharesAt",
      "outputs": [
        {
          "internalType": "uint256",
          "name": "lambda",
          "type": "uint256"
        }
      ],
      "stateMutability": "view",
      "type": "function"
    },
    {
      "inputs": [
        {
          "internalType": "address",
          "name": "_account",
          "type": "address"
        },
        {
          "internalType": "uint256",
          "name": "_amount",
          "type": "uint256"
        }
      ],
      "name": "burn",
      "outputs": [
        {
          "internalType": "bool",
          "name": "",
          "type": "bool"
        }
      ],
      "stateMutability": "nonpayable",
      "type": "function"
    },
    {
      "inputs": [
        {
          "internalType": "address",
          "name": "_account",
          "type": "address"
        },
        {
          "internalType": "uint256",
          "name": "_amount",
          "type": "uint256"
        }
      ],
      "name": "burnShares",
      "outputs": [
        {
          "internalType": "bool",
          "name": "",
          "type": "bool"
        }
      ],
      "stateMutability": "nonpayable",
      "type": "function"
    },
    {
      "inputs": [],
      "name": "decimals",
      "outputs": [
        {
          "internalType": "uint256",
          "name": "",
          "type": "uint256"
        }
      ],
      "stateMutability": "pure",
      "type": "function"
    },
    {
      "inputs": [
        {
          "internalType": "address",
          "name": "_spender",
          "type": "address"
        },
        {
          "internalType": "uint256",
          "name": "_subtractedValue",
          "type": "uint256"
        }
      ],
      "name": "decreaseAllowance",
      "outputs": [
        {
          "internalType": "bool",
          "name": "",
          "type": "bool"
        }
      ],
      "stateMutability": "nonpayable",
      "type": "function"
    },
    {
      "inputs": [
        {
          "internalType": "address",
          "name": "_spender",
          "type": "address"
        },
        {
          "internalType": "uint256",
          "name": "_addedValue",
          "type": "uint256"
        }
      ],
      "name": "increaseAllowance",
      "outputs": [
        {
          "internalType": "bool",
          "name": "",
          "type": "bool"
        }
      ],
      "stateMutability": "nonpayable",
      "type": "function"
    },
    {
      "inputs": [
        {
          "internalType": "address",
          "name": "_account",
          "type": "address"
        },
        {
          "internalType": "uint256",
          "name": "_amount",
          "type": "uint256"
        }
      ],
      "name": "mint",
      "outputs": [
        {
          "internalType": "bool",
          "name": "",
          "type": "bool"
        }
      ],
      "stateMutability": "nonpayable",
      "type": "function"
    },
    {
      "inputs": [
        {
          "internalType": "address",
          "name": "_account",
          "type": "address"
        },
        {
          "internalType": "uint256",
          "name": "_amount",
          "type": "uint256"
        }
      ],
      "name": "mintShares",
      "outputs": [
        {
          "internalType": "bool",
          "name": "",
          "type": "bool"
        }
      ],
      "stateMutability": "nonpayable",
      "type": "function"
    },
    {
      "inputs": [],
      "name": "name",
      "outputs": [
        {
          "internalType": "string",
          "name": "",
          "type": "string"
        }
      ],
      "stateMutability": "view",
      "type": "function"
    },
    {
      "inputs": [],
      "name": "numberOfTokenHolders",
      "outputs": [
        {
          "internalType": "uint256",
          "name": "",
          "type": "uint256"
        }
      ],
      "stateMutability": "view",
      "type": "function"
    },
    {
      "inputs": [],
      "name": "symbol",
      "outputs": [
        {
          "internalType": "string",
          "name": "",
          "type": "string"
        }
      ],
      "stateMutability": "view",
      "type": "function"
    },
    {
      "inputs": [],
      "name": "totalSupply",
      "outputs": [
        {
          "internalType": "uint256",
          "name": "",
          "type": "uint256"
        }
      ],
      "stateMutability": "view",
      "type": "function"
    },
    {
      "inputs": [],
      "name": "totalSupplyInShares",
      "outputs": [
        {
          "internalType": "uint256",
          "name": "",
          "type": "uint256"
        }
      ],
      "stateMutability": "view",
      "type": "function"
    },
    {
      "inputs": [
        {
          "internalType": "address",
          "name": "_to",
          "type": "address"
        },
        {
          "internalType": "uint256",
          "name": "_amount",
          "type": "uint256"
        }
      ],
      "name": "transfer",
      "outputs": [
        {
          "internalType": "bool",
          "name": "",
          "type": "bool"
        }
      ],
      "stateMutability": "nonpayable",
      "type": "function"
    },
    {
      "inputs": [
        {
          "internalType": "address",
          "name": "_from",
          "type": "address"
        },
        {
          "internalType": "address",
          "name": "_to",
          "type": "address"
        },
        {
          "internalType": "uint256",
          "name": "_amount",
          "type": "uint256"
        }
      ],
      "name": "transferFrom",
      "outputs": [
        {
          "internalType": "bool",
          "name": "",
          "type": "bool"
        }
      ],
      "stateMutability": "nonpayable",
      "type": "function"
    }
  ],
  "bytecode": "0x60806040523480156200001157600080fd5b50604051620021dd380380620021dd833981016040819052620000349162000083565b600080546001600160a01b039384166001600160a01b03199182161790915560018054929093169116179055620000ba565b80516001600160a01b03811681146200007e57600080fd5b919050565b6000806040838503121562000096578182fd5b620000a18362000066565b9150620000b16020840162000066565b90509250929050565b61211380620000ca6000396000f3fe608060405234801561001057600080fd5b506004361061012c5760003560e01c80634ee2cd7e116100ad5780639dc29fac116100715780639dc29fac1461023c578063a457c2d71461024f578063a9059cbb14610262578063dd62ed3e14610275578063ee7a7c04146102885761012c565b80634ee2cd7e146101f3578063528c198a1461020657806370a082311461021957806378b61f221461022c57806395d89b41146102345761012c565b806323b872dd116100f457806323b872dd1461019f578063313ce567146101b257806339509351146101ba5780633e174aaf146101cd57806340c10f19146101e05761012c565b8063046deee91461013157806306fdde031461015a578063095ea7b31461016f578063178ef3071461018f57806318160ddd14610197575b600080fd5b61014461013f36600461198c565b61029b565b604051610151919061202f565b60405180910390f35b6101626102d4565b6040516101519190611da9565b61018261017d36600461198c565b6102e7565b6040516101519190611d9e565b6101446102fd565b610144610311565b6101826101ad36600461194c565b610343565b610144610490565b6101826101c836600461198c565b610495565b6101446101db3660046118f8565b6104d0565b6101826101ee36600461198c565b6104f0565b61014461020136600461198c565b610525565b61018261021436600461198c565b610567565b6101446102273660046118f8565b610573565b6101446105bd565b6101626105d9565b61018261024a36600461198c565b6105ec565b61018261025d36600461198c565b610621565b61018261027036600461198c565b61067e565b610144610283366004611914565b61068b565b61018261029636600461198c565b6106b6565b60006102a56114c4565b6102af84846106c2565b905082816000015111156102c75760009150506102ce565b6080015190505b92915050565b60606102de610799565b60200151905090565b60006102f433848461083b565b50600192915050565b6000610307610799565b6101400151905090565b600061031b61151a565b610323610799565b905061033d8160e001518260c001518361010001516108ef565b91505090565b6000336001600160a01b038516148061037f57506001600160a01b03841660009081526002602090815260408083203384529091529020548211155b6103a45760405162461bcd60e51b815260040161039b90611ef7565b60405180910390fd5b6103af84848461090c565b336001600160a01b038516148015906103ed57506001600160a01b038416600090815260026020908152604080832033845290915290205460001914155b15610485576001600160a01b03841660009081526002602090815260408083203384529091529020546104209083610b70565b6001600160a01b0385811660009081526002602090815260408083203380855292529182902084905590519186169290917f8c5be1e5ebec7d5bd14f71427d1e84f3dd0314c0f7b2291e5b200ac8c7c3b9259161047c9161202f565b60405180910390a35b5060015b9392505050565b601290565b3360008181526002602090815260408083206001600160a01b038716845290915281205490916102f49185906104cb9086610bb2565b61083b565b60006104da611584565b6104e383610bd7565b604001519150505b919050565b600080546001600160a01b0316331461051b5760405162461bcd60e51b815260040161039b90611e35565b6102f48383610cff565b600061052f6114c4565b61053984846106c2565b9050828160000151116105605761055d8160800151826060015183604001516108ef565b91505b5092915050565b60006102f48383610d39565b600061057d61151a565b610585610799565b905061058f611584565b61059884610bd7565b905060006105b482604001518460c001518561010001516108ef565b95945050505050565b60006105c761151a565b6105cf610799565b60e0015191505090565b60606105e3610799565b60400151905090565b600080546001600160a01b031633146106175760405162461bcd60e51b815260040161039b90611e35565b6102f48383610f5a565b3360009081526002602090815260408083206001600160a01b038616845290915281205481906106519084610b70565b9050600081116106735760405162461bcd60e51b815260040161039b90611e6c565b61048533858361083b565b60006102f433848461090c565b6001600160a01b03918216600090815260026020908152604080832093909416825291909152205490565b60006102f48383610f8a565b6106ca6114c4565b6106d261151a565b6106da610799565b90506106e4611584565b6106ed85610bd7565b90506106f76115c2565b6106ff611143565b6020810151604051630f3dabcd60e41b8152919250906001600160a01b0382169063f3dabcd09061073a908990869089908990600401612038565b60006040518083038186803b15801561075257600080fd5b505afa158015610766573d6000803e3d6000fd5b505050506040513d6000823e601f3d908101601f1916820160405261078e9190810190611a39565b979650505050505050565b6107a161151a565b6107a96115c2565b6107b1611143565b610100810151604051631a2861fb60e01b81529192506001600160a01b031690631a2861fb906107e79030908590600401611d45565b60006040518083038186803b1580156107ff57600080fd5b505afa158015610813573d6000803e3d6000fd5b505050506040513d6000823e601f3d908101601f1916820160405261033d91908101906119d3565b6001600160a01b0383166108615760405162461bcd60e51b815260040161039b90611f22565b6001600160a01b0382166108875760405162461bcd60e51b815260040161039b90611dbc565b6001600160a01b0380841660008181526002602090815260408083209487168084529490915290819020849055517f8c5be1e5ebec7d5bd14f71427d1e84f3dd0314c0f7b2291e5b200ac8c7c3b925906108e290859061202f565b60405180910390a3505050565b60006109046108fe85856111d5565b836111d5565b949350505050565b6109146115c2565b61091c611143565b61010081015190915061092d61151a565b604051631a2861fb60e01b81526001600160a01b03831690631a2861fb9061095b9030908790600401611d45565b60006040518083038186803b15801561097357600080fd5b505afa158015610987573d6000803e3d6000fd5b505050506040513d6000823e601f3d908101601f191682016040526109af91908101906119d3565b90506109b9611584565b6109c287610bd7565b90506109cc611584565b6109d587610bd7565b9050600080836040015111905060008083604001511190506000610a03898760c0015188610100015161120a565b90506000610a1b828860c001518961010001516108ef565b9050610a2a878760008561121f565b9550610a39878660018561121f565b60e08a0151604051632d304ccf60e01b8152919650906001600160a01b03821690632d304ccf90610a6e908a90600401611f9b565b600060405180830381600087803b158015610a8857600080fd5b505af1158015610a9c573d6000803e3d6000fd5b5050604051632d304ccf60e01b81526001600160a01b0384169250632d304ccf9150610acc908990600401611f9b565b600060405180830381600087803b158015610ae657600080fd5b505af1158015610afa573d6000803e3d6000fd5b50505050610b0a8589898c611337565b610b168489888c611337565b8b6001600160a01b03168d6001600160a01b03167fddf252ad1be2c89b69c2b068fc378daa952ba7f163c4a11628f55a4df523b3ef84604051610b59919061202f565b60405180910390a350505050505050505050505050565b600061048983836040518060400160405280601e81526020017f536166654d6174683a207375627472616374696f6e206f766572666c6f77000081525061143d565b6000828201838110156104895760405162461bcd60e51b815260040161039b90611dfe565b610bdf611584565b610be76115c2565b610bef611143565b90508060e001516001600160a01b031663fa6865c684838461010001516001600160a01b0316631a2861fb30876040518363ffffffff1660e01b8152600401610c39929190611d45565b60006040518083038186803b158015610c5157600080fd5b505afa158015610c65573d6000803e3d6000fd5b505050506040513d6000823e601f3d908101601f19168201604052610c8d91908101906119d3565b6040518463ffffffff1660e01b8152600401610cab93929190611d63565b60006040518083038186803b158015610cc357600080fd5b505afa158015610cd7573d6000803e3d6000fd5b505050506040513d6000823e601f3d908101601f191682016040526104899190810190611a06565b610d0761151a565b610d0f610799565b90506000610d27838360c0015184610100015161120a565b9050610d338482610d39565b50505050565b610d416115c2565b610d49611143565b610100810151909150610d5a61151a565b604051631a2861fb60e01b81526001600160a01b03831690631a2861fb90610d889030908790600401611d45565b60006040518083038186803b158015610da057600080fd5b505afa158015610db4573d6000803e3d6000fd5b505050506040513d6000823e601f3d908101601f19168201604052610ddc91908101906119d3565b9050610de6611584565b610def86610bd7565b905060008082604001511190506000610e12878560c001518661010001516108ef565b9050610e21848460018a61121f565b9250610e318460e0015188610bb2565b60e085015260405163f716add560e01b81526001600160a01b0386169063f716add590610e62908790600401611f66565b600060405180830381600087803b158015610e7c57600080fd5b505af1158015610e90573d6000803e3d6000fd5b5050505060e0860151604051632d304ccf60e01b81526001600160a01b03821690632d304ccf90610ec5908790600401611f9b565b600060405180830381600087803b158015610edf57600080fd5b505af1158015610ef3573d6000803e3d6000fd5b50505050610f0383868689611337565b886001600160a01b031660006001600160a01b03167fddf252ad1be2c89b69c2b068fc378daa952ba7f163c4a11628f55a4df523b3ef84604051610f47919061202f565b60405180910390a3505050505050505050565b610f6261151a565b610f6a610799565b90506000610f82838360c0015184610100015161120a565b9050610d3384825b610f926115c2565b610f9a611143565b610100810151909150610fab61151a565b604051631a2861fb60e01b81526001600160a01b03831690631a2861fb90610fd99030908790600401611d45565b60006040518083038186803b158015610ff157600080fd5b505afa158015611005573d6000803e3d6000fd5b505050506040513d6000823e601f3d908101601f1916820160405261102d91908101906119d3565b9050611037611584565b61104086610bd7565b60408101519091501515611057838360008961121f565b91506110678360e0015187610b70565b60e084015260405163f716add560e01b81526001600160a01b0385169063f716add590611098908690600401611f66565b600060405180830381600087803b1580156110b257600080fd5b505af11580156110c6573d6000803e3d6000fd5b5050505060e0850151604051632d304ccf60e01b81526001600160a01b03821690632d304ccf906110fb908690600401611f9b565b600060405180830381600087803b15801561111557600080fd5b505af1158015611129573d6000803e3d6000fd5b5050505061113982858588611337565b5050505050505050565b61114b6115c2565b60015460005460405163332a4d0960e01b81526001600160a01b039283169263332a4d099261117f92911690600401611d31565b6101806040518083038186803b15801561119857600080fd5b505afa1580156111ac573d6000803e3d6000fd5b505050506040513d601f19601f820116820180604052508101906111d091906119b7565b905090565b6000670de0b6b3a76400006111fb6111ed8585611469565b6706f05b59d3b20000610bb2565b8161120257fe5b049392505050565b60006109048461121a85856111d5565b6114a3565b611227611584565b61122f6115c2565b611237611143565b90506112416114c4565b43815260a08101829052602080870180519183019190915260c08089015160408401526101008901516060840152820188905260e0820187905251611287906001610bb2565b602087015284156112aa576112a0866040015185610bb2565b60408701526112be565b6112b8866040015185610b70565b60408701525b604080870151608083015260208301519051633ddc5fb360e11b81526001600160a01b0390911690637bb8bf66906112fa908490600401611fae565b600060405180830381600087803b15801561131457600080fd5b505af1158015611328573d6000803e3d6000fd5b50979998505050505050505050565b60008260400151118015611349575083155b156113be57806001600160a01b03166340162cac8461136e8661014001516001610bb2565b6040518363ffffffff1660e01b815260040161138b929190611f79565b600060405180830381600087803b1580156113a557600080fd5b505af11580156113b9573d6000803e3d6000fd5b505050505b60408201511580156113cd5750835b15610d3357806001600160a01b03166340162cac846113f28661014001516001610b70565b6040518363ffffffff1660e01b815260040161140f929190611f79565b600060405180830381600087803b15801561142957600080fd5b505af1158015611139573d6000803e3d6000fd5b600081848411156114615760405162461bcd60e51b815260040161039b9190611da9565b505050900390565b600082611478575060006102ce565b8282028284828161148557fe5b04146104895760405162461bcd60e51b815260040161039b90611eb6565b6000816111fb6114bb85670de0b6b3a7640000611469565b60028504610bb2565b60405180610100016040528060008152602001600081526020016000815260200160008152602001600081526020016114fb6115c2565b815260200161150861151a565b8152602001611515611584565b905290565b60405180610180016040528060006001600160a01b03168152602001606081526020016060815260200160008152602001600081526020016000815260200160008152602001600081526020016000815260200160008152602001600081526020016115156115c2565b6040518060a0016040528060006001600160a01b0316815260200160008152602001600081526020016115b56115c2565b815260200161151561151a565b6040805161018081018252600080825260208201819052918101829052606081018290526080810182905260a0810182905260c0810182905260e0810182905261010081018290526101208101829052610140810182905261016081019190915290565b80516104eb816120c5565b600082601f830112611641578081fd5b815167ffffffffffffffff81111561165557fe5b611668601f8201601f1916602001612075565b915080825283602082850101111561167f57600080fd5b610560816020840160208601612099565b60006101808083850312156116a3578182fd5b6116ac81612075565b9150506116b882611626565b81526116c660208301611626565b60208201526116d760408301611626565b60408201526116e860608301611626565b60608201526116f960808301611626565b608082015261170a60a08301611626565b60a082015261171b60c08301611626565b60c082015261172c60e08301611626565b60e082015261010061173f818401611626565b90820152610120611751838201611626565b90820152610140611763838201611626565b90820152610160611775838201611626565b9082015292915050565b60006102e08284031215611791578081fd5b61179c610180612075565b90506117a782611626565b8152602082015167ffffffffffffffff808211156117c457600080fd5b6117d085838601611631565b602084015260408401519150808211156117e957600080fd5b506117f684828501611631565b604083015250606082015160608201526080820151608082015260a082015160a082015260c082015160c082015260e082015160e082015261010080830151818301525061012080830151818301525061014080830151818301525061016061177584828501611690565b60006102008284031215611873578081fd5b60405160a0810167ffffffffffffffff828210818311171561189157fe5b816040528293506118a185611626565b835260208501516020840152604085015160408401526118c48660608701611690565b60608401526101e08501519150808211156118de57600080fd5b506118eb8582860161177f565b6080830152505092915050565b600060208284031215611909578081fd5b8135610489816120c5565b60008060408385031215611926578081fd5b8235611931816120c5565b91506020830135611941816120c5565b809150509250929050565b600080600060608486031215611960578081fd5b833561196b816120c5565b9250602084013561197b816120c5565b929592945050506040919091013590565b6000806040838503121561199e578182fd5b82356119a9816120c5565b946020939093013593505050565b600061018082840312156119c9578081fd5b6104898383611690565b6000602082840312156119e4578081fd5b815167ffffffffffffffff8111156119fa578182fd5b61055d8482850161177f565b600060208284031215611a17578081fd5b815167ffffffffffffffff811115611a2d578182fd5b61055d84828501611861565b600060208284031215611a4a578081fd5b815167ffffffffffffffff80821115611a61578283fd5b908301906102608286031215611a75578283fd5b611a80610100612075565b8251815260208301516020820152604083015160408201526060830151606082015260808301516080820152611ab98660a08501611690565b60a082015261022083015182811115611ad0578485fd5b611adc8782860161177f565b60c08301525061024083015182811115611af4578485fd5b611b0087828601611861565b60e08301525095945050505050565b6001600160a01b03169052565b60008151808452611b34816020860160208601612099565b601f01601f19169290920160200192915050565b611b53828251611b0f565b6020810151611b656020840182611b0f565b506040810151611b786040840182611b0f565b506060810151611b8b6060840182611b0f565b506080810151611b9e6080840182611b0f565b5060a0810151611bb160a0840182611b0f565b5060c0810151611bc460c0840182611b0f565b5060e0810151611bd760e0840182611b0f565b5061010080820151611beb82850182611b0f565b505061012080820151611c0082850182611b0f565b505061014080820151611c1582850182611b0f565b505061016080820151610d3382850182611b0f565b60006102e0611c3a848451611b0f565b6020830151816020860152611c5182860182611b1c565b91505060408301518482036040860152611c6b8282611b1c565b915050606083015160608501526080830151608085015260a083015160a085015260c083015160c085015260e083015160e085015261010080840151818601525061012080840151818601525061014080840151818601525061016080840151611cd782870182611b48565b5090949350505050565b600061020060018060a01b03835116845260208301516020850152604083015160408501526060830151611d186060860182611b48565b506080830151816101e08601526105b482860182611c2a565b6001600160a01b0391909116815260200190565b6001600160a01b03831681526101a081016104896020830184611b48565b6001600160a01b038416815260006101c0611d816020840186611b48565b806101a0840152611d9481840185611c2a565b9695505050505050565b901515815260200190565b6000602082526104896020830184611b1c565b60208082526022908201527f45524332303a20617070726f766520746f20746865207a65726f206164647265604082015261737360f01b606082015260800190565b6020808252601b908201527f536166654d6174683a206164646974696f6e206f766572666c6f770000000000604082015260600190565b6020808252601b908201527f456c617374696344414f3a204e6f7420617574686f72697a65642e0000000000604082015260600190565b6020808252602a908201527f456c617374696344414f3a20416c6c6f77616e6365206465637265617365206c6040820152690657373207468616e20360b41b606082015260800190565b60208082526021908201527f536166654d6174683a206d756c7469706c69636174696f6e206f766572666c6f6040820152607760f81b606082015260800190565b60208082526011908201527022a92199181d102130b21021b0b63632b960791b604082015260600190565b60208082526024908201527f45524332303a20617070726f76652066726f6d20746865207a65726f206164646040820152637265737360e01b606082015260800190565b6000602082526104896020830184611c2a565b600060408252611f8c6040830185611c2a565b90508260208301529392505050565b6000602082526104896020830184611ce1565b60006020825282516020830152602083015160408301526040830151606083015260608301516080830152608083015160a083015260a0830151611ff560c0840182611b48565b5060c083015161026080610240850152612013610280850183611c2a565b915060e0850151601f198584030182860152611d948382611ce1565b90815260200190565b60006101e086835261204d6020840187611b48565b806101a084015261206081840186611c2a565b90508281036101c084015261078e8185611ce1565b60405181810167ffffffffffffffff8111828210171561209157fe5b604052919050565b60005b838110156120b457818101518382015260200161209c565b83811115610d335750506000910152565b6001600160a01b03811681146120da57600080fd5b5056fea2646970667358221220cfff9ca69a1a4250a081a06ac652fe4e75c7389dab1c9c095fb7e433a73f165a64736f6c63430007020033",
  "linkReferences": {},
  "deployedLinkReferences": {}
}