{
  "_format": "hh-sol-artifact-1",
  "contractName": "BalanceMultipliers",
  "sourceName": "src/models/BalanceMultipliers.sol",
  "abi": [
    {
      "inputs": [
        {
          "internalType": "uint256",
          "name": "_blockNumber",
          "type": "uint256"
        },
        {
          "components": [
            {
              "internalType": "address",
              "name": "daoAddress",
              "type": "address"
            },
            {
              "internalType": "address",
              "name": "balanceModelAddress",
              "type": "address"
            },
            {
              "internalType": "address",
              "name": "balanceMultipliersModelAddress",
              "type": "address"
            },
            {
              "internalType": "address",
              "name": "daoModelAddress",
              "type": "address"
            },
            {
              "internalType": "address",
              "name": "ecosystemModelAddress",
              "type": "address"
            },
            {
              "internalType": "address",
              "name": "elasticDAOFactoryAddress",
              "type": "address"
            },
            {
              "internalType": "address",
              "name": "elasticModuleModelAddress",
              "type": "address"
            },
            {
              "internalType": "address",
              "name": "tokenHolderModelAddress",
              "type": "address"
            },
            {
              "internalType": "address",
              "name": "tokenModelAddress",
              "type": "address"
            },
            {
              "internalType": "address",
              "name": "configuratorAddress",
              "type": "address"
            },
            {
              "internalType": "address",
              "name": "registratorAddress",
              "type": "address"
            },
            {
              "internalType": "address",
              "name": "governanceTokenAddress",
              "type": "address"
            }
          ],
          "internalType": "struct Ecosystem.Instance",
          "name": "_ecosystem",
          "type": "tuple"
        },
        {
          "components": [
            {
              "internalType": "address",
              "name": "uuid",
              "type": "address"
            },
            {
              "internalType": "string",
              "name": "name",
              "type": "string"
            },
            {
              "internalType": "string",
              "name": "symbol",
              "type": "string"
            },
            {
              "internalType": "uint256",
              "name": "capitalDelta",
              "type": "uint256"
            },
            {
              "internalType": "uint256",
              "name": "counter",
              "type": "uint256"
            },
            {
              "internalType": "uint256",
              "name": "elasticity",
              "type": "uint256"
            },
            {
              "internalType": "uint256",
              "name": "k",
              "type": "uint256"
            },
            {
              "internalType": "uint256",
              "name": "lambda",
              "type": "uint256"
            },
            {
              "internalType": "uint256",
              "name": "m",
              "type": "uint256"
            },
            {
              "internalType": "uint256",
              "name": "maxLambdaPurchase",
              "type": "uint256"
            },
            {
              "internalType": "uint256",
              "name": "numberOfTokenHolders",
              "type": "uint256"
            },
            {
              "components": [
                {
                  "internalType": "address",
                  "name": "daoAddress",
                  "type": "address"
                },
                {
                  "internalType": "address",
                  "name": "balanceModelAddress",
                  "type": "address"
                },
                {
                  "internalType": "address",
                  "name": "balanceMultipliersModelAddress",
                  "type": "address"
                },
                {
                  "internalType": "address",
                  "name": "daoModelAddress",
                  "type": "address"
                },
                {
                  "internalType": "address",
                  "name": "ecosystemModelAddress",
                  "type": "address"
                },
                {
                  "internalType": "address",
                  "name": "elasticDAOFactoryAddress",
                  "type": "address"
                },
                {
                  "internalType": "address",
                  "name": "elasticModuleModelAddress",
                  "type": "address"
                },
                {
                  "internalType": "address",
                  "name": "tokenHolderModelAddress",
                  "type": "address"
                },
                {
                  "internalType": "address",
                  "name": "tokenModelAddress",
                  "type": "address"
                },
                {
                  "internalType": "address",
                  "name": "configuratorAddress",
                  "type": "address"
                },
                {
                  "internalType": "address",
                  "name": "registratorAddress",
                  "type": "address"
                },
                {
                  "internalType": "address",
                  "name": "governanceTokenAddress",
                  "type": "address"
                }
              ],
              "internalType": "struct Ecosystem.Instance",
              "name": "ecosystem",
              "type": "tuple"
            }
          ],
          "internalType": "struct Token.Instance",
          "name": "_token",
          "type": "tuple"
        }
      ],
      "name": "deserialize",
      "outputs": [
        {
          "components": [
            {
              "internalType": "uint256",
              "name": "blockNumber",
              "type": "uint256"
            },
            {
              "internalType": "uint256",
              "name": "index",
              "type": "uint256"
            },
            {
              "internalType": "uint256",
              "name": "k",
              "type": "uint256"
            },
            {
              "internalType": "uint256",
              "name": "m",
              "type": "uint256"
            },
            {
              "components": [
                {
                  "internalType": "address",
                  "name": "daoAddress",
                  "type": "address"
                },
                {
                  "internalType": "address",
                  "name": "balanceModelAddress",
                  "type": "address"
                },
                {
                  "internalType": "address",
                  "name": "balanceMultipliersModelAddress",
                  "type": "address"
                },
                {
                  "internalType": "address",
                  "name": "daoModelAddress",
                  "type": "address"
                },
                {
                  "internalType": "address",
                  "name": "ecosystemModelAddress",
                  "type": "address"
                },
                {
                  "internalType": "address",
                  "name": "elasticDAOFactoryAddress",
                  "type": "address"
                },
                {
                  "internalType": "address",
                  "name": "elasticModuleModelAddress",
                  "type": "address"
                },
                {
                  "internalType": "address",
                  "name": "tokenHolderModelAddress",
                  "type": "address"
                },
                {
                  "internalType": "address",
                  "name": "tokenModelAddress",
                  "type": "address"
                },
                {
                  "internalType": "address",
                  "name": "configuratorAddress",
                  "type": "address"
                },
                {
                  "internalType": "address",
                  "name": "registratorAddress",
                  "type": "address"
                },
                {
                  "internalType": "address",
                  "name": "governanceTokenAddress",
                  "type": "address"
                }
              ],
              "internalType": "struct Ecosystem.Instance",
              "name": "ecosystem",
              "type": "tuple"
            },
            {
              "components": [
                {
                  "internalType": "address",
                  "name": "uuid",
                  "type": "address"
                },
                {
                  "internalType": "string",
                  "name": "name",
                  "type": "string"
                },
                {
                  "internalType": "string",
                  "name": "symbol",
                  "type": "string"
                },
                {
                  "internalType": "uint256",
                  "name": "capitalDelta",
                  "type": "uint256"
                },
                {
                  "internalType": "uint256",
                  "name": "counter",
                  "type": "uint256"
                },
                {
                  "internalType": "uint256",
                  "name": "elasticity",
                  "type": "uint256"
                },
                {
                  "internalType": "uint256",
                  "name": "k",
                  "type": "uint256"
                },
                {
                  "internalType": "uint256",
                  "name": "lambda",
                  "type": "uint256"
                },
                {
                  "internalType": "uint256",
                  "name": "m",
                  "type": "uint256"
                },
                {
                  "internalType": "uint256",
                  "name": "maxLambdaPurchase",
                  "type": "uint256"
                },
                {
                  "internalType": "uint256",
                  "name": "numberOfTokenHolders",
                  "type": "uint256"
                },
                {
                  "components": [
                    {
                      "internalType": "address",
                      "name": "daoAddress",
                      "type": "address"
                    },
                    {
                      "internalType": "address",
                      "name": "balanceModelAddress",
                      "type": "address"
                    },
                    {
                      "internalType": "address",
                      "name": "balanceMultipliersModelAddress",
                      "type": "address"
                    },
                    {
                      "internalType": "address",
                      "name": "daoModelAddress",
                      "type": "address"
                    },
                    {
                      "internalType": "address",
                      "name": "ecosystemModelAddress",
                      "type": "address"
                    },
                    {
                      "internalType": "address",
                      "name": "elasticDAOFactoryAddress",
                      "type": "address"
                    },
                    {
                      "internalType": "address",
                      "name": "elasticModuleModelAddress",
                      "type": "address"
                    },
                    {
                      "internalType": "address",
                      "name": "tokenHolderModelAddress",
                      "type": "address"
                    },
                    {
                      "internalType": "address",
                      "name": "tokenModelAddress",
                      "type": "address"
                    },
                    {
                      "internalType": "address",
                      "name": "configuratorAddress",
                      "type": "address"
                    },
                    {
                      "internalType": "address",
                      "name": "registratorAddress",
                      "type": "address"
                    },
                    {
                      "internalType": "address",
                      "name": "governanceTokenAddress",
                      "type": "address"
                    }
                  ],
                  "internalType": "struct Ecosystem.Instance",
                  "name": "ecosystem",
                  "type": "tuple"
                }
              ],
              "internalType": "struct Token.Instance",
              "name": "token",
              "type": "tuple"
            }
          ],
          "internalType": "struct BalanceMultipliers.Instance",
          "name": "record",
          "type": "tuple"
        }
      ],
      "stateMutability": "view",
      "type": "function"
    },
    {
      "inputs": [
        {
          "internalType": "uint256",
          "name": "",
          "type": "uint256"
        },
        {
          "components": [
            {
              "internalType": "address",
              "name": "daoAddress",
              "type": "address"
            },
            {
              "internalType": "address",
              "name": "balanceModelAddress",
              "type": "address"
            },
            {
              "internalType": "address",
              "name": "balanceMultipliersModelAddress",
              "type": "address"
            },
            {
              "internalType": "address",
              "name": "daoModelAddress",
              "type": "address"
            },
            {
              "internalType": "address",
              "name": "ecosystemModelAddress",
              "type": "address"
            },
            {
              "internalType": "address",
              "name": "elasticDAOFactoryAddress",
              "type": "address"
            },
            {
              "internalType": "address",
              "name": "elasticModuleModelAddress",
              "type": "address"
            },
            {
              "internalType": "address",
              "name": "tokenHolderModelAddress",
              "type": "address"
            },
            {
              "internalType": "address",
              "name": "tokenModelAddress",
              "type": "address"
            },
            {
              "internalType": "address",
              "name": "configuratorAddress",
              "type": "address"
            },
            {
              "internalType": "address",
              "name": "registratorAddress",
              "type": "address"
            },
            {
              "internalType": "address",
              "name": "governanceTokenAddress",
              "type": "address"
            }
          ],
          "internalType": "struct Ecosystem.Instance",
          "name": "",
          "type": "tuple"
        },
        {
          "components": [
            {
              "internalType": "address",
              "name": "uuid",
              "type": "address"
            },
            {
              "internalType": "string",
              "name": "name",
              "type": "string"
            },
            {
              "internalType": "string",
              "name": "symbol",
              "type": "string"
            },
            {
              "internalType": "uint256",
              "name": "capitalDelta",
              "type": "uint256"
            },
            {
              "internalType": "uint256",
              "name": "counter",
              "type": "uint256"
            },
            {
              "internalType": "uint256",
              "name": "elasticity",
              "type": "uint256"
            },
            {
              "internalType": "uint256",
              "name": "k",
              "type": "uint256"
            },
            {
              "internalType": "uint256",
              "name": "lambda",
              "type": "uint256"
            },
            {
              "internalType": "uint256",
              "name": "m",
              "type": "uint256"
            },
            {
              "internalType": "uint256",
              "name": "maxLambdaPurchase",
              "type": "uint256"
            },
            {
              "internalType": "uint256",
              "name": "numberOfTokenHolders",
              "type": "uint256"
            },
            {
              "components": [
                {
                  "internalType": "address",
                  "name": "daoAddress",
                  "type": "address"
                },
                {
                  "internalType": "address",
                  "name": "balanceModelAddress",
                  "type": "address"
                },
                {
                  "internalType": "address",
                  "name": "balanceMultipliersModelAddress",
                  "type": "address"
                },
                {
                  "internalType": "address",
                  "name": "daoModelAddress",
                  "type": "address"
                },
                {
                  "internalType": "address",
                  "name": "ecosystemModelAddress",
                  "type": "address"
                },
                {
                  "internalType": "address",
                  "name": "elasticDAOFactoryAddress",
                  "type": "address"
                },
                {
                  "internalType": "address",
                  "name": "elasticModuleModelAddress",
                  "type": "address"
                },
                {
                  "internalType": "address",
                  "name": "tokenHolderModelAddress",
                  "type": "address"
                },
                {
                  "internalType": "address",
                  "name": "tokenModelAddress",
                  "type": "address"
                },
                {
                  "internalType": "address",
                  "name": "configuratorAddress",
                  "type": "address"
                },
                {
                  "internalType": "address",
                  "name": "registratorAddress",
                  "type": "address"
                },
                {
                  "internalType": "address",
                  "name": "governanceTokenAddress",
                  "type": "address"
                }
              ],
              "internalType": "struct Ecosystem.Instance",
              "name": "ecosystem",
              "type": "tuple"
            }
          ],
          "internalType": "struct Token.Instance",
          "name": "",
          "type": "tuple"
        }
      ],
      "name": "exists",
      "outputs": [
        {
          "internalType": "bool",
          "name": "",
          "type": "bool"
        }
      ],
      "stateMutability": "pure",
      "type": "function"
    },
    {
      "inputs": [
        {
          "components": [
            {
              "internalType": "uint256",
              "name": "blockNumber",
              "type": "uint256"
            },
            {
              "internalType": "uint256",
              "name": "index",
              "type": "uint256"
            },
            {
              "internalType": "uint256",
              "name": "k",
              "type": "uint256"
            },
            {
              "internalType": "uint256",
              "name": "m",
              "type": "uint256"
            },
            {
              "components": [
                {
                  "internalType": "address",
                  "name": "daoAddress",
                  "type": "address"
                },
                {
                  "internalType": "address",
                  "name": "balanceModelAddress",
                  "type": "address"
                },
                {
                  "internalType": "address",
                  "name": "balanceMultipliersModelAddress",
                  "type": "address"
                },
                {
                  "internalType": "address",
                  "name": "daoModelAddress",
                  "type": "address"
                },
                {
                  "internalType": "address",
                  "name": "ecosystemModelAddress",
                  "type": "address"
                },
                {
                  "internalType": "address",
                  "name": "elasticDAOFactoryAddress",
                  "type": "address"
                },
                {
                  "internalType": "address",
                  "name": "elasticModuleModelAddress",
                  "type": "address"
                },
                {
                  "internalType": "address",
                  "name": "tokenHolderModelAddress",
                  "type": "address"
                },
                {
                  "internalType": "address",
                  "name": "tokenModelAddress",
                  "type": "address"
                },
                {
                  "internalType": "address",
                  "name": "configuratorAddress",
                  "type": "address"
                },
                {
                  "internalType": "address",
                  "name": "registratorAddress",
                  "type": "address"
                },
                {
                  "internalType": "address",
                  "name": "governanceTokenAddress",
                  "type": "address"
                }
              ],
              "internalType": "struct Ecosystem.Instance",
              "name": "ecosystem",
              "type": "tuple"
            },
            {
              "components": [
                {
                  "internalType": "address",
                  "name": "uuid",
                  "type": "address"
                },
                {
                  "internalType": "string",
                  "name": "name",
                  "type": "string"
                },
                {
                  "internalType": "string",
                  "name": "symbol",
                  "type": "string"
                },
                {
                  "internalType": "uint256",
                  "name": "capitalDelta",
                  "type": "uint256"
                },
                {
                  "internalType": "uint256",
                  "name": "counter",
                  "type": "uint256"
                },
                {
                  "internalType": "uint256",
                  "name": "elasticity",
                  "type": "uint256"
                },
                {
                  "internalType": "uint256",
                  "name": "k",
                  "type": "uint256"
                },
                {
                  "internalType": "uint256",
                  "name": "lambda",
                  "type": "uint256"
                },
                {
                  "internalType": "uint256",
                  "name": "m",
                  "type": "uint256"
                },
                {
                  "internalType": "uint256",
                  "name": "maxLambdaPurchase",
                  "type": "uint256"
                },
                {
                  "internalType": "uint256",
                  "name": "numberOfTokenHolders",
                  "type": "uint256"
                },
                {
                  "components": [
                    {
                      "internalType": "address",
                      "name": "daoAddress",
                      "type": "address"
                    },
                    {
                      "internalType": "address",
                      "name": "balanceModelAddress",
                      "type": "address"
                    },
                    {
                      "internalType": "address",
                      "name": "balanceMultipliersModelAddress",
                      "type": "address"
                    },
                    {
                      "internalType": "address",
                      "name": "daoModelAddress",
                      "type": "address"
                    },
                    {
                      "internalType": "address",
                      "name": "ecosystemModelAddress",
                      "type": "address"
                    },
                    {
                      "internalType": "address",
                      "name": "elasticDAOFactoryAddress",
                      "type": "address"
                    },
                    {
                      "internalType": "address",
                      "name": "elasticModuleModelAddress",
                      "type": "address"
                    },
                    {
                      "internalType": "address",
                      "name": "tokenHolderModelAddress",
                      "type": "address"
                    },
                    {
                      "internalType": "address",
                      "name": "tokenModelAddress",
                      "type": "address"
                    },
                    {
                      "internalType": "address",
                      "name": "configuratorAddress",
                      "type": "address"
                    },
                    {
                      "internalType": "address",
                      "name": "registratorAddress",
                      "type": "address"
                    },
                    {
                      "internalType": "address",
                      "name": "governanceTokenAddress",
                      "type": "address"
                    }
                  ],
                  "internalType": "struct Ecosystem.Instance",
                  "name": "ecosystem",
                  "type": "tuple"
                }
              ],
              "internalType": "struct Token.Instance",
              "name": "token",
              "type": "tuple"
            }
          ],
          "internalType": "struct BalanceMultipliers.Instance",
          "name": "record",
          "type": "tuple"
        }
      ],
      "name": "serialize",
      "outputs": [],
      "stateMutability": "nonpayable",
      "type": "function"
    }
  ],
  "bytecode": "0x608060405234801561001057600080fd5b50610d98806100206000396000f3fe608060405234801561001057600080fd5b50600436106100415760003560e01c80637a6b4dfd1461004657806399a456231461005b578063bb7c611f14610084575b600080fd5b610059610054366004610854565b6100a4565b005b61006e61006936600461090b565b61016d565b60405161007b9190610c34565b60405180910390f35b61009761009236600461090b565b61019a565b60405161007b9190610bdf565b6100e68160a001516000015182602001516040516020016100c6929190610b6d565b6040516020818303038152906040528051906020012082600001516101a3565b6101288160a00151600001518260200151604051602001610108929190610bb9565b6040516020818303038152906040528051906020012082604001516101a3565b61016a8160a0015160000151826020015160405160200161014a929190610b93565b6040516020818303038152906040528051906020012082606001516101a3565b50565b6101756104f6565b6101868483608001516000856101b5565b93845250608083019190915260a082015290565b60019392505050565b60009182526020829052604090912055565b6101bd6104f6565b836101d85784815260006040820181905260608201526103bd565b83600114156103145760006101ed84866103c5565b9050610224836000015182604051602001610209929190610b6d565b604051602081830303815290604052805190602001206103fa565b80835215806102335750815186105b156102de57836102c05782516040516102559161020991600090602001610ae9565b80835215806102645750815186105b1561027d575060006040820181905260608201526103bd565b82516040516102959161020991600090602001610b41565b604080840191909152835190516102b59161020991600090602001610b15565b6060830152506103bd565b6102d686866102d087600161040f565b866101b5565b9150506103bd565b82516040516102f591610209918490602001610bb9565b604080840191909152835190516102b591610209918490602001610b93565b6000610321856002610451565b9050600061032f82866103c5565b905061034b846000015182604051602001610209929190610b6d565b80845287101561036a57610361878387876101b5565b925050506103bd565b825187111561037f57610361878383876101b5565b835160405161039691610209918490602001610bb9565b604080850191909152845190516103b591610209918490602001610b93565b606084015250505b949350505050565b6000828201838110156103f35760405162461bcd60e51b81526004016103ea90610bfd565b60405180910390fd5b9392505050565b6000818152602081905260409020545b919050565b60006103f383836040518060400160405280601e81526020017f536166654d6174683a207375627472616374696f6e206f766572666c6f770000815250610493565b60006103f383836040518060400160405280601a81526020017f536166654d6174683a206469766973696f6e206279207a65726f0000000000008152506104bf565b600081848411156104b75760405162461bcd60e51b81526004016103ea9190610bea565b505050900390565b600081836104e05760405162461bcd60e51b81526004016103ea9190610bea565b5060008385816104ec57fe5b0495945050505050565b6040518060c0016040528060008152602001600081526020016000815260200160008152602001610525610537565b815260200161053261059b565b905290565b6040805161018081018252600080825260208201819052918101829052606081018290526080810182905260a0810182905260c0810182905260e0810182905261010081018290526101208101829052610140810182905261016081019190915290565b60405180610180016040528060006001600160a01b0316815260200160608152602001606081526020016000815260200160008152602001600081526020016000815260200160008152602001600081526020016000815260200160008152602001610532610537565b80356001600160a01b038116811461040a57600080fd5b600082601f83011261062c578081fd5b813567ffffffffffffffff81111561064057fe5b610653601f8201601f1916602001610d3e565b915080825283602082850101111561066a57600080fd5b8060208401602084013760009082016020015292915050565b6000610180808385031215610696578182fd5b61069f81610d3e565b9150506106ab82610605565b81526106b960208301610605565b60208201526106ca60408301610605565b60408201526106db60608301610605565b60608201526106ec60808301610605565b60808201526106fd60a08301610605565b60a082015261070e60c08301610605565b60c082015261071f60e08301610605565b60e0820152610100610732818401610605565b90820152610120610744838201610605565b90820152610140610756838201610605565b90820152610160610768838201610605565b9082015292915050565b60006102e08284031215610784578081fd5b61078f610180610d3e565b905061079a82610605565b8152602082013567ffffffffffffffff808211156107b757600080fd5b6107c38583860161061c565b602084015260408401359150808211156107dc57600080fd5b506107e98482850161061c565b604083015250606082013560608201526080820135608082015260a082013560a082015260c082013560c082015260e082013560e082015261010080830135818301525061012080830135818301525061014080830135818301525061016061076884828501610683565b600060208284031215610865578081fd5b813567ffffffffffffffff8082111561087c578283fd5b908301906102208286031215610890578283fd5b60405160c0810181811083821117156108a557fe5b8060405250823581526020830135602082015260408301356040820152606083013560608201526108d98660808501610683565b6080820152610200830135828111156108f0578485fd5b6108fc87828601610772565b60a08301525095945050505050565b60008060006101c08486031215610920578182fd5b833592506109318560208601610683565b91506101a084013567ffffffffffffffff81111561094d578182fd5b61095986828701610772565b9150509250925092565b6001600160a01b03169052565b60008151808452815b8181101561099557602081850181015186830182015201610979565b818111156109a65782602083870101525b50601f01601f19169290920160200192915050565b600b81526a313637b1b5a73ab6b132b960a91b602082015260400190565b60018152606d60f81b602082015260400190565b60018152606b60f81b602082015260400190565b610a0c828251610963565b6020810151610a1e6020840182610963565b506040810151610a316040840182610963565b506060810151610a446060840182610963565b506080810151610a576080840182610963565b5060a0810151610a6a60a0840182610963565b5060c0810151610a7d60c0840182610963565b5060e0810151610a9060e0840182610963565b5061010080820151610aa482850182610963565b505061012080820151610ab982850182610963565b505061014080820151610ace82850182610963565b505061016080820151610ae382850182610963565b50505050565b6001600160a01b038316815260ff821660208201526060604082018190526000906103bd9083016109bb565b6001600160a01b038316815260ff821660208201526060604082018190526000906103bd9083016109d9565b6001600160a01b038316815260ff821660208201526060604082018190526000906103bd9083016109ed565b600060018060a01b0384168252826020830152606060408301526103bd606083016109bb565b600060018060a01b0384168252826020830152606060408301526103bd606083016109d9565b600060018060a01b0384168252826020830152606060408301526103bd606083016109ed565b901515815260200190565b6000602082526103f36020830184610970565b6020808252601b908201527f536166654d6174683a206164646974696f6e206f766572666c6f770000000000604082015260600190565b600060208252825160208301526020830151604083015260408301516060830152606083015160808301526080830151610c7160a0840182610a01565b5060a0830151610220808185015250610c8f61024084018251610963565b60208101516102e080610260860152610cac610520860183610970565b9150604083015161023f1986840301610280870152610ccb8382610970565b92505060608301516102a086015260808301516102c086015260a0830151818601525060c082015161030085015260e082015161032085015261010082015161034085015261012082015161036085015261014082015161038085015261016082015191506103bd6103a0850183610a01565b60405181810167ffffffffffffffff81118282101715610d5a57fe5b60405291905056fea26469706673582212201155748ef6476ea8604a868794e627436c2c1bcdf225a591b70d17284ef3fbe664736f6c63430007020033",
  "linkReferences": {},
  "deployedLinkReferences": {}
}