{
  "_format": "hh-sol-artifact-1",
  "contractName": "InformationalVoteSettings",
  "sourceName": "src/modules/InformationalVote/models/Settings.sol",
  "abi": [
    {
      "inputs": [
        {
          "internalType": "address",
          "name": "_uuid",
          "type": "address"
        }
      ],
      "name": "deserialize",
      "outputs": [
        {
          "components": [
            {
              "internalType": "address",
              "name": "uuid",
              "type": "address"
            },
            {
              "internalType": "address",
              "name": "votingToken",
              "type": "address"
            },
            {
              "internalType": "bool",
              "name": "hasPenalty",
              "type": "bool"
            },
            {
              "internalType": "uint256",
              "name": "approval",
              "type": "uint256"
            },
            {
              "internalType": "uint256",
              "name": "counter",
              "type": "uint256"
            },
            {
              "internalType": "uint256",
              "name": "maxSharesPerTokenHolder",
              "type": "uint256"
            },
            {
              "internalType": "uint256",
              "name": "minBlocksForPenalty",
              "type": "uint256"
            },
            {
              "internalType": "uint256",
              "name": "minDurationInBlocks",
              "type": "uint256"
            },
            {
              "internalType": "uint256",
              "name": "minPenaltyInShares",
              "type": "uint256"
            },
            {
              "internalType": "uint256",
              "name": "minRewardInShares",
              "type": "uint256"
            },
            {
              "internalType": "uint256",
              "name": "minSharesToCreate",
              "type": "uint256"
            },
            {
              "internalType": "uint256",
              "name": "penalty",
              "type": "uint256"
            },
            {
              "internalType": "uint256",
              "name": "quorum",
              "type": "uint256"
            },
            {
              "internalType": "uint256",
              "name": "reward",
              "type": "uint256"
            }
          ],
          "internalType": "struct InformationalVoteSettings.Instance",
          "name": "record",
          "type": "tuple"
        }
      ],
      "stateMutability": "view",
      "type": "function"
    },
    {
      "inputs": [
        {
          "internalType": "address",
          "name": "_uuid",
          "type": "address"
        }
      ],
      "name": "exists",
      "outputs": [
        {
          "internalType": "bool",
          "name": "recordExists",
          "type": "bool"
        }
      ],
      "stateMutability": "view",
      "type": "function"
    },
    {
      "inputs": [
        {
          "internalType": "address",
          "name": "_uuid",
          "type": "address"
        },
        {
          "internalType": "uint256",
          "name": "_index",
          "type": "uint256"
        }
      ],
      "name": "getQuorumLambda",
      "outputs": [
        {
          "internalType": "uint256",
          "name": "",
          "type": "uint256"
        }
      ],
      "stateMutability": "view",
      "type": "function"
    },
    {
      "inputs": [
        {
          "internalType": "address",
          "name": "_uuid",
          "type": "address"
        }
      ],
      "name": "incrementCounter",
      "outputs": [],
      "stateMutability": "nonpayable",
      "type": "function"
    },
    {
      "inputs": [
        {
          "components": [
            {
              "internalType": "address",
              "name": "uuid",
              "type": "address"
            },
            {
              "internalType": "address",
              "name": "votingToken",
              "type": "address"
            },
            {
              "internalType": "bool",
              "name": "hasPenalty",
              "type": "bool"
            },
            {
              "internalType": "uint256",
              "name": "approval",
              "type": "uint256"
            },
            {
              "internalType": "uint256",
              "name": "counter",
              "type": "uint256"
            },
            {
              "internalType": "uint256",
              "name": "maxSharesPerTokenHolder",
              "type": "uint256"
            },
            {
              "internalType": "uint256",
              "name": "minBlocksForPenalty",
              "type": "uint256"
            },
            {
              "internalType": "uint256",
              "name": "minDurationInBlocks",
              "type": "uint256"
            },
            {
              "internalType": "uint256",
              "name": "minPenaltyInShares",
              "type": "uint256"
            },
            {
              "internalType": "uint256",
              "name": "minRewardInShares",
              "type": "uint256"
            },
            {
              "internalType": "uint256",
              "name": "minSharesToCreate",
              "type": "uint256"
            },
            {
              "internalType": "uint256",
              "name": "penalty",
              "type": "uint256"
            },
            {
              "internalType": "uint256",
              "name": "quorum",
              "type": "uint256"
            },
            {
              "internalType": "uint256",
              "name": "reward",
              "type": "uint256"
            }
          ],
          "internalType": "struct InformationalVoteSettings.Instance",
          "name": "record",
          "type": "tuple"
        }
      ],
      "name": "serialize",
      "outputs": [],
      "stateMutability": "nonpayable",
      "type": "function"
    }
  ],
  "bytecode": "0x608060405234801561001057600080fd5b50610d8a806100206000396000f3fe608060405234801561001057600080fd5b50600436106100575760003560e01c8063332a4d091461005c578063e416649914610085578063e5910ae71461009a578063f6a3d24e146100ad578063fe3b6f33146100cd575b600080fd5b61006f61006a3660046107c3565b6100ed565b60405161007c9190610c6d565b60405180910390f35b610098610093366004610806565b6102ca565b005b6100986100a83660046107c3565b6105b6565b6100c06100bb3660046107c3565b610603565b60405161007c91906108e1565b6100e06100db3660046107dd565b610614565b60405161007c9190610d27565b6100f5610719565b6001600160a01b038216815261010a82610633565b156102c55761013e826040516020016101239190610bb5565b60405160208183030381529060405280519060200120610649565b606082015260405161015890610123908490602001610985565b608082015260405161018d90610172908490602001610b80565b6040516020818303038152906040528051906020012061065b565b1515604080830191909152516101ab90610123908490602001610c25565b60a08201526040516101c590610123908490602001610b42565b60c08201526040516101df90610123908490602001610a8c565b60e08201526040516101f9906101239084906020016109e8565b61014082015260405161021490610123908490602001610be8565b61010082015260405161022f90610123908490602001610b06565b61012082015260405161024a90610123908490602001610a5a565b61016082015260405161026590610123908490602001610954565b610180820152604051610280906101239084906020016109b7565b6101a08201526040516102b69061029b908490602001610a24565b60405160208183030381529060405280519060200120610670565b6001600160a01b031660208201525b919050565b80516040516102ff916102df91602001610b80565b60405160208183030381529060405280519060200120826040015161068b565b80516040516103349161031491602001610bb5565b6040516020818303038152906040528051906020012082606001516106ab565b80516040516103699161034991602001610985565b6040516020818303038152906040528051906020012082608001516106ab565b805160405161039e9161037e91602001610c25565b604051602081830303815290604052805190602001208260a001516106ab565b80516040516103d3916103b391602001610b42565b604051602081830303815290604052805190602001208260c001516106ab565b8051604051610408916103e891602001610a8c565b604051602081830303815290604052805190602001208260e001516106ab565b805160405161043e9161041d91602001610be8565b604051602081830303815290604052805190602001208261010001516106ab565b80516040516104749161045391602001610b06565b604051602081830303815290604052805190602001208261012001516106ab565b80516040516104aa91610489916020016109e8565b604051602081830303815290604052805190602001208261014001516106ab565b80516040516104e0916104bf91602001610a5a565b604051602081830303815290604052805190602001208261016001516106ab565b8051604051610516916104f591602001610954565b604051602081830303815290604052805190602001208261018001516106ab565b805160405161054c9161052b916020016109b7565b60405160208183030381529060405280519060200120826101a001516106ab565b80516040516105819161056191602001610a24565b6040516020818303038152906040528051906020012082602001516106bd565b80516040516105b391610596916020016108ec565b60405160208183030381529060405280519060200120600161068b565b50565b6105b3816040516020016105ca9190610985565b604051602081830303815290604052805190602001206105fe6105f7846040516020016101239190610985565b60016106eb565b6106ab565b600061060e82610633565b92915050565b600061062c8383604051602001610123929190610aca565b9392505050565b600061060e8260405160200161017291906108ec565b60009081526020819052604090205490565b60009081526003602052604090205460ff1690565b6000908152600260205260409020546001600160a01b031690565b600091825260036020526040909120805460ff1916911515919091179055565b60009182526020829052604090912055565b60009182526002602052604090912080546001600160a01b0319166001600160a01b03909216919091179055565b60008282018381101561062c5760405162461bcd60e51b81526004016107109061091d565b60405180910390fd5b604051806101c0016040528060006001600160a01b0316815260200160006001600160a01b0316815260200160001515815260200160008152602001600081526020016000815260200160008152602001600081526020016000815260200160008152602001600081526020016000815260200160008152602001600081525090565b80356001600160a01b03811681146102c557600080fd5b803580151581146102c557600080fd5b6000602082840312156107d4578081fd5b61062c8261079c565b600080604083850312156107ef578081fd5b6107f88361079c565b946020939093013593505050565b60006101c0808385031215610819578182fd5b61082281610d30565b905061082d8361079c565b815261083b6020840161079c565b602082015261084c604084016107b3565b6040820152606083810135908201526080808401359082015260a0808401359082015260c0808401359082015260e08084013590820152610100808401359082015261012080840135908201526101408084013590820152610160808401359082015261018080840135908201526101a0928301359281019290925250919050565b6001600160a01b03169052565b15159052565b901515815260200190565b60408082526006908201526565786973747360d01b60608201526001600160a01b0391909116602082015260800190565b6020808252601b908201527f536166654d6174683a206164646974696f6e206f766572666c6f770000000000604082015260600190565b60408082526006908201526571756f72756d60d01b60608201526001600160a01b0391909116602082015260800190565b60408082526007908201526631b7bab73a32b960c91b60608201526001600160a01b0391909116602082015260800190565b6040808252600690820152651c995dd85c9960d21b60608201526001600160a01b0391909116602082015260800190565b6040808252601190820152706d696e536861726573546f43726561746560781b60608201526001600160a01b0391909116602082015260800190565b6040808252600b908201526a3b37ba34b733aa37b5b2b760a91b60608201526001600160a01b0391909116602082015260800190565b60408082526007908201526670656e616c747960c81b60608201526001600160a01b0391909116602082015260800190565b6040808252601390820152726d696e4475726174696f6e496e426c6f636b7360681b60608201526001600160a01b0391909116602082015260800190565b6060808252600c908201526b71756f72756d4c616d62646160a01b60808201526001600160a01b03929092166020830152604082015260a00190565b6040808252601190820152706d696e526577617264496e53686172657360781b60608201526001600160a01b0391909116602082015260800190565b6040808252601390820152726d696e426c6f636b73466f7250656e616c747960681b60608201526001600160a01b0391909116602082015260800190565b6040808252600a908201526968617350656e616c747960b01b60608201526001600160a01b0391909116602082015260800190565b604080825260089082015267185c1c1c9bdd985b60c21b60608201526001600160a01b0391909116602082015260800190565b6040808252601290820152716d696e50656e616c7479496e53686172657360701b60608201526001600160a01b0391909116602082015260800190565b60408082526017908201527f6d6178536861726573506572546f6b656e486f6c64657200000000000000000060608201526001600160a01b0391909116602082015260800190565b60006101c082019050610c818284516108ce565b6020830151610c9360208401826108ce565b506040830151610ca660408401826108db565b50606083015160608301526080830151608083015260a083015160a083015260c083015160c083015260e083015160e08301526101008084015181840152506101208084015181840152506101408084015181840152506101608084015181840152506101808084015181840152506101a080840151818401525092915050565b90815260200190565b60405181810167ffffffffffffffff81118282101715610d4c57fe5b60405291905056fea264697066735822122038ce264bb726f5a97517cf9182c6fa45ff637024c66c5410919b38b25dd63d7c64736f6c63430007020033",
  "linkReferences": {},
  "deployedLinkReferences": {}
}