{
  "_format": "hh-sol-artifact-1",
  "contractName": "Token",
  "sourceName": "src/models/Token.sol",
  "abi": [
    {
      "inputs": [
        {
          "internalType": "address",
          "name": "_uuid",
          "type": "address"
        },
        {
          "components": [
            {
              "internalType": "address",
              "name": "daoAddress",
              "type": "address"
            },
            {
              "internalType": "address",
              "name": "balanceModelAddress",
              "type": "address"
            },
            {
              "internalType": "address",
              "name": "balanceMultipliersModelAddress",
              "type": "address"
            },
            {
              "internalType": "address",
              "name": "daoModelAddress",
              "type": "address"
            },
            {
              "internalType": "address",
              "name": "ecosystemModelAddress",
              "type": "address"
            },
            {
              "internalType": "address",
              "name": "elasticDAOFactoryAddress",
              "type": "address"
            },
            {
              "internalType": "address",
              "name": "elasticModuleModelAddress",
              "type": "address"
            },
            {
              "internalType": "address",
              "name": "tokenHolderModelAddress",
              "type": "address"
            },
            {
              "internalType": "address",
              "name": "tokenModelAddress",
              "type": "address"
            },
            {
              "internalType": "address",
              "name": "configuratorAddress",
              "type": "address"
            },
            {
              "internalType": "address",
              "name": "registratorAddress",
              "type": "address"
            },
            {
              "internalType": "address",
              "name": "governanceTokenAddress",
              "type": "address"
            }
          ],
          "internalType": "struct Ecosystem.Instance",
          "name": "_ecosystem",
          "type": "tuple"
        }
      ],
      "name": "deserialize",
      "outputs": [
        {
          "components": [
            {
              "internalType": "address",
              "name": "uuid",
              "type": "address"
            },
            {
              "internalType": "string",
              "name": "name",
              "type": "string"
            },
            {
              "internalType": "string",
              "name": "symbol",
              "type": "string"
            },
            {
              "internalType": "uint256",
              "name": "capitalDelta",
              "type": "uint256"
            },
            {
              "internalType": "uint256",
              "name": "counter",
              "type": "uint256"
            },
            {
              "internalType": "uint256",
              "name": "elasticity",
              "type": "uint256"
            },
            {
              "internalType": "uint256",
              "name": "k",
              "type": "uint256"
            },
            {
              "internalType": "uint256",
              "name": "lambda",
              "type": "uint256"
            },
            {
              "internalType": "uint256",
              "name": "m",
              "type": "uint256"
            },
            {
              "internalType": "uint256",
              "name": "maxLambdaPurchase",
              "type": "uint256"
            },
            {
              "internalType": "uint256",
              "name": "numberOfTokenHolders",
              "type": "uint256"
            },
            {
              "components": [
                {
                  "internalType": "address",
                  "name": "daoAddress",
                  "type": "address"
                },
                {
                  "internalType": "address",
                  "name": "balanceModelAddress",
                  "type": "address"
                },
                {
                  "internalType": "address",
                  "name": "balanceMultipliersModelAddress",
                  "type": "address"
                },
                {
                  "internalType": "address",
                  "name": "daoModelAddress",
                  "type": "address"
                },
                {
                  "internalType": "address",
                  "name": "ecosystemModelAddress",
                  "type": "address"
                },
                {
                  "internalType": "address",
                  "name": "elasticDAOFactoryAddress",
                  "type": "address"
                },
                {
                  "internalType": "address",
                  "name": "elasticModuleModelAddress",
                  "type": "address"
                },
                {
                  "internalType": "address",
                  "name": "tokenHolderModelAddress",
                  "type": "address"
                },
                {
                  "internalType": "address",
                  "name": "tokenModelAddress",
                  "type": "address"
                },
                {
                  "internalType": "address",
                  "name": "configuratorAddress",
                  "type": "address"
                },
                {
                  "internalType": "address",
                  "name": "registratorAddress",
                  "type": "address"
                },
                {
                  "internalType": "address",
                  "name": "governanceTokenAddress",
                  "type": "address"
                }
              ],
              "internalType": "struct Ecosystem.Instance",
              "name": "ecosystem",
              "type": "tuple"
            }
          ],
          "internalType": "struct Token.Instance",
          "name": "record",
          "type": "tuple"
        }
      ],
      "stateMutability": "view",
      "type": "function"
    },
    {
      "inputs": [
        {
          "internalType": "address",
          "name": "_uuid",
          "type": "address"
        },
        {
          "components": [
            {
              "internalType": "address",
              "name": "daoAddress",
              "type": "address"
            },
            {
              "internalType": "address",
              "name": "balanceModelAddress",
              "type": "address"
            },
            {
              "internalType": "address",
              "name": "balanceMultipliersModelAddress",
              "type": "address"
            },
            {
              "internalType": "address",
              "name": "daoModelAddress",
              "type": "address"
            },
            {
              "internalType": "address",
              "name": "ecosystemModelAddress",
              "type": "address"
            },
            {
              "internalType": "address",
              "name": "elasticDAOFactoryAddress",
              "type": "address"
            },
            {
              "internalType": "address",
              "name": "elasticModuleModelAddress",
              "type": "address"
            },
            {
              "internalType": "address",
              "name": "tokenHolderModelAddress",
              "type": "address"
            },
            {
              "internalType": "address",
              "name": "tokenModelAddress",
              "type": "address"
            },
            {
              "internalType": "address",
              "name": "configuratorAddress",
              "type": "address"
            },
            {
              "internalType": "address",
              "name": "registratorAddress",
              "type": "address"
            },
            {
              "internalType": "address",
              "name": "governanceTokenAddress",
              "type": "address"
            }
          ],
          "internalType": "struct Ecosystem.Instance",
          "name": "",
          "type": "tuple"
        }
      ],
      "name": "exists",
      "outputs": [
        {
          "internalType": "bool",
          "name": "",
          "type": "bool"
        }
      ],
      "stateMutability": "view",
      "type": "function"
    },
    {
      "inputs": [
        {
          "internalType": "address",
          "name": "_uuid",
          "type": "address"
        }
      ],
      "name": "incrementCounter",
      "outputs": [],
      "stateMutability": "nonpayable",
      "type": "function"
    },
    {
      "inputs": [
        {
          "components": [
            {
              "internalType": "address",
              "name": "uuid",
              "type": "address"
            },
            {
              "internalType": "string",
              "name": "name",
              "type": "string"
            },
            {
              "internalType": "string",
              "name": "symbol",
              "type": "string"
            },
            {
              "internalType": "uint256",
              "name": "capitalDelta",
              "type": "uint256"
            },
            {
              "internalType": "uint256",
              "name": "counter",
              "type": "uint256"
            },
            {
              "internalType": "uint256",
              "name": "elasticity",
              "type": "uint256"
            },
            {
              "internalType": "uint256",
              "name": "k",
              "type": "uint256"
            },
            {
              "internalType": "uint256",
              "name": "lambda",
              "type": "uint256"
            },
            {
              "internalType": "uint256",
              "name": "m",
              "type": "uint256"
            },
            {
              "internalType": "uint256",
              "name": "maxLambdaPurchase",
              "type": "uint256"
            },
            {
              "internalType": "uint256",
              "name": "numberOfTokenHolders",
              "type": "uint256"
            },
            {
              "components": [
                {
                  "internalType": "address",
                  "name": "daoAddress",
                  "type": "address"
                },
                {
                  "internalType": "address",
                  "name": "balanceModelAddress",
                  "type": "address"
                },
                {
                  "internalType": "address",
                  "name": "balanceMultipliersModelAddress",
                  "type": "address"
                },
                {
                  "internalType": "address",
                  "name": "daoModelAddress",
                  "type": "address"
                },
                {
                  "internalType": "address",
                  "name": "ecosystemModelAddress",
                  "type": "address"
                },
                {
                  "internalType": "address",
                  "name": "elasticDAOFactoryAddress",
                  "type": "address"
                },
                {
                  "internalType": "address",
                  "name": "elasticModuleModelAddress",
                  "type": "address"
                },
                {
                  "internalType": "address",
                  "name": "tokenHolderModelAddress",
                  "type": "address"
                },
                {
                  "internalType": "address",
                  "name": "tokenModelAddress",
                  "type": "address"
                },
                {
                  "internalType": "address",
                  "name": "configuratorAddress",
                  "type": "address"
                },
                {
                  "internalType": "address",
                  "name": "registratorAddress",
                  "type": "address"
                },
                {
                  "internalType": "address",
                  "name": "governanceTokenAddress",
                  "type": "address"
                }
              ],
              "internalType": "struct Ecosystem.Instance",
              "name": "ecosystem",
              "type": "tuple"
            }
          ],
          "internalType": "struct Token.Instance",
          "name": "record",
          "type": "tuple"
        }
      ],
      "name": "serialize",
      "outputs": [],
      "stateMutability": "nonpayable",
      "type": "function"
    },
    {
      "inputs": [
        {
          "components": [
            {
              "internalType": "address",
              "name": "uuid",
              "type": "address"
            },
            {
              "internalType": "string",
              "name": "name",
              "type": "string"
            },
            {
              "internalType": "string",
              "name": "symbol",
              "type": "string"
            },
            {
              "internalType": "uint256",
              "name": "capitalDelta",
              "type": "uint256"
            },
            {
              "internalType": "uint256",
              "name": "counter",
              "type": "uint256"
            },
            {
              "internalType": "uint256",
              "name": "elasticity",
              "type": "uint256"
            },
            {
              "internalType": "uint256",
              "name": "k",
              "type": "uint256"
            },
            {
              "internalType": "uint256",
              "name": "lambda",
              "type": "uint256"
            },
            {
              "internalType": "uint256",
              "name": "m",
              "type": "uint256"
            },
            {
              "internalType": "uint256",
              "name": "maxLambdaPurchase",
              "type": "uint256"
            },
            {
              "internalType": "uint256",
              "name": "numberOfTokenHolders",
              "type": "uint256"
            },
            {
              "components": [
                {
                  "internalType": "address",
                  "name": "daoAddress",
                  "type": "address"
                },
                {
                  "internalType": "address",
                  "name": "balanceModelAddress",
                  "type": "address"
                },
                {
                  "internalType": "address",
                  "name": "balanceMultipliersModelAddress",
                  "type": "address"
                },
                {
                  "internalType": "address",
                  "name": "daoModelAddress",
                  "type": "address"
                },
                {
                  "internalType": "address",
                  "name": "ecosystemModelAddress",
                  "type": "address"
                },
                {
                  "internalType": "address",
                  "name": "elasticDAOFactoryAddress",
                  "type": "address"
                },
                {
                  "internalType": "address",
                  "name": "elasticModuleModelAddress",
                  "type": "address"
                },
                {
                  "internalType": "address",
                  "name": "tokenHolderModelAddress",
                  "type": "address"
                },
                {
                  "internalType": "address",
                  "name": "tokenModelAddress",
                  "type": "address"
                },
                {
                  "internalType": "address",
                  "name": "configuratorAddress",
                  "type": "address"
                },
                {
                  "internalType": "address",
                  "name": "registratorAddress",
                  "type": "address"
                },
                {
                  "internalType": "address",
                  "name": "governanceTokenAddress",
                  "type": "address"
                }
              ],
              "internalType": "struct Ecosystem.Instance",
              "name": "ecosystem",
              "type": "tuple"
            }
          ],
          "internalType": "struct Token.Instance",
          "name": "record",
          "type": "tuple"
        },
        {
          "internalType": "uint256",
          "name": "numberOfTokenHolders",
          "type": "uint256"
        }
      ],
      "name": "updateNumberOfTokenHolders",
      "outputs": [],
      "stateMutability": "nonpayable",
      "type": "function"
    }
  ],
  "bytecode": "0x608060405234801561001057600080fd5b50611018806100206000396000f3fe608060405234801561001057600080fd5b50600436106100575760003560e01c80631a2861fb1461005c57806340162cac14610085578063a51590981461009a578063e5910ae7146100ba578063f716add5146100cd575b600080fd5b61006f61006a366004610a47565b6100e0565b60405161007c9190610ef0565b60405180910390f35b610098610093366004610ab6565b61024f565b005b6100ad6100a8366004610a47565b610284565b60405161007c9190610e77565b6100986100c8366004610a2d565b610296565b6100986100db366004610a7b565b6102e8565b6100e8610678565b6001600160a01b03831681526101608101829052610105836104c7565b15610249576101398360405160200161011e9190610d40565b60405160208183030381529060405280519060200120610500565b60608201526040516101539061011e908590602001610d0d565b608082015260405161016d9061011e908590602001610de7565b60a08201526040516101879061011e908590602001610e4a565b60c08201526040516101a19061011e908590602001610c9b565b60e08201526040516101bb9061011e908590602001610e1d565b6101008201526040516101d69061011e908590602001610d78565b61012082015260405161020c906101f1908590602001610c6b565b60405160208183030381529060405280519060200120610512565b81602001819052506102288360405160200161011e9190610ccd565b610140820152604051610243906101f1908590602001610db5565b60408201525b92915050565b81516040516102809161026491602001610ccd565b60405160208183030381529060405280519060200120826105e8565b5050565b600061028f836104c7565b9392505050565b60006102ac8260405160200161011e9190610d0d565b9050610280826040516020016102c29190610d0d565b604051602081830303815290604052805190602001206102e38360016105fa565b6105e8565b805160405161031d916102fd91602001610c6b565b60405160208183030381529060405280519060200120826020015161061f565b80516040516103529161033291602001610db5565b60405160208183030381529060405280519060200120826040015161061f565b80516040516103879161036791602001610d40565b6040516020818303038152906040528051906020012082606001516105e8565b80516040516103bc9161039c91602001610de7565b604051602081830303815290604052805190602001208260a001516105e8565b80516040516103f1916103d191602001610e4a565b604051602081830303815290604052805190602001208260c001516105e8565b80516040516104269161040691602001610c9b565b604051602081830303815290604052805190602001208260e001516105e8565b805160405161045c9161043b91602001610e1d565b604051602081830303815290604052805190602001208261010001516105e8565b80516040516104929161047191602001610d78565b604051602081830303815290604052805190602001208261012001516105e8565b80516040516104c4916104a791602001610c39565b604051602081830303815290604052805190602001206001610643565b50565b60006104f8826040516020016104dd9190610c39565b60405160208183030381529060405280519060200120610663565b90505b919050565b60009081526020819052604090205490565b60608160001a60f81b6001600160f81b03191661054a5760405162461bcd60e51b815260040161054190610eb9565b60405180910390fd5b60008281526001602081815260409283902080548451600294821615610100026000190190911693909304601f81018390048302840183019094528383529192908301828280156105dc5780601f106105b1576101008083540402835291602001916105dc565b820191906000526020600020905b8154815290600101906020018083116105bf57829003601f168201915b50505050509050919050565b60009182526020829052604090912055565b60008282018381101561028f5760405162461bcd60e51b815260040161054190610e82565b6000828152600160209081526040909120825161063e928401906106e7565b505050565b600091825260036020526040909120805460ff1916911515919091179055565b60009081526003602052604090205460ff1690565b60405180610180016040528060006001600160a01b03168152602001606081526020016060815260200160008152602001600081526020016000815260200160008152602001600081526020016000815260200160008152602001600081526020016106e2610765565b905290565b828054600181600116156101000203166002900490600052602060002090601f016020900481019282601f1061072857805160ff1916838001178555610755565b82800160010185558215610755579182015b8281111561075557825182559160200191906001019061073a565b506107619291506107c9565b5090565b6040805161018081018252600080825260208201819052918101829052606081018290526080810182905260a0810182905260c0810182905260e0810182905261010081018290526101208101829052610140810182905261016081019190915290565b5b8082111561076157600081556001016107ca565b80356001600160a01b03811681146104fb57600080fd5b600082601f830112610805578081fd5b813567ffffffffffffffff81111561081957fe5b61082c601f8201601f1916602001610fbe565b915080825283602082850101111561084357600080fd5b8060208401602084013760009082016020015292915050565b600061018080838503121561086f578182fd5b61087881610fbe565b915050610884826107de565b8152610892602083016107de565b60208201526108a3604083016107de565b60408201526108b4606083016107de565b60608201526108c5608083016107de565b60808201526108d660a083016107de565b60a08201526108e760c083016107de565b60c08201526108f860e083016107de565b60e082015261010061090b8184016107de565b9082015261012061091d8382016107de565b9082015261014061092f8382016107de565b908201526101606109418382016107de565b9082015292915050565b60006102e0828403121561095d578081fd5b610968610180610fbe565b9050610973826107de565b8152602082013567ffffffffffffffff8082111561099057600080fd5b61099c858386016107f5565b602084015260408401359150808211156109b557600080fd5b506109c2848285016107f5565b604083015250606082013560608201526080820135608082015260a082013560a082015260c082013560c082015260e082013560e08201526101008083013581830152506101208083013581830152506101408083013581830152506101606109418482850161085c565b600060208284031215610a3e578081fd5b61028f826107de565b6000806101a08385031215610a5a578081fd5b610a63836107de565b9150610a72846020850161085c565b90509250929050565b600060208284031215610a8c578081fd5b813567ffffffffffffffff811115610aa2578182fd5b610aae8482850161094b565b949350505050565b60008060408385031215610ac8578182fd5b823567ffffffffffffffff811115610ade578283fd5b610aea8582860161094b565b95602094909401359450505050565b6001600160a01b03169052565b60008151808452815b81811015610b2b57602081850181015186830182015201610b0f565b81811115610b3c5782602083870101525b50601f01601f19169290920160200192915050565b610b5c828251610af9565b6020810151610b6e6020840182610af9565b506040810151610b816040840182610af9565b506060810151610b946060840182610af9565b506080810151610ba76080840182610af9565b5060a0810151610bba60a0840182610af9565b5060c0810151610bcd60c0840182610af9565b5060e0810151610be060e0840182610af9565b5061010080820151610bf482850182610af9565b505061012080820151610c0982850182610af9565b505061014080820151610c1e82850182610af9565b505061016080820151610c3382850182610af9565b50505050565b6001600160a01b039190911681526040602082018190526006908201526565786973747360d01b606082015260800190565b6001600160a01b03919091168152604060208201819052600490820152636e616d6560e01b606082015260800190565b6001600160a01b03919091168152604060208201819052600690820152656c616d62646160d01b606082015260800190565b6001600160a01b03919091168152604060208201819052601490820152736e756d6265724f66546f6b656e486f6c6465727360601b606082015260800190565b6001600160a01b039190911681526040602082018190526007908201526631b7bab73a32b960c91b606082015260800190565b6001600160a01b03919091168152604060208201819052600c908201526b6361706974616c44656c746160a01b606082015260800190565b6001600160a01b03919091168152604060208201819052601190820152706d61784c616d626461507572636861736560781b606082015260800190565b6001600160a01b03919091168152604060208201819052600690820152651cde5b589bdb60d21b606082015260800190565b6001600160a01b03919091168152604060208201819052600a9082015269656c617374696369747960b01b606082015260800190565b6001600160a01b03919091168152604060208201819052600190820152606d60f81b606082015260800190565b6001600160a01b03919091168152604060208201819052600190820152606b60f81b606082015260800190565b901515815260200190565b6020808252601b908201527f536166654d6174683a206164646974696f6e206f766572666c6f770000000000604082015260600190565b60208082526018908201527f456c617374696344414f3a205a65726f20416464726573730000000000000000604082015260600190565b600060208252610f04602083018451610af9565b60208301516102e06040840152610f1f610300840182610b06565b90506040840151601f19848303016060850152610f3c8282610b06565b91505060608401516080840152608084015160a084015260a084015160c084015260c084015160e084015260e0840151610100818186015280860151915050610120818186015280860151915050610140818186015280860151915050610160818186015280860151915050610fb6610180850182610b51565b509392505050565b60405181810167ffffffffffffffff81118282101715610fda57fe5b60405291905056fea26469706673582212205232f80295ca7341d890b24ed063ce99c8b0c229bfad9f1bceb9652d6be61c3f64736f6c63430007020033",
  "linkReferences": {},
  "deployedLinkReferences": {}
}