{
  "_format": "hh-sol-artifact-1",
  "contractName": "TokenHolder",
  "sourceName": "src/models/TokenHolder.sol",
  "abi": [
    {
      "inputs": [
        {
          "internalType": "address",
          "name": "_account",
          "type": "address"
        },
        {
          "components": [
            {
              "internalType": "address",
              "name": "daoAddress",
              "type": "address"
            },
            {
              "internalType": "address",
              "name": "balanceModelAddress",
              "type": "address"
            },
            {
              "internalType": "address",
              "name": "balanceMultipliersModelAddress",
              "type": "address"
            },
            {
              "internalType": "address",
              "name": "daoModelAddress",
              "type": "address"
            },
            {
              "internalType": "address",
              "name": "ecosystemModelAddress",
              "type": "address"
            },
            {
              "internalType": "address",
              "name": "elasticDAOFactoryAddress",
              "type": "address"
            },
            {
              "internalType": "address",
              "name": "elasticModuleModelAddress",
              "type": "address"
            },
            {
              "internalType": "address",
              "name": "tokenHolderModelAddress",
              "type": "address"
            },
            {
              "internalType": "address",
              "name": "tokenModelAddress",
              "type": "address"
            },
            {
              "internalType": "address",
              "name": "configuratorAddress",
              "type": "address"
            },
            {
              "internalType": "address",
              "name": "registratorAddress",
              "type": "address"
            },
            {
              "internalType": "address",
              "name": "governanceTokenAddress",
              "type": "address"
            }
          ],
          "internalType": "struct Ecosystem.Instance",
          "name": "_ecosystem",
          "type": "tuple"
        },
        {
          "components": [
            {
              "internalType": "address",
              "name": "uuid",
              "type": "address"
            },
            {
              "internalType": "string",
              "name": "name",
              "type": "string"
            },
            {
              "internalType": "string",
              "name": "symbol",
              "type": "string"
            },
            {
              "internalType": "uint256",
              "name": "capitalDelta",
              "type": "uint256"
            },
            {
              "internalType": "uint256",
              "name": "counter",
              "type": "uint256"
            },
            {
              "internalType": "uint256",
              "name": "elasticity",
              "type": "uint256"
            },
            {
              "internalType": "uint256",
              "name": "k",
              "type": "uint256"
            },
            {
              "internalType": "uint256",
              "name": "lambda",
              "type": "uint256"
            },
            {
              "internalType": "uint256",
              "name": "m",
              "type": "uint256"
            },
            {
              "internalType": "uint256",
              "name": "maxLambdaPurchase",
              "type": "uint256"
            },
            {
              "internalType": "uint256",
              "name": "numberOfTokenHolders",
              "type": "uint256"
            },
            {
              "components": [
                {
                  "internalType": "address",
                  "name": "daoAddress",
                  "type": "address"
                },
                {
                  "internalType": "address",
                  "name": "balanceModelAddress",
                  "type": "address"
                },
                {
                  "internalType": "address",
                  "name": "balanceMultipliersModelAddress",
                  "type": "address"
                },
                {
                  "internalType": "address",
                  "name": "daoModelAddress",
                  "type": "address"
                },
                {
                  "internalType": "address",
                  "name": "ecosystemModelAddress",
                  "type": "address"
                },
                {
                  "internalType": "address",
                  "name": "elasticDAOFactoryAddress",
                  "type": "address"
                },
                {
                  "internalType": "address",
                  "name": "elasticModuleModelAddress",
                  "type": "address"
                },
                {
                  "internalType": "address",
                  "name": "tokenHolderModelAddress",
                  "type": "address"
                },
                {
                  "internalType": "address",
                  "name": "tokenModelAddress",
                  "type": "address"
                },
                {
                  "internalType": "address",
                  "name": "configuratorAddress",
                  "type": "address"
                },
                {
                  "internalType": "address",
                  "name": "registratorAddress",
                  "type": "address"
                },
                {
                  "internalType": "address",
                  "name": "governanceTokenAddress",
                  "type": "address"
                }
              ],
              "internalType": "struct Ecosystem.Instance",
              "name": "ecosystem",
              "type": "tuple"
            }
          ],
          "internalType": "struct Token.Instance",
          "name": "_token",
          "type": "tuple"
        }
      ],
      "name": "deserialize",
      "outputs": [
        {
          "components": [
            {
              "internalType": "address",
              "name": "account",
              "type": "address"
            },
            {
              "internalType": "uint256",
              "name": "counter",
              "type": "uint256"
            },
            {
              "internalType": "uint256",
              "name": "lambda",
              "type": "uint256"
            },
            {
              "components": [
                {
                  "internalType": "address",
                  "name": "daoAddress",
                  "type": "address"
                },
                {
                  "internalType": "address",
                  "name": "balanceModelAddress",
                  "type": "address"
                },
                {
                  "internalType": "address",
                  "name": "balanceMultipliersModelAddress",
                  "type": "address"
                },
                {
                  "internalType": "address",
                  "name": "daoModelAddress",
                  "type": "address"
                },
                {
                  "internalType": "address",
                  "name": "ecosystemModelAddress",
                  "type": "address"
                },
                {
                  "internalType": "address",
                  "name": "elasticDAOFactoryAddress",
                  "type": "address"
                },
                {
                  "internalType": "address",
                  "name": "elasticModuleModelAddress",
                  "type": "address"
                },
                {
                  "internalType": "address",
                  "name": "tokenHolderModelAddress",
                  "type": "address"
                },
                {
                  "internalType": "address",
                  "name": "tokenModelAddress",
                  "type": "address"
                },
                {
                  "internalType": "address",
                  "name": "configuratorAddress",
                  "type": "address"
                },
                {
                  "internalType": "address",
                  "name": "registratorAddress",
                  "type": "address"
                },
                {
                  "internalType": "address",
                  "name": "governanceTokenAddress",
                  "type": "address"
                }
              ],
              "internalType": "struct Ecosystem.Instance",
              "name": "ecosystem",
              "type": "tuple"
            },
            {
              "components": [
                {
                  "internalType": "address",
                  "name": "uuid",
                  "type": "address"
                },
                {
                  "internalType": "string",
                  "name": "name",
                  "type": "string"
                },
                {
                  "internalType": "string",
                  "name": "symbol",
                  "type": "string"
                },
                {
                  "internalType": "uint256",
                  "name": "capitalDelta",
                  "type": "uint256"
                },
                {
                  "internalType": "uint256",
                  "name": "counter",
                  "type": "uint256"
                },
                {
                  "internalType": "uint256",
                  "name": "elasticity",
                  "type": "uint256"
                },
                {
                  "internalType": "uint256",
                  "name": "k",
                  "type": "uint256"
                },
                {
                  "internalType": "uint256",
                  "name": "lambda",
                  "type": "uint256"
                },
                {
                  "internalType": "uint256",
                  "name": "m",
                  "type": "uint256"
                },
                {
                  "internalType": "uint256",
                  "name": "maxLambdaPurchase",
                  "type": "uint256"
                },
                {
                  "internalType": "uint256",
                  "name": "numberOfTokenHolders",
                  "type": "uint256"
                },
                {
                  "components": [
                    {
                      "internalType": "address",
                      "name": "daoAddress",
                      "type": "address"
                    },
                    {
                      "internalType": "address",
                      "name": "balanceModelAddress",
                      "type": "address"
                    },
                    {
                      "internalType": "address",
                      "name": "balanceMultipliersModelAddress",
                      "type": "address"
                    },
                    {
                      "internalType": "address",
                      "name": "daoModelAddress",
                      "type": "address"
                    },
                    {
                      "internalType": "address",
                      "name": "ecosystemModelAddress",
                      "type": "address"
                    },
                    {
                      "internalType": "address",
                      "name": "elasticDAOFactoryAddress",
                      "type": "address"
                    },
                    {
                      "internalType": "address",
                      "name": "elasticModuleModelAddress",
                      "type": "address"
                    },
                    {
                      "internalType": "address",
                      "name": "tokenHolderModelAddress",
                      "type": "address"
                    },
                    {
                      "internalType": "address",
                      "name": "tokenModelAddress",
                      "type": "address"
                    },
                    {
                      "internalType": "address",
                      "name": "configuratorAddress",
                      "type": "address"
                    },
                    {
                      "internalType": "address",
                      "name": "registratorAddress",
                      "type": "address"
                    },
                    {
                      "internalType": "address",
                      "name": "governanceTokenAddress",
                      "type": "address"
                    }
                  ],
                  "internalType": "struct Ecosystem.Instance",
                  "name": "ecosystem",
                  "type": "tuple"
                }
              ],
              "internalType": "struct Token.Instance",
              "name": "token",
              "type": "tuple"
            }
          ],
          "internalType": "struct TokenHolder.Instance",
          "name": "record",
          "type": "tuple"
        }
      ],
      "stateMutability": "view",
      "type": "function"
    },
    {
      "inputs": [
        {
          "internalType": "address",
          "name": "_account",
          "type": "address"
        },
        {
          "components": [
            {
              "internalType": "address",
              "name": "daoAddress",
              "type": "address"
            },
            {
              "internalType": "address",
              "name": "balanceModelAddress",
              "type": "address"
            },
            {
              "internalType": "address",
              "name": "balanceMultipliersModelAddress",
              "type": "address"
            },
            {
              "internalType": "address",
              "name": "daoModelAddress",
              "type": "address"
            },
            {
              "internalType": "address",
              "name": "ecosystemModelAddress",
              "type": "address"
            },
            {
              "internalType": "address",
              "name": "elasticDAOFactoryAddress",
              "type": "address"
            },
            {
              "internalType": "address",
              "name": "elasticModuleModelAddress",
              "type": "address"
            },
            {
              "internalType": "address",
              "name": "tokenHolderModelAddress",
              "type": "address"
            },
            {
              "internalType": "address",
              "name": "tokenModelAddress",
              "type": "address"
            },
            {
              "internalType": "address",
              "name": "configuratorAddress",
              "type": "address"
            },
            {
              "internalType": "address",
              "name": "registratorAddress",
              "type": "address"
            },
            {
              "internalType": "address",
              "name": "governanceTokenAddress",
              "type": "address"
            }
          ],
          "internalType": "struct Ecosystem.Instance",
          "name": "_ecosystem",
          "type": "tuple"
        },
        {
          "components": [
            {
              "internalType": "address",
              "name": "uuid",
              "type": "address"
            },
            {
              "internalType": "string",
              "name": "name",
              "type": "string"
            },
            {
              "internalType": "string",
              "name": "symbol",
              "type": "string"
            },
            {
              "internalType": "uint256",
              "name": "capitalDelta",
              "type": "uint256"
            },
            {
              "internalType": "uint256",
              "name": "counter",
              "type": "uint256"
            },
            {
              "internalType": "uint256",
              "name": "elasticity",
              "type": "uint256"
            },
            {
              "internalType": "uint256",
              "name": "k",
              "type": "uint256"
            },
            {
              "internalType": "uint256",
              "name": "lambda",
              "type": "uint256"
            },
            {
              "internalType": "uint256",
              "name": "m",
              "type": "uint256"
            },
            {
              "internalType": "uint256",
              "name": "maxLambdaPurchase",
              "type": "uint256"
            },
            {
              "internalType": "uint256",
              "name": "numberOfTokenHolders",
              "type": "uint256"
            },
            {
              "components": [
                {
                  "internalType": "address",
                  "name": "daoAddress",
                  "type": "address"
                },
                {
                  "internalType": "address",
                  "name": "balanceModelAddress",
                  "type": "address"
                },
                {
                  "internalType": "address",
                  "name": "balanceMultipliersModelAddress",
                  "type": "address"
                },
                {
                  "internalType": "address",
                  "name": "daoModelAddress",
                  "type": "address"
                },
                {
                  "internalType": "address",
                  "name": "ecosystemModelAddress",
                  "type": "address"
                },
                {
                  "internalType": "address",
                  "name": "elasticDAOFactoryAddress",
                  "type": "address"
                },
                {
                  "internalType": "address",
                  "name": "elasticModuleModelAddress",
                  "type": "address"
                },
                {
                  "internalType": "address",
                  "name": "tokenHolderModelAddress",
                  "type": "address"
                },
                {
                  "internalType": "address",
                  "name": "tokenModelAddress",
                  "type": "address"
                },
                {
                  "internalType": "address",
                  "name": "configuratorAddress",
                  "type": "address"
                },
                {
                  "internalType": "address",
                  "name": "registratorAddress",
                  "type": "address"
                },
                {
                  "internalType": "address",
                  "name": "governanceTokenAddress",
                  "type": "address"
                }
              ],
              "internalType": "struct Ecosystem.Instance",
              "name": "ecosystem",
              "type": "tuple"
            }
          ],
          "internalType": "struct Token.Instance",
          "name": "_token",
          "type": "tuple"
        }
      ],
      "name": "exists",
      "outputs": [
        {
          "internalType": "bool",
          "name": "recordExists",
          "type": "bool"
        }
      ],
      "stateMutability": "view",
      "type": "function"
    },
    {
      "inputs": [
        {
          "components": [
            {
              "internalType": "address",
              "name": "account",
              "type": "address"
            },
            {
              "internalType": "uint256",
              "name": "counter",
              "type": "uint256"
            },
            {
              "internalType": "uint256",
              "name": "lambda",
              "type": "uint256"
            },
            {
              "components": [
                {
                  "internalType": "address",
                  "name": "daoAddress",
                  "type": "address"
                },
                {
                  "internalType": "address",
                  "name": "balanceModelAddress",
                  "type": "address"
                },
                {
                  "internalType": "address",
                  "name": "balanceMultipliersModelAddress",
                  "type": "address"
                },
                {
                  "internalType": "address",
                  "name": "daoModelAddress",
                  "type": "address"
                },
                {
                  "internalType": "address",
                  "name": "ecosystemModelAddress",
                  "type": "address"
                },
                {
                  "internalType": "address",
                  "name": "elasticDAOFactoryAddress",
                  "type": "address"
                },
                {
                  "internalType": "address",
                  "name": "elasticModuleModelAddress",
                  "type": "address"
                },
                {
                  "internalType": "address",
                  "name": "tokenHolderModelAddress",
                  "type": "address"
                },
                {
                  "internalType": "address",
                  "name": "tokenModelAddress",
                  "type": "address"
                },
                {
                  "internalType": "address",
                  "name": "configuratorAddress",
                  "type": "address"
                },
                {
                  "internalType": "address",
                  "name": "registratorAddress",
                  "type": "address"
                },
                {
                  "internalType": "address",
                  "name": "governanceTokenAddress",
                  "type": "address"
                }
              ],
              "internalType": "struct Ecosystem.Instance",
              "name": "ecosystem",
              "type": "tuple"
            },
            {
              "components": [
                {
                  "internalType": "address",
                  "name": "uuid",
                  "type": "address"
                },
                {
                  "internalType": "string",
                  "name": "name",
                  "type": "string"
                },
                {
                  "internalType": "string",
                  "name": "symbol",
                  "type": "string"
                },
                {
                  "internalType": "uint256",
                  "name": "capitalDelta",
                  "type": "uint256"
                },
                {
                  "internalType": "uint256",
                  "name": "counter",
                  "type": "uint256"
                },
                {
                  "internalType": "uint256",
                  "name": "elasticity",
                  "type": "uint256"
                },
                {
                  "internalType": "uint256",
                  "name": "k",
                  "type": "uint256"
                },
                {
                  "internalType": "uint256",
                  "name": "lambda",
                  "type": "uint256"
                },
                {
                  "internalType": "uint256",
                  "name": "m",
                  "type": "uint256"
                },
                {
                  "internalType": "uint256",
                  "name": "maxLambdaPurchase",
                  "type": "uint256"
                },
                {
                  "internalType": "uint256",
                  "name": "numberOfTokenHolders",
                  "type": "uint256"
                },
                {
                  "components": [
                    {
                      "internalType": "address",
                      "name": "daoAddress",
                      "type": "address"
                    },
                    {
                      "internalType": "address",
                      "name": "balanceModelAddress",
                      "type": "address"
                    },
                    {
                      "internalType": "address",
                      "name": "balanceMultipliersModelAddress",
                      "type": "address"
                    },
                    {
                      "internalType": "address",
                      "name": "daoModelAddress",
                      "type": "address"
                    },
                    {
                      "internalType": "address",
                      "name": "ecosystemModelAddress",
                      "type": "address"
                    },
                    {
                      "internalType": "address",
                      "name": "elasticDAOFactoryAddress",
                      "type": "address"
                    },
                    {
                      "internalType": "address",
                      "name": "elasticModuleModelAddress",
                      "type": "address"
                    },
                    {
                      "internalType": "address",
                      "name": "tokenHolderModelAddress",
                      "type": "address"
                    },
                    {
                      "internalType": "address",
                      "name": "tokenModelAddress",
                      "type": "address"
                    },
                    {
                      "internalType": "address",
                      "name": "configuratorAddress",
                      "type": "address"
                    },
                    {
                      "internalType": "address",
                      "name": "registratorAddress",
                      "type": "address"
                    },
                    {
                      "internalType": "address",
                      "name": "governanceTokenAddress",
                      "type": "address"
                    }
                  ],
                  "internalType": "struct Ecosystem.Instance",
                  "name": "ecosystem",
                  "type": "tuple"
                }
              ],
              "internalType": "struct Token.Instance",
              "name": "token",
              "type": "tuple"
            }
          ],
          "internalType": "struct TokenHolder.Instance",
          "name": "record",
          "type": "tuple"
        }
      ],
      "name": "serialize",
      "outputs": [],
      "stateMutability": "nonpayable",
      "type": "function"
    }
  ],
  "bytecode": "0x608060405234801561001057600080fd5b50610a6c806100206000396000f3fe608060405234801561001057600080fd5b50600436106100415760003560e01c80632d304ccf14610046578063b91b34e11461005b578063fa6865c614610084575b600080fd5b61005961005436600461065c565b6100a4565b005b61006e6100693660046105fd565b61015b565b60405161007b91906108f7565b60405180910390f35b6100976100923660046105fd565b610171565b60405161007b9190610902565b60808101515181516040516100e1926100c19290916020016108be565b60405160208183030381529060405280519060200120826020015161020a565b608081015151815160405161011e926100fe929091602001610886565b60405160208183030381529060405280519060200120826040015161020a565b60808101515181516040516101589261013b92909160200161084e565b60405160208183030381529060405280519060200120600161021c565b50565b6000610167848361023c565b90505b9392505050565b61017961029d565b6001600160a01b0384168152606081018390526080810182905261019d848361023c565b1561016a5760808101515181516040516101da926101bf9290916020016108be565b60405160208183030381529060405280519060200120610273565b60208083019190915260808201515182516040516101fe936101bf93929101610886565b60408201529392505050565b60009182526020829052604090912055565b600091825260036020526040909120805460ff1916911515919091179055565b600061016a82600001518460405160200161025892919061084e565b60405160208183030381529060405280519060200120610288565b6000818152602081905260409020545b919050565b60009081526003602052604090205460ff1690565b6040518060a0016040528060006001600160a01b0316815260200160008152602001600081526020016102ce6102e0565b81526020016102db610344565b905290565b6040805161018081018252600080825260208201819052918101829052606081018290526080810182905260a0810182905260c0810182905260e0810182905261010081018290526101208101829052610140810182905261016081019190915290565b60405180610180016040528060006001600160a01b03168152602001606081526020016060815260200160008152602001600081526020016000815260200160008152602001600081526020016000815260200160008152602001600081526020016102db6102e0565b80356001600160a01b038116811461028357600080fd5b600082601f8301126103d5578081fd5b813567ffffffffffffffff8111156103e957fe5b6103fc601f8201601f1916602001610a12565b915080825283602082850101111561041357600080fd5b8060208401602084013760009082016020015292915050565b600061018080838503121561043f578182fd5b61044881610a12565b915050610454826103ae565b8152610462602083016103ae565b6020820152610473604083016103ae565b6040820152610484606083016103ae565b6060820152610495608083016103ae565b60808201526104a660a083016103ae565b60a08201526104b760c083016103ae565b60c08201526104c860e083016103ae565b60e08201526101006104db8184016103ae565b908201526101206104ed8382016103ae565b908201526101406104ff8382016103ae565b908201526101606105118382016103ae565b9082015292915050565b60006102e0828403121561052d578081fd5b610538610180610a12565b9050610543826103ae565b8152602082013567ffffffffffffffff8082111561056057600080fd5b61056c858386016103c5565b6020840152604084013591508082111561058557600080fd5b50610592848285016103c5565b604083015250606082013560608201526080820135608082015260a082013560a082015260c082013560c082015260e082013560e08201526101008083013581830152506101208083013581830152506101408083013581830152506101606105118482850161042c565b60008060006101c08486031215610612578283fd5b61061b846103ae565b925061062a856020860161042c565b91506101a084013567ffffffffffffffff811115610646578182fd5b6106528682870161051b565b9150509250925092565b60006020828403121561066d578081fd5b813567ffffffffffffffff80821115610684578283fd5b908301906102008286031215610698578283fd5b60405160a0810181811083821117156106ad57fe5b6040526106b9836103ae565b815260208301356020820152604083013560408201526106dc866060850161042c565b60608201526101e0830135828111156106f3578485fd5b6106ff8782860161051b565b60808301525095945050505050565b6001600160a01b03169052565b60008151808452815b8181101561074057602081850181015186830182015201610724565b818111156107515782602083870101525b50601f01601f19169290920160200192915050565b61077182825161070e565b6020810151610783602084018261070e565b506040810151610796604084018261070e565b5060608101516107a9606084018261070e565b5060808101516107bc608084018261070e565b5060a08101516107cf60a084018261070e565b5060c08101516107e260c084018261070e565b5060e08101516107f560e084018261070e565b50610100808201516108098285018261070e565b50506101208082015161081e8285018261070e565b5050610140808201516108338285018261070e565b5050610160808201516108488285018261070e565b50505050565b6001600160a01b039283168152911660208201526060604082018190526006908201526565786973747360d01b608082015260a00190565b6001600160a01b03928316815291166020820152606060408201819052600690820152656c616d62646160d01b608082015260a00190565b6001600160a01b039283168152911660208201526060604082018190526007908201526631b7bab73a32b960c91b608082015260a00190565b901515815260200190565b60006020825260018060a01b0383511660208301526020830151604083015260408301516060830152606083015161093d6080840182610766565b50608083015161020080818501525061095b6102208401825161070e565b60208101516102e08061024086015261097861050086018361071b565b9150604083015161021f1986840301610260870152610997838261071b565b925050606083015161028086015260808301516102a086015260a08301516102c086015260c0830151818601525060e08201516103008501526101008201516103208501526101208201516103408501526101408201516103608501526101608201519150610a0a610380850183610766565b949350505050565b60405181810167ffffffffffffffff81118282101715610a2e57fe5b60405291905056fea264697066735822122042660e93605c07ad36db78dd7e0c7aaa3567c122132294ecbcccce1957f90f2464736f6c63430007020033",
  "linkReferences": {},
  "deployedLinkReferences": {}
}